:020000040800F2
:10000000B814002045010008E14900081F3F00081E
:100010002D490008F5100008C5590008000000002F
:100020000000000000000000000000005701000870
:1000300061170008000000005B010008255200085D
:100040005F0100085F0100085F0100085F01000810
:100050005F0100085F0100085F0100085F01000800
:100060005F0100085F0100085F0100085F010008F0
:100070005F0100085F0100085F0100085F010008E0
:100080005F0100085F0100085F0100085F010008D0
:100090005F0100085F0100085F0100085F010008C0
:1000A0005F0100085F0100085F010008D9520008E5
:1000B0005F0100085F0100085F0100081D400008A3
:1000C000114000085F0100085F0100086D4B000847
:1000D0005F010008B95900085F0100085F010008CE
:1000E0005F0100085F0100085F0100085F01000870
:1000F0005F0100085F0100085F0100085F01000860
:100100005F0100085F0100085F0100085F0100084F
:100110005F0100085F0100085F0100085F0100083F
:100120005F0100085F0100085F0100085F0100082F
:10013000DFF80CD000F076FB00480047B5620008FD
:10014000B81400200648804706480047FEE7FEE74F
:10015000FEE7FEE7FEE7FEE7FEE7FEE7FEE7FEE777
:100160009152000831010008202A04DB203A21FACC
:1001700002F00021704721FA02F3D040C2F12002C0
:10018000914008431946704740EA01039B0703D09A
:1001900009E008C9121F08C0042AFAD203E011F8C6
:1001A000013B00F8013B521EF9D27047421C10F887
:1001B000011B0029FBD1801A704780EA010210B5AB
:1001C00002F00043400022D04A001FD0010E01EB94
:1001D0001261C0F35600C2F3560240F4000042F42C
:1001E0000002A0FB022000047F39140400D0401C50
:1001F00050EA124001D44000491EC2B20C0604EB82
:10020000D010401C4008802A02D003E0002010BD1E
:1002100020F00100002900DA0020184310BD70B55D
:1002200021F0004303430CD0C1F30A550024D5EB61
:10023000040564EB0403D617AD1AB34102DB0020BA
:10024000014670BD201841EB025170BD0EB5C10FC3
:1002500080EAE0700844CA07002140F233438DE889
:100260000E000A460B4600F0D7F803B000BD00F0C0
:10027000004220F00040C10DC0F3160040F4000021
:100280007F2901DA00207047962903DCC1F196012D
:10029000C84001E096398840002AF4D040427047B7
:1002A00000F0004230F000400AD0C10D01F560714D
:1002B000C0F3160042EA0151C208400711437047DB
:1002C00000200146704701F0004330B421F00041A6
:1002D00050EA010206D00A0DA2F56072C1F31301C3
:1002E000002A02DC30BC00207047440F44EAC104FD
:1002F000C100E01830BC00EBC25000F047B830B588
:100300000B46014600202022012409E021FA02F5D3
:100310009D4205D303FA02F5491B04FA02F528446D
:10032000151EA2F10102F1DC30BD2DE9F05F05469A
:10033000002092469B4688460646814640241BE0A4
:100340002846414647462246FFF70EFF53465A4687
:10035000C01A914110D311461846224600F074FA93
:100360002D1A67EB01084F4622460120002100F0BC
:100370006BFA17EB00094E41201EA4F10104DFDCEB
:10038000484631462A464346BDE8F09F0029A8BFAB
:100390007047401C490008BF20F00100704710B4AE
:1003A000B0FA80FC00FA0CF050EA010404BF10BC63
:1003B000704749B1CCF1200421FA04F411FA0CF190
:1003C00018BF012121430843A3EB0C01CB1D4FEAC9
:1003D00000614FEA102042BF002010BC704700EBC4
:1003E000C35010440029A4BF10BC7047401C4900F2
:1003F00008BF20F0010010BC704710B5141E73F147
:10040000000408DA401C41F1000192185B411A43D4
:1004100001D120F0010010BD2DE9F04D92469B4620
:1004200011B1B1FA81F202E0B0FA80F220329046C6
:1004300000F00AFA04460F4640EA0A0041EA0B01BE
:1004400053465A46084313D0114653EA010019D0C7
:10045000C8F140025046FFF787FE05460E4650465B
:100460005946424600F0F0F9084305D0012004E067
:1004700020463946BDE8F08D0020054346EAE07687
:100480002C4337430A986305E40AA0EB08000022D6
:10049000FD0A44EA47540A3002D500200146E9E744
:1004A000010510196941DDE9084500196941BDE8F8
:1004B000F04DA2E72DE9FE4F804681EA0300C00F10
:1004C0000C46009021F0004123F00045B8EB0200FB
:1004D000A94105D24046214690461C460B4602469D
:1004E00023F00040104347D0270DC7F30A00C3F3A1
:1004F0000A510290401A019040286BDAC3F31300AE
:1005000040F4801B0098924620B10023D2EB030AEE
:1005100063EB0B0B01985946C0F14002504600F0C6
:1005200093F906460D4650465946019A00F09BF94C
:1005300010EB08006141002487EA115284EAE77356
:100540001A4340D0009A62B3019A012A4FEA075237
:1005500015DC001B61EB02014FF0004202EA07527A
:10056000CDE90042001C41F5801132462B46FFF7D1
:1005700053FF03B0BDE8F08F40462146F9E7001B6A
:1005800061EB0201001C41F5801300185B4120184B
:10059000A2F5001747EB030140EAD570B6196D418B
:1005A00011E06D084FEA360645EAC0754FEA07527A
:1005B000001B61EB0201001C41F5801149084FEA64
:1005C00030000019514132462B4603B0BDE8F04FD0
:1005D000FFF713BF0098012240000023D0EB020276
:1005E00063EBE073009821464FEAE074B8EB00003B
:1005F00061EB0401E9E783F000435BE781F0004130
:1006000058E72DE9FE4F81EA030404F0004421F08D
:10061000004100944FF0000B23F0004350EA010426
:100620005ED052EA03045BD0C3F30A54C1F30A5507
:100630002C44A4F2F3340194A0FB0254C1F313013F
:1006400041F48011C3F3130343F4801301FB02440C
:1006500000FB034E840A970A44EA815447EA835711
:10066000A4FB076802958D0A05FB07854FEA932CCA
:1006700004FB0C542705029D4FEA065847EA16373B
:10068000B5EB08056EEB070C870E920E47EA811753
:1006900042EA8312A7FB0201B6EB0B0164EB0004F4
:1006A0002B0D43EA0C335E1844EB1C50DA465146DE
:1006B000E7FB0201C5F313044FEA0B3343EA14537B
:1006C0004FEA0432019C43EA0603A4F10C040294AD
:1006D000009CCDE900B4FFF79FFE03B0BDE8F08FAA
:1006E00000200146F9E72DE9F04D81EA030404F00A
:1006F000004B21F0004514464FF0000A23F0004162
:1007000050EA050220D054EA01021DD0C5F30A5771
:100710000246C5F31303C1F31300C1F30A5640F4B4
:10072000801543F48013A7EB0608101BD64608F289
:10073000FD3873EB050002D308F1010801E09218BF
:100740005B41B8F1000F03DA00200146BDE8F08DEF
:1007500000204FF48011064684460EE0171B73EB11
:10076000050705D3121B63EB050306434CEA010C96
:1007700049084FEA300092185B4150EA0107EDD179
:1007800052EA030012D082EA040083EA050108431A
:1007900005D0101BAB4106D20122002306E0002247
:1007A0004FF0004302E06FF0010253101AEB060015
:1007B0004CEB085110EB0A0041EB0B01BDE8F04D8A
:1007C000FFF71BBEC1F30A52C1F3130140F2FF331E
:1007D00041F480119A4202DA00200146704740F24B
:1007E00033439A42A2F2334202DC5242FFF7BCBCCE
:1007F00000F02AB830B5041E71F1000404DB4FF09C
:100800000044404264EB0101141E73F1000405DB57
:100810001C464FF00043524263EB0403994208BF69
:10082000904230BD064C074D06E0E06840F0010301
:1008300094E8070098471034AC42F6D3FFF77CFCED
:10084000B4650008D4650008202A04DB203A00FAC9
:1008500002F1002070479140C2F1200320FA03F317
:10086000194390407047202A06DBCB17203A41FA03
:1008700002F043EAE07306E041FA02F3D040C2F12D
:100880002002914008431946704700002DE9F041CD
:10089000AB4F4FF48071384601F0ACFA08B900F064
:1008A000F7FDA84800880025A749A84CB0F5347F7B
:1008B0007ED028DCB0F5247F7BD012DC002879D0F4
:1008C000A0F50070023854D031285BD0802872D156
:1008D0004D708220A37862782178BDE8F04104F061
:1008E0004BB9B0F5287F5FD0B0F52C7F53D0B0F571
:1008F000307F60D14D70C020A37862782178BDE848
:10090000F04104F039B942F20213C21A01269842AA
:100910007ED01ADCA0F50070EE387AD011285AD0BB
:10092000A0F5F050133846D130464E70A378627867
:10093000217804F021F90A2001F048F984488178EF
:100940004078BDE8F04104F05DB8012A7ED0022A6B
:100950007DD0DE2A2FD14E70E020A37862782178F6
:1009600004F00AF9C82001F031F9BDE8F04104F0C3
:1009700071B84D700220A37862782178BDE8F0410B
:1009800004F0FAB84D703320A37862782178BDE87E
:10099000F04104F0F1B84D70B020A378627821786E
:1009A000BDE8F04104F0E8B84D70A020A37803E062
:1009B0001AE007E021E0C0E062782178BDE8F0416C
:1009C00004F0DAB84D709020A37862782178BDE801
:1009D000F04104F0D1B84D70FF20A37862782178FF
:1009E000BDE8F04104F0C8B84D70D020A37862781B
:1009F0002178BDE8F04104F0BFB84D70A37862786B
:100A00002178284604F0B8F8A3786278217801E0CC
:100A10008AE00AE0284604F0AFF8A37862782178EB
:100A20002846BDE8F04104F0A7B84A4805704D706B
:100A3000EE20A3786278217804F09EF84FF4805479
:100A400000222146384601F0DCF901E04CE059E093
:100A5000651000222946384601F0D3F9C82001F07C
:100A6000B5F801222146384601F0CBF9012229468A
:100A7000384601F0C6F9C82001F0A8F80022214646
:100A8000384601F0BEF900222946384601F0B9F98E
:100A9000C82001F09BF801222146384601F0B1F947
:100AA00001222946384601F0ACF9C82001F08EF841
:100AB00000222146384601F0A4F900222946384692
:100AC00001F09FF9C82001F081F801222146384643
:100AD00001F097F901222946384601F092F9BDE864
:100AE000F041C82001F072B84E700320A3786278FC
:100AF000217804F041F8642001F068F8BDE8F04185
:100B000000F0C2BA4E700420A3786278217804F015
:100B100033F8642001F05AF800F08CFA0146BDE881
:100B2000F0410DA004F050BF4E700220A37862780F
:100B30002178BDE8F04104F01FB8BDE8F081000065
:100B4000000C014012000020490000201400002089
:100B5000170000200C00002041325F425256203D19
:100B6000202564200A0000002DE9F84FE24D4FF4E3
:100B7000807A5146284601F03DF908B900F088FC1A
:100B8000DE4802884FF48056DD49DFF8788377101D
:100B9000DD4BDE480024A02A7ED00ADCDFF870930B
:100BA000022A11D0332A78D0822A4CD0902A08D138
:100BB000E8E0B02A72D0C02A71D0D02A70D0FF2AC3
:100BC0006FD00470BDE8F88F04700C7099F80220A3
:100BD00099F8011099F80000B8F8003000F050FBC7
:100BE0005146284601F006F908B900F051FC0220F0
:100BF00000F0ECFF5146284601F0FCF808B900F07F
:100C000047FC01223146284601F0FBF80022394614
:100C1000284601F0F6F8022000F0D8FF5146284699
:100C200001F0E8F808B900F033FC5146284601F01D
:100C3000E1F808B900F02CFC89F8004089F801407F
:100C400089F80240BEE704700C7099F8022099F808
:100C5000011099F80000B8F8003000F0F1FA5146A0
:100C6000284601F0C7F808B900F012FC022000F095
:100C7000ADFF00223146284601F0C3F80122394673
:100C8000284601F0BEF85146284601F0B3F808B9ED
:100C900000F0FEFB022005E04AE013E033E0E3E071
:100CA00008E190E000F092FF5146284601F0A2F8DA
:100CB00008B900F0EDFB89F8004089F8014089F897
:100CC00002407FE704700C705146284601F092F80C
:100CD00008B900F0DDFB99F8022099F8011099F8A5
:100CE0000000B8F8003004F081F95146284601F0C0
:100CF00081F808B900F0CCFB89F8004089F8014080
:100D000089F802405EE704700C7003F017FF814918
:100D10000880B8F80010002004F04EF8514628462C
:100D200001F068F800288DD1BDE8F84F00F0B0BBA5
:100D3000047004F0FDF9642000F048FF7648006874
:100D40000168406800901E2000F040FF01223146FB
:100D5000284601F056F801223946284601F051F89C
:100D60001E2000F033FF00223146284601F049F8EA
:100D700000223946284601F044F8BDE8F84F0A2021
:100D800000F024BF04705979187900F02BFB1E2065
:100D900000F01CFF01223146284601F032F8012202
:100DA0003946284601F02DF81E2000F00FFF0022E2
:100DB0003146284601F025F839462846BDE8F84F67
:100DC000002201F01EB8047000223146284601F0CE
:100DD00018F800223946284601F013F8C82000F020
:100DE000F5FE01223146284601F00BF80122394672
:100DF000284601F006F8C82000F0E8FE002231463F
:100E0000284600F0FEFF00223946284600F0F9FF90
:100E1000C82000F0DBFE01223146284600F0F1FF39
:100E200001223946284600F0ECFFC82000F0CEFE33
:100E300000223146284600F0E4FF002239462846C9
:100E400000F0DFFFC82000F0C1FE01223146284635
:100E500000F0D7FF01223946284600F0D2FFBDE856
:100E6000F84FC82000F0B2BE04702C4859790170C8
:100E7000007803F06FFC00F071FE0C21284802F0AE
:100E80004FFC00223146284600F0BBFF01223946C4
:100E9000284600F0B6FF0A2000F098FE01223146F5
:100EA000284600F0AEFF39462846BDE8F84F00223C
:100EB00000F0A7BF047000F0ABFD0A2000F086FE32
:100EC00001223146284600F09CFF0122394628467F
:100ED00000F097FF0A2000F079FE002231462846F4
:100EE00000F08FFF00223946284600F08AFFBDE857
:100EF000F84F0A2000F06ABE000C014012000020EA
:100F00000B0000202A0000205C0000200A000020C6
:100F1000140000202C0000205C0100202400002090
:100F20009C01002010B514480088144AA0F5807078
:100F300001384FF000011AD0022805D003280DD047
:100F4000DF2806D0117010BD1170BDE8104000F010
:100F5000D3BC1170BDE8104000F018B8117003F058
:100F6000C3FB0146BDE8104005A004F02DBD117083
:100F7000BDE8104003F0AABD120000200F000020C1
:100F8000425256203D202564200A00002DE9FC41F4
:100F90001EA003C8CDE9000100F02EFD012833D1C9
:100FA00000201C4C00212154401CC0B20428FAD35C
:100FB00004220521174800F063FDC82000F006FE5A
:100FC000E0788DF80400A0788DF8030060788DF843
:100FD0000200207802F0FEFF0546607802F0BEFFB6
:100FE0000646A07802F0D8FF0746E07802F098FFA6
:100FF000A9193944014408A004F0E6FC0C23062298
:1010000069460B4802F01EFFBDE8FC81A103000009
:10101000000B000020030020454550524F4D20702A
:101020006F736974696F6E3D20256C64200A00003F
:101030005C0100201CB50AA003C8CDE900010A48E4
:1010400084788DF80440214608A004F0BDFC0C23F0
:10105000062269460B4802F0F5FE20461CBD000042
:10106000A2040000000B0000170000204C616D700E
:10107000204272696768746E6573732069732025F6
:1010800064200A005C0100207CB512A003C8CDE9F1
:101090000001124CA0788DF8040060788DF80300F0
:1010A00020788DF8020002F059FF0646607802F0C1
:1010B00073FF0546A07802F033FF7119014408A0C0
:1010C00004F082FC0C2306226946094802F0BAFEAD
:1010D0007CBD0000A2030000000B000017000020F0
:1010E0005265616C54696D653D20256C64200A0071
:1010F0005C010020FEE700002DE9F05F804642F22F
:101100001074DFF814914548454F0126454D4FF0C6
:101110000A0AB8F1000F1EDA6E700022082100F0F2
:1011200070FE39784048C8F10008012901D179786A
:1011300021B1C7F80480C0F800801EE087F800A045
:10114000C0F8008000F0D0F87860C5F808807868B2
:10115000C9F8000011E0002169700122082100F0A7
:1011600050FE3248C0F800803978012901D17978E1
:10117000E9B3C0F80080C5F808802D4FDFF8B490BF
:10118000DFF8B4B04FF4005AB8F1000F22D04FF49A
:101190009668C5F804802E703868426A6B689918A2
:1011A00041630021224802F09FF9012200214846B4
:1011B00004F066F901225146584600F022FE641EF2
:1011C000A4B2E6D200F07CF801461C4801800088F9
:1011D00068602E703868416A6A6811444163002172
:1011E000134802F081F901220021484600E008E09E
:1011F00004F046F951465846BDE8F05F012200F080
:1012000000BE87F800A0C0F8008000F06DF8C9F8B3
:101210000000C5F80880B0E7400000200008014049
:101220001C000020D80100203800002034000020DD
:10123000E4010020002C0140000C01402A000020A5
:1012400070B51E46000440EA01251543094C20787C
:10125000002808D12320207000F046F806490860D5
:1012600006490860606031462846BDE8704003F0DA
:10127000CDBD00001C0000203C00002040000020EC
:1012800070B51E46000440EA01241443094D287835
:10129000002808D12320287000F026F806490860AD
:1012A00006490860686031466042BDE8704003F05E
:1012B000ADBD00001C0000203C00002040000020CC
:1012C00010B500F099FB012809D102221021054830
:1012D00000F0D6FB03484178007841EA002420461C
:1012E00010BD0000200300202DE9F04100F084FB38
:1012F00001281AD1042205210D4800F0C1FBC820A5
:1013000000F064FC0A4C207802F064FE0546607828
:1013100002F024FE0646A07802F03EFE0746E07882
:1013200002F0FEFDA91939440C182046BDE8F081F1
:10133000200300202DE9F04120480168CCB201686B
:10134000C1F307250168C1F307460068070E00F0E6
:1013500053FB01282FD10020194B1A4900221A549F
:101360000A54401CC0B20428F9D30F704E708D701F
:10137000CC7004220521134800F0B7FB0446C820B6
:1013800000F024FC012C04D0BDE8F0410EA004F0D4
:101390001BBB134D4FF4006400222146284600F089
:1013A00030FD0A2000F012FC21462846BDE8F0413D
:1013B000012200F026BDBDE8F08100003C000020C5
:1013C0002003002020020020656570726F6D20638D
:1013D0006865636B206572726F72200A00000000FE
:1013E000000C01402DE9F04106460F4600F004FBD9
:1013F000012844D1234C002020706070224D2E70B3
:101400006F7002221021284600F06FFB642000F06C
:10141000DDFB02221021204600F032FB00224FF4B7
:1014200000611A4E4F00A05CAB5C984209D00022CC
:10143000304600F0E6FC00223946304600F0E1FC80
:10144000FEE7521CD2B2022AEDD318D100220C467C
:10145000304600F0D6FC00223946304600F0D1FC80
:10146000C82000F0B3FB01222146304600F0C9FC41
:1014700039463046BDE8F041012200F0C2BCBDE86B
:10148000F08100002003002020020020000C014019
:1014900010B51149012008700021104802F08AF8A7
:1014A000002211460E4803F0EBFF0C496FF00200DA
:1014B000096808610B4C00224FF48041204600F07F
:1014C000A0FCFFF737FF00226114204600F099FCD2
:1014D000BDE8104000F010BA1C000020E40100201C
:1014E000002C0140000C014006E00021491CC9B25B
:1014F0000A29FBD3401E80B20028F6D1704770B590
:10150000054600F055F80024285D00F0F7F8641C4B
:10151000E4B2082CF8D3442000F0F0F800F048F8CA
:101520000024285D00F0EAF8641CE4B2082CF8D32B
:10153000BE2000F0E3F800F0ABF8044600F0A8F895
:10154000000200B220436FF0030400280ADAC0430F
:10155000401CFEF77BFE2246FEF761FEBDE87040B0
:10156000FEF7B1BEFEF772FE2246FEF758FEBDE85A
:101570007040FEF7A8BE000008B50B48816941F035
:1015800004018161806900F00400009000F028F8F7
:1015900001220221054800F034FC00F095F8BDE876
:1015A000084000F02BB80000001002400008014085
:1015B00010B500F089F800F021F8BDE81040552082
:1015C00000F09CB81FB5022000900020019001207F
:1015D00002906946014800F005FB1FBD000801406C
:1015E0001FB502200090012001900320039069465E
:1015F000014800F0F7FA1FBD0008014070B5002453
:10160000FFF7E0FF124D04E0641CE4B20120FFF795
:101610006BFF0221284600F0EDFB08B1642CF3D3E8
:10162000642C01D3012070BD002404E0641CE4B2EA
:101630000120FFF759FF0221284600F0DBFB08B923
:10164000F02CF3D3F02C01D3012070BD002070BD2D
:101650000008014010B5FFF7C3FF0C4C0022022127
:10166000204600F0CEFB0A20FFF73EFFFFF7AAFF5F
:101670000221204600F0BEFB012805D000242D20C9
:10168000FFF732FF204610BD0124F8E700080140B3
:1016900070B500250024FFF7DDFFA0402843C5B248
:1016A000641CE4B2082CF6D3284670BD70B505461C
:1016B000332000F023F80024FFF7EAFF2855641CCC
:1016C000E4B2082CF8D370BD10B5FFF789FF0A4CBF
:1016D00000220221204600F094FB40F2EE20FFF7AA
:1016E00003FF01220221204600F08BFBBDE81040E1
:1016F0000F20FFF7F9BE00000008014070B5054655
:10170000FFF76EFF0024154E05F001006D0880B153
:1017100000220221304600F074FB0820FFF7E4FEAF
:1017200001220221304600F06CFB3A20FFF7DCFE7C
:101730000FE000220221304600F063FB4620FFF755
:10174000D3FE01220221304600F05BFB0220FFF7AE
:10175000CBFE641CE4B2082CD6D370BD0008014057
:10176000FEE70000F0B5AFB00446142237A12AA866
:10177000FEF70AFD3AA106C9CDE928123A492046EA
:10178000FEF71BFDFEF773FD0546294637A004F062
:101790001BF900246E4609E0E81705EB107020F0F5
:1017A0000F01691A46F824100511641C002DF3DCA2
:1017B0002AAD41E0032C14D0022C21D0601E074634
:1017C00056F82000295C2BA004F0FEF856F82700FC
:1017D000295CA1F13000C0B2092820D28DF8A40004
:1017E00020E00298295CA1F130008DF8A20024A02D
:1017F00004F0EAF80298295C26A004F0E5F81AE063
:101800000198295CA1F130008DF8A30027A004F015
:10181000DBF80198295C2AA004F0D6F80BE0401E02
:101820008DF8A4002CA004F0CFF856F82700295C0E
:101830002DA004F0C9F8641E002CBBDC0C2306228A
:1018400028A92C4802F0FEFA2FB0F0BD3031323317
:1018500034353637383941424344454600000000AC
:10186000A1020000000B000000002041583D20258F
:10187000640A000074656D70313D25630A00000044
:1018800073656E646275666665725B325D3D256385
:101890000A00000073656E646275666665725B328D
:1018A0005D203D20252378200A00000073656E64CA
:1018B0006275666665725B335D3D25630A000000F4
:1018C00073656E646275666665725B335D203D208C
:1018D000252378200A00000074656D70203D2025C6
:1018E0002378200A0000000074656D703D20256497
:1018F000200A00005C0100202DE9FC412DA003C856
:10190000CDE900012D4801682D480278002A17D042
:101910008DF804100A0A8DF803200A0C8DF80220B5
:10192000446828A004F050F821462CA004F04CF89C
:101930000C23062269462E4802F084FABDE8FC8199
:1019400000F05AF80128F9D100202A4C0021215436
:10195000401CC0B20428FAD304220521254800F017
:101960008FF8C82000F032F9E0788DF80400A078F4
:101970008DF8030060788DF80200207802F02AFBD1
:101980000546607802F0EAFA0646A07802F004FB09
:101990000746E07802F0C4FAA9193944014409A0C5
:1019A00004F012F80C2306226946114802F04AFAA4
:1019B000C4E70000A1030000000B00003C00002071
:1019C0001C0000207265616C20706F736974696F10
:1019D0006E3D20256C64200A000000007374657061
:1019E0005F6E756D626572733D202564200A00008C
:1019F0005C0100202003002010B5A02002F034FB81
:101A000018B102F04BFD002010BD012010BD0000F8
:101A100070B5FFF7F1FF012814D100201449154AD1
:101A200000240C541454401C80B20A28F9D3092213
:101A30000021104800F059F805460F480460642062
:101A400000F0C4F8012D00D0FEE70C4D4FF4006407
:101A500000222146284600F0D4F9142000F0B6F800
:101A600021462846BDE87040012200F0CAB90000B6
:101A700020030020200200203C000020000C014038
:101A80002DE9F04105460C46164602F0E7FCA02081
:101A900002F042FC02F01AFD68B9E0B202F03CFC30
:101AA00002F014FD38B902F0D9FCA12002F034FC98
:101AB00002F00CFD20B102F0F1FC0020BDE8F08145
:101AC0000024771E0BE002F003FC2855BC4202D034
:101AD00002F0AAFA01E002F0DFFB641CA4B2B442F7
:101AE000F1D302F0DBFC0120E8E72DE9F047804666
:101AF0000E46914600254FF47A7729E00DB1700724
:101B000016D102F0CBFC002402F0A8FCA02002F0C9
:101B100003FC02F0DBFC18B1641CA4B2BC42F3D39A
:101B2000BC420CD0F0B202F0F7FB02F0CFFC30B9AF
:101B300018F8050002F0F0FB02F0C8FC20B102F03A
:101B4000ADFC0020BDE8F087761CB6B26D1CADB2CE
:101B50004D45D3D302F0A2FC0120F3E710B58EB0BF
:101B600018481749016008214160002484606421FD
:101B7000C160046101F07BFB4FF480500A900AA918
:101B8000104801F0C0FB0894099408A90D4801F021
:101B900046FB602001900C48007802900394059465
:101BA000002201A9074801F04DFD0C2201A90548BA
:101BB00001F048FD034801F02DFC0EB010BD0000FF
:101BC000000800409C0100202400002031B500F0F6
:101BD0001FF9044600F01CF90099001B8842F9D354
:101BE00038BD00002DE9F84F00230024DFF8DC9118
:101BF0004FF00F0809F1040A0AF1040B0BF1040E6F
:101C00000127A7400A683A40BA4275D1DFF8C0C13F
:101C10004D68A5EB0C0665452BD00DDC032D34D0AB
:101C200005DC35B3012D19D0022D2FD11BE0112D6C
:101C300016D0122D2AD119E0B6F5881F19D006DC6E
:101C4000B6F5803F15D0B6F5801F1FD111E0B6F56F
:101C5000001F0ED0B6F5041F18D10AE0CB6815E0BE
:101C6000CB681B1D12E0CB6808330FE0CB680C3348
:101C70000CE08B6823B1012B04D00823476105E0F9
:101C8000042303E00823076100E00023FF2A01D8B2
:101C9000054601E000F1040502D84FEA840603E09E
:101CA000A4F108064FEA86062F6808FA06FC27EA20
:101CB0000C0703FA06F647EA06072F604D68ED00A9
:101CC0007ED5444DAE6946F00106AE61AD6905F0C2
:101CD00001050095404D24F003067719BE68A5075D
:101CE0002D0F08FA05FC26EA0C06DFF8F0C0604567
:101CF00003D14FF0000C25E062E0DFF8E4C060455E
:101D000002D14FF0010C1DE0DFF8D8C0604502D1D0
:101D10004FF0020C16E0DFF8D0C0604502D14FF062
:101D2000030C0FE0DFF8C4C0604502D14FF0040C93
:101D300008E0DFF8BCC0604502D14FF0050C01E0BF
:101D40004FF0060C0CFA05FC4CEA060CC7F808C06C
:101D50004D68ED0305D5D9F800501543C9F800507A
:101D600004E0D9F800509543C9F800504D68AD0320
:101D700005D5DAF800501543CAF8005004E0DAF847
:101D800000509543CAF800504D68ED0205D5DBF8C8
:101D900000501543CBF8005004E0DBF800509543A9
:101DA000CBF800504D68AD0205D5DEF80050154364
:101DB000CEF8005004E0DEF800509543CEF8005015
:101DC000641C102CFFF41CAFBDE8F88F0004014028
:101DD0000000111000100240000001400008014006
:101DE000000C0140001001400014014000180140A7
:101DF000001C01408068084201D00120704700208B
:101E00007047002A01D001617047090401617047E1
:101E100001480068704700000400002010B5044627
:101E200020684169C1F300214268C2F30022002901
:101E30000ED0012A0CD1A16B41F00101A1634169CF
:101E400021F4807141612068016841F40041016022
:101E500020684169C1F340214268C2F3002249B1C0
:101E6000012A07D1A16B41F00201A163416921F46C
:101E70000071416120684169C1F380214268C2F369
:101E80000022C1B1012A16D194F83620638D94F84E
:101E90003510202A02D10BB9212917D0A16B41F0AE
:101EA0000401A163016841F4007101602068416987
:101EB00021F48061416120684169C1F3C021426819
:101EC000C2F3002271B1012A04D00BE0204602F0D7
:101ED00094FAF0E7A16B41F00801A163416921F494
:101EE00000614161A06B00280AD0202084F83500F1
:101EF0002068016821F400610160204600F096F836
:101F000010BD30B490F836200168102A15D090F832
:101F10003620402A11D04A69C2F340034A68C2F30E
:101F200040224C69C4F300148D69C5F380050BB1E0
:101F3000012A3AD0012C3BD03CE08A69D2435207B7
:101F400019D44A69C2F3C0134A68C2F380244A69AB
:101F5000C2F380024968C1F3402113B1012C00D1C2
:101F600032B1012A60D101295ED130BC02F05AB9E8
:101F700030BC02F07EB94A69C2F380134A68C2F3EA
:101F800080244A69C2F380024968C1F3402113B139
:101F9000012C00D132B1012A46D1012944D130BCF3
:101FA00002F0C2B830BC02F009B930BC02F01EBA6F
:101FB000012A11D0012D12D04A69C2F380134A6858
:101FC000C2F380244A69C2F380024968C1F3402108
:101FD00003B3012C1DD01DE030BC02F025BA4A69C4
:101FE000C2F3C0134A68C2F380244A69C2F3800274
:101FF0004968C1F3402113B1012C00D132B1012A4B
:1020000012D1012910D130BC02F0D4B930BC02F099
:10201000DFB932B1012A07D1012905D130BC02F064
:10202000ADB930BC02F0B8B930BC704770470000A1
:1020300070B50446002C04D094F83500002510B18A
:1020400006E0012070BD84F83450204600F04AF8C4
:10205000242084F835002068016821F00101016026
:1020600000F010FB01461B48B1FBF0F02268506005
:10207000194B62689A4201D8401C07E04FF49672EF
:1020800050434FF47A72B0FBF2F0401C22681062A9
:10209000204601F0F9FF2168C861D4E9070108432F
:1020A00021680860D4E90310084321688860D4E9F6
:1020B000050108432168C8602068016841F00101FA
:1020C0000160A563202084F8350084F83650002094
:1020D00070BD000040420F00A086010070477047AD
:1020E0007047704700B585B01648C16941F40011CA
:1020F000C161C16901F400110091816941F00801D9
:102100008161806900F008000090C02001901220D9
:1021100002900320049001A90B48FFF763FD002201
:102120001146202000F006F9202000F0F7F80022E8
:1021300011461F2000F0FEF81F2000F0EFF805B058
:1021400000BD000000100240000C014010B5134A11
:1021500002F10D03D078D1791954002804D0012858
:1021600008D002280CD010E00120D0700CA003F0A1
:102170002BFC0AE00220D0700EA003F025FC04E046
:102180000020D07010A003F01FFC04490422BDE819
:102190001040C91D114800F025B800000A000020B9
:1021A000727863706C7463616C6C5B305DA3BA258C
:1021B00023780A00727863706C7463616C6C5B31B5
:1021C0005DA3BA2523780A00727863706C7463612A
:1021D0006C6C5B325DA3BA2523780A00780400207A
:1021E0007047000070B504460E46154694F8350059
:1021F000202801D0022070BD56B14DB142F21073BB
:1022000001221849204602F085F918B1022070BD5C
:10221000012070BD94F83400012820D0012084F8FA
:1022200034002068016821F400610160222084F8F4
:102230003500202084F836000021A16366622585E0
:1022400065852068026842F48062026084F8341078
:102250002068416841F4E0614160002070BD0220C7
:1022600070BD00000200100002480168491C0160B6
:10227000704700000400002010B50748016841F0D5
:1022800010010160052000F075F8002000F006F84C
:1022900000F016F8002010BD0020024010B50446E2
:1022A00000F0D6F94FF47A72B0FBF2F000F07EFF46
:1022B00000222146501E00F03DF8002010BD000015
:1022C00008B51548816941F001018161806900F01C
:1022D00001000090052000F04DF8002211466FF03B
:1022E0000B0000F027F8002211466FF00A0000F002
:1022F00021F8002211466FF0090000F01BF80022BF
:102300001146101F00F016F80022BDE808401146E3
:10231000501E00F00FB800000010024000F01F0235
:10232000012191404009800000F1E020C0F8001137
:1023300070470000F0B40D460D4B1B68C3F3022339
:10234000C3F10704042C00D90424191D072901D264
:10235000002300E0DB1E012606FA04F1491E294095
:1023600099409E40761E16403143F0BC02F039BBC6
:102370000CED00E000F00701054A10684FF6FF037E
:10238000184040EA012003490843106070470000EC
:102390000CED00E00000FA052DE9F04704460F4679
:1023A000DFF8A492D9F80000A84D00F00701012041
:1023B000430446064FF0020C41F28838B9426FD20E
:1023C000D9F8001021F007013943C9F80010D9F8F5
:1023D000001001F00701B94201D0BDE8F087217873
:1023E000890705D56968A26821F0F0011143696089
:1023F0002178C90761D0616801290BD002291FD05B
:102400009CFAACF2B2FA82F242F0200252092DD0CC
:102410002A682CE093FAA3F2B2FA82F242F0200288
:10242000520901D02A6800E06A6A93FAA3F3B3FA6A
:1024300083F303F01F039840024223D10120CCE72D
:1024400096FAA6F2B2FA82F242F02002520901D0C4
:102450002A6800E06A6A96FAA6F3B3FA83F303F0F7
:102460001F03984002420DD10120B6E76A6A9CFA28
:10247000ACF3B3FA83F303F01F039840024201D197
:102480000120AAE7686820F0030008436860FFF7AE
:10249000BFFC0646606801280AD0022815D021E05A
:1024A00025E0FFF7B5FC801B404501D9032094E7E8
:1024B0006868C0F381000128F3D1ADE0FFF7A8FC04
:1024C000801B404501D9032087E76868C0F381007D
:1024D0000228F3D1A0E0FFF79BFC801B404501D907
:1024E00003207AE7686810F00C0FF4D194E02178AB
:1024F000890705D56968A26821F0F0011143696078
:102500002178C90779D0616801290BD002291FD031
:102510009CFAACF2B2FA82F242F0200252092DD0BB
:102520002A682CE093FAA3F2B2FA82F242F0200277
:10253000520901D02A6800E06A6A93FAA3F3B3FA59
:1025400083F303F01F039840024223D1012044E7A4
:1025500096FAA6F2B2FA82F242F02002520901D0B3
:102560002A6800E06A6A96FAA6F3B3FA83F303F0E6
:102570001F03984002420DD101202EE76A6A9CFA9F
:10258000ACF3B3FA83F303F01F039840024201D186
:10259000012022E7686820F0030008436860FFF725
:1025A00037FC06466068012809D0022814D020E0D4
:1025B000FFF72EFC801B404501D903200DE768681A
:1025C000C0F381000128F3D117E0FFF721FC801B45
:1025D000404501D9032000E76868C0F38100022864
:1025E000F3D10AE0FFF714FC801B404501D903201A
:1025F000F3E6686810F00C0FF4D1D9F8000020F071
:1026000007003843C9F80000D9F8000000F00700BF
:10261000B84201D00120E0E62078400705D568687F
:10262000E16820F4E060084368602078000706D580
:102630006868216920F4605040EAC10068600020A9
:10264000FFF72CFE0020C8E60020024000100240E8
:1026500000B500F043F808494968F02292FAA2F266
:1026600001F0F001B2FA82F2D140044A515CC84054
:102670000349086000BD0000001002409465000896
:102680000000002000B5FFF7E3FF074949684FF459
:10269000E06292FAA2F201F4E061B2FA82F2D14071
:1026A000024A515CC84000BD001002409465000819
:1026B00000B5FFF7CDFF074949684FF4605292FA21
:1026C000A2F201F46051B2FA82F2D140024A515CA6
:1026D000C84000BD001002409465000810B585B0E8
:1026E0001AA0D0E90031D0E90220CDE90131CDE9CD
:1026F00003201AA000680090194B5968194801F08E
:102700000C02042A1DD0082A1BD14FF4701494FA2D
:10271000A4F401F47012B4FA84F4E24001ACA25CB7
:10272000C90310D559684FF4003393FAA3F301F4A9
:102730000031B3FA83F3D9401DF80110B0FBF1F07A
:10274000504305B010BD08485043FAE702030405A2
:10275000060708090A0B0C0D0E0F101001020000ED
:102760000010024000127A0000093D002DE9F84FE8
:102770000446F94D20784FF00106C00775D068680F
:102780007704C0F38100012807D06868C0F3810096
:1027900002281DD16868C0031AD597FAA7F0B0FACD
:1027A00080F040F02000400901D0286800E0686A0D
:1027B00097FAA7F1B1FA81F101F01F0206FA02F1CE
:1027C000084252D0606800284FD10120BDE8F88F40
:1027D000286820F480302860286820F48020286051
:1027E000FFF716FB804607E0FFF712FBA0EB08009F
:1027F000642801D90320E9E797FAA7F0B0FA80F03E
:1028000040F02000400901D0286800E0686A97FA8B
:10281000A7F1B1FA81F101F01F0106FA01F10842B6
:10282000E2D16068B0F5803F11D0A8B1B0F5A02F1B
:102830001CD0286820F480302860286820F480208C
:1028400028606068C8B3FFF7E3FA80461FE0286895
:1028500040F480302860F4E7286820F48030286055
:10286000286820F480202860EBE748E0286840F4DE
:1028700080202860286840F480302860E1E7FFF776
:10288000C7FAA0EB0800642801D903209EE797FA55
:10289000A7F0B0FA80F040F02000400901D028688D
:1028A00000E0686A97FAA7F1B1FA81F101F01F011F
:1028B00006FA01F10842E2D021E0FFE7FFF7A8FAAB
:1028C000804607E0FFF7A4FAA0EB0800642801D9CE
:1028D00003207BE797FAA7F0B0FA80F040F02000E1
:1028E000400901D0286800E0686A97FAA7F1B1FAB8
:1028F00081F101F01F0106FA01F10842E2D12078CE
:10290000DFF8588280074FF0000B4FF0020732D5F6
:1029100068684FF0F80A10F00C0F07D06868C0F331
:102920008100022828D16868C00325D497FAA7F04F
:10293000B0FA80F040F02000400901D0286800E0A3
:10294000686A97FAA7F1B1FA81F101F01F0106FA5E
:1029500001F1084204D02069012801D0012035E7A7
:1029600028689AFAAAF26169B2FA82F220F0F800B5
:102970009140084328605CE0206990B396FAA6F085
:10298000B0FA80F048F82060FFF742FA814607E08D
:10299000FFF73EFAA0EB0900022801D9032015E752
:1029A00097FAA7F0B0FA80F040F02000400901D07B
:1029B000286800E0686A97FAA7F1B1FA81F101F09E
:1029C0001F0106FA01F10842E2D028689AFAAAF239
:1029D0006169B2FA82F220F0F80091400843286061
:1029E00027E0FFE796FAA6F0B0FA80F048F820B0AA
:1029F000FFF70EFA814607E0FFF70AFAA0EB09009D
:102A0000022801D90320E1E697FAA7F0B0FA80F096
:102A100040F02000400901D0286800E0686A97FA79
:102A2000A7F1B1FA81F101F01F0106FA01F10842A4
:102A3000E2D12078000770D5A069C0B396FAA6F05D
:102A4000B0FA80F008EB8000C0F88064FFF7E0F98E
:102A5000814607E0FFF7DCF9A0EB0900022801D965
:102A60000320B3E697FAA7F0B0FA80F040F06000D8
:102A7000B6EB501F01D128680BE097FAA7F0B0FA27
:102A800080F040F06000B7EB501F01D1286A00E0F1
:102A9000686A97FAA7F1B1FA81F101F01F0206FA0C
:102AA00002F10842D6D00120FFF790F835E0FFE7A9
:102AB00096FAA6F0B0FA80F008EB8000C0F880B477
:102AC000FFF7A6F9814607E0FFF7A2F9A0EB09009E
:102AD000022801D9032079E697FAA7F0B0FA80F02E
:102AE00040F06000B6EB501F01D128680BE097FA68
:102AF000A7F0B0FA80F040F06000B7EB501F01D1B2
:102B0000286A00E0686A97FAA7F1B1FA81F101F04A
:102B10001F0206FA02F10842D6D12078400770D58C
:102B2000E86940F08050E861E86900F0805000906A
:102B3000DFF82CA0DAF8000040F48070CAF800003A
:102B4000FFF766F981460DE0FFF762F9A0EB090097
:102B5000642807D9032039E60010024000004242F1
:102B600000700040DAF80000C005EDD5286A20F0BA
:102B700001002862286A20F004002862FFF748F963
:102B8000814641F2883A07E0FFF742F9A0EB0900DD
:102B9000504501D9032019E697FAA7F0B0FA80F062
:102BA00040F04000B6EB501F01D128680BE097FAC7
:102BB000A7F0B0FA80F040F04000B7EB501F01D111
:102BC000286A00E0686A97FAA7F1B1FA81F101F08A
:102BD0001F0106FA01F10842D6D1E068012811D0A0
:102BE000A8B105281CD0286A20F001002862286AB4
:102BF00020F004002862E068C8B3FFF709F98146B5
:102C00001FE06EE0286A40F001002862F3E7286ABE
:102C100020F001002862286A20F004002862EAE718
:102C2000286A40F004002862286A40F00100286207
:102C3000E1E7FFF7EDF8A0EB0900504501D90320CB
:102C4000C4E597FAA7F0B0FA80F040F04000B6EB88
:102C5000501F01D128680CE097FAA7F0B0FA80F075
:102C600040F04000B7EB501F02D1286A01E00BE0B2
:102C7000686A97FAA7F1B1FA81F101F01F0206FA2A
:102C800002F10842D5D02CE0FFF7C2F8814607E0F8
:102C9000FFF7BEF8A0EB0900504501D9032095E5E8
:102CA00097FAA7F0B0FA80F040F04000B6EB501F62
:102CB00001D128680BE097FAA7F0B0FA80F040F055
:102CC0004000B7EB501F01D1286A00E0686A97FA0C
:102CD000A7F1B1FA81F101F01F0206FA02F10842F0
:102CE000D6D1E06980B36968C1F38101022970D04F
:102CF0004FF080794FF00077022809D099FAA9F0B7
:102D0000B0FA80F048F820B0FFF782F8044668E097
:102D100099FAA9F0B0FA80F048F820B0FFF778F8F7
:102D2000824607E0FFF774F8A0EB0A00022801D9F9
:102D300003204BE597FAA7F0B0FA80F040F02000AE
:102D4000400902D0286801E060E0686A97FAA7F1BC
:102D5000B1FA81F101F01F0106FA01F10842E1D157
:102D6000206AB0F5803F05D16868A16820F4003082
:102D700008436860D4E908010843696821F47411C4
:102D80000843686099FAA9F0B0FA80F048F820602A
:102D9000FFF73EF8044606E0FFF73AF8001B02286A
:102DA00001D9032012E597FAA7F0B0FA80F040F0BD
:102DB0002000400901D0296800E0696A97FAA7F06D
:102DC000B0FA80F000F01F0006FA00F00142E3D0F4
:102DD0001CE01DE0FFF71CF8001B022801D90320AE
:102DE000F4E497FAA7F0B0FA80F040F02000400930
:102DF00001D0296800E0696A97FAA7F0B0FA80F07C
:102E000000F01F0006FA00F00142E3D10020DDE4EB
:102E10000120DBE4704708B501684A68D2435206D6
:102E20000CD48A68D243D20708D18A68D2435206AA
:102E300004D5816C01B05DF804EB08474A68D243C1
:102E4000120608D48A68D243920704D4C16C01B038
:102E50005DF804EB08474A68D243920635D48A6885
:102E6000D243D20606D4426D42F0020242656FF0B0
:102E700010028A6001688A68D243920609D4426DC2
:102E800042F0010242658A680A6822F040020A6044
:102E9000009201688A68D24352060AD490F8512001
:102EA000122A06D0426D42F004024265CA688A685E
:102EB0000092426D002A08D04A6822F0E0024A607F
:102EC000012180F85110FFF7A5FF08BD10B5044699
:102ED000002C03D094F8510010B104E0012010BD83
:102EE000204600F039F8022084F85100206801687B
:102EF00021F040010160D4E901010843D4E9031243
:102F00001143084361690843218B01F400710843B0
:102F1000E1690843216A0843A16A084321680860FF
:102F2000A069042101EA1040616A084321684860F1
:102F30002168E06A08612068C16921F40061C1610B
:102F40000449002008706065012084F851000020C9
:102F500010BD00000800002030B585B0006824498D
:102F6000884242D12348816941F48051816181695D
:102F700001F480510091816941F00401816181690E
:102F800001F004010091816941F0040181618069CF
:102F900000F004000090A020019002200290032085
:102FA0000490154D01A92846FEF71CFE4021019111
:102FB00000240294039401A92846FEF713FE01227F
:102FC00010212846FEF71DFF1021019102940121D6
:102FD000039101A92846FEF705FE022201212320C4
:102FE000FFF7A8F92320FFF799F905B030BD0000DD
:102FF0000030014000100240000801402DE9F84374
:103000000446984694F85100012802D00220BDE8F9
:10301000F88339B332B394F85000012824D0012743
:1030200084F85070122084F85100002666652163F0
:10303000A286E286E664A664A663A687E687A06AFF
:103040007D03A84209D12068016821F40051016084
:103050002068016841F400510160A068B0F5004F9C
:1030600004D008E00120D2E70220D0E72068016800
:1030700041F48041016020680168490603D4016879
:1030800041F040010160E06828B1606880B3E08EE3
:1030900001282ED04BE0606810B1E08E01281BD1D2
:1030A000206B411C216321680078C860E08E401EBF
:1030B000E08611E0434600220221204601F0ECFDAB
:1030C00008B10320A3E7206B411C2163216800782D
:1030D000C860E08E401EE086E08E0028EAD1A06A3B
:1030E000A8422FD12068016841F48051016029E095
:1030F000FFE7206B21680088C860206B801C20637C
:10310000E08E401EE08612E0434600220221204667
:1031100001F0C2FD08B1032079E7206B2168008827
:10312000C860206B801C2063E08E401EE086E08E2D
:103130000028E9D1A06AA84204D12068016841F4BE
:1031400080510160434600220221204601F0A4FD87
:1031500028B1606D40F010006065032057E74346DA
:1031600001228021204601F097FD28B1606D40F0DA
:103170001000606503204AE7A06818B92068C1689C
:103180008068009050346770267000203FE74FF051
:10319000E021042804D0086920F004000861704789
:1031A000086940F0040008617047704710B5401E80
:1031B000B0F1807F01D3012010BD4FF0E0246061A9
:1031C0000F21601701F00DFC0020A0610720206195
:1031D000002010BD10B5FFF7E8FF10BD30B590F826
:1031E0003820012A19D0012200F8382F0223437019
:1031F000D1E900342343D1E902452C4323430C6930
:1032000023434C69896923430B4350F8381C4B64B2
:10321000427000210170002030BD022030BD30B569
:1032200090F83820012A20D0012380F8383002227B
:1032300080F839200268546824F0700454600268F1
:1032400054680D682C4354600268946824F080042C
:1032500094600268946849680C43946080F839303F
:10326000002180F83810002030BD022030BD10B59C
:103270000446002C03D094F8390010B107E0012077
:1032800010BD002084F83800204600F00DF8022020
:1032900084F83900211D206802F0AEF8012084F87E
:1032A0003900002010BD000008B50D4B02680D4923
:1032B0009A4207D18A6942F400628A618A6902F4FB
:1032C000006200920068084A904207D1C86940F045
:1032D0000400C861C86900F00400009008BD000047
:1032E000002C01400010024000080040022180F83C
:1032F000391001680A6842F001020A60012180F871
:1033000039100020704770B5044694F83800012841
:1033100017D0012584F83850022084F8390020683D
:10332000826822F0770222F47F4282600868502887
:103330003AD00DDC20285FD005DCA0B3102864D182
:1033400055E0022070BD30285BD040285DD13FE0C1
:10335000602833D070280CD0B0F5805F03D0B0F572
:10336000005F52D113E02068816821F0070181607D
:103370004BE0CB68D1E90121206802F08CF820688D
:10338000816821F0770141F0770181603DE0CB68F1
:10339000D1E90121206802F07EF82068816841F4BB
:1033A0008041816031E01DE0CA684968206802F010
:1033B00055F95021206802F078F826E0CA6849687B
:1033C000206802F05CF96021206802F06EF81CE0D1
:1033D000CA684968206802F041F94021206802F07B
:1033E00064F812E00021206802F05FF80DE010217F
:1033F000206802F05AF808E02021206802F055F811
:1034000003E03021206802F050F838346570002065
:10341000207070BD00B585B000680C49884213D19A
:103420000B48816941F008018161806900F0080062
:1034300000904FF40070019002200290032004904D
:1034400001A90448FEF7CEFB05B000BD000800400E
:1034500000100240000C014070B5044694F838009A
:1034600001280DD0012584F83850022084F8390055
:1034700042B1042A0AD0082A0CD00C2A11D10DE03E
:10348000022070BD206802F019F80AE0206802F0FE
:1034900049F806E0206802F07FF802E0206802F0B8
:1034A000B3F8383465700020207070BD10B5044644
:1034B000002C03D094F8390010B107E0012010BDB2
:1034C000002084F83800204600F00CF8022084F830
:1034D0003900211D206801F08FFF012084F8390098
:1034E000002010BD7047000010B504460029226876
:1034F00006D0042909D008290CD00C2913D10EE0DC
:10350000D06840F00200D0600DE0D06840F00400C8
:10351000D06008E0D06840F00800D06003E0D068D8
:1035200040F01000D0600122206801F0A9FF094995
:103530002068884202D00849884203D1416C41F496
:10354000004141642068016841F0010101600020F0
:1035500010BD0000002C01400034014010B50446AD
:103560000022206801F08CFF104841F211122168FE
:103570009310814202D00E48814209D1086A10425C
:1035800006D1086A184203D1486C20F40040486410
:103590002068016A114206D1016A194203D101680B
:1035A00021F001010160002010BD0000002C01404D
:1035B0000034014010B504460029226806D00429D1
:1035C00009D008290CD00C2913D10EE0D06820F0C6
:1035D0000200D0600DE0D06820F00400D06008E068
:1035E000D06820F00800D06003E0D06820F0100020
:1035F000D0600022206801F043FF104841F2111210
:1036000021689310814202D00D48814209D1086A95
:10361000104206D1086A184203D1486C20F40040D9
:1036200048642068016A114206D1016A194203D137
:10363000016821F001010160002010BD002C014053
:103640000034014070B504460D4694F83800012856
:103650000DD0012684F83860022084F8390042B188
:10366000042A1AD0082A2DD00C2A53D13EE0022079
:1036700070BD2946206801F021FF2068816941F072
:10368000080181612068816921F00401816120685D
:1036900081692A69114381613CE02946206801F073
:1036A00041FF2068816941F400618161206881697E
:1036B00021F480618161206881692A6941EA0221DF
:1036C000816127E02946206801F066FF2068C16912
:1036D00041F00801C1612068C16921F00401C161A4
:1036E0002068C1692A691143C16113E02946206835
:1036F00001F08AFF2068C16941F40061C16120685E
:10370000C16921F48061C1612068C1692A6941EA07
:103710000221C161383466700020207070BD000045
:1037200010B504460122206801F0AAFE084821686D
:10373000814202D00748814203D1486C40F40040E6
:1037400048642068016841F001010160002010BD5B
:10375000002C014000340140704738B50446206811
:103760000168C1F30001C26802F48072002904D02C
:103770001AB1E16B41F00101E1630168C1F340025C
:10378000416901F0010122B119B1E26B42F004027A
:10379000E2630268C2F3800222B119B1E26B42F027
:1037A0000202E2630268C2F3C00222B119B1E16B06
:1037B00041F00801E1630168C1F34011C06800F005
:1037C000200019B110B1204601F080FF2068016887
:1037D000C1F3C011C06800F0800019B110B12046DB
:1037E00002F052F820680168C1F38011C06800F04F
:1037F000400019B110B1204601F053FFE06B0028E2
:1038000009D02068016840680090012084F83900E0
:103810002046FFF7A1FF38BD70B50446002C04D048
:1038200094F83900002510B106E0012070BD84F83D
:103830003850204600F020F8022084F83900206833
:10384000C16821F40051C160204601F097FF206853
:10385000016921F4904101612068416921F02A0148
:1038600041612068C16841F40051C160E5630120F5
:1038700084F83900002070BD10B586B00068114989
:1038800088421DD11048816941F48041816180697D
:1038900000F4804001904FF40070029002200390E9
:1038A00003200590094C02A92046FEF79BF921153B
:1038B000029100210391049102A92046FEF792F99A
:1038C00006B010BD00380140001002400008014061
:1038D00090F83930012B03D0122B01D00220704711
:1038E00031B32AB390F83830012B23D0012380F86C
:1038F000383081628285C2850021C16390F8392009
:10390000122A19D0222280F8392080F83810016854
:10391000CA6842F48072CA6001684A6942F00102D2
:103920004A610068C16841F02001C1600020704711
:103930000120704702207047322280F83920E4E7E6
:103940002DE9F84FFB48012505608415DFF8E89361
:1039500021464846FEF74EFA10B100F06DFE08B958
:10396000FDF796FD0722F549F548FFF7B1FF00285E
:1039700073D121464846FEF73DFA10B100F05CFED7
:1039800008B9FDF785FDDFF8B483EE4FEC4C98F8ED
:103990000000A7F10A06A12875D198F801000028B7
:1039A00024D198F80200A0286ED00CDC33281ED059
:1039B00004DC002869D00228F2D139E082284DD0F9
:1039C000902813D162E0B02826D0C02870D0D0282B
:1039D0006FD0FF280AD198F806000B2806D1357061
:1039E000FF2030812068016840680090ABE098F8C3
:1039F00006000B280FD1357098F80300387098F83E
:103A00000400787098F80500B87033203081206881
:103A100001684068009096E098F806000B2806D1EF
:103A20003570B020308120680168406800908AE0DD
:103A300098F806000B280FD1357098F803003870FD
:103A400098F80400787098F80500B870022030816A
:103A5000206801684068009075E046E198F806002B
:103A60000B2870D1357098F80300387098F804006E
:103A7000787098F80500B87082203081206801685D
:103A8000406800905FE07DE014E01FE098F80600D9
:103A90000B2858D1357098F80400787098F8050014
:103AA000B8709020308120680168406800904AE03A
:103AB00032E03DE098F806000B2844D13570A02094
:103AC000308120680168406800903CE098F806006A
:103AD0000B2838D1FDF7DCFC4FF4805A0122514607
:103AE0004846FEF78EF94FF4006B012259464846CE
:103AF000FEF787F90A20FEF769F800225946484682
:103B0000FEF77FF9002251464846FEF77AF9206811
:103B100001684068009016E098F806000B2812D162
:103B20003570C020308120680168406800900AE04C
:103B300098F806000B2806D13570D0203081206817
:103B400001684068009098F8010001284BD198F86E
:103B5000020003280AD004DC01282ED0022842D11A
:103B600038E004281CD0E0283DD10CE098F806008D
:103B70000B2838D1757140F203103081206801683C
:103B8000406800902FE098F806000B282BD1757143
:103B90004FF4F0703081206801684068009022E0A6
:103BA00098F806000B281ED175714FF48270308191
:103BB000206801684068009015E098F806000B281E
:103BC00011D1757140F201103081206801684068A0
:103BD000009008E098F806000B2804D1B571206821
:103BE00001684068009098F80000A2287DD198F8FC
:103BF0000110002928D198F80200A02876D00BDC0B
:103C0000332822D003DCB0B302281DD141E0822842
:103C100055D0902818D16BE0D02868D004DCB028AB
:103C20002AD0C02810D19BE0EE2874D0FF280BD1F9
:103C300098F806000B2807D1357140F2FF2030813B
:103C40002068026840680090ABE098F806000B28F6
:103C500010D1357198F80300387098F80400787026
:103C600098F80500B87040F233203081206802686F
:103C70004068009095E067E098F806000B2807D1AF
:103C800035714FF42C7030812068026840680090D4
:103C900087E098F806000B2810D1357198F80300DA
:103CA000387098F80400787098F80500B87040F201
:103CB00002203081206802684068009071E098F826
:103CC00006000B286DD1357198F80300387098F80C
:103CD0000400787098F80500B87040F282203081B6
:103CE00020680268406800905BE071E014E043E007
:103CF00098F806000B2854D1357198F804007870B4
:103D000098F80500B8704FF424703081206802687C
:103D10004068009045E03CE098F806000B2840D150
:103D200035714FF428703081206802684068009037
:103D300037E0000014040140000C01405C0000204A
:103D40005C0100201400002098F806000B2828D100
:103D5000357100203081206802684068009020E0C2
:103D600098F806000B281CD135718001308120683D
:103D700002684068009014E098F806000B2810D103
:103D800035714FF4347030812068026840680090CB
:103D900007E0357140F2EE2030812068026840680B
:103DA0000090012914D198F80200032823D011DCD7
:103DB00001283AD002280BD198F806000B2807D129
:103DC000357142F20210308120680168406800902D
:103DD000BDE8F88F04281BD0E028F9D198F8060038
:103DE0000B28F5D1357142F2E0103081206801686E
:103DF00040680090ECE798F806000B28E8D1357190
:103E000042F2031030812068016840680090DFE7CB
:103E100098F806000B28DBD1357142F2041030818E
:103E20002068016840680090D2E798F806000B28E7
:103E3000CED1357142F201103081206801684068AE
:103E40000090C5E72DE9F04104460D46984694F8E8
:103E50003900012804D0222802D00220BDE8F081D8
:103E60009DB192B194F83800012810D0012684F851
:103E700038600027E76394F83900222809D012201F
:103E800084F83900A284E2842EE00120E6E70220D3
:103E9000E4E7322084F83900F4E7401EE084A068AB
:103EA000B0F5805F08D0434600228021204601F013
:103EB00020FDA8B10320D1E74346002280212046FF
:103EC00001F017FD08B10320C8E728882168C0F376
:103ED00008004860206908B16D1C05E0AD1C03E0D6
:103EE000216815F8010B4860E08C0028D5D14346C5
:103EF00000224021204601F0FCFC08B10320ADE780
:103F000094F83900322805D084F8396084F8387084
:103F10000020A3E7222084F83900F7E77047FEE786
:103F200010B5C0F3031300210B4A545C9C4203D02C
:103F3000491CC9B21029F8D300F00F030020145C0B
:103F40009C4203D0401CC0B21028F8D3105C515CD6
:103F500000EB011010BD0000A465000810B5C0F30F
:103F6000031300210B4A545C9C4203D0491CC9B284
:103F70001029F8D300F00F030020145C9C4203D0FA
:103F8000401CC0B21028F8D3515C105C090501EB4D
:103F9000004010BDA465000810B5C0F30313002154
:103FA0000B4A545C9C4203D0491CC9B21029F8D377
:103FB00000F00F030020145C9C4203D0401CC0B2F0
:103FC0001028F8D3515C105C090301EB002010BDF0
:103FD000A465000810B5C0F3031300210B4A545C1C
:103FE0009C4203D0491CC9B21029F8D300F00F033A
:103FF0000020145C9C4203D0401CC0B21028F8D3AF
:10400000515C105C090701EB006010BDA46500085D
:104010000148FDF703BF0000780400200148FDF7C8
:1040200070BF00007804002010B50E4C0022102153
:104030002046FDF7E6FE00F04BF801222021204645
:10404000FDF7DFFE00F044F8002220212046FDF7B6
:10405000D8FE00F03DF820460122BDE810401021B6
:10406000FDF7CFBE000C014010B5044600F036F855
:1040700000F0F4F9204600F04FF900F027FA04466A
:1040800000F00CFA204610BD104B42689A4208D846
:104090005000B1FBF0F0C0F30B01042900D2042062
:1040A0007047806858B102EBC20000EB0210B1FB10
:1040B000F0F040F440400105F2D10120704702EBDE
:1040C0004200B1FBF0F040F40040F4E7A0860100AC
:1040D0000020401CC0B20A28FBD3704700B585B051
:1040E0000E48816941F008018161806900F0080093
:1040F00000900B48416821F0E06141F0807141601F
:1041000030200190112002900120049001A905485F
:10411000FDF768FD00F0C2F905B000BD00100240D7
:1041200000000140000C014010B5428D0168032AD7
:104130000CD0428D022A17D00A69416A4B1C436297
:104140000A70418D491E4185002010BD0A6822F485
:1041500080620A6001680A69416A4B1C43620A7006
:10416000418D491E4185EFE74A6822F440724A605A
:1041700001680A6842F400720A6001680A69416ACB
:104180004B1C43620A70418D491E418501680A69D2
:10419000416A4B1C43620A70418D491E418590F86B
:1041A00036202021402A04D080F83510FDF796FFF4
:1041B000CAE780F83510FDF793FFC5E710B5428DCB
:1041C0000168032A08D90A69416A4B1C43620A70D4
:1041D000418D491E418519E0022A19D0032A17D0C2
:1041E0004A6822F4E0624A6001680A69416A4B1C2D
:1041F00043620A70418D491E418590F83620202186
:10420000402A0AD080F83510FDF768FF002010BD65
:10421000486820F480604860F8E780F83510FDF7C2
:104220005FFFF3E710B5428D0168002A08D0426AAB
:10423000531C436212780A61418D491E418511E089
:104240004A6822F4E0624A6001680A6842F4007237
:104250000A6090F836202021402A05D080F83510D9
:10426000FDF73DFF002010BD80F83510FDF739FF48
:10427000F8E7428D0168002A09D0426A531C436264
:1042800012780A61418D491E4185002070474868B7
:1042900020F480604860F8E710B50C4C0122102132
:1042A0002046FDF7AEFDFFF713FF01222021204637
:1042B000FDF7A7FDFFF70CFF002220212046FDF7A8
:1042C000A0FDBDE81040FFF703BF0000000C014057
:1042D00070B5002400250F4E6006040E0122202137
:1042E0003046FDF78EFDFFF7F3FE10213046FDF757
:1042F00081FD08B1641CE4B2002220213046FDF7A4
:1043000080FDFFF7E5FE6D1CEDB2082DE4D32046DD
:1043100070BD0000000C014070B505460024164E2B
:10432000280605D5012210213046FDF76AFD04E07C
:10433000002210213046FDF764FDFFF7C9FE01227F
:1043400020213046FDF75DFDFFF7C2FE002220214F
:104350003046FDF756FD072C04D1012210213046CE
:10436000FDF74FFD6806050EFFF7B2FE641CE4B2D0
:10437000082CD5D370BD0000000C0140418D0029F0
:1043800008D001680A69416A4B1C43620A70418D7A
:10439000491E418500207047418D002908D00168E1
:1043A0000A69416A4B1C43620A70418D491E41856E
:1043B00000207047418D002908D0416A4A1C4262A2
:1043C000026809781161418D491E418500207047BE
:1043D000418D002908D0416A4A1C4262026809786E
:1043E0001161418D491E41850020704708B5006864
:1043F000416980690090002008BD10B501684A68D5
:1044000022F4E0624A6001684A6922F480624A61EB
:1044100001680A6822F480620A60202180F8351061
:10442000FDF7DEFE002010BD08B501684A6822F4E1
:10443000E0624A6001684A690A6842F001020A6063
:10444000009201680A6822F480620A60202180F8E4
:104450003510FDF77BFE002008BD000010B50E4CA6
:10446000012210212046FDF7CCFC0122202120460C
:10447000FDF7C7FCFFF72CFE002210212046FDF7B8
:10448000C0FCFFF725FE002220212046FDF7B9FCE5
:10449000BDE81040FFF71CBE000C014010B50A4CEF
:1044A000002210212046FDF7ACFC012220212046ED
:1044B000FDF7A7FCFFF70CFE20460122BDE81040E7
:1044C0001021FDF79EBC0000000C014070B5104D9E
:1044D000012210212846FDF794FCFFF7F9FD012287
:1044E00020212846FDF78DFCFFF7F2FD102128461C
:1044F000FDF780FC08B1012400E000240022202107
:104500002846FDF77EFCFFF7E3FD204670BD000066
:10451000000C01402DE9F05F04460E4693461D460F
:10452000FDF776FC07464FF000094FF0200AC6F36E
:104530000748BBF1000F0FD02FE0681C0CD025B14D
:10454000FDF766FCC01BA84206D984F835A084F8A4
:1045500034900320BDE8F09FB8F1010F07D0206828
:10456000806926EA00000004000C20D0E5E72068FE
:10457000406926EA00000004000C18D0DDE7681C42
:104580000BD025B1FDF744FCC01BA84205D984F827
:1045900035A084F834900320DCE7B8F1010F08D08F
:1045A0002068806926EA00000004000CE7D00020A3
:1045B000D0E72068406926EA00000004000CDED045
:1045C000F5E7000010B50C4C02212046FDF712FC67
:1045D00038B91420FDF7FAFA02212046FDF70AFC4B
:1045E00008B1012010BD02212046FDF703FC002880
:1045F000F9D0002010BD0000000C014070B50D4D39
:104600004FF4806421462846FDF7F4FB38B91420A6
:10461000FDF7DCFA21462846FDF7ECFB08B1012046
:1046200070BD21462846FDF7E5FB0028F9D00020A3
:1046300070BD0000000C014010B50C4C012120465B
:10464000FDF7D8FB38B91420FDF7C0FA0121204648
:10465000FDF7D0FB08B1012010BD01212046FDF778
:10466000C9FB0028F9D0002010BD0000000C01405B
:1046700070B586B01A48816941F00801816181698D
:1046800001F008010191816941F0080181618169AE
:1046900001F008010191816941F00801816180699F
:1046A00000F00800019002200290002503950124EB
:1046B00004940C4E02A93046FDF794FAA002029031
:1046C0000395049402A93046FDF78CFA02940395F1
:1046D000049402A93046FDF785FA06B070BD0000CB
:1046E00000100240000C01407CB510A003C8CDE9C9
:1046F0000001FDF781F90F4C012807D1002020703F
:1047000001220C212046FDF7BBF9257820788DF891
:104710000400294608A001F057F90C230622694637
:104720000B48FFF78FFB28467CBD0000A10400006A
:10473000000B0000200300204C616D702042726964
:104740006768746E657373206973202564200A009E
:104750005C0100202DE9F0470446FDF74DF9244E99
:104760004FF400674FF48058012824D1DFF884907B
:10477000002089F80000204D2C7001220C212846D1
:10478000FDF7B3F96420FDF721FA01220C21484618
:10479000FDF776F9044699F80000297888420AD096
:1047A000002239463046FDF72CFB002241463046B8
:1047B000FDF727FBFEE7012C18D1002239463046D1
:1047C000FDF71FFB002241463046FDF71AFB322061
:1047D000FDF7FCF9012239463046FDF712FB414650
:1047E0003046BDE8F0470122FDF70BBBBDE8F0877E
:1047F000000C01402003002020020020F0B585B00D
:104800002348816941F008018161816901F0080153
:104810000091816941F008018161806900F0080020
:1048200000901C4F4FF40064002221463846FDF7EB
:10483000E8FA6600002231463846FDF7E2FA0194B4
:10484000012402940325049501A93846FDF7CAF90D
:1048500001960294049501A93846FDF7C3F9200298
:10486000019000200290039401A93846FDF7BAF99F
:10487000202001900294049501A93846FDF7B2F971
:10488000012220213846FDF7BCFA05B0F0BD00003A
:1048900000100240000C01400A48094901600A4921
:1048A00041600021816040F20F32C2604FF48042CB
:1048B00002614161FF228261C1610162FDF7B8BB03
:1048C0000054004078040020801A060010B5002231
:1048D00001212520FDF72EFDBDE810402520FDF724
:1048E0001DBD000008B50E48816941F004018161D9
:1048F000806900F0040000900B480A4901604FF401
:10490000E131416000218160C16001610C2242619E
:104910008161C161FEF780FFBDE80840FFF7D6BFA7
:1049200000100240003801405C010020FEE700005A
:104930002DE9F04120480168CCB20168C1F3072598
:104940000168C1F307460068070EFDF755F8012816
:104950002FD10020194B1A4900221A540A54401C26
:10496000C0B20428F9D30F704E708D70CC70042241
:1049700005211348FDF7B9F80446C820FDF726F9CC
:10498000012C04D0BDE8F0410EA001F01DB8134D7C
:104990004FF40064002221462846FDF732FA0A202F
:1049A000FDF714F921462846BDE8F0410122FDF744
:1049B00028BABDE8F08100003C0000202003002060
:1049C00020020020656570726F6D20636865636BFF
:1049D000206572726F72200A00000000000C014016
:1049E00070470907090E002806DA00F00F0000F1F1
:1049F000E02080F8141D704700F1E02080F80014DA
:104A0000704700001CB50AA20CCACDE900238DF83E
:104A100004108DF8030041EA002107A000F0D4FF44
:104A20000C23062269460A48FFF70CFA1CBD000059
:104A3000A2010000000B00004D6F746F72205370D4
:104A4000656564206973203A202564200A0000000F
:104A50005C0100207CB513A003C8CDE90001134818
:104A600081788DF8041041788DF8031000788DF866
:104A70000200FFF773FA05469DF80300FFF78CFA72
:104A800004469DF80400FFF74BFA2919014408A0D9
:104A900000F09AFF0C23062269460B48FFF7D2F973
:104AA0007CBD0000A2E00000000B00001700002009
:104AB000454550524F4D20706F736974696F6E3D5C
:104AC000202564200A0000005C0100207CB511A0B4
:104AD00003C8CDE90001FCF78FFF104C012808D175
:104AE000022210212046FCF7CBFF6078217840EAB3
:104AF000012560788DF8040020788DF803002946A0
:104B000007A000F061FF0C23062269460A48FFF760
:104B100099F97CBDA1010000000B000020030020DA
:104B20004D6F746F72205370656564206973203A0D
:104B3000202564200A0000005C01002010B5FCF76D
:104B40005BFF012801D0002010BD02220021064891
:104B5000FCF796FFC820FDF739F803484178007844
:104B600041EA002010BD0000200300200148FEF7AC
:104B700052B900002004002070B51D4CA2252570FC
:104B8000A070E170227163710B20A07140F6FF7379
:104B9000072221461748FEF731FA002826D10120C6
:104BA000611E087014A000F00FFF217817A000F01C
:104BB0000BFF61781AA000F007FFA1781DA000F09C
:104BC00003FFE17820A000F0FFFE217923A000F090
:104BD000FBFE617926A000F0F7FEA17929A000F084
:104BE000F3FEBDE870400A20FCF7F0BF70BD000086
:104BF0004900002020040020D6F7BBFAB7A2CBCD95
:104C0000CFFBCFA2B3C9B9A60A0000006154784215
:104C100075666665725B305D3D2523780A0000008D
:104C20006154784275666665725B315D3D25237817
:104C30000A0000006154784275666665725B325DF9
:104C40003D2523780A000000615478427566666548
:104C5000725B335D3D2523780A0000006154784281
:104C600075666665725B345D3D2523780A00000039
:104C70006154784275666665725B355D3D252378C3
:104C80000A0000006154784275666665725B365DA5
:104C90003D2523780A0000002DE9F05F04460F4609
:104CA00093461D46FDF7B4F806464FF000084FF452
:104CB000005A4FF00109BBF1000F26D050E0681CEC
:104CC00023D025B1FDF7A4F8801BA8421DD9206888
:104CD000416821F0E00141602068016821F0400155
:104CE0000160A06A504509D12068016821F4005193
:104CF00001602068016841F40051016084F851901E
:104D000084F850800320BDE8F09F2068806837EA6F
:104D10000000D4D129E0681C22D025B1FDF778F835
:104D2000801BA8421CD92068416821F0E001416045
:104D30002068016821F040010160A06A504509D156
:104D40002068016821F4005101602068016841F485
:104D50000051016084F8519084F850800320D2E71C
:104D60002068806837EA0000D5D00020CBE700003B
:104D700010B5104C0E4820604FF482706060002027
:104D8000A060E060206160614FF40071A1612021AA
:104D9000E16120626062A0620720E0622046FEF7C7
:104DA00095F82068016841F04001016010BD0000E5
:104DB000003001402004002070B50E464FF0FF3453
:104DC0000F4B5969081A0F490A78002A05D048B1D3
:104DD0000D4D2978012907D00CE015200870FCF74B
:104DE00083FA07E0002405E000222A7000205A61BF
:104DF0009A609A6160433146BDE87040FCF77CB927
:104E0000280000201C0000201D0000202DE9F05F7C
:104E1000044641F27075DFF80CA14348DFF80C81BD
:104E2000434F444E4FF00A0B4FF00109002C18DAA3
:104E300087F8019000220821FCF7E3FF98F80000B2
:104E40006442012802D19AF8000008B1346118E0E8
:104E500088F800B03461BC60FCF746FA4042B061AB
:104E60000FE00021797001220821FCF7CAFFF460ED
:104E700098F80000012802D19AF80000E8B3F46025
:104E8000BC60002C4BD02A4CDFF8ACA04FF4FA6881
:104E90000C344FF4005BA6F802807088786087F8C5
:104EA00000902068416A7A681144416320480021DB
:104EB0000C30FEF719FB01220021504600F0E0FA09
:104EC000012259461D48FCF79CFF6D1EADB2E2D28F
:104ED000FCF7F6F970807088786087F80090206899
:104EE000416A7A6811444163114800210C30FEF791
:104EF000FBFA01220021504600E008E000F0C0FA71
:104F00005946BDE8F05F01220C48FCF77ABF88F8EB
:104F100000B0F460FCF7E8F9B061BC60B1E7BDE84F
:104F2000F09F00001D000020000801401C00002030
:104F3000D801002028000020002C0140000C014076
:104F4000F0B585B02648816941F00401816181692D
:104F500001F004010091816941F0040181618169DE
:104F600001F004010091816941F0080181618169CA
:104F700001F008010091816941F0080181618069B7
:104F800000F0080000904FF4807001900220029021
:104F900003240494134E01A93046FCF723FE082194
:104FA000019101250295049401A93046FCF71AFEEF
:104FB0006E030196029504940B4F01A93846FCF745
:104FC00011FEAA0301920295049401A93846FCF748
:104FD00009FE002231463846FCF713FF05B0F0BD4C
:104FE0000010024000080140000C01402DE9F04192
:104FF0000E4690461F464FF0FF35FEF7AFFF0446C2
:105000003046FEF7C9FF06464046FEF789FFA11964
:10501000164C0844E06116480178002641B1154855
:105020000178012911D0A068E169411AA9B115E000
:1050300005210170FCF758F96061A16862691144AB
:10504000E269891AA661A060F0E70670A660A66111
:105050006661A068E169411AE8E7002505FB01F0F7
:105060003946BDE8F041FFF7D1BE0000280000201E
:105070001C0000201D00002030B595B02A49294DA4
:105080000D600320486000248C604FF6FF70C860FC
:105090000C614C610846FEF7EAF8A814119011A9BA
:1050A0002148FEF730F92048FEF700FA0F941094DB
:1050B0000FA91D48FEF7B3F8089409940A940B94BD
:1050C0000C9468140D900E9408A91748FEF786F802
:1050D000302001901548408802900220039008205B
:1050E0000490059406940794002201A90E48FEF747
:1050F000B3F9FFF725FF00210B48FEF75BFA00210B
:105100000948FEF72BFA00221146284600F0B8F9AC
:10511000022200211B20FDF70DF91B20FDF7FEF8F0
:1051200015B030BD002C0140E40100202800002013
:105130002DE9F041354801214170354900240C60CA
:1051400034490C604460FCF757FC012813D100205F
:105150003149324A0C541454401CC0B20A28F9D3C5
:105160000A2200212D48FCF7C0FC05463220FCF73E
:105170002DFDFCF7DFF82A4E4FF40064012D36D0E8
:10518000002221463046FCF73CFE4FF480550022B9
:1051900029463046FCF735FE4FF4FA773846FCF7DF
:1051A00015FD012221463046FCF72BFE012229463F
:1051B0003046FCF726FE3846FCF708FD0022214663
:1051C0003046FCF71EFE002229463046FCF719FE49
:1051D0003846FCF7FBFC012221463046FCF711FE65
:1051E00029463046BDE8F0410122FCF70ABE002204
:1051F00021463046FCF705FE0A20FCF7E7FC0122B9
:1052000021463046FCF7FDFDBFE700001C000020F2
:10521000400000203C00002020030020200200204D
:10522000000C014010B5FDF71FF8BDE81040FDF778
:10523000D1BF30B58FB00120059000040690002446
:10524000079402250C950D904FF4E0100E9005A8E0
:10525000FDF78CFA0F2000900195029468020390EC
:10526000049402216846FDF797F8FDF7F1F94FF431
:105270007A71B0FBF1F0FDF799FF0420FDF787FF8D
:1052800000221146501EFDF755F80FB030BD00004A
:105290000D48016841F00101016041680B4A11406D
:1052A000416001680A4A11400160016821F48021CF
:1052B0000160416821F4FE0141604FF41F018160EB
:1052C0000449C00308607047001002400000FFF866
:1052D000FFFFF6FE08ED00E02DE9F041404E30689A
:1052E000C168C94389073DD46FF002070761306880
:1052F000416A3C4C6288114441636078401CC0B2F2
:10530000607002282ED100256570A6F10C01487846
:10531000012829D0E068A269904203D0E068A26920
:10532000904200D20D700878DFF8BC8030B30128BD
:1053300018D198F800000A2840D02C480278012A99
:1053400041D0A069401CA0614878B0B3A068401E5D
:10535000A0606069401E60618868A269904201D1C6
:105360000D708D60BDE8F0812069A269904203D084
:105370002069A2699042D6D20D70D4E7A5610021C0
:105380001748FEF717F900221146194800F078F87F
:105390003068076100224FF400511648FCF731FDD8
:1053A0000120207098F800001528DBD1642088F8CF
:1053B0000000A5616561A560D4E709E0142088F8C4
:1053C0000000A561C0E70570A5616561A560BBE748
:1053D000A068401CA0606069401C6061BCE70000E0
:1053E000E4010020280000201C0000201D000020F7
:1053F000002C0140000C01402DE9F04102681B4DDA
:105400001B4E1C4FDFF870C01C4B4FF08048A84269
:1054100009D0984207D0404505D0B04203D0B842E9
:1054200001D0604503D122F070044A682243A842AB
:1054300009D0984207D0404505D0B04203D0B842C9
:1054400001D0604503D122F44074CA68224302604F
:105450008A68C2620A688262A84201D0984201D179
:105460000969016301214161BDE8F081002C01401F
:105470000004004000080040000C004000340140DF
:1054800010B501238B40046A9C430462036A8A407E
:105490001343036210BD10B5846824F47F4442EACC
:1054A00003220A432243826010BD826822F0700208
:1054B0000A4342F00701816070470000F0B5026ABC
:1054C00022F001020262026A4368846924F07004D7
:1054D00024F003050C682C4322F002058A682A4355
:1054E0000E4E0F4FB04201D0B84205D122F0080550
:1054F000CA682A4322F00402B04201D0B84207D160
:1055000023F4807323F400734D691D438B692B438F
:1055100043608461496841630262F0BD002C014030
:1055200000340140F0B5026A22F010020262036A00
:105530004268846924F4E04424F440740D6844EA29
:10554000052423F020038D6843EA0513104D114E06
:10555000A84201D0B04206D123F08003CF6843EACD
:10556000071323F04003A84201D0B04209D122F42E
:10557000806222F400624D6942EA85028D6942EA46
:10558000850242608461496881630362F0BD000066
:10559000002C014000340140F0B5026A22F4807210
:1055A0000262026A4368C46924F0700424F00305AF
:1055B0000C682C4322F400728D6842EA0522104DDB
:1055C000104EA84201D0B04206D122F40062CF684A
:1055D00042EA072222F48062A84201D0B04209D1F7
:1055E00023F4805323F400534D6943EA05138D6976
:1055F00043EA05134360C4614968C1630262F0BDB8
:10560000002C01400034014030B5026A22F480527F
:105610000262046A4268C36923F4E04323F44073DE
:105620000D6843EA052324F400548D6844EA0534E8
:10563000084DA84202D0084DA84204D122F480426D
:105640004D6942EA85124260C3614968016404629F
:1056500030BD0000002C01400034014010B5036A49
:10566000046A24F001040462846924F0F00444EA2A
:10567000021423F00A020A438461026210BD10B5CD
:10568000036A23F0100303628469036A24F47044FC
:1056900044EA023223F0A00343EA0111826101626D
:1056A00010BD10B50168CA6822F04002CA6090F8C7
:1056B0003910322906D0012180F83910FEF72EFC6E
:1056C000002010BD222180F83910F7E710B590F8BE
:1056D0003910222903D0322901D0022010BD81685F
:1056E000B1F5805F11D0016919B30168496801F013
:1056F0007F03816A4A1C82620B70C18D491E0904B6
:10570000090CC1851CD0002010BD816A02693AB124
:1057100002685268D2B20A80816A491C8162ECE751
:1057200002685268C2F308020A80816A891C816299
:10573000E3E701684A68816A4B1C83620A70DCE710
:105740000168CA6822F02002CA6090F83910322934
:1057500010D00168CA6822F48072CA6001684A6980
:1057600022F001024A61012180F83910FEF7E8F8C1
:10577000002010BD122180F83910F7E72DE9F04123
:10578000044620680169E26821F440511143016137
:10579000A16820690143606901432068C26841F241
:1057A0000C639A430A43C26020684169A26921F4EC
:1057B0004071114341613349206864253226884293
:1057C00030D1FCF775FF00EBC00101EB0010616800
:1057D0008900B0FBF1F0B0FBF5F7FCF769FF00EBD7
:1057E000C00101EB001061688900B0FBF1F8FCF723
:1057F0005FFF00EBC00101EB001061688900B0FBA6
:10580000F1F0B0FBF5F06FF01801484308EB8000B1
:1058100006EB0010B0FBF5F0216867F31F108860FD
:10582000BDE8F081FCF72EFF00EBC00101EB00109A
:1058300061688900B0FBF1F0B0FBF5F7FCF722FFDF
:1058400000EBC00101EB001061688900B0FBF1F8CA
:10585000FCF718FF00EBC00101EB00106168890044
:10586000B0FBF1F0B0FBF5F06FF01801484308EB26
:10587000800006EB0010B0FBF5F0216867F31F1005
:105880008860CDE70038014090F83910122903D024
:10589000322901D0022070478168B1F5805F0CD0B9
:1058A000016A4A1C0262026809785160C18C491E73
:1058B0000904090CC18410D019E0016A0268098842
:1058C000C1F308015160016919B1016A491C016203
:1058D000ECE7016A891C0162E8E70168CA6822F006
:1058E0008002CA600068C16841F04001C1600020C8
:1058F00070472DE9F04704460F4692461D46FCF7D7
:1059000087FA06464FF000084FF00109BAF1000F80
:1059100023D04AE0681C20D025B1FCF779FA801B1F
:10592000A8421AD92068C16821F08001C1602068AE
:10593000C16821F02001C1602068C16821F4807134
:10594000C1602068416921F00101416184F839900A
:1059500084F838800320BDE8F0872068006837EAC3
:105960000000D7D126E0681C1FD025B1FCF750FA03
:10597000801BA84219D92068C16821F08001C1604C
:105980002068C16821F02001C1602068C16821F44D
:105990008071C1602068416921F00101416184F892
:1059A000399084F838800320D5E72068006837EA0A
:1059B0000000D8D00020CEE70148FDF7CEBE0000A1
:1059C0005C010020FEE700000FB4054B10B503A9F1
:1059D000044A029800F0CAF810BC5DF814FB0000FD
:1059E0009D6200085800002002E008C8121F08C18C
:1059F000002AFAD170477047002001E001C1121F50
:105A0000002AFBD1704700002DE9FF5FDDE902208D
:105A1000010DDDF838B0024318D044F61050A1F261
:105A2000FF3141430D140F98012820D0A5EB0B0046
:105A3000401C5FEA000A4FF00004474EDFF81C915B
:105A4000A046504616D5CAF1000728E00F98012459
:105A500043A2012808D0002100980F9BC0E9002133
:105A6000C0E90243BDE8FF9F6FEA0B01F4E7CBF109
:105A70000000DEE7074612E0F80707D0224633466B
:105A800040464946FAF7BDFD8046894622463346E0
:105A900010461946FAF7B5FD04460E467F10002F52
:105AA000EAD1DDE90201BAF1000F42464B4602DAC3
:105AB000FAF7A7FD01E0FAF716FE04460E460022AB
:105AC000284BFAF797FE03D84FF0FF30014607E066
:105AD0000022254B20463146FAF7ECFCFAF772FE1D
