:020000040800F2
:10000000B814002045010008D14600080F3C000844
:100010001D460008891000089D56000800000000D9
:100020000000000000000000000000005701000870
:1000300095160008000000005B010008154F00083D
:100040005F0100085F0100085F0100085F01000810
:100050005F0100085F0100085F0100085F01000800
:100060005F0100085F0100085F0100085F010008F0
:100070005F0100085F0100085F0100085F010008E0
:100080005F0100085F0100085F0100085F010008D0
:100090005F0100085F0100085F0100085F010008C0
:1000A0005F0100085F0100085F010008C94F0008F8
:1000B0005F0100085F0100085F0100080D3D0008B6
:1000C000013D00085F0100085F0100085D4800086D
:1000D0005F010008915600085F0100085F010008F9
:1000E0005F0100085F0100085F0100085F01000870
:1000F0005F0100085F0100085F0100085F01000860
:100100005F0100085F0100085F0100085F0100084F
:100110005F0100085F0100085F0100085F0100083F
:100120005F0100085F0100085F0100085F0100082F
:10013000DFF80CD000F02CFB004800478D5F000872
:10014000B81400200648804706480047FEE7FEE74F
:10015000FEE7FEE7FEE7FEE7FEE7FEE7FEE7FEE777
:10016000814F000831010008202A04DB203A21FADF
:1001700002F00021704721FA02F3D040C2F12002C0
:10018000914008431946704740EA01039B0703D09A
:1001900009E008C9121F08C0042AFAD203E011F8C6
:1001A000013B00F8013B521EF9D27047421C10F887
:1001B000011B0029FBD1801A704770B521F0004364
:1001C00003430CD0C1F30A550024D5EB040564EBBE
:1001D0000403D617AD1AB34102DB0020014670BDFF
:1001E000201841EB025170BD0EB5C10F80EAE070DE
:1001F0000844CA07002140F233438DE80E000A4646
:100200000B4600F0BEF803B000BD00F0004230F035
:1002100000400AD0C10D01F56071C0F3160042EA3A
:100220000151C20840071143704700200146704742
:1002300001F0004330B421F0004150EA010206D041
:100240000A0DA2F56072C1F31301002A02DC30BC72
:1002500000207047440F44EAC104C100E01830BCDC
:1002600000EBC25000F047B830B50B460146002005
:100270002022012409E021FA02F59D4205D303FA68
:1002800002F5491B04FA02F52844151EA2F10102E9
:10029000F1DC30BD2DE9F05F0546002092469B461B
:1002A00088460646814640241BE02846414647468C
:1002B0002246FFF759FF53465A46C01A914110D3C0
:1002C00011461846224600F075FA2D1A67EB010810
:1002D0004F4622460120002100F06CFA17EB00097E
:1002E0004E41201EA4F10104DFDC484631462A4677
:1002F0004346BDE8F09F0029A8BF7047401C490055
:1003000008BF20F00100704710B4B0FA80FC00FA7A
:100310000CF050EA010404BF10BC704749B1CCF1A5
:10032000200421FA04F411FA0CF118BF0121214331
:100330000843A3EB0C01CB1D4FEA00614FEA1020EC
:1003400042BF002010BC704700EBC350104400298E
:10035000A4BF10BC7047401C490008BF20F001003A
:1003600010BC704710B5141E73F1000408DA401C6D
:1003700041F1000192185B411A4301D120F00100C4
:1003800010BD2DE9F04D92469B4611B1B1FA81F2B4
:1003900002E0B0FA80F22032904600F00BFA0446F8
:1003A0000F4640EA0A0041EA0B0153465A46084309
:1003B00013D0114653EA010019D0C8F1400250464B
:1003C000FFF7D2FE05460E4650465946424600F01B
:1003D000F1F9084305D0012004E020463946BDE884
:1003E000F08D0020054346EAE0762C4337430A9817
:1003F0006305E40AA0EB08000022FD0A44EA475422
:100400000A3002D500200146E9E7010510196941CB
:10041000DDE9084500196941BDE8F04DA2E72DE985
:10042000FE4F804681EA0300C00F0C46009021F089
:10043000004123F00045B8EB0200A94105D2404637
:10044000214690461C460B46024623F000401043CE
:1004500047D0270DC7F30A00C3F30A510290401A90
:10046000019040286BDAC3F3130040F4801B00981E
:10047000924620B10023D2EB030A63EB0B0B0198E9
:100480005946C0F14002504600F094F906460D4628
:1004900050465946019A00F09CF910EB0800614162
:1004A000002487EA115284EAE7731A4340D0009A85
:1004B00062B3019A012A4FEA075215DC001B61EB77
:1004C00002014FF0004202EA0752CDE90042001C4F
:1004D00041F5801132462B46FFF753FF03B0BDE8CC
:1004E000F08F40462146F9E7001B61EB0201001C3A
:1004F00041F5801300185B412018A2F5001747EB67
:10050000030140EAD570B6196D4111E06D084FEA5C
:10051000360645EAC0754FEA0752001B61EB02013F
:10052000001C41F5801149084FEA30000019514183
:1005300032462B4603B0BDE8F04FFFF713BF0098DB
:10054000012240000023D0EB020263EBE07300982D
:1005500021464FEAE074B8EB000061EB0401E9E7E3
:1005600083F000435BE781F0004158E72DE9FE4F3F
:1005700081EA030404F0004421F0004100944FF0AC
:10058000000B23F0004350EA01045ED052EA03045A
:100590005BD0C3F30A54C1F30A552C44A4F2F334DC
:1005A0000194A0FB0254C1F3130141F48011C3F381
:1005B000130343F4801301FB024400FB034E840A3F
:1005C000970A44EA815447EA8357A4FB07680295D7
:1005D0008D0A05FB07854FEA932C04FB0C54270575
:1005E000029D4FEA065847EA1637B5EB08056EEB51
:1005F000070C870E920E47EA811742EA8312A7FB87
:100600000201B6EB0B0164EB00042B0D43EA0C3343
:100610005E1844EB1C50DA465146E7FB0201C5F375
:1006200013044FEA0B3343EA14534FEA0432019C9C
:1006300043EA0603A4F10C040294009CCDE900B443
:10064000FFF79FFE03B0BDE8F08F00200146F9E7F9
:100650002DE9F04D81EA030404F0004B21F0004540
:1006600014464FF0000A23F0004150EA050220D062
:1006700054EA01021DD0C5F30A570246C5F313031D
:10068000C1F31300C1F30A5640F4801543F48013FC
:10069000A7EB0608101BD64608F2FD3873EB0500E1
:1006A00002D308F1010801E092185B41B8F1000F94
:1006B00003DA00200146BDE8F08D00204FF48011E0
:1006C000064684460EE0171B73EB050705D3121B85
:1006D00063EB050306434CEA010C49084FEA30007E
:1006E00092185B4150EA0107EDD152EA030012D0A3
:1006F00082EA040083EA0501084305D0101BAB41E0
:1007000006D20122002306E000224FF0004302E05F
:100710006FF0010253101AEB06004CEB085110EB7E
:100720000A0041EB0B01BDE8F04DFFF71BBEC1F322
:100730000A52C1F3130140F2FF3341F480119A428F
:1007400002DA00200146704740F233439A42A2F297
:10075000334202DC5242FFF707BD00F02BB8000025
:1007600030B5041E71F1000404DB4FF00044404238
:1007700064EB0101141E73F1000405DB1C464FF00D
:100780000043524263EB0403994208BF904230BDDC
:10079000064C074D06E0E06840F0010394E80700CE
:1007A00098471034AC42F6D3FFF7C6FC74620008D9
:1007B00094620008202A04DB203A00FA02F10020AB
:1007C00070479140C2F1200320FA03F3194390408F
:1007D0007047202A06DBCB17203A41FA02F043EAA1
:1007E000E07306E041FA02F3D040C2F120029140EA
:1007F00008431946704700002DE9F041B54E4FF40B
:100800008071304601F074F908B900F0DBFDB248A0
:100810000088B24AB24D0024B249B0F5347F7DD091
:1008200018DCB0F5247F63D00ADC002877D0A0F56F
:10083000007002382AD031283CD0802823D12FE004
:10084000B0F5287F4AD0B0F52C7F3DD0B0F5307F91
:1008500019D161E042F2021C0127A0EB0C036045B4
:100860007ED00ADCA0F50070EE387AD0112849D08D
:10087000A0F5F050133806D10AE1012B72D0022BFB
:1008800071D0DE2B70D00C70BDE8F0810C7054700C
:100890000220AB786A782978BDE8F04103F0E4BF24
:1008A0000C7054708220AB786A782978BDE8F041EA
:1008B00003F0DABF0C7054703320AB786A78297873
:1008C000BDE8F04103F0D0BF0C705470B020AB789D
:1008D0006A782978BDE8F04103F0C6BF0C70547007
:1008E000A020AB786A782978BDE8F04103F0BCBF5E
:1008F0000C7054709020AB786A782978BDE8F0418C
:1009000003F0B2BF0C705470FF20AB786A7829787E
:10091000BDE8F04103F0A8BF0C7001E009E012E06F
:100920005470C020AB786A782978BDE8F04103F0B4
:100930009BBF0C705470D020AB786A782978BDE8E2
:10094000F04103F091BF0C705470AB786A7829784D
:10095000204603F089FFAB786A782978204604E0C6
:100960008CE00CE068E076E0A4E003F07DFFAB787B
:100970006A7829782046BDE8F04103F075BF0C7015
:10098000594804705470EE20AB786A78297803F0E7
:100990006BFF4FF4805400222146304601F0AFF83F
:1009A000651000222946304601F0A9F8C82000F061
:1009B0008BFF01222146304601F0A1F80122294691
:1009C000304601F09CF8C82000F07EFF002221464E
:1009D000304601F094F800222946304601F08FF8A5
:1009E000C82000F071FF01222146304601F087F84F
:1009F00001222946304601F082F8C82000F064FF49
:100A000000222146304601F07AF80022294630467D
:100A100001F075F8C82000F057FF0122214630464A
:100A200001F06DF801222946304601F068F8BDE872
:100A3000F041C82000F048BF0C7057700320AB781D
:100A40006A78297803F010FF642000F03DFFBDE8CC
:100A5000F04100F0E3BA0C7057700420AB786A786C
:100A6000297803F001FF642000F02EFF00F0ACFABB
:100A70000146BDE8F0411DA004F012BE0C70577095
:100A80000220AB786A782978BDE8F04103F0ECBE2B
:100A90000C7038465770AB786A78297803F0E4FE1A
:100AA0000A2000F011FF154881784078BDE8F04138
:100AB00003F020BE0C705770E020AB786A7829787C
:100AC00003F0D2FEC82000F0FFFEBDE8F04103F0C5
:100AD00039BE0000000C0140120000204900002037
:100AE000140000200E0000200C00002041325F4264
:100AF0005256203D202564200A00000017000020E7
:100B00002DE9F84FE14D4FF4807A5146284600F028
:100B1000EFFF08B900F056FCDD4802884FF480561C
:100B2000DC49DFF874837710DC4BDD480024A02A11
:100B30007ED00ADCDFF86C93022A11D0332A78D0F9
:100B4000822A4CD0902A08D1E5E0B02A72D0C02A7F
:100B500071D0D02A70D0FF2A6FD00470BDE8F88F12
:100B600004700C7099F8022099F8011099F80000AF
:100B7000B8F8003000F035FB5146284600F0B8FFC9
:100B800008B900F01FFC022000F09EFE51462846E6
:100B900000F0AEFF08B900F015FC012231462846EE
:100BA00000F0ADFF00223946284600F0A8FF0220E1
:100BB00000F08AFE5146284600F09AFF08B900F07E
:100BC00001FC5146284600F093FF08B900F0FAFBFB
:100BD00089F8004089F8014089F80240BEE70470B6
:100BE0000C7099F8022099F8011099F80000B8F8F3
:100BF000003000F0EFFA5146284600F079FF08B9BE
:100C000000F0E0FB022000F05FFE002231462846A3
:100C100000F075FF01223946284600F070FF51466A
:100C2000284600F065FF08B900F0CCFB022005E083
:100C30004AE013E033E0E0E005E18DE000F044FE3F
:100C40005146284600F054FF08B900F0BBFB89F874
:100C5000004089F8014089F802407FE704700C7079
:100C60005146284600F044FF08B900F0ABFB99F864
:100C7000022099F8011099F80000B8F8003004F04B
:100C80002DF85146284600F033FF08B900F09AFBD2
:100C900089F8004089F8014089F802405EE7047055
:100CA0000C7003F0C3FD80490880B8F800100020E4
:100CB00003F0FAFE5146284600F01AFF00288DD1B5
:100CC000BDE8F84F00F07EBB047004F0A9F8774847
:100CD00000680168406800901E2000F0F5FD0122C8
:100CE0003146284600F00BFF01223946284600F025
:100CF00006FF1E2000F0E8FD00223146284600F0E5
:100D0000FEFE00223946284600F0F9FEBDE8F84F05
:100D10000A2000F0D9BD04705979187900F0FCFA66
:100D20001E2000F0D1FD01223146284600F0E7FEEA
:100D300001223946284600F0E2FE1E2000F0C4FDE4
:100D400000223146284600F0DAFE39462846BDE842
:100D5000F84F002200F0D3BE04700022314628462E
:100D600000F0CDFE00223946284600F0C8FEC8201B
:100D700000F0AAFD01223146284600F0C0FE012203
:100D80003946284600F0BBFEC82000F09DFD002239
:100D90003146284600F0B3FE00223946284600F0CE
:100DA000AEFEC82000F090FD01223146284600F03A
:100DB000A6FE01223946284600F0A1FEC82000F018
:100DC00083FD00223146284600F099FE0022394674
:100DD000284600F094FEC82000F076FD012231463E
:100DE000284600F08CFE01223946284600F087FE96
:100DF000BDE8F84FC82000F067BD04702C48597951
:100E00000170007803F01EFB00F026FD0C2129483C
:100E100002F004FB00223146284600F070FE012259
:100E20003946284600F06BFE0A2000F04DFD0122F5
:100E30003146284600F063FE39462846BDE8F84FA3
:100E4000002200F05CBE047000F060FC0A2000F09C
:100E50003BFD01223146284600F051FE0122394671
:100E6000284600F04CFE0A2000F02EFD00223146FC
:100E7000284600F044FE00223946284600F03FFE96
:100E8000BDE8F84F0A2000F01FBD0000000C014033
:100E9000120000200B0000202A0000205C0000202F
:100EA0000A000020140000202C0000205C0100201B
:100EB000240000209C01002010B514480088144A2A
:100EC000A0F5807001384FF000011AD0022805D03B
:100ED00003280DD0DF2806D0117010BD1170BDE8B9
:100EE000104000F0D9BB1170BDE8104000F018B8F8
:100EF000117003F071FA0146BDE8104005A004F03E
:100F0000CFBB1170BDE8104003F058BC12000020A8
:100F10000F000020425256203D202564200A000088
:100F20002DE9FC411EA003C8CDE9000100F0E2FB61
:100F3000012833D100201C4C00212154401CC0B298
:100F40000428FAD304220521174800F017FCC82012
:100F500000F0BAFCE0788DF80400A0788DF803006A
:100F600060788DF80200207802F0ACFE05466078CB
:100F700002F06CFE0646A07802F086FE0746E07896
:100F800002F046FEA9193944014408A004F088FB88
:100F90000C23062269460B4802F0CCFDBDE8FC811B
:100FA000A1030000000B0000200300204545505223
:100FB0004F4D20706F736974696F6E3D20256C64AE
:100FC000200A00005C0100201CB50AA003C8CDE97E
:100FD00000010A4884788DF80440214608A004F0F6
:100FE0005FFB0C23062269460B4802F0A3FD204656
:100FF0001CBD0000A2040000000B00001700002030
:101000004C616D70204272696768746E65737320FD
:101010006973202564200A005C0100207CB512A0C1
:1010200003C8CDE90001124CA0788DF80400607867
:101030008DF8030020788DF8020002F007FE0646C6
:10104000607802F021FE0546A07802F0E1FD7119FA
:10105000014408A004F024FB0C2306226946094839
:1010600002F068FD7CBD0000A2030000000B000040
:10107000170000205265616C54696D653D20256C38
:1010800064200A005C010020FEE700002DE9F05F0B
:10109000804642F21074DFF814914548454F01260E
:1010A000454D4FF00A0AB8F1000F1EDA6E700022AB
:1010B000082100F024FD39784048C8F100080129D2
:1010C00001D1797821B1C7F80480C0F800801EE012
:1010D00087F800A0C0F8008000F0A0F87860C5F89C
:1010E00008807868C9F8000011E0002169700122C9
:1010F000082100F004FD3248C0F800803978012949
:1011000001D17978E9B3C0F80080C5F808802D4F87
:10111000DFF8B490DFF8B4B04FF4005AB8F1000F24
:1011200022D04FF49668C5F804802E703868426A61
:101130006B68991841630021224802F053F801229C
:101140000021484604F008F801225146584600F0B4
:10115000D6FC641EA4B2E6D200F04CF801461C484E
:101160000180008868602E703868416A6A6811449E
:1011700041630021134802F035F80122002148465E
:1011800000E008E003F0E8FF51465846BDE8F05F94
:10119000012200F0B4BC87F800A0C0F8008000F085
:1011A0003DF8C9F80000C5F80880B0E7400000200D
:1011B000000801401C000020D80100203800002059
:1011C00034000020E4010020002C0140000C01400C
:1011D0002A000020000440EA01201043194603F0D1
:1011E0008DBC000440EA012010431946404203F040
:1011F00085BC000010B500F07DFA012809D102225B
:101200001021054800F0BAFA03484178007841EA15
:101210000024204610BD0000200300202DE9F041ED
:1012200000F068FA01281AD1042205210D4800F0C7
:10123000A5FAC82000F048FB0A4C207802F042FDD5
:101240000546607802F002FD0646A07802F01CFD1B
:101250000746E07802F0DCFCA91939440C18204656
:10126000BDE8F081200300202DE9F041204801680D
:10127000CCB20168C1F307250168C1F307460068D5
:10128000070E00F037FA01282FD10020194B1A4918
:1012900000221A540A54401CC0B20428F9D30F701B
:1012A0004E708D70CC7004220521134800F09BFA1B
:1012B0000446C82000F008FB012C04D0BDE8F04132
:1012C0000EA004F0EDB9134D4FF400640022214646
:1012D000284600F014FC0A2000F0F6FA21462846C1
:1012E000BDE8F041012200F00ABCBDE8F081000039
:1012F0003C00002020030020200200206565707261
:101300006F6D20636865636B206572726F72200A6F
:1013100000000000000C01402DE9F04106460F4698
:1013200000F0E8F9012844D1234C002020706070BF
:10133000224D2E706F7002221021284600F053FAC1
:10134000642000F0C1FA02221021204600F016FAB3
:1013500000224FF400611A4E4F00A05CAB5C984233
:1013600009D00022304600F0CAFB00223946304640
:1013700000F0C5FBFEE7521CD2B2022AEDD318D111
:1013800000220C46304600F0BAFB002239463046B7
:1013900000F0B5FBC82000F097FA01222146304644
:1013A00000F0ADFB39463046BDE8F041012200F0C7
:1013B000A6BBBDE8F0810000200300202002002031
:1013C000000C014010B5114901200870002110489F
:1013D00001F06EFF002211460E4803F0BDFE0C49DD
:1013E0006FF00200096808610B4C00224FF4804145
:1013F000204600F084FBFFF737FF002261142046EF
:1014000000F07DFBBDE8104000F046B91C00002054
:10141000E4010020002C0140000C014006E0002106
:10142000491CC9B20A29FBD3401E80B20028F6D15C
:10143000704770B5054600F055F80024285D00F0AF
:10144000F7F8641CE4B2082CF8D3442000F0F0F85C
:1014500000F048F80024285D00F0EAF8641CE4B2CB
:10146000082CF8D3BE2000F0E3F800F0ABF80446F7
:1014700000F0A8F8000200B220436FF00304002837
:101480000ADAC043401CFEF7AFFE2246FEF795FE87
:10149000BDE87040FEF7CCBEFEF7A6FE2246FEF782
:1014A0008CFEBDE87040FEF7C3BE000008B50B48D7
:1014B000816941F004018161806900F004000090BD
:1014C00000F028F801220221054800F018FB00F086
:1014D00095F8BDE8084000F02BB80000001002406D
:1014E0000008014010B500F089F800F021F8BDE8CF
:1014F0001040552000F09CB81FB50220009000203D
:101500000190012002906946014800F0E9F91FBDF1
:10151000000801401FB50220009001200190032027
:1015200003906946014800F0DBF91FBD0008014047
:1015300070B50024FFF7E0FF124D04E0641CE4B234
:101540000120FFF76BFF0221284600F0D1FA08B115
:10155000642CF3D3642C01D3012070BD002404E07B
:10156000641CE4B20120FFF759FF0221284600F075
:10157000BFFA08B9F02CF3D3F02C01D3012070BDD1
:10158000002070BD0008014010B5FFF7C3FF0C4CF0
:1015900000220221204600F0B2FA0A20FFF73EFFA7
:1015A000FFF7AAFF0221204600F0A2FA012805D089
:1015B00000242D20FFF732FF204610BD0124F8E75C
:1015C0000008014070B500250024FFF7DDFFA040B2
:1015D0002843C5B2641CE4B2082CF6D3284670BD7B
:1015E00070B50546332000F023F80024FFF7EAFF2A
:1015F0002855641CE4B2082CF8D370BD10B5FFF771
:1016000089FF0A4C00220221204600F078FA40F2BD
:10161000EE20FFF703FF01220221204600F06FFABF
:10162000BDE810400F20FFF7F9BE000000080140A0
:1016300070B50546FFF76EFF0024154E05F001005A
:101640006D0880B100220221304600F058FA0820CF
:10165000FFF7E4FE01220221304600F050FA3A2062
:10166000FFF7DCFE0FE000220221304600F047FACF
:101670004620FFF7D3FE01220221304600F03FFA58
:101680000220FFF7CBFE641CE4B2082CD6D370BD59
:1016900000080140FEE700001CB50CA003C8CDE91E
:1016A00000010C4801688DF80410080A8DF8030049
:1016B000080C8DF8020008A003F0F2FF0C230622AC
:1016C00069460B4802F036FA1CBD0000A103000079
:1016D000000B00003C0000207265616C20706F738D
:1016E0006974696F6E3D20256C64200A000000005B
:1016F0005C01002010B5A02002F02EFB18B102F012
:1017000045FD002010BD012010BD000070B5FFF7A1
:10171000F1FF012814D100201449154A00240C546B
:101720001454401C80B20A28F9D309220021104821
:1017300000F059F805460F480460642000F0C4F832
:10174000012D00D0FEE70C4D4FF40064002221462D
:10175000284600F0D4F9142000F0B6F821462846B7
:10176000BDE87040012200F0CAB90000200300204B
:10177000200200203C000020000C01402DE9F04137
:1017800005460C46164602F0E1FCA02002F03CFCA7
:1017900002F014FD68B9E0B202F036FC02F00EFD72
:1017A00038B902F0D3FCA12002F02EFC02F006FDB5
:1017B00020B102F0EBFC0020BDE8F0810024771E90
:1017C0000BE002F0FDFB2855BC4202D002F0A4FA67
:1017D00001E002F0D9FB641CA4B2B442F1D302F0E0
:1017E000D5FC0120E8E72DE9F04780460E469146FA
:1017F00000254FF47A7729E00DB1700716D102F079
:10180000C5FC002402F0A2FCA02002F0FDFB02F0C7
:10181000D5FC18B1641CA4B2BC42F3D3BC420CD0BA
:10182000F0B202F0F1FB02F0C9FC30B918F8050083
:1018300002F0EAFB02F0C2FC20B102F0A7FC00209B
:10184000BDE8F087761CB6B26D1CADB24D45D3D362
:1018500002F09CFC0120F3E710B58EB01848174940
:10186000016008214160002484606421C16004613A
:1018700001F07BFB4FF480500A900AA9104801F058
:10188000C0FB0894099408A90D4801F046FB6020AC
:1018900001900C480078029003940594002201A95D
:1018A000074801F04DFD0C2201A9054801F048FD53
:1018B000034801F02DFC0EB010BD000000080040F0
:1018C0009C0100202400002031B500F01FF90446DF
:1018D00000F01CF90099001B8842F9D338BD0000C4
:1018E0002DE9F84F00230024DFF8DC914FF00F08BA
:1018F00009F1040A0AF1040B0BF1040E0127A740B9
:101900000A683A40BA4275D1DFF8C0C14D68A5EB0C
:101910000C0665452BD00DDC032D34D005DC35B32A
:10192000012D19D0022D2FD11BE0112D16D0122D13
:101930002AD119E0B6F5881F19D006DCB6F5803F2C
:1019400015D0B6F5801F1FD111E0B6F5001F0ED0DF
:10195000B6F5041F18D10AE0CB6815E0CB681B1D53
:1019600012E0CB6808330FE0CB680C330CE08B68D7
:1019700023B1012B04D00823476105E0042303E0D1
:101980000823076100E00023FF2A01D8054601E093
:1019900000F1040502D84FEA840603E0A4F108062A
:1019A0004FEA86062F6808FA06FC27EA0C0703FAB6
:1019B00006F647EA06072F604D68ED007ED5444DD8
:1019C000AE6946F00106AE61AD6905F0010500950E
:1019D000404D24F003067719BE68A5072D0F08FABD
:1019E00005FC26EA0C06DFF8F0C0604503D14FF095
:1019F000000C25E062E0DFF8E4C0604502D14FF062
:101A0000010C1DE0DFF8D8C0604502D14FF0020C98
:101A100016E0DFF8D0C0604502D14FF0030C0FE0B4
:101A2000DFF8C4C0604502D14FF0040C08E0DFF8D5
:101A3000BCC0604502D14FF0050C01E04FF0060C30
:101A40000CFA05FC4CEA060CC7F808C04D68ED031B
:101A500005D5D9F800501543C9F8005004E0D9F86D
:101A600000509543C9F800504D68AD0305D5DAF82C
:101A700000501543CAF8005004E0DAF800509543CE
:101A8000CAF800504D68ED0205D5DBF8005015434B
:101A9000CBF8005004E0DBF800509543CBF8005041
:101AA0004D68AD0205D5DEF800501543CEF8005064
:101AB00004E0DEF800509543CEF80050641C102C72
:101AC000FFF41CAFBDE8F88F0004014000001110C6
:101AD000001002400000014000080140000C0140DD
:101AE000001001400014014000180140001C01409A
:101AF0008068084201D00120704700207047002A0A
:101B000001D0016170470904016170470148006814
:101B1000704700000400002010B5044620684169A9
:101B2000C1F300214268C2F3002200290ED0012A2D
:101B30000CD1A16B41F00101A163416921F48071D5
:101B400041612068016841F40041016020684169F9
:101B5000C1F340214268C2F3002249B1012A07D1F2
:101B6000A16B41F00201A163416921F4007141615F
:101B700020684169C1F380214268C2F30022C1B1EB
:101B8000012A16D194F83620638D94F83510202A56
:101B900002D10BB9212917D0A16B41F00401A16337
:101BA000016841F4007101602068416921F480619D
:101BB000416120684169C1F3C0214268C2F300223B
:101BC00071B1012A04D00BE0204602F08EFAF0E752
:101BD000A16B41F00801A163416921F400614161F9
:101BE000A06B00280AD0202084F835002068016806
:101BF00021F400610160204600F096F810BD30B479
:101C000090F836200168102A15D090F83620402A26
:101C100011D04A69C2F340034A68C2F340224C69BA
:101C2000C4F300148D69C5F380050BB1012A3AD0C5
:101C3000012C3BD03CE08A69D243520719D44A694F
:101C4000C2F3C0134A68C2F380244A69C2F3800217
:101C50004968C1F3402113B1012C00D132B1012AEE
:101C600060D101295ED130BC02F054B930BC02F021
:101C700078B94A69C2F380134A68C2F380244A697A
:101C8000C2F380024968C1F3402113B1012C00D195
:101C900032B1012A46D1012944D130BC02F0BCB88E
:101CA00030BC02F003B930BC02F018BA012A11D0DE
:101CB000012D12D04A69C2F380134A68C2F380240E
:101CC0004A69C2F380024968C1F3402103B3012C81
:101CD0001DD01DE030BC02F01FBA4A69C2F3C01328
:101CE0004A68C2F380244A69C2F380024968C1F39A
:101CF000402113B1012C00D132B1012A12D10129A6
:101D000010D130BC02F0CEB930BC02F0D9B932B13A
:101D1000012A07D1012905D130BC02F0A7B930BC96
:101D200002F0B2B930BC70477047000070B504468D
:101D3000002C04D094F83500002510B106E00120F5
:101D400070BD84F83450204600F04AF8242084F80E
:101D500035002068016821F00101016000F010FBEE
:101D600001461B48B1FBF0F022685060194B6268D5
:101D70009A4201D8401C07E04FF4967250434FF44A
:101D80007A72B0FBF2F0401C22681062204601F02B
:101D9000F3FF2168C861D4E907010843216808609E
:101DA000D4E90310084321688860D4E90501084399
:101DB0002168C8602068016841F001010160A563E5
:101DC000202084F8350084F83650002070BD0000D3
:101DD00040420F00A086010070477047704770476F
:101DE00000B585B01648C16941F40011C161C169EF
:101DF00001F400110091816941F00801816180695D
:101E000000F008000090C0200190122002900320F2
:101E1000049001A90B48FFF763FD00221146202022
:101E200000F006F9202000F0F7F8002211461F20EC
:101E300000F0FEF81F2000F0EFF805B000BD000034
:101E400000100240000C014010B5134A02F10D03CE
:101E5000D078D1791954002804D0012808D002285C
:101E60000CD010E00120D0700CA003F019FC0AE0A7
:101E70000220D0700EA003F013FC04E00020D0700C
:101E800010A003F00DFC04490422BDE81040C91D58
:101E9000114800F025B800000A0000207278637035
:101EA0006C7463616C6C5B305DA3BA2523780A00A7
:101EB000727863706C7463616C6C5B315DA3BA257E
:101EC00023780A00727863706C7463616C6C5B32A7
:101ED0005DA3BA2523780A0078040020704700002B
:101EE00070B504460E46154694F83500202801D0FA
:101EF000022070BD56B14DB142F210730122184953
:101F0000204602F07FF918B1022070BD012070BD9B
:101F100094F83400012820D0012084F8340020688F
:101F2000016821F400610160222084F8350020203E
:101F300084F836000021A1636662258565852068E6
:101F4000026842F48062026084F8341020684168BC
:101F500041F4E0614160002070BD022070BD0000CE
:101F60000200100002480168491C0160704700002F
:101F70000400002010B50748016841F0100101601D
:101F8000052000F075F8002000F006F800F016F8C3
:101F9000002010BD0020024010B5044600F0D6F924
:101FA0004FF47A72B0FBF2F000F07EFF002221467F
:101FB000501E00F03DF8002010BD000008B5154887
:101FC000816941F001018161806900F001000090A8
:101FD000052000F04DF8002211466FF00B0000F0D4
:101FE00027F8002211466FF00A0000F021F80022C5
:101FF00011466FF0090000F01BF800221146101F77
:1020000000F016F80022BDE808401146501E00F00E
:102010000FB800000010024000F01F0201219140A3
:102020004009800000F1E020C0F800117047000076
:10203000F0B40D460D4B1B68C3F30223C3F1070434
:10204000042C00D90424191D072901D2002300E023
:10205000DB1E012606FA04F1491E294099409E40E4
:10206000761E16403143F0BC02F033BB0CED00E0AD
:1020700000F00701054A10684FF6FF03184040EAD8
:102080000120034908431060704700000CED00E098
:102090000000FA052DE9F04704460F46DFF8A49248
:1020A000D9F80000A84D00F00701012043044606BE
:1020B0004FF0020C41F28838B9426FD2D9F80010C3
:1020C00021F007013943C9F80010D9F8001001F0D8
:1020D0000701B94201D0BDE8F0872178890705D50D
:1020E0006968A26821F0F001114369602178C9078D
:1020F00061D0616801290BD002291FD09CFAACF293
:10210000B2FA82F242F0200252092DD02A682CE065
:1021100093FAA3F2B2FA82F242F02002520901D0FD
:102120002A6800E06A6A93FAA3F3B3FA83F303F030
:102130001F039840024223D10120CCE796FAA6F271
:10214000B2FA82F242F02002520901D02A6800E07D
:102150006A6A96FAA6F3B3FA83F303F01F03984072
:1021600002420DD10120B6E76A6A9CFAACF3B3FAD9
:1021700083F303F01F039840024201D10120AAE734
:10218000686820F0030008436860FFF7BFFC06465C
:10219000606801280AD0022815D021E025E0FFF769
:1021A000B5FC801B404501D9032094E76868C0F363
:1021B00081000128F3D1ADE0FFF7A8FC801B40456A
:1021C00001D9032087E76868C0F381000228F3D1B2
:1021D000A0E0FFF79BFC801B404501D903207AE774
:1021E000686810F00C0FF4D194E02178890705D5C8
:1021F0006968A26821F0F001114369602178C9077C
:1022000079D0616801290BD002291FD09CFAACF269
:10221000B2FA82F242F0200252092DD02A682CE054
:1022200093FAA3F2B2FA82F242F02002520901D0EC
:102230002A6800E06A6A93FAA3F3B3FA83F303F01F
:102240001F039840024223D1012044E796FAA6F2E8
:10225000B2FA82F242F02002520901D02A6800E06C
:102260006A6A96FAA6F3B3FA83F303F01F03984061
:1022700002420DD101202EE76A6A9CFAACF3B3FA50
:1022800083F303F01F039840024201D1012022E7AB
:10229000686820F0030008436860FFF737FC0646D3
:1022A0006068012809D0022814D020E0FFF72EFC36
:1022B000801B404501D903200DE76868C0F3810009
:1022C0000128F3D117E0FFF721FC801B404501D91D
:1022D000032000E76868C0F381000228F3D10AE018
:1022E000FFF714FC801B404501D90320F3E6686822
:1022F00010F00C0FF4D1D9F8000020F0070038439B
:10230000C9F80000D9F8000000F00700B84201D079
:102310000120E0E62078400705D56868E16820F4F0
:10232000E060084368602078000706D56868216986
:1023300020F4605040EAC10068600020FFF72CFEE6
:102340000020C8E6002002400010024000B500F066
:1023500043F808494968F02292FAA2F201F0F0012C
:10236000B2FA82F2D140044A515CC8400349086085
:1023700000BD000000100240546200080000002070
:1023800000B5FFF7E3FF074949684FF4E06292FAAE
:10239000A2F201F4E061B2FA82F2D140024A515C49
:1023A000C84000BD001002405462000800B5FFF7AD
:1023B000CDFF074949684FF4605292FAA2F201F446
:1023C0006051B2FA82F2D140024A515CC84000BD6D
:1023D000001002405462000810B585B01AA0D0E980
:1023E0000031D0E90220CDE90131CDE903201AA066
:1023F00000680090194B5968194801F00C02042A32
:102400001DD0082A1BD14FF4701494FAA4F401F4DF
:102410007012B4FA84F4E24001ACA25CC90310D596
:1024200059684FF4003393FAA3F301F40031B3FA7F
:1024300083F3D9401DF80110B0FBF1F0504305B013
:1024400010BD08485043FAE70203040506070809CF
:102450000A0B0C0D0E0F10100102000000100240BC
:1024600000127A0000093D002DE9F84F0446F94DAD
:1024700020784FF00106C00775D068687704C0F374
:102480008100012807D06868C0F3810002281DD1AF
:102490006868C0031AD597FAA7F0B0FA80F040F048
:1024A0002000400901D0286800E0686A97FAA7F187
:1024B000B1FA81F101F01F0206FA02F1084252D08E
:1024C000606800284FD10120BDE8F88F286820F40B
:1024D00080302860286820F480202860FFF716FBF1
:1024E000804607E0FFF712FBA0EB0800642801D943
:1024F0000320E9E797FAA7F0B0FA80F040F0200057
:10250000400901D0286800E0686A97FAA7F1B1FA9B
:1025100081F101F01F0106FA01F10842E2D1606881
:10252000B0F5803F11D0A8B1B0F5A02F1CD028681D
:1025300020F480302860286820F4802028606068BB
:10254000C8B3FFF7E3FA80461FE0286840F4803004
:102550002860F4E7286820F480302860286820F498
:1025600080202860EBE748E0286840F4802028605D
:10257000286840F480302860E1E7FFF7C7FAA0EB55
:102580000800642801D903209EE797FAA7F0B0FA63
:1025900080F040F02000400901D0286800E0686A1F
:1025A00097FAA7F1B1FA81F101F01F0106FA01F1E2
:1025B0000842E2D021E0FFE7FFF7A8FA804607E0F3
:1025C000FFF7A4FAA0EB0800642801D903207BE7F9
:1025D00097FAA7F0B0FA80F040F02000400901D04F
:1025E000286800E0686A97FAA7F1B1FA81F101F072
:1025F0001F0106FA01F10842E2D12078DFF8588283
:1026000080074FF0000B4FF0020732D568684FF09B
:10261000F80A10F00C0F07D06868C0F38100022898
:1026200028D16868C00325D497FAA7F0B0FA80F0E3
:1026300040F02000400901D0286800E0686A97FA5D
:10264000A7F1B1FA81F101F01F0106FA01F1084288
:1026500004D02069012801D0012035E728689AFAC2
:10266000AAF26169B2FA82F220F0F80091400843C0
:1026700028605CE0206990B396FAA6F0B0FA80F08A
:1026800048F82060FFF742FA814607E0FFF73EFA7C
:10269000A0EB0900022801D9032015E797FAA7F05B
:1026A000B0FA80F040F02000400901D0286800E036
:1026B000686A97FAA7F1B1FA81F101F01F0106FAF1
:1026C00001F10842E2D028689AFAAAF26169B2FAE6
:1026D00082F220F0F80091400843286027E0FFE7ED
:1026E00096FAA6F0B0FA80F048F820B0FFF70EFA9C
:1026F000814607E0FFF70AFAA0EB0900022801D99A
:102700000320E1E697FAA7F0B0FA80F040F020004D
:10271000400901D0286800E0686A97FAA7F1B1FA89
:1027200081F101F01F0106FA01F10842E2D120789F
:10273000000770D5A069C0B396FAA6F0B0FA80F091
:1027400008EB8000C0F88064FFF7E0F9814607E0FD
:10275000FFF7DCF9A0EB0900022801D90320B3E65A
:1027600097FAA7F0B0FA80F040F06000B6EB501F87
:1027700001D128680BE097FAA7F0B0FA80F040F09A
:102780006000B7EB501F01D1286A00E0686A97FA31
:10279000A7F1B1FA81F101F01F0206FA02F1084235
:1027A000D6D00120FFF790F835E0FFE796FAA6F0C3
:1027B000B0FA80F008EB8000C0F880B4FFF7A6F90B
:1027C000814607E0FFF7A2F9A0EB0900022801D932
:1027D000032079E697FAA7F0B0FA80F040F06000A5
:1027E000B6EB501F01D128680BE097FAA7F0B0FABA
:1027F00080F040F06000B7EB501F01D1286A00E084
:10280000686A97FAA7F1B1FA81F101F01F0206FA9E
:1028100002F10842D6D12078400770D5E86940F02F
:102820008050E861E86900F080500090DFF82CA04B
:10283000DAF8000040F48070CAF80000FFF766F98B
:1028400081460DE0FFF762F9A0EB0900642807D983
:10285000032039E6001002400000424200700040B0
:10286000DAF80000C005EDD5286A20F001002862E2
:10287000286A20F004002862FFF748F9814641F2F7
:10288000883A07E0FFF742F9A0EB0900504501D96B
:10289000032019E697FAA7F0B0FA80F040F0400064
:1028A000B6EB501F01D128680BE097FAA7F0B0FAF9
:1028B00080F040F04000B7EB501F01D1286A00E0E3
:1028C000686A97FAA7F1B1FA81F101F01F0106FADF
:1028D00001F10842D6D1E068012811D0A8B105283D
:1028E0001CD0286A20F001002862286A20F0040029
:1028F0002862E068C8B3FFF709F981461FE06EE07F
:10290000286A40F001002862F3E7286A20F00100FD
:102910002862286A20F004002862EAE7286A40F06A
:1029200004002862286A40F001002862E1E7FFF70E
:10293000EDF8A0EB0900504501D90320C4E597FA52
:10294000A7F0B0FA80F040F04000B6EB501F01D184
:1029500028680CE097FAA7F0B0FA80F040F0400049
:10296000B7EB501F02D1286A01E00BE0686A97FAC2
:10297000A7F1B1FA81F101F01F0206FA02F1084253
:10298000D5D02CE0FFF7C2F8814607E0FFF7BEF88C
:10299000A0EB0900504501D9032095E597FAA7F06F
:1029A000B0FA80F040F04000B6EB501F01D128682B
:1029B0000BE097FAA7F0B0FA80F040F04000B7EBD8
:1029C000501F01D1286A00E0686A97FAA7F1B1FAAE
:1029D00081F101F01F0206FA02F10842D6D1E06946
:1029E00080B36968C1F38101022970D04FF080790A
:1029F0004FF00077022809D099FAA9F0B0FA80F0D8
:102A000048F820B0FFF782F8044668E099FAA9F088
:102A1000B0FA80F048F820B0FFF778F8824607E077
:102A2000FFF774F8A0EB0A00022801D903204BE558
:102A300097FAA7F0B0FA80F040F02000400902D0E9
:102A4000286801E060E0686A97FAA7F1B1FA81F1BD
:102A500001F01F0106FA01F10842E1D1206AB0F548
:102A6000803F05D16868A16820F4003008436860A1
:102A7000D4E908010843696821F4741108436860C7
:102A800099FAA9F0B0FA80F048F82060FFF73EF814
:102A9000044606E0FFF73AF8001B022801D903209C
:102AA00012E597FAA7F0B0FA80F040F02000400954
:102AB00001D0296800E0696A97FAA7F0B0FA80F0BF
:102AC00000F01F0006FA00F00142E3D01CE01DE018
:102AD000FFF71CF8001B022801D90320F4E497FA41
:102AE000A7F0B0FA80F040F02000400901D029683A
:102AF00000E0696A97FAA7F0B0FA80F000F01F00D2
:102B000006FA00F00142E3D10020DDE40120DBE41D
:102B1000704708B501684A68D24352060CD48A68E7
:102B2000D243D20708D18A68D243520604D5816CB9
:102B300001B05DF804EB08474A68D243120608D496
:102B40008A68D243920704D4C16C01B05DF804EBEB
:102B500008474A68D243920635D48A68D243D206DF
:102B600006D4426D42F0020242656FF010028A60A4
:102B700001688A68D243920609D4426D42F001028C
:102B800042658A680A6822F040020A600092016881
:102B90008A68D24352060AD490F85120122A06D0ED
:102BA000426D42F004024265CA688A680092426D32
:102BB000002A08D04A6822F0E0024A60012180F829
:102BC0005110FFF7A5FF08BD10B50446002C03D037
:102BD00094F8510010B104E0012010BD204600F02F
:102BE00039F8022084F851002068016821F0400182
:102BF0000160D4E901010843D4E9031211430843F9
:102C000061690843218B01F400710843E1690843BD
:102C1000216A0843A16A084321680860A069042169
:102C200001EA1040616A0843216848602168E06A4F
:102C300008612068C16921F40061C1610449002074
:102C400008706065012084F85100002010BD00006C
:102C50000800002030B585B000682449884242D180
:102C60002348816941F480518161816901F4805177
:102C70000091816941F004018161816901F00401E1
:102C80000091816941F004018161806900F00400D4
:102C90000090A02001900220029003200490154D86
:102CA00001A92846FEF71CFE402101910024029450
:102CB000039401A92846FEF713FE0122102128469D
:102CC000FEF71DFF1021019102940121039101A93A
:102CD0002846FEF705FE022201212320FFF7A8F96E
:102CE0002320FFF799F905B030BD00000030014006
:102CF00000100240000801402DE9F84304469846C0
:102D000094F85100012802D00220BDE8F88339B3BD
:102D100032B394F85000012824D0012784F8507071
:102D2000122084F85100002666652163A286E2869F
:102D3000E664A664A663A687E687A06A7D03A84228
:102D400009D12068016821F4005101602068016800
:102D500041F400510160A068B0F5004F04D008E0D4
:102D60000120D2E70220D0E72068016841F48041C9
:102D7000016020680168490603D4016841F0400100
:102D80000160E06828B1606880B3E08E01282ED031
:102D90004BE0606810B1E08E01281BD1206B411C14
:102DA000216321680078C860E08E401EE08611E053
:102DB000434600220221204601F0E6FD08B103202F
:102DC000A3E7206B411C216321680078C860E08E76
:102DD000401EE086E08E0028EAD1A06AA8422FD1EA
:102DE0002068016841F48051016029E0FFE7206B11
:102DF00021680088C860206B801C2063E08E401E24
:102E0000E08612E0434600220221204601F0BCFD8C
:102E100008B1032079E7206B21680088C860206B27
:102E2000801C2063E08E401EE086E08E0028E9D101
:102E3000A06AA84204D12068016841F48051016071
:102E4000434600220221204601F09EFD28B1606D1C
:102E500040F010006065032057E7434601228021BF
:102E6000204601F091FD28B1606D40F010006065D2
:102E700003204AE7A06818B92068C16880680090FC
:102E800050346770267000203FE74FF0E02104289F
:102E900004D0086920F0040008617047086940F018
:102EA000040008617047704710B5401EB0F1807F84
:102EB00001D3012010BD4FF0E02460610F216017A5
:102EC00001F007FC0020A06107202061002010BD58
:102ED00010B5FFF7E8FF10BD30B590F83820012A93
:102EE00019D0012200F8382F02234370D1E90034B1
:102EF0002343D1E902452C4323430C6923434C6906
:102F0000896923430B4350F8381C4B6442700021FD
:102F10000170002030BD022030BD30B590F838205F
:102F2000012A20D0012380F83830022280F839208D
:102F30000268546824F070045460026854680D6894
:102F40002C4354600268946824F080049460026802
:102F5000946849680C43946080F83930002180F807
:102F60003810002030BD022030BD10B50446002CC2
:102F700003D094F8390010B107E0012010BD002003
:102F800084F83800204600F00DF8022084F839005B
:102F9000211D206802F09CF8012084F839000020EF
:102FA00010BD000008B50D4B02680D499A4207D1CB
:102FB0008A6942F400628A618A6902F400620092BE
:102FC0000068084A904207D1C86940F00400C8610F
:102FD000C86900F00400009008BD0000002C01400A
:102FE0000010024000080040022180F839100168FA
:102FF0000A6842F001020A60012180F839100020BD
:10300000704770B5044694F83800012817D00125A0
:1030100084F83850022084F839002068826822F051
:10302000770222F47F428260086850283AD00DDC93
:1030300020285FD005DCA0B3102864D155E0022021
:1030400070BD30285BD040285DD13FE0602833D090
:1030500070280CD0B0F5805F03D0B0F5005F52D17E
:1030600013E02068816821F0070181604BE0CB68A4
:10307000D1E90121206802F07AF82068816821F006
:10308000770141F0770181603DE0CB68D1E9012112
:10309000206802F06CF82068816841F4804181600A
:1030A00031E01DE0CA684968206802F043F9502108
:1030B000206802F066F826E0CA684968206802F0D5
:1030C0004AF96021206802F05CF81CE0CA6849688F
:1030D000206802F02FF94021206802F052F812E037
:1030E0000021206802F04DF80DE01021206802F068
:1030F00048F808E02021206802F043F803E030217E
:10310000206802F03EF8383465700020207070BDF1
:1031100000B585B000680C49884213D10B4881691D
:1031200041F008018161806900F0080000904FF4CF
:1031300000700190022002900320049001A904482D
:10314000FEF7CEFB05B000BD0008004000100240B5
:10315000000C014070B5044694F8380001280DD0E9
:10316000012584F83850022084F8390042B1042A3D
:103170000AD0082A0CD00C2A11D10DE0022070BD13
:10318000206802F007F80AE0206802F037F806E04D
:10319000206802F06DF802E0206802F0A1F83834EF
:1031A00065700020207070BD10B50446002C03D05F
:1031B00094F8390010B107E0012010BD002084F818
:1031C0003800204600F00CF8022084F83900211D58
:1031D000206801F07DFF012084F83900002010BD37
:1031E0007047000010B504460029226806D0042963
:1031F00009D008290CD00C2913D10EE0D06840F07A
:103200000200D0600DE0D06840F00400D06008E01B
:10321000D06840F00800D06003E0D06840F01000B3
:10322000D0600122206801F097FF09492068884298
:1032300002D00849884203D1416C41F40041416405
:103240002068016841F001010160002010BD00000C
:10325000002C01400034014010B5044600222068D3
:1032600001F07AFF104841F2111221689310814257
:1032700002D00E48814209D1086A104206D1086A7C
:10328000184203D1486C20F4004048642068016A69
:10329000114206D1016A194203D1016821F00101EE
:1032A0000160002010BD0000002C014000340140EE
:1032B00010B504460029226806D0042909D008293F
:1032C0000CD00C2913D10EE0D06820F00200D060A1
:1032D0000DE0D06820F00400D06008E0D06820F055
:1032E0000800D06003E0D06820F01000D060002219
:1032F000206801F031FF104841F21112216893104B
:10330000814202D00D48814209D1086A104206D19B
:10331000086A184203D1486C20F4004048642068D1
:10332000016A114206D1016A194203D1016821F0F4
:1033300001010160002010BD002C0140003401405B
:1033400070B504460D4694F8380001280DD00126CA
:1033500084F83860022084F8390042B1042A1AD077
:10336000082A2DD00C2A53D13EE0022070BD2946F8
:10337000206801F00FFF2068816941F00801816138
:103380002068816921F004018161206881692A69CE
:10339000114381613CE02946206801F02FFF20683D
:1033A000816941F4006181612068816921F4806153
:1033B0008161206881692A6941EA0221816127E0EF
:1033C0002946206801F054FF2068C16941F00801D6
:1033D000C1612068C16921F00401C1612068C1692F
:1033E0002A691143C16113E02946206801F078FF82
:1033F0002068C16941F40061C1612068C16921F49C
:103400008061C1612068C1692A6941EA0221C16104
:10341000383466700020207070BD000010B504467E
:103420000122206801F098FE08482168814202D0FC
:103430000748814203D1486C40F40040486420684A
:10344000016841F001010160002010BD002C014025
:1034500000340140704738B5044620680168C1F364
:103460000001C26802F48072002904D01AB1E16B35
:1034700041F00101E1630168C1F34002416901F0DB
:10348000010122B119B1E26B42F00402E263026869
:10349000C2F3800222B119B1E26B42F00202E26390
:1034A0000268C2F3C00222B119B1E16B41F0080118
:1034B000E1630168C1F34011C06800F0200019B158
:1034C00010B1204601F06EFF20680168C1F3C01101
:1034D000C06800F0800019B110B1204602F040F839
:1034E00020680168C1F38011C06800F0400019B184
:1034F00010B1204601F041FFE06B002809D02068A0
:10350000016840680090012084F839002046FFF7E8
:10351000A1FF38BD70B50446002C04D094F83900E2
:10352000002510B106E0012070BD84F83850204617
:1035300000F020F8022084F839002068C16821F4E6
:103540000051C160204601F085FF2068016921F427
:10355000904101612068416921F02A0141612068A0
:10356000C16841F40051C160E563012084F839006D
:10357000002070BD10B586B00068114988421DD189
:103580001048816941F480418161806900F4804084
:1035900001904FF4007002900220039003200590E8
:1035A000094C02A92046FEF79BF921150291002142
:1035B0000391049102A92046FEF792F906B010BDCE
:1035C00000380140001002400008014090F83930F6
:1035D000012B03D0122B01D00220704731B32AB344
:1035E00090F83830012B23D0012380F838308162E5
:1035F0008285C2850021C16390F83920122A19D032
:10360000222280F8392080F838100168CA6842F414
:103610008072CA6001684A6942F001024A6100682A
:10362000C16841F02001C16000207047012070474F
:1036300002207047322280F83920E4E72DE9F84F64
:10364000F848012505608415DFF8DC9321464846DB
:10365000FEF74EFA08B9FDF7B5FE0722F349F44824
:10366000FFF7B4FF002870D121464846FEF740FA24
:1036700008B9FDF7A7FEDFF8B483EE4FEC4C98F8DD
:103680000000A7F10A06A12875D198F801000028CA
:1036900024D198F80200A0286ED00CDC33281ED06C
:1036A00004DC002869D00228F2D139E082284DD00C
:1036B000902813D162E0B02826D0C02870D0D0283E
:1036C0006FD0FF280AD198F806000B2806D1357074
:1036D000FF2030812068016840680090ABE098F8D6
:1036E00006000B280FD1357098F80300387098F851
:1036F0000400787098F80500B87033203081206895
:1037000001684068009096E098F806000B2806D102
:103710003570B020308120680168406800908AE0F0
:1037200098F806000B280FD1357098F80300387010
:1037300098F80400787098F80500B870022030817D
:10374000206801684068009075E046E198F806003E
:103750000B2870D1357098F80300387098F8040081
:10376000787098F80500B870822030812068016870
:10377000406800905FE07DE014E01FE098F80600EC
:103780000B2858D1357098F80400787098F8050027
:10379000B8709020308120680168406800904AE04D
:1037A00032E03DE098F806000B2844D13570A020A7
:1037B000308120680168406800903CE098F806007D
:1037C0000B2838D1FDF7FEFD4FF4805A01225146F7
:1037D0004846FEF794F94FF4006B012259464846DB
:1037E000FEF78DF90A20FEF76FF800225946484689
:1037F000FEF785F9002251464846FEF780F9206819
:1038000001684068009016E098F806000B2812D175
:103810003570C020308120680168406800900AE05F
:1038200098F806000B2806D13570D020308120682A
:1038300001684068009098F8010001284BD198F881
:10384000020003280AD004DC01282ED0022842D12D
:1038500038E004281CD0E0283DD10CE098F80600A0
:103860000B2838D1757140F203103081206801684F
:10387000406800902FE098F806000B282BD1757156
:103880004FF4F0703081206801684068009022E0B9
:1038900098F806000B281ED175714FF482703081A4
:1038A000206801684068009015E098F806000B2831
:1038B00011D1757140F201103081206801684068B3
:1038C000009008E098F806000B2804D1B571206834
:1038D00001684068009098F80000A2287DD198F80F
:1038E0000110002928D198F80200A02876D00BDC1E
:1038F000332822D003DCB0B302281DD141E0822856
:1039000055D0902818D16BE0D02868D004DCB028BE
:103910002AD0C02810D19BE0EE2874D0FF280BD10C
:1039200098F806000B2807D1357140F2FF2030814E
:103930002068026840680090ABE098F806000B2809
:1039400010D1357198F80300387098F80400787039
:1039500098F80500B87040F2332030812068026882
:103960004068009095E067E098F806000B2807D1C2
:1039700035714FF42C7030812068026840680090E7
:1039800087E098F806000B2810D1357198F80300ED
:10399000387098F80400787098F80500B87040F214
:1039A00002203081206802684068009071E098F839
:1039B00006000B286DD1357198F80300387098F81F
:1039C0000400787098F80500B87040F282203081C9
:1039D00020680268406800905BE071E014E043E01A
:1039E00098F806000B2854D1357198F804007870C7
:1039F00098F80500B8704FF4247030812068026890
:103A00004068009045E03CE098F806000B2840D163
:103A100035714FF42870308120680268406800904A
:103A200037E0000014040140000C01405C0000205D
:103A30005C0100201400002098F806000B2828D113
:103A4000357100203081206802684068009020E0D5
:103A500098F806000B281CD1357180013081206850
:103A600002684068009014E098F806000B2810D116
:103A700035714FF4347030812068026840680090DE
:103A800007E0357140F2EE2030812068026840681E
:103A90000090012914D198F80200032823D011DCEA
:103AA00001283AD002280BD198F806000B2807D13C
:103AB000357142F202103081206801684068009040
:103AC000BDE8F88F04281BD0E028F9D198F806004B
:103AD0000B28F5D1357142F2E01030812068016881
:103AE00040680090ECE798F806000B28E8D13571A3
:103AF00042F2031030812068016840680090DFE7DF
:103B000098F806000B28DBD1357142F204103081A1
:103B10002068016840680090D2E798F806000B28FA
:103B2000CED1357142F201103081206801684068C1
:103B30000090C5E72DE9F04104460D46984694F8FB
:103B40003900012804D0222802D00220BDE8F081EB
:103B50009DB192B194F83800012810D0012684F864
:103B600038600027E76394F83900222809D0122032
:103B700084F83900A284E2842EE00120E6E70220E6
:103B8000E4E7322084F83900F4E7401EE084A068BE
:103B9000B0F5805F08D0434600228021204601F026
:103BA00014FDA8B10320D1E743460022802120461E
:103BB00001F00BFD08B10320C8E728882168C0F395
:103BC00008004860206908B16D1C05E0AD1C03E0E9
:103BD000216815F8010B4860E08C0028D5D14346D8
:103BE00000224021204601F0F0FC08B10320ADE79F
:103BF00094F83900322805D084F8396084F8387098
:103C00000020A3E7222084F83900F7E77047FEE799
:103C100010B5C0F3031300210B4A545C9C4203D03F
:103C2000491CC9B21029F8D300F00F030020145C1E
:103C30009C4203D0401CC0B21028F8D3105C515CE9
:103C400000EB011010BD00006462000810B5C0F365
:103C5000031300210B4A545C9C4203D0491CC9B297
:103C60001029F8D300F00F030020145C9C4203D00D
:103C7000401CC0B21028F8D3515C105C090501EB60
:103C8000004010BD6462000810B5C0F303130021AA
:103C90000B4A545C9C4203D0491CC9B21029F8D38A
:103CA00000F00F030020145C9C4203D0401CC0B203
:103CB0001028F8D3515C105C090301EB002010BD03
:103CC0006462000810B5C0F3031300210B4A545C72
:103CD0009C4203D0491CC9B21029F8D300F00F034D
:103CE0000020145C9C4203D0401CC0B21028F8D3C2
:103CF000515C105C090701EB006010BD64620008B4
:103D00000148FDF709BF0000780400200148FDF7D5
:103D100076BF00007804002010B50E4C0022102160
:103D20002046FDF7ECFE00F04BF801222021204652
:103D3000FDF7E5FE00F044F8002220212046FDF7C3
:103D4000DEFE00F03DF820460122BDE810401021C3
:103D5000FDF7D5BE000C014010B5044600F036F862
:103D600000F0F4F9204600F04FF900F027FA04467D
:103D700000F00CFA204610BD104B42689A4208D859
:103D80005000B1FBF0F0C0F30B01042900D2042075
:103D90007047806858B102EBC20000EB0210B1FB23
:103DA000F0F040F440400105F2D10120704702EBF1
:103DB0004200B1FBF0F040F40040F4E7A0860100BF
:103DC0000020401CC0B20A28FBD3704700B585B064
:103DD0000E48816941F008018161806900F00800A6
:103DE00000900B48416821F0E06141F08071416032
:103DF00030200190112002900120049001A9054873
:103E0000FDF76EFD00F0C2F905B000BD00100240E4
:103E100000000140000C014010B5428D0168032AEA
:103E20000CD0428D022A17D00A69416A4B1C4362AA
:103E30000A70418D491E4185002010BD0A6822F498
:103E400080620A6001680A69416A4B1C43620A7019
:103E5000418D491E4185EFE74A6822F440724A606D
:103E600001680A6842F400720A6001680A69416ADE
:103E70004B1C43620A70418D491E418501680A69E5
:103E8000416A4B1C43620A70418D491E418590F87E
:103E900036202021402A04D080F83510FDF79CFF01
:103EA000CAE780F83510FDF799FFC5E710B5428DD8
:103EB0000168032A08D90A69416A4B1C43620A70E7
:103EC000418D491E418519E0022A19D0032A17D0D5
:103ED0004A6822F4E0624A6001680A69416A4B1C40
:103EE00043620A70418D491E418590F83620202199
:103EF000402A0AD080F83510FDF76EFF002010BD73
:103F0000486820F480604860F8E780F83510FDF7D5
:103F100065FFF3E710B5428D0168002A08D0426AB8
:103F2000531C436212780A61418D491E418511E09C
:103F30004A6822F4E0624A6001680A6842F400724A
:103F40000A6090F836202021402A05D080F83510EC
:103F5000FDF743FF002010BD80F83510FDF73FFF4F
:103F6000F8E7428D0168002A09D0426A531C436277
:103F700012780A61418D491E4185002070474868CA
:103F800020F480604860F8E710B50C4C0122102145
:103F90002046FDF7B4FDFFF713FF01222021204644
:103FA000FDF7ADFDFFF70CFF002220212046FDF7B5
:103FB000A6FDBDE81040FFF703BF0000000C014064
:103FC00070B5002400250F4E6006040E012220214A
:103FD0003046FDF794FDFFF7F3FE10213046FDF764
:103FE00087FD08B1641CE4B2002220213046FDF7B1
:103FF00086FDFFF7E5FE6D1CEDB2082DE4D32046EB
:1040000070BD0000000C014070B505460024164E3E
:10401000280605D5012210213046FDF770FD04E089
:10402000002210213046FDF76AFDFFF7C9FE01228C
:1040300020213046FDF763FDFFF7C2FE002220215C
:104040003046FDF75CFD072C04D1012210213046DB
:10405000FDF755FD6806050EFFF7B2FE641CE4B2DD
:10406000082CD5D370BD0000000C0140418D002903
:1040700008D001680A69416A4B1C43620A70418D8D
:10408000491E418500207047418D002908D00168F4
:104090000A69416A4B1C43620A70418D491E418581
:1040A00000207047418D002908D0416A4A1C4262B5
:1040B000026809781161418D491E418500207047D1
:1040C000418D002908D0416A4A1C42620268097881
:1040D0001161418D491E41850020704708B5006877
:1040E000416980690090002008BD10B501684A68E8
:1040F00022F4E0624A6001684A6922F480624A61FF
:1041000001680A6822F480620A60202180F8351074
:10411000FDF7E4FE002010BD08B501684A6822F4EE
:10412000E0624A6001684A690A6842F001020A6076
:10413000009201680A6822F480620A60202180F8F7
:104140003510FDF781FE002008BD000010B50E4CB3
:10415000012210212046FDF7D2FC01222021204619
:10416000FDF7CDFCFFF72CFE002210212046FDF7C5
:10417000C6FCFFF725FE002220212046FDF7BFFCEC
:10418000BDE81040FFF71CBE000C014010B50A4C02
:10419000002210212046FDF7B2FC012220212046FA
:1041A000FDF7ADFCFFF70CFE20460122BDE81040F4
:1041B0001021FDF7A4BC0000000C014070B5104DAB
:1041C000012210212846FDF79AFCFFF7F9FD012294
:1041D00020212846FDF793FCFFF7F2FD1021284629
:1041E000FDF786FC08B1012400E000240022202114
:1041F0002846FDF784FCFFF7E3FD204670BD000074
:10420000000C01402DE9F05F04460E4693461D4622
:10421000FDF77CFC07464FF000094FF0200AC6F37B
:104220000748BBF1000F0FD02FE0681C0CD025B160
:10423000FDF76CFCC01BA84206D984F835A084F8B1
:1042400034900320BDE8F09FB8F1010F07D020683B
:10425000806926EA00000004000C20D0E5E7206811
:10426000406926EA00000004000C18D0DDE7681C55
:104270000BD025B1FDF74AFCC01BA84205D984F834
:1042800035A084F834900320DCE7B8F1010F08D0A2
:104290002068806926EA00000004000CE7D00020B6
:1042A000D0E72068406926EA00000004000CDED058
:1042B000F5E7000010B50C4C02212046FDF718FC74
:1042C00038B91420FDF700FB02212046FDF710FC51
:1042D00008B1012010BD02212046FDF709FC00288D
:1042E000F9D0002010BD0000000C014070B50D4D4C
:1042F0004FF4806421462846FDF7FAFB38B91420B4
:10430000FDF7E2FA21462846FDF7F2FB08B101204D
:1043100070BD21462846FDF7EBFB0028F9D00020B0
:1043200070BD0000000C014010B50C4C012120466E
:10433000FDF7DEFB38B91420FDF7C6FA012120464F
:10434000FDF7D6FB08B1012010BD01212046FDF785
:10435000CFFB0028F9D0002010BD0000000C014068
:1043600070B586B01A48816941F0080181618169A0
:1043700001F008010191816941F0080181618169C1
:1043800001F008010191816941F0080181618069B2
:1043900000F00800019002200290002503950124FE
:1043A00004940C4E02A93046FDF79AFAA00202903E
:1043B0000395049402A93046FDF792FA02940395FE
:1043C000049402A93046FDF78BFA06B070BD0000D8
:1043D00000100240000C01407CB510A003C8CDE9DC
:1043E0000001FDF787F90F4C012807D1002020704C
:1043F00001220C212046FDF7C1F9257820788DF89F
:104400000400294608A001F04BF90C230622694656
:104410000B48FFF78FFB28467CBD0000A10400007D
:10442000000B0000200300204C616D702042726977
:104430006768746E657373206973202564200A00B1
:104440005C0100202DE9F0470446FDF753F9244EA6
:104450004FF400674FF48058012824D1DFF884908E
:10446000002089F80000204D2C7001220C212846E4
:10447000FDF7B9F96420FDF727FA01220C2148461F
:10448000FDF77CF9044699F80000297888420AD0A3
:10449000002239463046FDF732FB002241463046C5
:1044A000FDF72DFBFEE7012C18D1002239463046DE
:1044B000FDF725FB002241463046FDF720FB322068
:1044C000FDF702FA012239463046FDF718FB414656
:1044D0003046BDE8F0470122FDF711BBBDE8F0878B
:1044E000000C01402003002020020020F0B585B020
:1044F0002348816941F008018161816901F0080167
:104500000091816941F008018161806900F0080033
:1045100000901C4F4FF40064002221463846FDF7FE
:10452000EEFA6600002231463846FDF7E8FA0194BB
:10453000012402940325049501A93846FDF7D0F91A
:1045400001960294049501A93846FDF7C9F92002A5
:10455000019000200290039401A93846FDF7C0F9AC
:10456000202001900294049501A93846FDF7B8F97E
:10457000012220213846FDF7C2FA05B0F0BD000047
:1045800000100240000C01400A48094901600A4934
:1045900041600021816040F20F32C2604FF48042DE
:1045A00002614161FF228261C1610162FDF7BEBB10
:1045B0000054004078040020801A060010B5002244
:1045C00001212520FDF734FDBDE810402520FDF731
:1045D00023BD000008B50E48816941F004018161E6
:1045E000806900F0040000900B480A4901604FF414
:1045F000E131416000218160C16001610C224261B2
:104600008161C161FEF786FFBDE80840FFF7D6BFB4
:1046100000100240003801405C010020FEE700006D
:104620002DE9F04120480168CCB20168C1F30725AB
:104630000168C1F307460068070EFDF75BF8012823
:104640002FD10020194B1A4900221A540A54401C39
:10465000C0B20428F9D30F704E708D70CC70042254
:1046600005211348FDF7BFF80446C820FDF72CF9D3
:10467000012C04D0BDE8F0410EA001F011B8134D9B
:104680004FF40064002221462846FDF738FA0A203C
:10469000FDF71AF921462846BDE8F0410122FDF751
:1046A0002EBABDE8F08100003C000020200300206D
:1046B00020020020656570726F6D20636865636B12
:1046C000206572726F72200A00000000000C014029
:1046D00070470907090E002806DA00F00F0000F104
:1046E000E02080F8141D704700F1E02080F80014ED
:1046F000704700001CB50AA20CCACDE900238DF852
:1047000004108DF8030041EA002107A000F0C8FF63
:104710000C23062269460A48FFF70CFA1CBD00006C
:10472000A2010000000B00004D6F746F72205370E7
:10473000656564206973203A202564200A00000022
:104740005C0100207CB513A003C8CDE9000113482B
:1047500081788DF8041041788DF8031000788DF879
:104760000200FFF773FA05469DF80300FFF78CFA85
:1047700004469DF80400FFF74BFA2919014408A0EC
:1047800000F08EFF0C23062269460B48FFF7D2F992
:104790007CBD0000A2E00000000B0000170000201C
:1047A000454550524F4D20706F736974696F6E3D6F
:1047B000202564200A0000005C0100207CB511A0C7
:1047C00003C8CDE90001FCF795FF104C012808D182
:1047D000022210212046FCF7D1FF6078217840EAC0
:1047E000012560788DF8040020788DF803002946B3
:1047F00007A000F055FF0C23062269460A48FFF780
:1048000099F97CBDA1010000000B000020030020ED
:104810004D6F746F72205370656564206973203A20
:10482000202564200A0000005C01002010B5FCF780
:1048300061FF012801D0002010BD0222002106489E
:10484000FCF79CFFC820FDF73FF80348417800784B
:1048500041EA002010BD0000200300200148FEF7BF
:1048600058B900002004002070B51D4CA225257009
:10487000A070E170227163710B20A07140F6FF738C
:10488000072221461748FEF737FA002826D10120D3
:10489000611E087014A000F003FF217817A000F03B
:1048A000FFFE61781AA000F0FBFEA1781DA000F0C9
:1048B000F7FEE17820A000F0F3FE217923A000F0BC
:1048C000EFFE617926A000F0EBFEA17929A000F0AF
:1048D000E7FEBDE870400A20FCF7F6BF70BD00009F
:1048E0004900002020040020D6F7BBFAB7A2CBCDA8
:1048F000CFFBCFA2B3C9B9A60A0000006154784229
:1049000075666665725B305D3D2523780A000000A0
:104910006154784275666665725B315D3D2523782A
:104920000A0000006154784275666665725B325D0C
:104930003D2523780A00000061547842756666655B
:10494000725B335D3D2523780A0000006154784294
:1049500075666665725B345D3D2523780A0000004C
:104960006154784275666665725B355D3D252378D6
:104970000A0000006154784275666665725B365DB8
:104980003D2523780A0000002DE9F05F04460F461C
:1049900093461D46FDF7BAF806464FF000084FF45F
:1049A000005A4FF00109BBF1000F26D050E0681CFF
:1049B00023D025B1FDF7AAF8801BA8421DD9206895
:1049C000416821F0E00141602068016821F0400168
:1049D0000160A06A504509D12068016821F40051A6
:1049E00001602068016841F40051016084F8519031
:1049F00084F850800320BDE8F09F2068806837EA83
:104A00000000D4D129E0681C22D025B1FDF77EF842
:104A1000801BA8421CD92068416821F0E001416058
:104A20002068016821F040010160A06A504509D169
:104A30002068016821F4005101602068016841F498
:104A40000051016084F8519084F850800320D2E72F
:104A50002068806837EA0000D5D00020CBE700004E
:104A600010B5104C0E4820604FF48270606000203A
:104A7000A060E060206160614FF40071A1612021BD
:104A8000E16120626062A0620720E0622046FEF7DA
:104A90009BF82068016841F04001016010BD0000F2
:104AA000003001402004002070B50E464FF0FF3466
:104AB0000F4B9968081A0F490A78002A05D048B1A7
:104AC0000D4D2978012907D00CE015200870FCF75E
:104AD000A5FB07E0002405E000222A7000205A61AF
:104AE0009A609A6160433146BDE87040FCF7CEBAE7
:104AF000280000201C0000201D0000202DE9F05F90
:104B0000044641F27075DFF80CA14348DFF80C81D0
:104B1000434F444E4FF00A0B4FF00109002C18DAB6
:104B200087F8019000220821FCF7E9FF98F80000BF
:104B30006442012802D19AF8000008B1346118E0FB
:104B400088F800B03461BC60FCF768FB4042B0619B
:104B50000FE00021797001220821FCF7D0FFF460FA
:104B600098F80000012802D19AF80000E8B3F46038
:104B7000BC60002C4BD02A4CDFF8ACA04FF4FA6894
:104B80000C344FF4005BA6F802807088786087F8D8
:104B900000902068416A7A681144416320480021EE
:104BA0000C30FEF71FFB01220021504600F0D4FA22
:104BB000012259461D48FCF7A2FF6D1EADB2E2D29C
:104BC000FCF718FB70807088786087F80090206888
:104BD000416A7A6811444163114800210C30FEF7A4
:104BE00001FB01220021504600E008E000F0B4FA89
:104BF0005946BDE8F05F01220C48FCF780BF88F8F9
:104C000000B0F460FCF70AFBB061BC60B1E7BDE83E
:104C1000F09F00001D000020000801401C00002043
:104C2000D801002028000020002C0140000C014089
:104C3000F0B585B02648816941F004018161816940
:104C400001F004010091816941F0040181618169F1
:104C500001F004010091816941F0080181618169DD
:104C600001F008010091816941F0080181618069CA
:104C700000F0080000904FF4807001900220029034
:104C800003240494134E01A93046FCF729FE0821A1
:104C9000019101250295049401A93046FCF720FEFC
:104CA0006E030196029504940B4F01A93846FCF758
:104CB00017FEAA0301920295049401A93846FCF755
:104CC0000FFE002231463846FCF719FF05B0F0BD53
:104CD0000010024000080140000C01402DE9F041A5
:104CE0000E4690461F464FF0FF35FEF7AFFF0446D5
:104CF0003046FEF7C9FF06464046FEF789FFA11978
:104D0000164C0844E06116480178002641B1154868
:104D10000178012911D0A068E169411AA9B115E013
:104D200005210170FCF77AFA6061A168626911449B
:104D3000E269891AA661A060F0E70670A660A66124
:104D40006661A068E169411AE8E7002505FB01F00A
:104D50003946BDE8F041FFF7D1BE00002800002031
:104D60001C0000201D00002030B595B02A49294DB7
:104D70000D600320486000248C604FF6FF70C8600F
:104D80000C614C610846FEF7F0F8A814119011A9C7
:104D90002148FEF736F92048FEF706FA0F941094E2
:104DA0000FA91D48FEF7B9F8089409940A940B94CA
:104DB0000C9468140D900E9408A91748FEF78CF80F
:104DC000302001901548408802900220039008206E
:104DD0000490059406940794002201A90E48FEF75A
:104DE000B9F9FFF725FF00210B48FEF761FA002112
:104DF0000948FEF731FA00221146284600F0ACF9C6
:104E0000022200211B20FDF713F91B20FDF704F9F6
:104E100015B030BD002C0140E40100202800002026
:104E20002DE9F041354801214170354900240C60DD
:104E300034490C604460FCF75DFC012813D100206C
:104E40003149324A0C541454401CC0B20A28F9D3D8
:104E50000A2200212D48FCF7C6FC05463220FCF74B
:104E600033FDFCF701FA2A4E4FF40064012D36D0D1
:104E7000002221463046FCF742FE4FF480550022C6
:104E800029463046FCF73BFE4FF4FA773846FCF7EC
:104E90001BFD012221463046FCF731FE0122294646
:104EA0003046FCF72CFE3846FCF70EFD002221466A
:104EB0003046FCF724FE002229463046FCF71FFE50
:104EC0003846FCF701FD012221463046FCF717FE6B
:104ED00029463046BDE8F0410122FCF710BE002211
:104EE00021463046FCF70BFE0A20FCF7EDFC0122C0
:104EF00021463046FCF703FEBFE700001C000020FF
:104F0000400000203C000020200300202002002060
:104F1000000C014010B5FDF725F8BDE81040FDF785
:104F2000D7BF30B58FB00120059000040690002453
:104F3000079402250C950D904FF4E0100E9005A8F3
:104F4000FDF792FA0F2000900195029468020390F9
:104F5000049402216846FDF79DF8FDF7F7F94FF438
:104F60007A71B0FBF1F0FDF79FFF0420FDF78DFF94
:104F700000221146501EFDF75BF80FB030BD000057
:104F80000D48016841F00101016041680B4A114080
:104F9000416001680A4A11400160016821F48021E2
:104FA0000160416821F4FE0141604FF41F018160FE
:104FB0000449C00308607047001002400000FFF879
:104FC000FFFFF6FE08ED00E02DE9F0413B4E3068B2
:104FD000C168C943890739D46FF002070761306897
:104FE000416A374C6288114441636078401CC0B20A
:104FF000607002282AD100256570A6F10C0148785E
:10500000012825D0E068A269904203D0E068A26937
:10501000904200D20D700878DFF8A88010B3012804
:1050200014D198F800000A283CD0A069401CA06167
:105030004878B0B3A068401EA0606069401E6061FF
:105040008868A269904201D10D708D60BDE8F08141
:105050002069A269904203D02069A2699042DAD205
:105060000D70D8E7A56100211448FEF721F9002250
:105070001146154800F070F83068076100224FF4BF
:1050800000511248FCF73BFD0120207098F8000009
:105090001528DBD1642088F80000A5616561A56052
:1050A000D4E704E0142088F80000A561C0E7A068F8
:1050B000401CA0606069401C6061C1E7E401002001
:1050C000280000201C000020002C0140000C0140A2
:1050D0002DE9F04102681B4D1B4E1C4FDFF870C0DC
:1050E0001C4B4FF08048A84209D0984207D0404559
:1050F00005D0B04203D0B84201D0604503D122F0C0
:1051000070044A682243A84209D0984207D040451B
:1051100005D0B04203D0B84201D0604503D122F49B
:105120004074CA68224302608A68C2620A68826266
:10513000A84201D0984201D109690163012141616E
:10514000BDE8F081002C0140000400400008004050
:10515000000C00400034014010B501238B40046A6C
:105160009C430462036A8A401343036210BD10B576
:10517000846824F47F4442EA03220A432243826083
:1051800010BD826822F070020A4342F0070181607C
:1051900070470000F0B5026A22F001020262026A62
:1051A0004368846924F0700424F003050C682C43E0
:1051B00022F002058A682A430E4E0F4FB04201D0FA
:1051C000B84205D122F00805CA682A4322F0040239
:1051D000B04201D0B84207D123F4807323F40073A6
:1051E0004D691D438B692B4343608461496841636A
:1051F0000262F0BD002C014000340140F0B5026AAB
:1052000022F010020262036A4268846924F4E044D6
:1052100024F440740D6844EA052423F020038D68CB
:1052200043EA0513104D114EA84201D0B04206D1F9
:1052300023F08003CF6843EA071323F04003A8421A
:1052400001D0B04209D122F4806222F400624D699B
:1052500042EA85028D6942EA8502426084614968BA
:1052600081630362F0BD0000002C01400034014066
:10527000F0B5026A22F480720262026A4368C4696D
:1052800024F0700424F003050C682C4322F400720F
:105290008D6842EA0522104D104EA84201D0B0425E
:1052A00006D122F40062CF6842EA072222F480622B
:1052B000A84201D0B04209D123F4805323F4005313
:1052C0004D6943EA05138D6943EA05134360C461E0
:1052D0004968C1630262F0BD002C01400034014006
:1052E00030B5026A22F480520262046A4268C369DD
:1052F00023F4E04323F440730D6843EA052324F4C8
:1053000000548D6844EA0534084DA84202D0084D87
:10531000A84204D122F480424D6942EA85124260DB
:10532000C36149680164046230BD0000002C014083
:105330000034014010B5036A046A24F001040462D9
:10534000846924F0F00444EA021423F00A020A43B8
:105350008461026210BD10B5036A23F0100303627A
:105360008469036A24F4704444EA023223F0A003FF
:1053700043EA01118261016210BD10B50168CA687B
:1053800022F04002CA6090F83910322906D001217B
:1053900080F83910FEF73AFC002010BD222180F879
:1053A0003910F7E710B590F83910222903D03229C7
:1053B00001D0022010BD8168B1F5805F11D0016974
:1053C00019B30168496801F07F03816A4A1C82624F
:1053D0000B70C18D491E0904090CC1851CD0002029
:1053E00010BD816A02693AB102685268D2B20A807D
:1053F000816A491C8162ECE702685268C2F30802C4
:105400000A80816A891C8162E3E701684A68816ACF
:105410004B1C83620A70DCE70168CA6822F0200234
:10542000CA6090F83910322910D00168CA6822F495
:105430008072CA6001684A6922F001024A61012152
:1054400080F83910FEF7FAF8002010BD122180F81C
:105450003910F7E72DE9F041044620680169E26858
:1054600021F4405111430161A16820690143606941
:1054700001432068C26841F20C639A430A43C26048
:1054800020684169A26921F44071114341613349A7
:10549000206864253226884230D1FCF787FF00EB74
:1054A000C00101EB001061688900B0FBF1F0B0FBB6
:1054B000F5F7FCF77BFF00EBC00101EB0010616822
:1054C0008900B0FBF1F8FCF771FF00EBC00101EBC4
:1054D000001061688900B0FBF1F0B0FBF5F06FF0EF
:1054E0001801484308EB800006EB0010B0FBF5F014
:1054F000216867F31F108860BDE8F081FCF740FF6A
:1055000000EBC00101EB001061688900B0FBF1F015
:10551000B0FBF5F7FCF734FF00EBC00101EB001026
:1055200061688900B0FBF1F8FCF72AFF00EBC001CD
:1055300001EB001061688900B0FBF1F0B0FBF5F001
:105540006FF01801484308EB800006EB0010B0FB39
:10555000F5F0216867F31F108860CDE7003801403F
:1055600090F83910122903D0322901D00220704757
:105570008168B1F5805F0CD0016A4A1C0262026842
:1055800009785160C18C491E0904090CC18410D0EE
:1055900019E0016A02680988C1F3080151600169D4
:1055A00019B1016A491C0162ECE7016A891C0162B8
:1055B000E8E70168CA6822F08002CA600068C16832
:1055C00041F04001C160002070472DE9F0470446DA
:1055D0000F4692461D46FCF799FA06464FF0000822
:1055E0004FF00109BAF1000F23D04AE0681C20D027
:1055F00025B1FCF78BFA801BA8421AD92068C16834
:1056000021F08001C1602068C16821F02001C160E3
:105610002068C16821F48071C1602068416921F06F
:105620000101416184F8399084F838800320BDE895
:10563000F0872068006837EA0000D7D126E0681CB0
:105640001FD025B1FCF762FA801BA84219D9206847
:10565000C16821F08001C1602068C16821F020018B
:10566000C1602068C16821F48071C160206841690F
:1056700021F00101416184F8399084F838800320D9
:10568000D5E72068006837EA0000D8D00020CEE7D0
:105690000148FDF7E0BE00005C010020FEE70000CD
:1056A0000FB4054B10B503A9044A029800F0CAF8DC
:1056B00010BC5DF814FB0000755F00085800002066
:1056C00002E008C8121F08C1002AFAD170477047CB
:1056D000002001E001C1121F002AFBD17047000029
:1056E0002DE9FF5FDDE90220010DDDF838B002434E
:1056F00018D044F61050A1F2FF3141430D140F9819
:10570000012820D0A5EB0B00401C5FEA000A4FF0F7
:105710000004474EDFF81C91A046504616D5CAF14A
:10572000000728E00F98012443A2012808D0002197
:1057300000980F9BC0E90021C0E90243BDE8FF9F2C
:105740006FEA0B01F4E7CBF10000DEE7074612E059
:10575000F80707D02246334640464946FAF706FF87
:10576000804689462246334610461946FAF7FEFE21
:1057700004460E467F10002FEAD1DDE90201BAF19E
:10578000000F42464B4602DAFAF7F0FE01E0FAF764
:105790005FFF04460E460022284BFAF7E1FF03D8CC
:1057A0004FF0FF30014607E00022254B20463146EE
:1057B000FAF735FEFAF7BBFF102409E0002C0ADBEC
:1057C0000A220023FAF766FD019B30321A55641E47
:1057D00050EA0102F2D1641C019AC4F1110314448D
:1057E0000F9A012A03D0012208430DD10AE0084391
:1057F00004D000204FF0110B0F9080E7A3EB0B05B6
:105800006D1E0DE05B4504DD4FF0000205F1010562
:1058100004E003DA4FF00002A5F10105002AECD004
:1058200000980F99C0E90231C0E9004586E7000001
:10583000000024400000F03F300000000000F04372
:105840000000E03F2DE9FF4F95B09B468946064694
:1058500000250FE2252877D100242746F84A0121A8
:10586000059400E0044316F8013F203B01FA03F0E1
:105870001042F7D130782A2811D06FF02F033078FA
:10588000A0F13002092A16D8059A44F0020402EB6E
:10589000820203EB42021044761C0590EFE759F8B0
:1058A000042B0592002A03DA504244F40054059078
:1058B00044F00204761C30782E2816D116F8010F19
:1058C00044F004042A280DD06FF02F023078A0F1A4
:1058D0003003092B09D807EB870302EB4303C718F2
:1058E000761CF3E759F8047B761C30786C280FD0CF
:1058F00006DC4C2817D068280DD06A2814D104E0A3
:10590000742810D07A280FD10DE044F400140AE076
:1059100044F4801401E044F440147278824202D1CD
:1059200004F58014761C761C307866280BD013DCC6
:10593000582877D009DC002875D04528F6D04628AD
:10594000F4D047281AD19DE118E0632835D06428A7
:1059500079D0652812D195E1702873D008DC6728CA
:10596000F1D069286FD06E280DD06F2806D1B5E030
:1059700073282CD0752875D0782874D05A4617997A
:1059800090476D1C75E1C4F30250022809D003282A
:105990000DD0D9F8001004280DD00D6009F10409CC
:1059A00067E1D9F80010EA17C1E90052F6E7D9F823
:1059B00000100D80F2E70D70F0E719F8041B8DF868
:1059C000001000208DF80100EA46012003E059F89C
:1059D00004AB4FF0FF3061074FF0000102D40DE03F
:1059E00008F101018846B9420FDA8045F8DB1AF860
:1059F00008100029F4D108E008F10101884681422D
:105A0000FADB1AF808100029F6D105985B46A0EBDE
:105A1000080721463846179A00F094FA284400EB0C
:105A2000080507E04DE029E10DE01AF8010B5A46A0
:105A300017999047B8F10108F7D25B4621463846DE
:105A4000179A13E142E00A220092C4F302524FF087
:105A5000000A022A08D059F804CB032A4FEAEC7155
:105A60000AD00DE029E02AE009F1070121F0070240
:105A7000F2E802C1914609E00FFA8CFC4FEAEC71A2
:105A8000042A03D14FFA8CFC4FEAEC71002907DAA3
:105A90000A460021DCF1000C61EB02012D2202E03C
:105AA000220504D52B228DF80420012203E0E20711
:105AB00001D02022F7E7904659E00A2102E01022A7
:105AC0000DE010214FF0000A00910BE010224FF082
:105AD000000A44F004040827009203E008224FF073
