:020000040800F2
:10000000B01400204501000811470008873C000893
:100010005D460008A91000085956000800000000BD
:100020000000000000000000000000005701000870
:10003000B5160008000000005B010008D14E000862
:100040005F0100085F0100085F0100085F01000810
:100050005F0100085F0100085F0100085F01000800
:100060005F0100085F0100085F0100085F010008F0
:100070005F0100085F0100085F0100085F010008E0
:100080005F0100085F0100085F0100085F010008D0
:100090005F0100085F0100085F0100085F010008C0
:1000A0005F0100085F0100085F010008854F00083C
:1000B0005F0100085F0100085F010008853D00083E
:1000C000793D00085F0100085F0100089D480008B5
:1000D0005F0100084D5600085F0100085F0100083D
:1000E0005F0100085F0100085F0100085F01000870
:1000F0005F0100085F0100085F0100085F01000860
:100100005F0100085F0100085F0100085F0100084F
:100110005F0100085F0100085F0100085F0100083F
:100120005F0100085F0100085F0100085F0100082F
:10013000DFF80CD000F02CFB00480047495F0008B6
:10014000B01400200648804706480047FEE7FEE757
:10015000FEE7FEE7FEE7FEE7FEE7FEE7FEE7FEE777
:100160003D4F000831010008202A04DB203A21FA23
:1001700002F00021704721FA02F3D040C2F12002C0
:10018000914008431946704740EA01039B0703D09A
:1001900009E008C9121F08C0042AFAD203E011F8C6
:1001A000013B00F8013B521EF9D27047421C10F887
:1001B000011B0029FBD1801A704770B521F0004364
:1001C00003430CD0C1F30A550024D5EB040564EBBE
:1001D0000403D617AD1AB34102DB0020014670BDFF
:1001E000201841EB025170BD0EB5C10F80EAE070DE
:1001F0000844CA07002140F233438DE80E000A4646
:100200000B4600F0BEF803B000BD00F0004230F035
:1002100000400AD0C10D01F56071C0F3160042EA3A
:100220000151C20840071143704700200146704742
:1002300001F0004330B421F0004150EA010206D041
:100240000A0DA2F56072C1F31301002A02DC30BC72
:1002500000207047440F44EAC104C100E01830BCDC
:1002600000EBC25000F047B830B50B460146002005
:100270002022012409E021FA02F59D4205D303FA68
:1002800002F5491B04FA02F52844151EA2F10102E9
:10029000F1DC30BD2DE9F05F0546002092469B461B
:1002A00088460646814640241BE02846414647468C
:1002B0002246FFF759FF53465A46C01A914110D3C0
:1002C00011461846224600F075FA2D1A67EB010810
:1002D0004F4622460120002100F06CFA17EB00097E
:1002E0004E41201EA4F10104DFDC484631462A4677
:1002F0004346BDE8F09F0029A8BF7047401C490055
:1003000008BF20F00100704710B4B0FA80FC00FA7A
:100310000CF050EA010404BF10BC704749B1CCF1A5
:10032000200421FA04F411FA0CF118BF0121214331
:100330000843A3EB0C01CB1D4FEA00614FEA1020EC
:1003400042BF002010BC704700EBC350104400298E
:10035000A4BF10BC7047401C490008BF20F001003A
:1003600010BC704710B5141E73F1000408DA401C6D
:1003700041F1000192185B411A4301D120F00100C4
:1003800010BD2DE9F04D92469B4611B1B1FA81F2B4
:1003900002E0B0FA80F22032904600F00BFA0446F8
:1003A0000F4640EA0A0041EA0B0153465A46084309
:1003B00013D0114653EA010019D0C8F1400250464B
:1003C000FFF7D2FE05460E4650465946424600F01B
:1003D000F1F9084305D0012004E020463946BDE884
:1003E000F08D0020054346EAE0762C4337430A9817
:1003F0006305E40AA0EB08000022FD0A44EA475422
:100400000A3002D500200146E9E7010510196941CB
:10041000DDE9084500196941BDE8F04DA2E72DE985
:10042000FE4F804681EA0300C00F0C46009021F089
:10043000004123F00045B8EB0200A94105D2404637
:10044000214690461C460B46024623F000401043CE
:1004500047D0270DC7F30A00C3F30A510290401A90
:10046000019040286BDAC3F3130040F4801B00981E
:10047000924620B10023D2EB030A63EB0B0B0198E9
:100480005946C0F14002504600F094F906460D4628
:1004900050465946019A00F09CF910EB0800614162
:1004A000002487EA115284EAE7731A4340D0009A85
:1004B00062B3019A012A4FEA075215DC001B61EB77
:1004C00002014FF0004202EA0752CDE90042001C4F
:1004D00041F5801132462B46FFF753FF03B0BDE8CC
:1004E000F08F40462146F9E7001B61EB0201001C3A
:1004F00041F5801300185B412018A2F5001747EB67
:10050000030140EAD570B6196D4111E06D084FEA5C
:10051000360645EAC0754FEA0752001B61EB02013F
:10052000001C41F5801149084FEA30000019514183
:1005300032462B4603B0BDE8F04FFFF713BF0098DB
:10054000012240000023D0EB020263EBE07300982D
:1005500021464FEAE074B8EB000061EB0401E9E7E3
:1005600083F000435BE781F0004158E72DE9FE4F3F
:1005700081EA030404F0004421F0004100944FF0AC
:10058000000B23F0004350EA01045ED052EA03045A
:100590005BD0C3F30A54C1F30A552C44A4F2F334DC
:1005A0000194A0FB0254C1F3130141F48011C3F381
:1005B000130343F4801301FB024400FB034E840A3F
:1005C000970A44EA815447EA8357A4FB07680295D7
:1005D0008D0A05FB07854FEA932C04FB0C54270575
:1005E000029D4FEA065847EA1637B5EB08056EEB51
:1005F000070C870E920E47EA811742EA8312A7FB87
:100600000201B6EB0B0164EB00042B0D43EA0C3343
:100610005E1844EB1C50DA465146E7FB0201C5F375
:1006200013044FEA0B3343EA14534FEA0432019C9C
:1006300043EA0603A4F10C040294009CCDE900B443
:10064000FFF79FFE03B0BDE8F08F00200146F9E7F9
:100650002DE9F04D81EA030404F0004B21F0004540
:1006600014464FF0000A23F0004150EA050220D062
:1006700054EA01021DD0C5F30A570246C5F313031D
:10068000C1F31300C1F30A5640F4801543F48013FC
:10069000A7EB0608101BD64608F2FD3873EB0500E1
:1006A00002D308F1010801E092185B41B8F1000F94
:1006B00003DA00200146BDE8F08D00204FF48011E0
:1006C000064684460EE0171B73EB050705D3121B85
:1006D00063EB050306434CEA010C49084FEA30007E
:1006E00092185B4150EA0107EDD152EA030012D0A3
:1006F00082EA040083EA0501084305D0101BAB41E0
:1007000006D20122002306E000224FF0004302E05F
:100710006FF0010253101AEB06004CEB085110EB7E
:100720000A0041EB0B01BDE8F04DFFF71BBEC1F322
:100730000A52C1F3130140F2FF3341F480119A428F
:1007400002DA00200146704740F233439A42A2F297
:10075000334202DC5242FFF707BD00F02BB8000025
:1007600030B5041E71F1000404DB4FF00044404238
:1007700064EB0101141E73F1000405DB1C464FF00D
:100780000043524263EB0403994208BF904230BDDC
:10079000064C074D06E0E06840F0010394E80700CE
:1007A00098471034AC42F6D3FFF7C6FCC861000886
:1007B000E8610008202A04DB203A00FA02F1002058
:1007C00070479140C2F1200320FA03F3194390408F
:1007D0007047202A06DBCB17203A41FA02F043EAA1
:1007E000E07306E041FA02F3D040C2F120029140EA
:1007F00008431946704700002DE9F843CF4F4FF4E6
:100800008071384601F0BEF908B900F0EBFDCC4824
:100810000088CC4ACC4DCD4E0024CD49B0F5347F74
:100820007ED018DCB0F5247F71D00ADC002878D0A7
:10083000A0F5007002382BD0312843D0802824D175
:1008400033E0B0F5287F57D0B0F52C7F47D0B0F516
:10085000307F1AD17AE042F20218A0EB08034FF081
:10086000010C404570D00ADCA0F50070EE386CD069
:1008700011285CD0A0F5F050133806D134E1012BDB
:1008800071D0022B70D0DE2B6FD00C70BDE8F883D6
:100890000C7054700220AB786A78297804F004F860
:1008A0003068016840680090F0E70C705470822056
:1008B000AB786A78297803F0F7FF30680168406800
:1008C0000090E3E70C7054703320AB786A78297895
:1008D00003F0EAFF3068016840680090D6E70C70CA
:1008E0005470B020AB786A78297803F0DDFF306867
:1008F000016840680090C9E70C705470A020AB7884
:100900006A78297801B0BDE8F04303F0CDBF0C70E0
:1009100054709020AB786A78297803F0C5FF01E025
:1009200024E030E03068016840680090AEE70C7069
:100930005470FF20AB786A78297803F0B5FF3068EF
:10094000016840680090A1E7C0E035E00C70547089
:10095000C020AB786A78297803F0A6FF3068016878
:100960004068009092E787E099E0D3E00C70547003
:10097000D020AB786A78297803F096FF3068016858
:100980004068009082E70C705470AB786A782978E0
:10099000204603F089FFAB786A782978204603F077
:1009A00083FFAB786A782978204603F07DFF3068B2
:1009B00001684068009069E70C70664804705470E4
:1009C000EE20AB786A78297803F06EFF4FF48054FC
:1009D00000222146384601F0DCF865100022294645
:1009E000384601F0D6F8C82000F0B8FF01222146B1
:1009F000384601F0CEF801222946384601F0C9F800
:100A0000C82000F0ABFF00222146384601F0C1F8B3
:100A100000222946384601F0BCF8C82000F09EFFAD
:100A200001222146384601F0B4F801222946384611
:100A300001F0AFF8C82000F091FF002221463846AF
:100A400001F0A7F800222946384601F0A2F8C82094
:100A500000F084FF01222146384601F09AF8012275
:100A60002946384601F095F8C82000F077FF306835
:100A700001684068009009E70C7082F801C003200B
:100A8000AB786A78297803F00FFF642000F066FFE6
:100A900000F0D4FA3068016840680090F6E60C7007
:100AA00082F801C00420AB786A78297803F0FCFE54
:100AB000642000F053FF00F097FA014626A004F0EE
:100AC000CDFD3068016840680090DFE60C7082F868
:100AD00001C00220AB786A78297803F0E5FE30681F
:100AE000016840680090D1E60C70604682F801C051
:100AF000AB786A78297803F0D7FE0A2000F02EFF41
:100B000019488178407803F015FE30680168406824
:100B10000090BBE60C7082F801C0E020AB786A78E8
:100B2000297803F0C1FEC82000F018FF03F02AFE68
:100B30003068016840680090A8E60000000C0140A1
:100B40001000002045000020120000205801002065
:100B50000E0000200C00002041325F425256203D22
:100B6000202564200A000000150000202DE9FC4724
:100B7000F94D4FF4807A5146284601F003F808B940
:100B800000F030FCF54800884FF480567710F44BA5
:100B9000F4490024C0287DD013DCF34ADFF8CC836D
:100BA000902878D008DCDFF8C89302281FD03328BB
:100BB00072D0822818D159E0A0286ED0B02813D165
:100BC000B8E0B0F5817F69D008DCD02867D0FF2875
:100BD00066D0A0F58070013806D1F2E1A0F58070F2
:100BE00003387DD001287CD00C70BDE8FC870C70E8
:100BF000147099F8022099F8011099F80000B8F8DB
:100C0000003000F0FEFA5146284600F0BBFF08B95C
:100C100000F0E8FB022000F0A1FE5146284600F05B
:100C2000B1FF08B900F0DEFB01223146284600F092
:100C3000B0FF00223946284600F0ABFF022000F04A
:100C40008DFE5146284600F09DFF08B900F0CAFB12
:100C50005146284600F096FF08B900F0C3FB89F81A
:100C6000004089F8014089F80240BEE70C7014701A
:100C700099F8022099F8011099F80000B8F80030AE
:100C800000F0B8FA5146284600F07CFF08B900F0A1
:100C9000A9FB06E0F3E082E02BE05FE076E113E100
:100CA0009DE0022000F05AFE00223146284600F066
:100CB00070FF01223946284600F06BFF5146284656
:100CC00000F060FF08B900F08DFB022000F046FE46
:100CD0005146284600F056FF08B900F083FB01E0BA
:100CE00013E116E189F8004089F8014089F80240D3
:100CF0007BE70C7014705146284600F043FF08B99A
:100D000000F070FB99F8022099F8011099F80000A2
:100D1000B8F8003003F0F6FF5146284600F032FFE5
:100D200008B900F05FFB89F8004089F8014089F8B4
:100D300002405AE70C70147003F098FD8D4908804A
:100D4000B8F80010002003F0CFFE5146284600F00E
:100D500019FF002889D100F045FB46E70C7004F02C
:100D600073F81E2000F0FAFD01223146284600F0FB
:100D700010FF01223946284600F00BFF1E2000F02C
:100D8000EDFD00223146284600F003FF00223946DF
:100D9000284600F0FEFE0A2000F0E0FD25E70C707A
:100DA0005979187900F0C8FA1E2000F0D7FD012209
:100DB0003146284600F0EDFE01223946284600F073
:100DC000E8FE1E2000F0CAFD00223146284600F051
:100DD000E0FE00223946284600F0DBFE05E70C70F5
:100DE00000223146284600F0D4FE0022394628462B
:100DF00000F0CFFEC82000F0B1FD012231462846A8
:100E000000F0C7FE01223946284600F0C2FEC82085
:100E100000F0A4FD00223146284600F0BAFE002270
:100E20003946284600F0B5FEC82000F097FD0122A3
:100E30003146284600F0ADFE01223946284600F032
:100E4000A8FEC82000F08AFD00223146284600F0A6
:100E5000A0FE00223946284600F09BFEC82000F084
:100E60007DFD01223146284600F093FE01223946DD
:100E7000284600F08EFEC82000F070FDB5E60C702C
:100E80003D4859790170007803F0FCFA00F02EFD1E
:100E90000C213A4802F00CFB00223146284600F0B3
:100EA00078FE01223946284600F073FE0A2000F041
:100EB00055FD01223146284600F06BFE00223946DE
:100EC000284600F066FE90E60C7000F069FC0A20EF
:100ED00000F044FD01223146284600F05AFE01226E
:100EE0003946284600F055FE0A2000F037FD002262
:100EF0003146284600F04DFE00223946284600F0D3
:100F000048FE0A2000F02AFD6FE60C7000F0D4FBCA
:100F10006BE60C7003F080FA014619A004F09EFB0A
:100F200001223146284600F034FE01223946284687
:100F300000F02FFE142000F011FD0022314628465B
:100F400000F027FE00223946284600F022FE142039
:100F500000F004FD49E60000000C014010000020F4
:100F6000580000200A0000200B000020260000206E
:100F700012000020280000202000002098010020FE
:100F8000425256203D202564200A00000C7068461D
:100F900000F05FFAFFF739F9044602460E460B46A9
:100FA0000AA004F05BFB4FF47A75284600F0D6FCEB
:100FB0002246334605A004F051FB284600F0CEFC43
:100FC00013E60C7003F01AFC0FE600003F3F3F3FB2
:100FD0003F3F3F3FA7DC3F3F3F3F3F3F3F3F3F3F1C
:100FE0003F252E31660A00001CB50AA003C8CDE9D2
:100FF00000010A4884788DF80440214608A004F0D6
:101000002DFB0C23062269460B4802F0CFFD20463B
:101010001CBD0000A2040000000B00001500002011
:101020004C616D70204272696768746E65737320DD
:101030006973202564200A00580100207CB512A0A5
:1010400003C8CDE90001124CA0788DF80400607847
:101050008DF8030020788DF8020002F033FE06467A
:10106000607802F04DFE0546A07802F00DFE711981
:10107000014408A004F0F2FA0C230622694609484C
:1010800002F094FD7CBD0000A2030000000B0000F4
:10109000150000205265616C54696D653D20256C1A
:1010A00064200A0058010020FEE700002DE9F05FEF
:1010B000804642F21074DFF814914548454F0126EE
:1010C000454D4FF00A0AB8F1000F1EDA6E7000228B
:1010D000082100F05EFD39784048C8F10008012978
:1010E00001D1797821B1C7F80480C0F800801EE0F2
:1010F00087F800A0C0F8008000F0A0F87860C5F87C
:1011000008807868C9F8000011E0002169700122A8
:10111000082100F03EFD3248C0F8008039780129EE
:1011200001D17978E9B3C0F80080C5F808802D4F67
:10113000DFF8B490DFF8B4B04FF4005AB8F1000F04
:1011400022D04FF49668C5F804802E703868426A41
:101150006B68991841630021224802F08DF8012242
:101160000021484603F0D6FF01225146584600F0C0
:1011700010FD641EA4B2E6D200F04CF801461C48F3
:101180000180008868602E703868416A6A6811447E
:1011900041630021134802F06FF801220021484604
:1011A00000E008E003F0B6FF51465846BDE8F05FA6
:1011B000012200F0EEBC87F800A0C0F8008000F02B
:1011C0003DF8C9F80000C5F80880B0E73C000020F1
:1011D0000008014018000020D40100203400002045
:1011E00030000020E0010020002C0140000C0140F4
:1011F00026000020000440EA01201043194603F0B5
:1012000091BC000440EA012010431946404203F01B
:1012100089BC000010B500F0B7FA012809D10222FC
:101220001021054800F0F4FA03484178007841EABB
:101230000024204610BD00001C0300202DE9F041D1
:1012400000F0A2FA01281AD1042205210D4800F06D
:10125000DFFAC82000F082FB0A4C207802F06EFD15
:101260000546607802F02EFD0646A07802F048FDA3
:101270000746E07802F008FDA91939440C18204609
:10128000BDE8F0811C0300202DE9F04120480168F1
:10129000CCB20168C1F307250168C1F307460068B5
:1012A000070E00F071FA01282FD10020194B1A49BE
:1012B00000221A540A54401CC0B20428F9D30F70FB
:1012C0004E708D70CC7004220521134800F0D5FAC1
:1012D0000446C82000F042FB012C04D0BDE8F041D8
:1012E0000EA004F0BBB9134D4FF400640022214658
:1012F000284600F04EFC0A2000F030FB214628462C
:10130000BDE8F041012200F044BCBDE8F0810000DE
:10131000380000201C0300201C020020656570724C
:101320006F6D20636865636B206572726F72200A4F
:1013300000000000000C01402DE9F04106460F4678
:1013400000F022FA012844D1234C00202070607064
:10135000224D2E706F7002221021284600F08DFA67
:10136000642000F0FBFA02221021204600F050FA1F
:1013700000224FF400611A4E4F00A05CAB5C984213
:1013800009D00022304600F004FC002239463046E5
:1013900000F0FFFBFEE7521CD2B2022AEDD318D1B7
:1013A00000220C46304600F0F4FB0022394630465D
:1013B00000F0EFFBC82000F0D1FA012221463046B0
:1013C00000F0E7FB39463046BDE8F041012200F06D
:1013D000E0BBBDE8F08100001C0300201C020020DF
:1013E000000C014010B5114901200870002110487F
:1013F00001F0A8FF002211460E4803F08BFE0C49B5
:101400006FF00200096808610B4C00224FF4804124
:10141000204600F0BEFBFFF737FF00226114204694
:1014200000F0B7FBBDE8104000F046B918000020FE
:10143000E0010020002C0140000C014006E00021EA
:10144000491CC9B20A29FBD3401E80B20028F6D13C
:10145000704770B5054600F055F80024285D00F08F
:10146000F7F8641CE4B2082CF8D3442000F0F0F83C
:1014700000F048F80024285D00F0EAF8641CE4B2AB
:10148000082CF8D3BE2000F0E3F800F0ABF80446D7
:1014900000F0A8F8000200B220436FF00304002817
:1014A0000ADAC043401CFEF79FFE2246FEF785FE87
:1014B000BDE87040FEF7BCBEFEF796FE2246FEF782
:1014C0007CFEBDE87040FEF7B3BE000008B50B48D7
:1014D000816941F004018161806900F0040000909D
:1014E00000F028F801220221054800F052FB00F02C
:1014F00095F8BDE8084000F02BB80000001002404D
:101500000008014010B500F089F800F021F8BDE8AE
:101510001040552000F09CB81FB50220009000201C
:101520000190012002906946014800F023FA1FBD96
:10153000000801401FB50220009001200190032007
:1015400003906946014800F015FA1FBD00080140EC
:1015500070B50024FFF7E0FF124D04E0641CE4B214
:101560000120FFF76BFF0221284600F00BFB08B1BA
:10157000642CF3D3642C01D3012070BD002404E05B
:10158000641CE4B20120FFF759FF0221284600F055
:10159000F9FA08B9F02CF3D3F02C01D3012070BD77
:1015A000002070BD0008014010B5FFF7C3FF0C4CD0
:1015B00000220221204600F0ECFA0A20FFF73EFF4D
:1015C000FFF7AAFF0221204600F0DCFA012805D02F
:1015D00000242D20FFF732FF204610BD0124F8E73C
:1015E0000008014070B500250024FFF7DDFFA04092
:1015F0002843C5B2641CE4B2082CF6D3284670BD5B
:1016000070B50546332000F023F80024FFF7EAFF09
:101610002855641CE4B2082CF8D370BD10B5FFF750
:1016200089FF0A4C00220221204600F0B2FA40F263
:10163000EE20FFF703FF01220221204600F0A9FA65
:10164000BDE810400F20FFF7F9BE00000008014080
:1016500070B50546FFF76EFF0024154E05F001003A
:101660006D0880B100220221304600F092FA082075
:10167000FFF7E4FE01220221304600F08AFA3A2008
:10168000FFF7DCFE0FE000220221304600F081FA75
:101690004620FFF7D3FE01220221304600F079FAFE
:1016A0000220FFF7CBFE641CE4B2082CD6D370BD39
:1016B00000080140FEE700002DE9FC4121A003C81D
:1016C000CDE90001214804688DF80440200A8DF816
:1016D0000300200C8DF8020000F056F801282FD1ED
:1016E00000201B4D00212954401CC0B20428FAD30D
:1016F00004220521164800F08BF8C82000F02EF9CE
:10170000287802F01BFB0646687802F0DBFA804678
:10171000A87802F0F5FA0746E87802F0B5FA06EB89
:101720000801394401440BA003F098FF21460FA0A3
:1017300003F094FF0C2306226946124802F036FAA1
:10174000BDE8FC81A1030000000B00003800002070
:101750001C030020454550524F4D20706F73697433
:10176000696F6E3D20256C64200A00007265616C13
:1017700020706F736974696F6E3D20256C64200A58
:10178000000000005801002010B5A02002F020FB4E
:1017900018B102F037FD002010BD012010BD00007F
:1017A00070B5FFF7F1FF012814D100201449154A44
:1017B00000240C541454401C80B20A28F9D3092286
:1017C0000021104800F059F805460F4804606420D5
:1017D00000F0C4F8012D00D0FEE70C4D4FF400647A
:1017E00000222146284600F0D4F9142000F0B6F873
:1017F00021462846BDE87040012200F0CAB9000029
:101800001C0300201C02002038000020000C0140B6
:101810002DE9F04105460C46164602F0D3FCA02007
:1018200002F02EFC02F006FD68B9E0B202F028FCDE
:1018300002F000FD38B902F0C5FCA12002F020FC46
:1018400002F0F8FC20B102F0DDFC0020BDE8F081E0
:101850000024771E0BE002F0EFFB2855BC4202D0BB
:1018600002F096FA01E002F0CBFB641CA4B2B44291
:10187000F1D302F0C7FC0120E8E72DE9F0478046EC
:101880000E46914600254FF47A7729E00DB1700796
:1018900016D102F0B7FC002402F094FCA02002F064
:1018A000EFFB02F0C7FC18B1641CA4B2BC42F3D336
:1018B000BC420CD0F0B202F0E3FB02F0BBFC30B94A
:1018C00018F8050002F0DCFB02F0B4FC20B102F0D5
:1018D00099FC0020BDE8F087761CB6B26D1CADB255
:1018E0004D45D3D302F08EFC0120F3E710B58EB046
:1018F0001848174901600821416000248460642170
:10190000C160046101F07BFB4FF480500A900AA98A
:10191000104801F0C0FB0894099408A90D4801F093
:1019200046FB602001900C480078029003940594D7
:10193000002201A9074801F04DFD0C2201A905482C
:1019400001F048FD034801F02DFC0EB010BD000071
:1019500000080040980100202000002031B500F070
:101960001FF9044600F01CF90099001B8842F9D3C6
:1019700038BD00002DE9F84F00230024DFF8DC918A
:101980004FF00F0809F1040A0AF1040B0BF1040EE1
:101990000127A7400A683A40BA4275D1DFF8C0C1B2
:1019A0004D68A5EB0C0665452BD00DDC032D34D01E
:1019B00005DC35B3012D19D0022D2FD11BE0112DDF
:1019C00016D0122D2AD119E0B6F5881F19D006DCE1
:1019D000B6F5803F15D0B6F5801F1FD111E0B6F5E2
:1019E000001F0ED0B6F5041F18D10AE0CB6815E031
:1019F000CB681B1D12E0CB6808330FE0CB680C33BB
:101A00000CE08B6823B1012B04D00823476105E06B
:101A1000042303E00823076100E00023FF2A01D824
:101A2000054601E000F1040502D84FEA840603E010
:101A3000A4F108064FEA86062F6808FA06FC27EA92
:101A40000C0703FA06F647EA06072F604D68ED001B
:101A50007ED5444DAE6946F00106AE61AD6905F034
:101A600001050095404D24F003067719BE68A507CF
:101A70002D0F08FA05FC26EA0C06DFF8F0C06045D9
:101A800003D14FF0000C25E062E0DFF8E4C06045D0
:101A900002D14FF0010C1DE0DFF8D8C0604502D143
:101AA0004FF0020C16E0DFF8D0C0604502D14FF0D5
:101AB000030C0FE0DFF8C4C0604502D14FF0040C06
:101AC00008E0DFF8BCC0604502D14FF0050C01E032
:101AD0004FF0060C0CFA05FC4CEA060CC7F808C0DF
:101AE0004D68ED0305D5D9F800501543C9F80050ED
:101AF00004E0D9F800509543C9F800504D68AD0393
:101B000005D5DAF800501543CAF8005004E0DAF8B9
:101B100000509543CAF800504D68ED0205D5DBF83A
:101B200000501543CBF8005004E0DBF8005095431B
:101B3000CBF800504D68AD0205D5DEF800501543D6
:101B4000CEF8005004E0DEF800509543CEF8005087
:101B5000641C102CFFF41CAFBDE8F88F000401409A
:101B60000000111000100240000001400008014078
:101B7000000C014000100140001401400018014019
:101B8000001C01408068084201D0012070470020FD
:101B90007047002A01D00161704709040161704754
:101BA00001480068704700000400002010B504469A
:101BB00020684169C1F300214268C2F30022002974
:101BC0000ED0012A0CD1A16B41F00101A163416942
:101BD00021F4807141612068016841F40041016095
:101BE00020684169C1F340214268C2F3002249B133
:101BF000012A07D1A16B41F00201A163416921F4DF
:101C00000071416120684169C1F380214268C2F3DB
:101C10000022C1B1012A16D194F83620638D94F8C0
:101C20003510202A02D10BB9212917D0A16B41F020
:101C30000401A163016841F40071016020684169F9
:101C400021F48061416120684169C1F3C02142688B
:101C5000C2F3002271B1012A04D00BE0204602F049
:101C600080FAF0E7A16B41F00801A163416921F41A
:101C700000614161A06B00280AD0202084F8350063
:101C80002068016821F400610160204600F096F8A8
:101C900010BD30B490F836200168102A15D090F8A5
:101CA0003620402A11D04A69C2F340034A68C2F381
:101CB00040224C69C4F300148D69C5F380050BB153
:101CC000012A3AD0012C3BD03CE08A69D24352072A
:101CD00019D44A69C2F3C0134A68C2F380244A691E
:101CE000C2F380024968C1F3402113B1012C00D135
:101CF00032B1012A60D101295ED130BC02F046B96F
:101D000030BC02F06AB94A69C2F380134A68C2F370
:101D100080244A69C2F380024968C1F3402113B1AB
:101D2000012C00D132B1012A46D1012944D130BC65
:101D300002F0AEB830BC02F0F5B830BC02F00ABA1E
:101D4000012A11D0012D12D04A69C2F380134A68CA
:101D5000C2F380244A69C2F380024968C1F340217A
:101D600003B3012C1DD01DE030BC02F011BA4A694A
:101D7000C2F3C0134A68C2F380244A69C2F38002E6
:101D80004968C1F3402113B1012C00D132B1012ABD
:101D900012D1012910D130BC02F0C0B930BC02F020
:101DA000CBB932B1012A07D1012905D130BC02F0EB
:101DB00099B930BC02F0A4B930BC7047704700003C
:101DC00070B50446002C04D094F83500002510B1FD
:101DD00006E0012070BD84F83450204600F04AF837
:101DE000242084F835002068016821F00101016099
:101DF00000F010FB01461B48B1FBF0F02268506078
:101E0000194B62689A4201D8401C07E04FF4967261
:101E100050434FF47A72B0FBF2F0401C226810621B
:101E2000204601F0E5FF2168C861D4E907010843B5
:101E300021680860D4E90310084321688860D4E968
:101E4000050108432168C8602068016841F001016C
:101E50000160A563202084F8350084F83650002006
:101E600070BD000040420F00A0860100704770471F
:101E70007047704700B585B01648C16941F400113C
:101E8000C161C16901F400110091816941F008014B
:101E90008161806900F008000090C020019012204C
:101EA00002900320049001A90B48FFF763FD002274
:101EB0001146202000F006F9202000F0F7F800225B
:101EC00011461F2000F0FEF81F2000F0EFF805B0CB
:101ED00000BD000000100240000C014010B5134A84
:101EE00002F10B03D07851791954002804D001284D
:101EF00008D002280CD010E00120D0700CA003F014
:101F0000ADFB0AE00220D0700EA003F0A7FB04E0B6
:101F10000020D07010A003F0A1FB04490422BDE80A
:101F20001040491D114800F025B800000A000020AB
:101F3000727863706C7463616C6C5B305DA3BA25FE
:101F400023780A00727863706C7463616C6C5B3127
:101F50005DA3BA2523780A00727863706C7463619C
:101F60006C6C5B325DA3BA2523780A0074040020F0
:101F70007047000070B504460E46154694F83500CB
:101F8000202801D0022070BD56B14DB142F210732D
:101F900001221849204602F071F918B1022070BDE3
:101FA000012070BD94F83400012820D0012084F86D
:101FB00034002068016821F400610160222084F867
:101FC0003500202084F836000021A1636662258553
:101FD00065852068026842F48062026084F83410EB
:101FE0002068416841F4E0614160002070BD02203A
:101FF00070BD00000200100002480168491C016029
:10200000704700000400002010B50748016841F047
:1020100010010160052000F075F8002000F006F8BE
:1020200000F016F8002010BD0020024010B5044654
:1020300000F0D6F94FF47A72B0FBF2F000F07EFFB8
:1020400000222146501E00F03DF8002010BD000087
:1020500008B51548816941F001018161806900F08E
:1020600001000090052000F04DF8002211466FF0AD
:102070000B0000F027F8002211466FF00A0000F074
:1020800021F8002211466FF0090000F01BF8002231
:102090001146101F00F016F80022BDE80840114656
:1020A000501E00F00FB800000010024000F01F02A8
:1020B000012191404009800000F1E020C0F80011AA
:1020C00070470000F0B40D460D4B1B68C3F30223AC
:1020D000C3F10704042C00D90424191D072901D2D7
:1020E000002300E0DB1E012606FA04F1491E294008
:1020F00099409E40761E16403143F0BC02F009BB69
:102100000CED00E000F00701054A10684FF6FF03F0
:10211000184040EA0120034908431060704700005E
:102120000CED00E00000FA052DE9F04704460F46EB
:10213000DFF8A492D9F80000A84D00F007010120B3
:10214000430446064FF0020C41F28838B9426FD280
:10215000D9F8001021F007013943C9F80010D9F867
:10216000001001F00701B94201D0BDE8F0872178E5
:10217000890705D56968A26821F0F00111436960FB
:102180002178C90761D0616801290BD002291FD0CD
:102190009CFAACF2B2FA82F242F0200252092DD03F
:1021A0002A682CE093FAA3F2B2FA82F242F02002FB
:1021B000520901D02A6800E06A6A93FAA3F3B3FADD
:1021C00083F303F01F039840024223D10120CCE7A0
:1021D00096FAA6F2B2FA82F242F02002520901D037
:1021E0002A6800E06A6A96FAA6F3B3FA83F303F06A
:1021F0001F03984002420DD10120B6E76A6A9CFA9B
:10220000ACF3B3FA83F303F01F039840024201D109
:102210000120AAE7686820F0030008436860FFF720
:10222000BFFC0646606801280AD0022815D021E0CC
:1022300025E0FFF7B5FC801B404501D9032094E75A
:102240006868C0F381000128F3D1ADE0FFF7A8FC76
:10225000801B404501D9032087E76868C0F38100EF
:102260000228F3D1A0E0FFF79BFC801B404501D979
:1022700003207AE7686810F00C0FF4D194E021781D
:10228000890705D56968A26821F0F00111436960EA
:102290002178C90779D0616801290BD002291FD0A4
:1022A0009CFAACF2B2FA82F242F0200252092DD02E
:1022B0002A682CE093FAA3F2B2FA82F242F02002EA
:1022C000520901D02A6800E06A6A93FAA3F3B3FACC
:1022D00083F303F01F039840024223D1012044E717
:1022E00096FAA6F2B2FA82F242F02002520901D026
:1022F0002A6800E06A6A96FAA6F3B3FA83F303F059
:102300001F03984002420DD101202EE76A6A9CFA11
:10231000ACF3B3FA83F303F01F039840024201D1F8
:10232000012022E7686820F0030008436860FFF797
:1023300037FC06466068012809D0022814D020E046
:10234000FFF72EFC801B404501D903200DE768688C
:10235000C0F381000128F3D117E0FFF721FC801BB7
:10236000404501D9032000E76868C0F381000228D6
:10237000F3D10AE0FFF714FC801B404501D903208C
:10238000F3E6686810F00C0FF4D1D9F8000020F0E3
:1023900007003843C9F80000D9F8000000F0070032
:1023A000B84201D00120E0E62078400705D56868F2
:1023B000E16820F4E060084368602078000706D5F3
:1023C0006868216920F4605040EAC100686000201C
:1023D000FFF72CFE0020C8E600200240001002405B
:1023E00000B500F043F808494968F02292FAA2F2D9
:1023F00001F0F001B2FA82F2D140044A515CC840C7
:102400000349086000BD000000100240A8610008F8
:102410000000002000B5FFF7E3FF074949684FF4CB
:10242000E06292FAA2F201F4E061B2FA82F2D140E3
:10243000024A515CC84000BD00100240A86100087B
:1024400000B5FFF7CDFF074949684FF4605292FA93
:10245000A2F201F46051B2FA82F2D140024A515C18
:10246000C84000BD00100240A861000810B585B04A
:102470001AA0D0E90031D0E90220CDE90131CDE93F
:1024800003201AA000680090194B5968194801F000
:102490000C02042A1DD0082A1BD14FF4701494FAA0
:1024A000A4F401F47012B4FA84F4E24001ACA25C2A
:1024B000C90310D559684FF4003393FAA3F301F41C
:1024C0000031B3FA83F3D9401DF80110B0FBF1F0ED
:1024D000504305B010BD08485043FAE70203040515
:1024E000060708090A0B0C0D0E0F10100102000060
:1024F0000010024000127A0000093D002DE9F84F5B
:102500000446F94D20784FF00106C00775D0686881
:102510007704C0F38100012807D06868C0F3810008
:1025200002281DD16868C0031AD597FAA7F0B0FA3F
:1025300080F040F02000400901D0286800E0686A7F
:1025400097FAA7F1B1FA81F101F01F0206FA02F140
:10255000084252D0606800284FD10120BDE8F88FB2
:10256000286820F480302860286820F480202860C3
:10257000FFF716FB804607E0FFF712FBA0EB080011
:10258000642801D90320E9E797FAA7F0B0FA80F0B0
:1025900040F02000400901D0286800E0686A97FAFE
:1025A000A7F1B1FA81F101F01F0106FA01F1084229
:1025B000E2D16068B0F5803F11D0A8B1B0F5A02F8E
:1025C0001CD0286820F480302860286820F48020FF
:1025D00028606068C8B3FFF7E3FA80461FE0286808
:1025E00040F480302860F4E7286820F480302860C8
:1025F000286820F480202860EBE748E0286840F451
:1026000080202860286840F480302860E1E7FFF7E8
:10261000C7FAA0EB0800642801D903209EE797FAC7
:10262000A7F0B0FA80F040F02000400901D02868FF
:1026300000E0686A97FAA7F1B1FA81F101F01F0191
:1026400006FA01F10842E2D021E0FFE7FFF7A8FA1D
:10265000804607E0FFF7A4FAA0EB0800642801D940
:1026600003207BE797FAA7F0B0FA80F040F0200053
:10267000400901D0286800E0686A97FAA7F1B1FA2A
:1026800081F101F01F0106FA01F10842E2D1207840
:10269000DFF8588280074FF0000B4FF0020732D569
:1026A00068684FF0F80A10F00C0F07D06868C0F3A4
:1026B0008100022828D16868C00325D497FAA7F0C2
:1026C000B0FA80F040F02000400901D0286800E016
:1026D000686A97FAA7F1B1FA81F101F01F0106FAD1
:1026E00001F1084204D02069012801D0012035E71A
:1026F00028689AFAAAF26169B2FA82F220F0F80028
:102700009140084328605CE0206990B396FAA6F0F7
:10271000B0FA80F048F82060FFF742FA814607E0FF
:10272000FFF73EFAA0EB0900022801D9032015E7C4
:1027300097FAA7F0B0FA80F040F02000400901D0ED
:10274000286800E0686A97FAA7F1B1FA81F101F010
:102750001F0106FA01F10842E2D028689AFAAAF2AB
:102760006169B2FA82F220F0F800914008432860D3
:1027700027E0FFE796FAA6F0B0FA80F048F820B01C
:10278000FFF70EFA814607E0FFF70AFAA0EB09000F
:10279000022801D90320E1E697FAA7F0B0FA80F009
:1027A00040F02000400901D0286800E0686A97FAEC
:1027B000A7F1B1FA81F101F01F0106FA01F1084217
:1027C000E2D12078000770D5A069C0B396FAA6F0D0
:1027D000B0FA80F008EB8000C0F88064FFF7E0F901
:1027E000814607E0FFF7DCF9A0EB0900022801D9D8
:1027F0000320B3E697FAA7F0B0FA80F040F060004B
:10280000B6EB501F01D128680BE097FAA7F0B0FA99
:1028100080F040F06000B7EB501F01D1286A00E063
:10282000686A97FAA7F1B1FA81F101F01F0206FA7E
:1028300002F10842D6D00120FFF790F835E0FFE71B
:1028400096FAA6F0B0FA80F008EB8000C0F880B4E9
:10285000FFF7A6F9814607E0FFF7A2F9A0EB090010
:10286000022801D9032079E697FAA7F0B0FA80F0A0
:1028700040F06000B6EB501F01D128680BE097FADA
:10288000A7F0B0FA80F040F06000B7EB501F01D124
:10289000286A00E0686A97FAA7F1B1FA81F101F0BD
:1028A0001F0206FA02F10842D6D12078400770D5FF
:1028B000E86940F08050E861E86900F080500090DD
:1028C000DFF82CA0DAF8000040F48070CAF80000AD
:1028D000FFF766F981460DE0FFF762F9A0EB09000A
:1028E000642807D9032039E6001002400000424264
:1028F00000700040DAF80000C005EDD5286A20F02D
:1029000001002862286A20F004002862FFF748F9D5
:10291000814641F2883A07E0FFF742F9A0EB09004F
:10292000504501D9032019E697FAA7F0B0FA80F0D4
:1029300040F04000B6EB501F01D128680BE097FA39
:10294000A7F0B0FA80F040F04000B7EB501F01D183
:10295000286A00E0686A97FAA7F1B1FA81F101F0FC
:102960001F0106FA01F10842D6D1E068012811D012
:10297000A8B105281CD0286A20F001002862286A26
:1029800020F004002862E068C8B3FFF709F9814627
:102990001FE06EE0286A40F001002862F3E7286A31
:1029A00020F001002862286A20F004002862EAE78B
:1029B000286A40F004002862286A40F0010028627A
:1029C000E1E7FFF7EDF8A0EB0900504501D903203E
:1029D000C4E597FAA7F0B0FA80F040F04000B6EBFB
:1029E000501F01D128680CE097FAA7F0B0FA80F0E8
:1029F00040F04000B7EB501F02D1286A01E00BE025
:102A0000686A97FAA7F1B1FA81F101F01F0206FA9C
:102A100002F10842D5D02CE0FFF7C2F8814607E06A
:102A2000FFF7BEF8A0EB0900504501D9032095E55A
:102A300097FAA7F0B0FA80F040F04000B6EB501FD4
:102A400001D128680BE097FAA7F0B0FA80F040F0C7
:102A50004000B7EB501F01D1286A00E0686A97FA7E
:102A6000A7F1B1FA81F101F01F0206FA02F1084262
:102A7000D6D1E06980B36968C1F38101022970D0C1
:102A80004FF080794FF00077022809D099FAA9F029
:102A9000B0FA80F048F820B0FFF782F8044668E00A
:102AA00099FAA9F0B0FA80F048F820B0FFF778F86A
:102AB000824607E0FFF774F8A0EB0A00022801D96C
:102AC00003204BE597FAA7F0B0FA80F040F0200021
:102AD000400902D0286801E060E0686A97FAA7F12F
:102AE000B1FA81F101F01F0106FA01F10842E1D1CA
:102AF000206AB0F5803F05D16868A16820F40030F5
:102B000008436860D4E908010843696821F4741136
:102B10000843686099FAA9F0B0FA80F048F820609C
:102B2000FFF73EF8044606E0FFF73AF8001B0228DC
:102B300001D9032012E597FAA7F0B0FA80F040F02F
:102B40002000400901D0296800E0696A97FAA7F0DF
:102B5000B0FA80F000F01F0006FA00F00142E3D066
:102B60001CE01DE0FFF71CF8001B022801D9032020
:102B7000F4E497FAA7F0B0FA80F040F020004009A2
:102B800001D0296800E0696A97FAA7F0B0FA80F0EE
:102B900000F01F0006FA00F00142E3D10020DDE45E
:102BA0000120DBE4704708B501684A68D243520649
:102BB0000CD48A68D243D20708D18A68D24352061D
:102BC00004D5816C01B05DF804EB08474A68D24334
:102BD000120608D48A68D243920704D4C16C01B0AB
:102BE0005DF804EB08474A68D243920635D48A68F8
:102BF000D243D20606D4426D42F0020242656FF023
:102C000010028A6001688A68D243920609D4426D34
:102C100042F0010242658A680A6822F040020A60B6
:102C2000009201688A68D24352060AD490F8512073
:102C3000122A06D0426D42F004024265CA688A68D0
:102C40000092426D002A08D04A6822F0E0024A60F1
:102C5000012180F85110FFF7A5FF08BD10B504460B
:102C6000002C03D094F8510010B104E0012010BDF5
:102C7000204600F039F8022084F8510020680168ED
:102C800021F040010160D4E901010843D4E90312B5
:102C90001143084361690843218B01F40071084323
:102CA000E1690843216A0843A16A08432168086072
:102CB000A069042101EA1040616A08432168486064
:102CC0002168E06A08612068C16921F40061C1617E
:102CD0000449002008706065012084F8510000203C
:102CE00010BD00000800002030B585B00068244900
:102CF000884242D12348816941F4805181618169D0
:102D000001F480510091816941F004018161816980
:102D100001F004010091816941F004018161806941
:102D200000F004000090A0200190022002900320F7
:102D30000490154D01A92846FEF71CFE4021019183
:102D400000240294039401A92846FEF713FE0122F1
:102D500010212846FEF71DFF102101910294012148
:102D6000039101A92846FEF705FE02220121232036
:102D7000FFF7A8F92320FFF799F905B030BD00004F
:102D80000030014000100240000801402DE9F843E6
:102D90000446984694F85100012802D00220BDE86C
:102DA000F88339B332B394F85000012824D00127B6
:102DB00084F85070122084F8510000266665216363
:102DC000A286E286E664A664A663A687E687A06A72
:102DD0007D03A84209D12068016821F400510160F7
:102DE0002068016841F400510160A068B0F5004F0F
:102DF00004D008E00120D2E70220D0E72068016873
:102E000041F48041016020680168490603D40168EB
:102E100041F040010160E06828B1606880B3E08E55
:102E200001282ED04BE0606810B1E08E01281BD144
:102E3000206B411C216321680078C860E08E401E31
:102E4000E08611E0434600220221204601F0BCFD4D
:102E500008B10320A3E7206B411C2163216800789F
:102E6000C860E08E401EE086E08E0028EAD1A06AAD
:102E7000A8422FD12068016841F48051016029E007
:102E8000FFE7206B21680088C860206B801C2063EE
:102E9000E08E401EE08612E04346002202212046DA
:102EA00001F092FD08B1032079E7206B21680088CA
:102EB000C860206B801C2063E08E401EE086E08EA0
:102EC0000028E9D1A06AA84204D12068016841F431
:102ED00080510160434600220221204601F074FD2A
:102EE00028B1606D40F010006065032057E743464D
:102EF00001228021204601F067FD28B1606D40F07D
:102F00001000606503204AE7A06818B92068C1680E
:102F10008068009050346770267000203FE74FF0C3
:102F2000E021042804D0086920F0040008617047FB
:102F3000086940F0040008617047704710B5401EF2
:102F4000B0F1807F01D3012010BD4FF0E02460611B
:102F50000F21601701F0DDFB0020A0610720206138
:102F6000002010BD10B5FFF7E8FF10BD30B590F898
:102F70003820012A19D0012200F8382F022343708B
:102F8000D1E900342343D1E902452C4323430C69A2
:102F900023434C69896923430B4350F8381C4B6425
:102FA000427000210170002030BD022030BD30B5DC
:102FB00090F83820012A20D0012380F838300222EE
:102FC00080F839200268546824F070045460026864
:102FD00054680D682C4354600268946824F080049F
:102FE00094600268946849680C43946080F83930B2
:102FF000002180F83810002030BD022030BD10B50F
:103000000446002C03D094F8390010B107E00120E9
:1030100010BD002084F83800204600F00DF8022092
:1030200084F83900211D206802F030F8012084F86E
:103030003900002010BD000008B50D4B02680D4995
:103040009A4207D18A6942F400628A618A6902F46D
:10305000006200920068084A904207D1C86940F0B7
:103060000400C861C86900F00400009008BD0000B9
:10307000002C01400010024000080040022180F8AE
:10308000391001680A6842F001020A60012180F8E3
:1030900039100020704770B5044694F838000128B4
:1030A00017D0012584F83850022084F839002068B0
:1030B000826822F0770222F47F42826008685028FA
:1030C0003AD00DDC20285FD005DCA0B3102864D1F5
:1030D00055E0022070BD30285BD040285DD13FE034
:1030E000602833D070280CD0B0F5805F03D0B0F5E5
:1030F000005F52D113E02068816821F007018160F0
:103100004BE0CB68D1E90121206802F00EF820687D
:10311000816821F0770141F0770181603DE0CB6863
:10312000D1E90121206802F000F82068816841F4AB
:103130008041816031E01DE0CA684968206802F082
:10314000D7F85021206801F0FAFF26E0CA684968E4
:10315000206802F0DEF86021206801F0F0FF1CE03A
:10316000CA684968206802F0C3F84021206801F06D
:10317000E6FF12E00021206801F0E1FF0DE01021E0
:10318000206801F0DCFF08E02021206801F0D7FF73
:1031900003E03021206801F0D2FF38346570002050
:1031A000207070BD00B585B000680C49884213D10D
:1031B0000B48816941F008018161806900F00800D5
:1031C00000904FF4007001900220029003200490C0
:1031D00001A90448FEF7CEFB05B000BD0008004081
:1031E00000100240000C014070B5044694F838000D
:1031F00001280DD0012584F83850022084F83900C8
:1032000042B1042A0AD0082A0CD00C2A11D10DE0B0
:10321000022070BD206801F09BFF0AE0206801F0E9
:10322000CBFF06E0206802F001F802E0206802F01F
:1032300035F8383465700020207070BD10B5044634
:10324000002C03D094F8390010B107E0012010BD24
:10325000002084F83800204600F00CF8022084F8A2
:103260003900211D206801F011FF012084F8390088
:10327000002010BD7047000010B5044600292268E8
:1032800006D0042909D008290CD00C2913D10EE04E
:10329000D06840F00200D0600DE0D06840F004003B
:1032A000D06008E0D06840F00800D06003E0D0684B
:1032B00040F01000D0600122206801F02BFF094986
:1032C0002068884202D00849884203D1416C41F409
:1032D000004141642068016841F001010160002063
:1032E00010BD0000002C01400034014010B5044620
:1032F0000022206801F00EFF104841F211122168EF
:103300009310814202D00E48814209D1086A1042CE
:1033100006D1086A184203D1486C20F40040486482
:103320002068016A114206D1016A194203D101687D
:1033300021F001010160002010BD0000002C0140BF
:103340000034014010B504460029226806D0042943
:1033500009D008290CD00C2913D10EE0D06820F038
:103360000200D0600DE0D06820F00400D06008E0DA
:10337000D06820F00800D06003E0D06820F0100092
:10338000D0600022206801F0C5FE104841F2111201
:1033900021689310814202D00D48814209D1086A08
:1033A000104206D1086A184203D1486C20F400404C
:1033B00048642068016A114206D1016A194203D1AA
:1033C000016821F001010160002010BD002C0140C6
:1033D0000034014070B504460D4694F838000128C9
:1033E0000DD0012684F83860022084F8390042B1FB
:1033F000042A1AD0082A2DD00C2A53D13EE00220EC
:1034000070BD2946206801F0A3FE2068816941F063
:10341000080181612068816921F0040181612068CF
:1034200081692A69114381613CE02946206801F0E5
:10343000C3FE2068816941F400618161206881696F
:1034400021F480618161206881692A6941EA022151
:10345000816127E02946206801F0E8FE2068C16903
:1034600041F00801C1612068C16921F00401C16116
:103470002068C1692A691143C16113E029462068A7
:1034800001F00CFF2068C16941F40061C16120684E
:10349000C16921F48061C1612068C1692A6941EA7A
:1034A0000221C161383466700020207070BD0000B8
:1034B00010B504460122206801F02CFE084821685E
:1034C000814202D00748814203D1486C40F4004059
:1034D00048642068016841F001010160002010BDCE
:1034E000002C014000340140704738B50446206884
:1034F0000168C1F30001C26802F48072002904D09F
:103500001AB1E16B41F00101E1630168C1F34002CE
:10351000416901F0010122B119B1E26B42F00402EC
:10352000E2630268C2F3800222B119B1E26B42F099
:103530000202E2630268C2F3C00222B119B1E16B78
:1035400041F00801E1630168C1F34011C06800F077
:10355000200019B110B1204601F002FF2068016877
:10356000C1F3C011C06800F0800019B110B120464D
:1035700001F0D4FF20680168C1F38011C06800F039
:10358000400019B110B1204601F0D5FEE06B0028D3
:1035900009D02068016840680090012084F8390053
:1035A0002046FFF7A1FF38BD70B50446002C04D0BB
:1035B00094F83900002510B106E0012070BD84F8B0
:1035C0003850204600F020F8022084F839002068A6
:1035D000C16821F40051C160204601F019FF206844
:1035E000016921F4904101612068416921F02A01BB
:1035F00041612068C16841F40051C160E563012068
:1036000084F83900002070BD10B586B000681149FB
:1036100088421DD11048816941F4804181618069EF
:1036200000F4804001904FF400700290022003905B
:1036300003200590094C02A92046FEF79BF92115AD
:10364000029100210391049102A92046FEF792F90C
:1036500006B010BD003801400010024000080140D3
:1036600090F83930012B03D0122B01D00220704783
:1036700031B32AB390F83830012B23D0012380F8DE
:10368000383081628285C2850021C16390F839207B
:10369000122A19D0222280F8392080F838100168C7
:1036A000CA6842F48072CA6001684A6942F0010245
:1036B0004A610068C16841F02001C1600020704784
:1036C0000120704702207047322280F83920E4E759
:1036D0002DE9F84FF748012505608415DFF8D893E8
:1036E00021464846FEF74EFA08B9FDF77BFE072251
:1036F000F249F348FFF7B4FF002870D1214648464D
:10370000FEF740FA08B9FDF76DFEDFF8B083ED4F24
:10371000EB4C98F80000A7F10806A12875D198F89D
:103720000100002824D198F80200A0286ED00CDCFB
:1037300033281ED004DC002869D00228F2D139E0F9
:1037400082284DD0902813D162E0B02826D0C0281E
:1037500070D0D0286FD0FF280AD198F806000B2827
:1037600006D13570FF20F080206801684068009025
:10377000ABE098F806000B280FD1357098F80300DD
:10378000387098F80400787098F80500B870332005
:10379000F080206801684068009096E098F8060084
:1037A0000B2806D13570B020F08020680168406891
:1037B00000908AE098F806000B280FD1357098F831
:1037C0000300387098F80400787098F80500B87015
:1037D0000220F080206801684068009075E038E1C0
:1037E00098F806000B2870D1357098F803003870EF
:1037F00098F80400787098F80500B8708220F0807E
:1038000020680168406800905FE079E014E01FE004
:1038100098F806000B2858D1357098F80400787095
:1038200098F80500B8709020F08020680168406822
:1038300000904AE032E03DE098F806000B2844D1C1
:103840003570A020F08020680168406800903CE05E
:1038500098F806000B2838D1FDF7C4FD4FF4805AC4
:10386000012251464846FEF794F94FF4006B0122BD
:1038700059464846FEF78DF90A20FEF76FF80022F8
:1038800059464846FEF785F9002251464846FEF75C
:1038900080F9206801684068009016E098F80600FA
:1038A0000B2812D13570C020F08020680168406874
:1038B00000900AE098F806000B2806D13570D02059
:1038C000F080206801684068009098F801000128A5
:1038D0003DD198F80200012820D002282BD00328DF
:1038E00002D0042833D10CE098F806000B282ED122
:1038F000357040F20310F080206801684068009045
:1039000025E098F806000B2821D135704FF482701D
:10391000F080206801684068009018E098F8060080
:103920000B2814D1357040F20110F0802068016836
:10393000406800900BE098F806000B2807D135701E
:103940004FF48170F080206801684068009098F81A
:103950000000A2287DD198F80110002928D198F8FC
:103960000200A02876D00BDC332822D003DCB0B3D1
:1039700002281DD141E0822855D0902818D16BE053
:10398000D02868D004DCB0282AD0C02810D19BE011
:10399000EE2874D0FF280BD198F806000B2807D129
:1039A000357140F2FF20F080206802684068009086
:1039B000ABE098F806000B2810D1357198F8030099
:1039C000387098F80400787098F80500B87040F2E4
:1039D0003320F080206802684068009095E05CE049
:1039E00098F806000B2807D135714FF42C70F08041
:1039F000206802684068009087E098F806000B286D
:103A000010D1357198F80300387098F80400787078
:103A100098F80500B87040F20220F0802068026833
:103A20004068009071E098F806000B286DD1357160
:103A300098F80300387098F80400787098F805003A
:103A4000B87040F28220F0802068026840680090E0
:103A50005BE071E014E043E098F806000B2854D1D5
:103A6000357198F80400787098F80500B8704FF434
:103A70002470F080206802684068009045E03CE0D7
:103A800098F806000B2840D135714FF42870F0806B
:103A9000206802684068009037E098F806000B281C
:103AA00033D135710020F0802068026840680090B2
:103AB0002BE0000014040140000C014058000020DD
:103AC000580100201200002098F806000B281CD195
:103AD00035718001F080206802684068009014E031
:103AE00098F806000B2810D135714FF43470F0802F
:103AF000206802684068009007E0357140F2EE20CF
:103B0000F0802068026840680090012914D198F87C
:103B10000200032823D011DC01283AD002280BD15F
:103B200098F806000B2807D1357142F20210F08098
:103B30002068016840680090BDE8F88F04281BD019
:103B4000E028F9D198F806000B28F5D1357142F23A
:103B5000E010F0802068016840680090ECE798F879
:103B600006000B28E8D1357142F20310F08020687E
:103B7000016840680090DFE798F806000B28DBD169
:103B8000357142F20410F0802068016840680090AE
:103B9000D2E798F806000B28CED1357142F2011019
:103BA000F0802068016840680090C5E72DE9F04189
:103BB00004460D46984694F83900012804D022287E
:103BC00002D00220BDE8F0819DB192B194F8380096
:103BD000012810D0012684F838600027E76394F8A4
:103BE0003900222809D0122084F83900A284E28406
:103BF0002EE00120E6E70220E4E7322084F83900D5
:103C0000F4E7401EE084A068B0F5805F08D043462A
:103C100000228021204601F0B6FCA8B10320D1E7A4
:103C2000434600228021204601F0ADFC08B103206C
:103C3000C8E728882168C0F308004860206908B1F7
:103C40006D1C05E0AD1C03E0216815F8010B486010
:103C5000E08C0028D5D1434600224021204601F0C7
:103C600092FC08B10320ADE794F83900322805D062
:103C700084F8396084F838700020A3E7222084F8A3
:103C80003900F7E77047FEE710B5C0F303130021D2
:103C90000B4A545C9C4203D0491CC9B21029F8D38A
:103CA00000F00F030020145C9C4203D0401CC0B203
:103CB0001028F8D3105C515C00EB011010BD00001F
:103CC000B861000810B5C0F3031300210B4A545C1F
:103CD0009C4203D0491CC9B21029F8D300F00F034D
:103CE0000020145C9C4203D0401CC0B21028F8D3C2
:103CF000515C105C090501EB004010BDB861000883
:103D000010B5C0F3031300210B4A545C9C4203D04E
:103D1000491CC9B21029F8D300F00F030020145C2D
:103D20009C4203D0401CC0B21028F8D3515C105CF8
:103D3000090301EB002010BDB861000810B5C0F305
:103D4000031300210B4A545C9C4203D0491CC9B2A6
:103D50001029F8D300F00F030020145C9C4203D01C
:103D6000401CC0B21028F8D3515C105C090701EB6D
:103D7000006010BDB86100080148FDF717BF0000E2
:103D8000740400200148FDF784BF00007404002083
:103D900010B50E4C002210212046FDF7FAFE00F06F
:103DA0004BF8012220212046FDF7F3FE00F044F8F5
:103DB000002220212046FDF7ECFE00F03DF82046D1
:103DC0000122BDE810401021FDF7E3BE000C0140C8
:103DD00010B5044600F036F800F0F4F9204600F083
:103DE0004FF900F027FA044600F00CFA204610BD07
:103DF000104B42689A4208D85000B1FBF0F0C0F373
:103E00000B01042900D204207047806858B102EBEE
:103E1000C20000EB0210B1FBF0F040F4404001059D
:103E2000F2D10120704702EB4200B1FBF0F040F408
:103E30000040F4E7A08601000020401CC0B20A2820
:103E4000FBD3704700B585B00E48816941F0080189
:103E50008161806900F0080000900B48416821F002
:103E6000E06141F0807141603020019011200290AA
:103E70000120049001A90548FDF77CFD00F0C2F97E
:103E800005B000BD0010024000000140000C0140E0
:103E900010B5428D0168032A0CD0428D022A17D03A
:103EA0000A69416A4B1C43620A70418D491E418573
:103EB000002010BD0A6822F480620A6001680A6965
:103EC000416A4B1C43620A70418D491E4185EFE7F0
:103ED0004A6822F440724A6001680A6842F400723B
:103EE0000A6001680A69416A4B1C43620A70418D8D
:103EF000491E418501680A69416A4B1C43620A7088
:103F0000418D491E418590F836202021402A04D059
:103F100080F83510FDF7AAFFCAE780F83510FDF7E5
:103F2000A7FFC5E710B5428D0168032A08D90A69C1
:103F3000416A4B1C43620A70418D491E418519E05C
:103F4000022A19D0032A17D04A6822F4E0624A6094
:103F500001680A69416A4B1C43620A70418D491E1F
:103F6000418590F836202021402A0AD080F835106B
:103F7000FDF77CFF002010BD486820F48060486099
:103F8000F8E780F83510FDF773FFF3E710B5428DC1
:103F90000168002A08D0426A531C436212780A6101
:103FA000418D491E418511E04A6822F4E0624A6071
:103FB00001680A6842F400720A6090F836202021F5
:103FC000402A05D080F83510FDF751FF002010BDC4
:103FD00080F83510FDF74DFFF8E7428D0168002AA3
:103FE00009D0426A531C436212780A61418D491E0E
:103FF000418500207047486820F480604860F8E7F9
:1040000010B50C4C012210212046FDF7C2FDFFF730
:1040100013FF012220212046FDF7BBFDFFF70CFF17
:10402000002220212046FDF7B4FDBDE81040FFF737
:1040300003BF0000000C014070B5002400250F4EA6
:104040006006040E012220213046FDF7A2FDFFF795
:10405000F3FE10213046FDF795FD08B1641CE4B273
:10406000002220213046FDF794FDFFF7E5FE6D1C90
:10407000EDB2082DE4D3204670BD0000000C0140D5
:1040800070B505460024164E280605D501221021DC
:104090003046FDF77EFD04E0002210213046FDF79A
:1040A00078FDFFF7C9FE012220213046FDF771FDA2
:1040B000FFF7C2FE002220213046FDF76AFD072CE3
:1040C00004D1012210213046FDF763FD6806050E7C
:1040D000FFF7B2FE641CE4B2082CD5D370BD00001B
:1040E000000C0140418D002908D001680A69416A2D
:1040F0004B1C43620A70418D491E41850020704768
:10410000418D002908D001680A69416A4B1C43624D
:104110000A70418D491E418500207047418D00295C
:1041200008D0416A4A1C4262026809781161418DD7
:10413000491E418500207047418D002908D0416A01
:104140004A1C4262026809781161418D491E41850D
:104150000020704708B50068416980690090002020
:1041600008BD10B501684A6822F4E0624A6001683F
:104170004A6922F480624A6101680A6822F4806216
:104180000A60202180F83510FDF7F2FE002010BDF6
:1041900008B501684A6822F4E0624A6001684A6929
:1041A0000A6842F001020A60009201680A6822F47B
:1041B00080620A60202180F83510FDF78FFE002014
:1041C00008BD000010B50E4C012210212046FDF75D
:1041D000E0FC012220212046FDF7DBFCFFF72CFE4E
:1041E000002210212046FDF7D4FCFFF725FE002217
:1041F00020212046FDF7CDFCBDE81040FFF71CBE96
:10420000000C014010B50A4C002210212046FDF799
:10421000C0FC012220212046FDF7BBFCFFF70CFE6D
:1042200020460122BDE810401021FDF7B2BC00007D
:10423000000C014070B5104D012210212846FDF7F9
:10424000A8FCFFF7F9FD012220212846FDF7A1FC7B
:10425000FFF7F2FD10212846FDF794FC08B1012478
:1042600000E00024002220212846FDF792FCFFF701
:10427000E3FD204670BD0000000C01402DE9F05F19
:1042800004460E4693461D46FDF78AFC07464FF04E
:1042900000094FF0200AC6F30748BBF1000F0FD00A
:1042A0002FE0681C0CD025B1FDF77AFCC01BA8429A
:1042B00006D984F835A084F834900320BDE8F09F37
:1042C000B8F1010F07D02068806926EA00000004D9
:1042D000000C20D0E5E72068406926EA00000004D1
:1042E000000C18D0DDE7681C0BD025B1FDF758FC99
:1042F000C01BA84205D984F835A084F83490032067
:10430000DCE7B8F1010F08D02068806926EA0000D8
:104310000004000CE7D00020D0E72068406926EABE
:1043200000000004000CDED0F5E7000010B50C4CD6
:1043300002212046FDF726FC38B91420FDF70EFBBC
:1043400002212046FDF71EFC08B1012010BD02210C
:104350002046FDF717FC0028F9D0002010BD000012
:10436000000C014070B50D4D4FF480642146284685
:10437000FDF708FC38B91420FDF7F0FA214628466D
:10438000FDF700FC08B1012070BD21462846FDF76D
:10439000F9FB0028F9D0002070BD0000000C01409E
:1043A00070B586B01A48816941F008018161816960
:1043B00001F008010191816941F008018161816981
:1043C00001F008010191816941F008018161806972
:1043D00000F00800019002200290002503950124BE
:1043E00004940C4E02A93046FDF7C4FAA0020290D4
:1043F0000395049402A93046FDF7BCFA0294039594
:10440000049402A93046FDF7B5FA06B070BD00006D
:1044100000100240000C01407CB510A003C8CDE99B
:104420000001FDF7B1F90F4C012807D100202070E1
:1044300001220C212046FDF7EBF9257820788DF834
:104440000400294608A001F009F90C230622694658
:104450000B48FFF7ABFB28467CBD0000A104000021
:10446000000B00001C0300204C616D70204272693B
:104470006768746E657373206973202564200A0071
:10448000580100202DE9F0470446FDF77DF9244E40
:104490004FF400674FF48058012824D1DFF884904E
:1044A000002089F80000204D2C7001220C212846A4
:1044B000FDF7E3F96420FDF751FA01220C2148468B
:1044C000FDF7A6F9044699F80000297888420AD039
:1044D000002239463046FDF75CFB0022414630465B
:1044E000FDF757FBFEE7012C18D100223946304674
:1044F000FDF74FFB002241463046FDF74AFB3220D4
:10450000FDF72CFA012239463046FDF742FB4146C1
:104510003046BDE8F0470122FDF73BBBBDE8F08720
:10452000000C01401C0300201C020020F0B585B0E7
:104530002348816941F008018161816901F0080126
:104540000091816941F008018161806900F00800F3
:1045500000901C4F4FF40064002221463846FDF7BE
:1045600018FB6600002231463846FDF712FB019425
:10457000012402940325049501A93846FDF7FAF9B0
:1045800001960294049501A93846FDF7F3F920023B
:10459000019000200290039401A93846FDF7EAF942
:1045A000202001900294049501A93846FDF7E2F914
:1045B000012220213846FDF7ECFA05B0F0BD0000DD
:1045C00000100240000C01400A48094901600A49F4
:1045D00041600021816040F20F32C2604FF480429E
:1045E00002614161FF228261C1610162FDF7E8BBA6
:1045F0000054004074040020801A060010B5002208
:1046000001212520FDF75EFDBDE810402520FDF7C6
:104610004DBD000008B50E48816941F0040181617B
:10462000806900F0040000900B480A4901604FF4D3
:10463000E131416000218160C16001610C22426171
:104640008161C161FEF7B0FFBDE80840FFF7D6BF4A
:10465000001002400038014058010020FEE7000031
:104660002DE9F04120480168CCB20168C1F307256B
:104670000168C1F307460068070EFDF785F80128B9
:104680002FD10020194B1A4900221A540A54401CF9
:10469000C0B20428F9D30F704E708D70CC70042214
:1046A00005211348FDF7E9F80446C820FDF756F93F
:1046B000012C04D0BDE8F0410EA000F0CFBF134D97
:1046C0004FF40064002221462846FDF762FA0A20D2
:1046D000FDF744F921462846BDE8F0410122FDF7E7
:1046E00058BABDE8F0810000380000201C0300200B
:1046F0001C020020656570726F6D20636865636BD6
:10470000206572726F72200A00000000000C0140E8
:1047100070470907090E002806DA00F00F0000F1C3
:10472000E02080F8141D704700F1E02080F80014AC
:10473000704700001CB50AA20CCACDE900238DF811
:1047400004108DF8030041EA002107A000F086FF65
:104750000C23062269460A48FFF728FA1CBD000010
:10476000A2010000000B00004D6F746F72205370A7
:10477000656564206973203A202564200A000000E2
:10478000580100207CB513A003C8CDE900011348EF
:1047900081788DF8041041788DF8031000788DF839
:1047A0000200FFF78FFA05469DF80300FFF7A8FA0D
:1047B00004469DF80400FFF767FA2919014408A090
:1047C00000F04CFF0C23062269460B48FFF7EEF978
:1047D0007CBD0000A2E00000000B000015000020DE
:1047E000454550524F4D20706F736974696F6E3D2F
:1047F000202564200A000000580100207CB511A08B
:1048000003C8CDE90001FCF7BFFF104C012808D117
:10481000022210212046FCF7FBFF6078217840EA55
:10482000012560788DF8040020788DF80300294672
:1048300007A000F013FF0C23062269460A48FFF781
:10484000B5F97CBDA1010000000B00001C03002095
:104850004D6F746F72205370656564206973203AE0
:10486000202564200A0000005801002010B5FCF744
:104870008BFF012801D0002010BD02220021064834
:10488000FCF7C6FFC820FDF769F8034841780078B7
:1048900041EA002010BD00001C0300200148FEF783
:1048A00082B900001C04002070B51D4CA2252570A3
:1048B000A070E170227163710B20A07140F6FF734C
:1048C000072221461748FEF761FA002826D1012069
:1048D000611E087014A000F0C1FE217817A000F03E
:1048E000BDFE61781AA000F0B9FEA1781DA000F00D
:1048F000B5FEE17820A000F0B1FE217923A000F000
:10490000ADFE617926A000F0A9FEA17929A000F0F2
:10491000A5FEBDE870400A20FDF720B870BD00007C
:10492000450000201C040020D6F7BBFAB7A2CBCD6F
:10493000CFFBCFA2B3C9B9A60A00000061547842E8
:1049400075666665725B305D3D2523780A00000060
:104950006154784275666665725B315D3D252378EA
:104960000A0000006154784275666665725B325DCC
:104970003D2523780A00000061547842756666651B
:10498000725B335D3D2523780A0000006154784254
:1049900075666665725B345D3D2523780A0000000C
:1049A0006154784275666665725B355D3D25237896
:1049B0000A0000006154784275666665725B365D78
:1049C0003D2523780A0000002DE9F05F04460F46DC
:1049D00093461D46FDF7E4F806464FF000084FF4F5
:1049E000005A4FF00109BBF1000F26D050E0681CBF
:1049F00023D025B1FDF7D4F8801BA8421DD920682B
:104A0000416821F0E00141602068016821F0400127
:104A10000160A06A504509D12068016821F4005165
:104A200001602068016841F40051016084F85190F0
:104A300084F850800320BDE8F09F2068806837EA42
:104A40000000D4D129E0681C22D025B1FDF7A8F8D8
:104A5000801BA8421CD92068416821F0E001416018
:104A60002068016821F040010160A06A504509D129
:104A70002068016821F4005101602068016841F458
:104A80000051016084F8519084F850800320D2E7EF
:104A90002068806837EA0000D5D00020CBE700000E
:104AA00010B5104C0E4820604FF4827060600020FA
:104AB000A060E060206160614FF40071A16120217D
:104AC000E16120626062A0620720E0622046FEF79A
:104AD000C5F82068016841F04001016010BD000088
:104AE000003001401C04002070B50D464FF0FF342B
:104AF0000A498968081A0A4A1178002901D028B1A0
:104B000005E015201070FCF799FB00E000246043DD
:104B10002946BDE87040FCF7C9BA00002400002017
:104B2000180000202DE9F05F044641F27075DFF8AF
:104B30000CA14348DFF80C81434F444E4FF00A0B61
:104B40004FF00109002C18DA87F8019000220821A3
:104B5000FDF71FF898F800006442012802D19AF886
:104B6000000008B1346118E088F800B03461BC601E
:104B7000FCF764FB4042B0610FE000217970012234
:104B80000821FDF706F8F46098F80000012802D12A
:104B90009AF80000E8B3F460BC60002C4BD02A4CBB
:104BA000DFF8ACA04FF4FA680C344FF4005BA6F8C1
:104BB00002807088786087F800902068416A7A687F
:104BC00011444163204800210C30FEF755FB0122BF
:104BD0000021504600F09EFA012259461D48FCF77C
:104BE000D8FF6D1EADB2E2D2FCF714FB7080708866
:104BF000786087F800902068416A7A6811444163C0
:104C0000114800210C30FEF737FB012200215046ED
:104C100000E008E000F07EFA5946BDE8F05F0122AE
:104C20000C48FCF7B6BF88F800B0F460FCF706FB50
:104C3000B061BC60B1E7BDE8F09F00001900002042
:104C40000008014018000020D401002024000020AA
:104C5000002C0140000C0140F0B585B02648816968
:104C600041F004018161816901F0040100918169D1
:104C700041F004018161816901F0040100918169C1
:104C800041F008018161816901F0080100918169A9
:104C900041F008018161806900F0080000904FF444
:104CA000807001900220029003240494134E01A905
:104CB0003046FCF75FFE082101910125029504941E
:104CC00001A93046FCF756FE6E0301960295049446
:104CD0000B4F01A93846FCF74DFEAA03019202953D
:104CE000049401A93846FCF745FE002231463846B7
:104CF000FCF74FFF05B0F0BD001002400008014076
:104D0000000C01402DE9F0410E4690461F464FF041
:104D1000FF35FEF7D7FF04463046FEF7F1FF0646A3
:104D20004046FEF7B1FFA119164C0844E061164851
:104D30000178002641B115480178012911D0A068F9
:104D4000E169411AA9B115E005210170FCF776FA75
:104D50006061A16862691144E269891AA661A06074
:104D6000F0E70670A660A6616661A068E169411A75
:104D7000E8E7002505FB01F03946BDE8F041FFF703
:104D8000D1BE0000240000201800002019000020DF
:104D900030B595B02A49294D0D60032048600024A4
:104DA0008C604FF6FF70C8600C614C610846FEF7DE
:104DB00026F9A814119011A92148FEF76CF9204892
:104DC000FEF73CFA0F9410940FA91D48FEF7EFF878
:104DD000089409940A940B940C9468140D900E9402
:104DE00008A91748FEF7C2F83020019015484088FE
:104DF00002900220039008200490059406940794E2
:104E0000002201A90E48FEF7EFF9FFF725FF002168
:104E10000B48FEF797FA00210948FEF767FA0022CF
:104E20001146284600F076F9022200211B20FDF7EA
:104E300049F91B20FDF73AF915B030BD002C0140AF
:104E4000E00100202400002070B51B4801214170C2
:104E50001A4900240C601A490C604460FCF794FC69
:104E6000012813D100201749174A0C541454401C30
:104E7000C0B20A28F9D30A2200211348FCF7FDFC2E
:104E800005463220FCF76AFDFCF7FEF9012D00D043
:104E9000FEE70E4D4FF40064002221462846FCF741
:104EA00078FE0A20FCF75AFD21462846BDE87040EE
:104EB0000122FCF76EBE0000180000203C0000201C
:104EC000380000201C0300201C020020000C0140C0
:104ED00010B5FDF791F8BDE81040FEF743B830B5C6
:104EE0008FB001200590000406900024079402254D
:104EF0000C950D904FF4E0100E9005A8FDF7FEFA0A
:104F00000F200090019502946802039004940221FE
:104F10006846FDF709F9FDF763FA4FF47A71B0FBC3
:104F2000F1F0FEF70BF80420FDF7F9FF002211461F
:104F3000501EFDF7C7F80FB030BD00000D480168E6
:104F400041F00101016041680B4A11404160016874
:104F50000A4A11400160016821F480210160416822
:104F600021F4FE0141604FF41F0181600449C00338
:104F700008607047001002400000FFF8FFFFF6FED7
:104F800008ED00E02DE9F0413B4E3068C168C943AF
:104F9000890739D46FF0020707613068416A374CDE
:104FA0006288114441636078401CC0B2607002287E
:104FB0002AD100256570A6F10C014878012825D07A
:104FC000E068A269904203D0E068A269904200D2F2
:104FD0000D700878DFF8A88010B3012814D198F874
:104FE00000000A283CD0A069401CA0614878B0B3FA
:104FF000A068401EA0606069401E60618868A26968
:10500000904201D10D708D60BDE8F0812069A269E8
:10501000904203D02069A2699042DAD20D70D8E79D
:10502000A56100211448FEF78DF9002211461548AC
:1050300000F070F83068076100224FF40051124808
:10504000FCF7A7FD0120207098F800001528DBD19F
:10505000642088F80000A5616561A560D4E704E0DC
:10506000142088F80000A561C0E7A068401CA0607B
:105070006069401C6061C1E7E0010020240000205D
:1050800018000020002C0140000C01402DE9F041E7
:1050900002681B4D1B4E1C4FDFF870C01C4B4FF0BD
:1050A0008048A84209D0984207D0404505D0B04278
:1050B00003D0B84201D0604503D122F070044A68A1
:1050C0002243A84209D0984207D0404505D0B042BB
:1050D00003D0B84201D0604503D122F44074CA68BD
:1050E000224302608A68C2620A688262A84201D0D2
:1050F000984201D10969016301214161BDE8F08154
:10510000002C01400004004000080040000C00405A
:105110000034014010B501238B40046A9C430462B3
:10512000036A8A401343036210BD10B5846824F4F7
:105130007F4442EA03220A432243826010BD826810
:1051400022F070020A4342F00701816070470000BC
:10515000F0B5026A22F001020262026A43688469C1
:1051600024F0700424F003050C682C4322F002059F
:105170008A682A430E4E0F4FB04201D0B84205D183
:1051800022F00805CA682A4322F00402B04201D086
:10519000B84207D123F4807323F400734D691D4393
:1051A0008B692B4343608461496841630262F0BDAF
:1051B000002C014000340140F0B5026A22F01002D8
:1051C0000262036A4268846924F4E04424F440746F
:1051D0000D6844EA052423F020038D6843EA051393
:1051E000104D114EA84201D0B04206D123F08003E9
:1051F000CF6843EA071323F04003A84201D0B0422E
:1052000009D122F4806222F400624D6942EA8502EB
:105210008D6942EA85024260846149688163036264
:10522000F0BD0000002C014000340140F0B5026ADE
:1052300022F480720262026A4368C46924F0700436
:1052400024F003050C682C4322F400728D6842EAB6
:105250000522104D104EA84201D0B04206D122F4D2
:105260000062CF6842EA072222F48062A84201D09D
:10527000B04209D123F4805323F400534D6943EA2B
:1052800005138D6943EA05134360C4614968C1632E
:105290000262F0BD002C01400034014030B5026ACA
:1052A00022F480520262046A4268C36923F4E04334
:1052B00023F440730D6843EA052324F400548D68F9
:1052C00044EA0534084DA84202D0084DA84204D152
:1052D00022F480424D6942EA85124260C361496806
:1052E0000164046230BD0000002C01400034014024
:1052F00010B5036A046A24F001040462846924F08E
:10530000F00444EA021423F00A020A4384610262B0
:1053100010BD10B5036A23F0100303628469036AA9
:1053200024F4704444EA023223F0A00343EA01115A
:105330008261016210BD10B50168CA6822F04002A6
:10534000CA6090F83910322906D0012180F839104E
:10535000FEF798FC002010BD222180F83910F7E7F5
:1053600010B590F83910222903D0322901D002203B
:1053700010BD8168B1F5805F11D0016919B3016872
:10538000496801F07F03816A4A1C82620B70C18DFB
:10539000491E0904090CC1851CD0002010BD816A7A
:1053A00002693AB102685268D2B20A80816A491C25
:1053B0008162ECE702685268C2F308020A80816ADF
:1053C000891C8162E3E701684A68816A4B1C836239
:1053D0000A70DCE70168CA6822F02002CA6090F80F
:1053E0003910322910D00168CA6822F48072CA606C
:1053F00001684A6922F001024A61012180F83910EE
:10540000FEF766F9002010BD122180F83910F7E789
:105410002DE9F041044620680169E26821F4405119
:1054200011430161A168206901436069014320685B
:10543000C26841F20C639A430A43C2602068416922
:10544000A26921F440711143416133492068642508
:105450003226884230D1FCF7F3FF00EBC00101EBAC
:10546000001061688900B0FBF1F0B0FBF5F7FCF7C4
:10547000E7FF00EBC00101EB001061688900B0FBA1
:10548000F1F8FCF7DDFF00EBC00101EB00106168F3
:105490008900B0FBF1F0B0FBF5F06FF01801484364
:1054A00008EB800006EB0010B0FBF5F0216867F315
:1054B0001F108860BDE8F081FCF7ACFF00EBC00175
:1054C00001EB001061688900B0FBF1F0B0FBF5F76B
:1054D000FCF7A0FF00EBC00101EB00106168890040
:1054E000B0FBF1F8FCF796FF00EBC00101EB0010F8
:1054F00061688900B0FBF1F0B0FBF5F06FF01801C6
:10550000484308EB800006EB0010B0FBF5F0216883
:1055100067F31F108860CDE70038014090F839101C
:10552000122903D0322901D0022070478168B1F5D9
:10553000805F0CD0016A4A1C0262026809785160DF
:10554000C18C491E0904090CC18410D019E0016AFC
:1055500002680988C1F308015160016919B1016A43
:10556000491C0162ECE7016A891C0162E8E70168F5
:10557000CA6822F08002CA600068C16841F0400138
:10558000C160002070472DE9F04704460F4692465F
:105590001D46FCF705FB06464FF000084FF00109D9
:1055A000BAF1000F23D04AE0681C20D025B1FCF7E7
:1055B000F7FA801BA8421AD92068C16821F080013F
:1055C000C1602068C16821F02001C1602068C16805
:1055D00021F48071C1602068416921F001014161BD
:1055E00084F8399084F838800320BDE8F08720687B
:1055F000006837EA0000D7D126E0681C1FD025B12B
:10560000FCF7CEFA801BA84219D92068C16821F0A6
:105610008001C1602068C16821F02001C16020685C
:10562000C16821F48071C1602068416921F00101E5
:10563000416184F8399084F838800320D5E72068E8
:10564000006837EA0000D8D00020CEE70148FDF717
:105650004CBF000058010020FEE700000FB4054BCE
:1056600010B503A9044A029800F0CAF810BC5DF80E
:1056700014FB0000315F00085400002002E008C85D
:10568000121F08C1002AFAD170477047002001E0BC
:1056900001C1121F002AFBD1704700002DE9FF5FF6
:1056A000DDE90220010DDDF838B0024318D044F6E0
:1056B0001050A1F2FF3141430D140F98012820D062
:1056C000A5EB0B00401C5FEA000A4FF00004474EB8
:1056D000DFF81C91A046504616D5CAF1000728E015
:1056E0000F98012443A2012808D0002100980F9BA5
:1056F000C0E90021C0E90243BDE8FF9F6FEA0B014A
:10570000F4E7CBF10000DEE7074612E0F80707D028
:105710002246334640464946FAF728FF80468946E6
:105720002246334610461946FAF720FF04460E4635
:105730007F10002FEAD1DDE90201BAF1000F4246E5
:105740004B4602DAFAF712FF01E0FAF781FF04464E
:105750000E460022284BFBF703F803D84FF0FF302A
:10576000014607E00022254B20463146FAF757FE56
:10577000FAF7DDFF102409E0002C0ADB0A220023DF
:10578000FAF788FD019B30321A55641E50EA010277
:10579000F2D1641C019AC4F1110314440F9A012A36
:1057A00003D0012208430DD10AE0084304D00020B1
:1057B0004FF0110B0F9080E7A3EB0B056D1E0DE072
:1057C0005B4504DD4FF0000205F1010504E003DA5A
:1057D0004FF00002A5F10105002AECD000980F99C6
:1057E000C0E90231C0E9004586E70000000024401E
:1057F0000000F03F300000000000F0430000E03FF8
:105800002DE9FF4F95B09B468946064600250FE2DD
:10581000252877D100242746F84A0121059400E085
:10582000044316F8013F203B01FA03F01042F7D180
:1058300030782A2811D06FF02F033078A0F1300291
:10584000092A16D8059A44F0020402EB820203EBFF
:1058500042021044761C0590EFE759F8042B05929C
:10586000002A03DA504244F40054059044F0020444
:10587000761C30782E2816D116F8010F44F0040457
:105880002A280DD06FF02F023078A0F13003092BB9
:1058900009D807EB870302EB4303C718761CF3E72D
:1058A00059F8047B761C30786C280FD006DC4C2825
:1058B00017D068280DD06A2814D104E0742810D0BD
:1058C0007A280FD10DE044F400140AE044F4801467
:1058D00001E044F440147278824202D104F580144D
:1058E000761C761C307866280BD013DC582877D0CD
:1058F00009DC002875D04528F6D04628F4D0472882
:105900001AD19DE118E0632835D0642879D0652844
:1059100012D195E1702873D008DC6728F1D069288E
:105920006FD06E280DD06F2806D1B5E073282CD02B
:10593000752875D0782874D05A46179990476D1CF1
:1059400075E1C4F30250022809D003280DD0D9F81C
:10595000001004280DD00D6009F1040967E1D9F8A1
:105960000010EA17C1E90052F6E7D9F800100D80DF
:10597000F2E70D70F0E719F8041B8DF80010002015
:105980008DF80100EA46012003E059F804AB4FF01E
:10599000FF3061074FF0000102D40DE008F1010172
:1059A0008846B9420FDA8045F8DB1AF8081000295A
:1059B000F4D108E008F1010188468142FADB1AF8C7
:1059C00008100029F6D105985B46A0EB0807214690
:1059D0003846179A00F094FA284400EB080507E0CF
:1059E0004DE029E10DE01AF8010B5A46179990474E
:1059F000B8F10108F7D25B4621463846179A13E101
:105A000042E00A220092C4F302524FF0000A022A36
:105A100008D059F804CB032A4FEAEC710AD00DE004
:105A200029E02AE009F1070121F00702F2E802C1AA
:105A3000914609E00FFA8CFC4FEAEC71042A03D17D
:105A40004FFA8CFC4FEAEC71002907DA0A46002174
:105A5000DCF1000C61EB02012D2202E0220504D5ED
:105A60002B228DF80420012203E0E20701D020223E
:105A7000F7E7904659E00A2102E010220DE01021DC
:105A80004FF0000A00910BE010224FF0000A44F0A2
:105A900004040827009203E008224FF0000A009255
:105AA000C4F30252022A05D059F804CB0021032A7C
:105AB00008D009E009F1070121F00702F2E802C16C
:105AC000914605E01FFA8CFC042A01D10CF0FF0C72
:105AD0004FF00008220728D5702806D0009B83F0DD
