:020000040800F2
:100000003815002045010008F94A0008354000086D
:10001000454A000815110008D55A000800000000E4
:100020000000000000000000000000005701000870
:10003000A9160008000000005B0100083553000805
:100040005F0100085F0100085F0100085F01000810
:100050005F0100085F0100085F0100085F01000800
:100060005F0100085F0100085F0100085F010008F0
:100070005F0100085F0100085F0100085F010008E0
:100080005F0100085F0100085F0100085F010008D0
:100090005F0100085F0100085F0100085F010008C0
:1000A0005F0100085F0100085F010008E9530008D4
:1000B0005F0100085F0100085F010008354100088A
:1000C000294100085F0100085F010008554C000845
:1000D0005F010008C95A00085F0100085F010008BD
:1000E0005F0100085F0100085F0100085F01000870
:1000F0005F0100085F0100085F0100085F01000860
:100100005F0100085F0100085F0100085F0100084F
:100110005F0100085F0100085F0100085F0100083F
:100120005F0100085F0100085F0100085F0100082F
:10013000DFF80CD000F076FB00480047C5630008EC
:10014000381500200648804706480047FEE7FEE7CE
:10015000FEE7FEE7FEE7FEE7FEE7FEE7FEE7FEE777
:10016000A153000831010008202A04DB203A21FABB
:1001700002F00021704721FA02F3D040C2F12002C0
:10018000914008431946704740EA01039B0703D09A
:1001900009E008C9121F08C0042AFAD203E011F8C6
:1001A000013B00F8013B521EF9D27047421C10F887
:1001B000011B0029FBD1801A704780EA010210B5AB
:1001C00002F00043400022D04A001FD0010E01EB94
:1001D0001261C0F35600C2F3560240F4000042F42C
:1001E0000002A0FB022000047F39140400D0401C50
:1001F00050EA124001D44000491EC2B20C0604EB82
:10020000D010401C4008802A02D003E0002010BD1E
:1002100020F00100002900DA0020184310BD70B55D
:1002200021F0004303430CD0C1F30A550024D5EB61
:10023000040564EB0403D617AD1AB34102DB0020BA
:10024000014670BD201841EB025170BD0EB5C10FC3
:1002500080EAE0700844CA07002140F233438DE889
:100260000E000A460B4600F0D7F803B000BD00F0C0
:10027000004220F00040C10DC0F3160040F4000021
:100280007F2901DA00207047962903DCC1F196012D
:10029000C84001E096398840002AF4D040427047B7
:1002A00000F0004230F000400AD0C10D01F560714D
:1002B000C0F3160042EA0151C208400711437047DB
:1002C00000200146704701F0004330B421F00041A6
:1002D00050EA010206D00A0DA2F56072C1F31301C3
:1002E000002A02DC30BC00207047440F44EAC104FD
:1002F000C100E01830BC00EBC25000F047B830B588
:100300000B46014600202022012409E021FA02F5D3
:100310009D4205D303FA02F5491B04FA02F528446D
:10032000151EA2F10102F1DC30BD2DE9F05F05469A
:10033000002092469B4688460646814640241BE0A4
:100340002846414647462246FFF70EFF53465A4687
:10035000C01A914110D311461846224600F074FA93
:100360002D1A67EB01084F4622460120002100F0BC
:100370006BFA17EB00094E41201EA4F10104DFDCEB
:10038000484631462A464346BDE8F09F0029A8BFAB
:100390007047401C490008BF20F00100704710B4AE
:1003A000B0FA80FC00FA0CF050EA010404BF10BC63
:1003B000704749B1CCF1200421FA04F411FA0CF190
:1003C00018BF012121430843A3EB0C01CB1D4FEAC9
:1003D00000614FEA102042BF002010BC704700EBC4
:1003E000C35010440029A4BF10BC7047401C4900F2
:1003F00008BF20F0010010BC704710B5141E73F147
:10040000000408DA401C41F1000192185B411A43D4
:1004100001D120F0010010BD2DE9F04D92469B4620
:1004200011B1B1FA81F202E0B0FA80F220329046C6
:1004300000F00AFA04460F4640EA0A0041EA0B01BE
:1004400053465A46084313D0114653EA010019D0C7
:10045000C8F140025046FFF787FE05460E4650465B
:100460005946424600F0F0F9084305D0012004E067
:1004700020463946BDE8F08D0020054346EAE07687
:100480002C4337430A986305E40AA0EB08000022D6
:10049000FD0A44EA47540A3002D500200146E9E744
:1004A000010510196941DDE9084500196941BDE8F8
:1004B000F04DA2E72DE9FE4F804681EA0300C00F10
:1004C0000C46009021F0004123F00045B8EB0200FB
:1004D000A94105D24046214690461C460B4602469D
:1004E00023F00040104347D0270DC7F30A00C3F3A1
:1004F0000A510290401A019040286BDAC3F31300AE
:1005000040F4801B0098924620B10023D2EB030AEE
:1005100063EB0B0B01985946C0F14002504600F0C6
:1005200093F906460D4650465946019A00F09BF94C
:1005300010EB08006141002487EA115284EAE77356
:100540001A4340D0009A62B3019A012A4FEA075237
:1005500015DC001B61EB02014FF0004202EA07527A
:10056000CDE90042001C41F5801132462B46FFF7D1
:1005700053FF03B0BDE8F08F40462146F9E7001B6A
:1005800061EB0201001C41F5801300185B4120184B
:10059000A2F5001747EB030140EAD570B6196D418B
:1005A00011E06D084FEA360645EAC0754FEA07527A
:1005B000001B61EB0201001C41F5801149084FEA64
:1005C00030000019514132462B4603B0BDE8F04FD0
:1005D000FFF713BF0098012240000023D0EB020276
:1005E00063EBE073009821464FEAE074B8EB00003B
:1005F00061EB0401E9E783F000435BE781F0004130
:1006000058E72DE9FE4F81EA030404F0004421F08D
:10061000004100944FF0000B23F0004350EA010426
:100620005ED052EA03045BD0C3F30A54C1F30A5507
:100630002C44A4F2F3340194A0FB0254C1F313013F
:1006400041F48011C3F3130343F4801301FB02440C
:1006500000FB034E840A970A44EA815447EA835711
:10066000A4FB076802958D0A05FB07854FEA932CCA
:1006700004FB0C542705029D4FEA065847EA16373B
:10068000B5EB08056EEB070C870E920E47EA811753
:1006900042EA8312A7FB0201B6EB0B0164EB0004F4
:1006A0002B0D43EA0C335E1844EB1C50DA465146DE
:1006B000E7FB0201C5F313044FEA0B3343EA14537B
:1006C0004FEA0432019C43EA0603A4F10C040294AD
:1006D000009CCDE900B4FFF79FFE03B0BDE8F08FAA
:1006E00000200146F9E72DE9F04D81EA030404F00A
:1006F000004B21F0004514464FF0000A23F0004162
:1007000050EA050220D054EA01021DD0C5F30A5771
:100710000246C5F31303C1F31300C1F30A5640F4B4
:10072000801543F48013A7EB0608101BD64608F289
:10073000FD3873EB050002D308F1010801E09218BF
:100740005B41B8F1000F03DA00200146BDE8F08DEF
:1007500000204FF48011064684460EE0171B73EB11
:10076000050705D3121B63EB050306434CEA010C96
:1007700049084FEA300092185B4150EA0107EDD179
:1007800052EA030012D082EA040083EA050108431A
:1007900005D0101BAB4106D20122002306E0002247
:1007A0004FF0004302E06FF0010253101AEB060015
:1007B0004CEB085110EB0A0041EB0B01BDE8F04D8A
:1007C000FFF71BBEC1F30A52C1F3130140F2FF331E
:1007D00041F480119A4202DA00200146704740F24B
:1007E00033439A42A2F2334202DC5242FFF7BCBCCE
:1007F00000F02AB830B5041E71F1000404DB4FF09C
:100800000044404264EB0101141E73F1000405DB57
:100810001C464FF00043524263EB0403994208BF69
:10082000904230BD064C074D06E0E06840F0010301
:1008300094E8070098471034AC42F6D3FFF77CFCED
:10084000F066000810670008202A04DB203A00FA4E
:1008500002F1002070479140C2F1200320FA03F317
:10086000194390407047202A06DBCB17203A41FA03
:1008700002F043EAE07306E041FA02F3D040C2F12D
:10088000200291400843194670470000F8B5A34F75
:100890004FF48071384601F08DFB08B900F09CFDE3
:1008A0009F48018800259F489F4AA04CA04EB1F563
:1008B000287F70D02FDC40F23327A1F23323B942D6
:1008C0006CD014DC002968D013F131010ED1057011
:1008D00055700220A3786278217804F0C1F9642071
:1008E00001F054FA3068016840680090F8BD4F2B61
:1008F00041D05D2BFAD1057055709020A3786278B5
:10090000217804F0ADF9642001F040FA3068016804
:1009100040680090F8BDB1F5347F70D015DCB1F5BA
:100920002C7F4BD0B1F5307FF4D105705570C020CD
:10093000A3786278217804F093F9642001F026FA14
:100940003068016840680090F8BDA1F50071EE398B
:100950007ED01129F8D105705570FF20A3786278F8
:10096000217804F07DF9642001F010FA3068016804
:1009700040680090F8BD057055708220A3786278B9
:10098000217804F06DF9642001F000FA3068016804
:1009900040680090F8BD21E000E040E0057055702F
:1009A0003320A3786278217804F05AF9642001F0AA
:1009B000EDF93068016840680090EBE7057055700C
:1009C000B020A3786278217804F04AF9642001F01D
:1009D000DDF93068016840680090DBE7057055700C
:1009E000A020A3786278217804F03AF9642001F01D
:1009F000CDF93068016840680090CBE7FFE70570EB
:100A00005570D020A3786278217804F029F9642009
:100A100001F0BCF93068016840680090BAE7557091
:100A2000A37862782178284604F01AF9A3786278CE
:100A30002178284604F014F9A378627821782846B2
:100A400004F00EF9642001F0A1F93068016800E0BB
:100A500002E0406800909DE7364805705570EE2032
:100A6000A3786278217804F0FBF8642001F08EF915
:100A70004FF4805400222146384601F0A2FA651056
:100A800000222946384601F09CFAC82001F07EF980
:100A900001222146384601F094FA012229463846BF
:100AA00001F08FFAC82001F071F900222146384682
:100AB00001F087FA00222946384601F082FAC82060
:100AC00001F064F901222146384601F07AFA012248
:100AD0002946384601F075FAC82001F057F900227E
:100AE0002146384601F06DFA00222946384601F0C9
:100AF00068FAC82001F04AF901222146384601F07F
:100B000060FA01222946384601F05BFAC82001F05C
:100B10003DF930680168406800903BE7000C0140F7
:100B200014000020480000204A0000201800002087
:100B30005C0100200B0000202DE9F84FAC4E4FF473
:100B40008071304601F036FA08B900F045FCA9483A
:100B50000288A948DFF8A4C2A94DDFF8A8A20023A3
:100B6000A94C4FF480574FF40068A02A55D00ADCF6
:100B7000DFF89892022A11D0332A31D0822A1ED06F
:100B8000902A08D172E0B02A3BD0C02A7ED0D02A69
:100B90007DD0FF2A7CD02370BDE8F88F23700370CE
:100BA00099F8022099F8011099F80000BCF800307B
:100BB00000F00AFB2868016840680090ECE72370A9
:100BC000037099F8022099F8011099F80000BCF818
:100BD000003000F0D9FA2868016840680090DBE72F
:100BE0002370037099F8022099F8011099F8000019
:100BF000BCF8003004F082FA286801684068009070
:100C0000CAE723700370BCF80010002004F048F914
:100C10002868016840680090BEE7237004F010FB6C
:100C2000642001F0B3F828680168406800901E2035
:100C300001F0ACF801223946304601F0C2F9012238
:100C40004146304601F0BDF91E2001F09FF8002218
:100C50003946304601F0B5F900224146304601F0F0
:100C6000B0F9BDE8F84F0A2001F090B823709AF867
:100C700005109AF8040000F059FB1E2001F086F8D8
:100C800001223946304601F09CF902E066E08CE032
:100C900013E001224146304601F093F91E2001F095
:100CA00075F800223946304601F08BF9414630464E
:100CB000BDE8F84F002201F084B9237000223946C4
:100CC000304601F07EF900224146304601F079F9C4
:100CD000C82001F05BF801223946304601F071F975
:100CE00001224146304601F06CF9C82001F04EF86F
:100CF00000223946304601F064F900224146304670
:100D000001F05FF9C82001F041F801223946304670
:100D100001F057F901224146304601F052F9C8204E
:100D200001F034F800223946304601F04AF9002239
:100D30004146304601F045F9C82001F027F801226C
:100D40003946304601F03DF901224146304601F076
:100D500038F9BDE8F84FC82001F018B823702C48C6
:100D60009AF805100170007803F080FD00F09AFEFB
:100D70000021284802F0B2FD00223946304601F039
:100D800020F901224146304601F01BF90A2000F00B
:100D9000FDFF01223946304601F013F94146304645
:100DA000BDE8F84F002201F00CB9237000F0D4FD2B
:100DB0000A2000F0EBFF01223946304601F001F92C
:100DC00001224146304601F0FCF80A2000F0DEFF27
:100DD00000223946304601F0F4F800224146304600
:100DE00001F0EFF8BDE8F84F0A2000F0CFBF000097
:100DF000000C0140140000201E0000202E000020E6
:100E00005C0100205C0000200A0000201800002087
:100E1000280000209C0100202DE9F8433848008874
:100E2000394F42F203180125364E384C39787A781A
:100E3000BB78A0EB080C404527D012DC6FF40457B8
:100E4000C0194BD001280AD17570022003F008FFA9
:100E5000642000F09BFF2068016840680090BDE8B6
:100E6000F883BCF1010F27D0BCF1DD0FF7D175700D
:100E7000E02003F0F5FE642000F088FF03F076FE2A
:100E80002068016840680090E9E7C82000F07EFF14
:100E900075700320BB787A78397803F0E1FE64201E
:100EA00000F074FF00F000F9642000F06FFF20688C
:100EB000016840680090D2E77570042003F0D0FE0E
:100EC000642000F063FF00F0C5F8014610A004F0B4
:100ED00003FE2068016840680090C0E728467570EE
:100EE00003F0BEFE642000F051FF0D488178407889
:100EF00003F014FE2068016840680090AFE700002E
:100F0000160000204A000020180000205C0100208C
:100F100041325F425256203D202564200A000000E5
:100F20001B00002038B51B4800881B4CA0F58070C2
:100F30001A4A01384FF0000123D0022805D00328B7
:100F400013D0DF2809D0117038BD117000F078FC83
:100F5000206801684068009038BD117000F026F8E4
:100F6000206801684068009038BD117003F048FCAB
:100F700001460BA004F0B0FD2068016840680090B5
:100F800038BD117003F02EFE2068016840680090A3
:100F900038BD0000140000205C0100200E0000207D
:100FA000425256203D202564200A00002DE9FC41D4
:100FB0001EA003C8CDE9000100F0C2FC012833D116
:100FC00000201C4C00212154401CC0B20428FAD33C
:100FD00004220521174800F0F7FCC82000F0D6FED7
:100FE000E0788DF80400A0788DF8030060788DF823
:100FF0000200207803F07AF80546607803F03AF8AA
:101000000646A07803F054F80746E07803F014F899
:10101000A9193944014408A004F05EFD0C230622FE
:1010200069460B4802F099FFBDE8FC81A10300006E
:10103000000B000020030020454550524F4D20700A
:101040006F736974696F6E3D20256C64200A00001F
:101050005C0100201CB50AA003C8CDE900010A48C4
:1010600084788DF80440214608A004F035FD0C2357
:10107000062269460B4802F070FF20461CBD0000A6
:10108000A2040000000B00001B0000204C616D70EA
:10109000204272696768746E6573732069732025D6
:1010A00064200A005C0100207CB512A003C8CDE9D1
:1010B0000001124CA0788DF8040060788DF80300D0
:1010C00020788DF8020002F0D5FF0646607802F025
:1010D000EFFF0546A07802F0AFFF7119014408A0A8
:1010E00004F0FAFC0C2306226946094802F035FF99
:1010F0007CBD0000A2030000000B00001B000020CC
:101100005265616C54696D653D20256C64200A0050
:101110005C010020FEE7000070B58AB00E9D194CFE
:10112000174E266004F1400626631C366663636032
:10113000A560E060216162610025A561E56125622D
:1011400001266662A562E562204600F05DFD10B1F1
:1011500001200AB070BD0095019502950395049594
:1011600005950695079608960E200990694605484C
:1011700000F0CAFC08B10220EBE70020E9E700001C
:1011800000640040B404002070B51E46000440EA2C
:1011900001251543094C2078002808D12320207010
:1011A00000F046F80649086006490860606031466C
:1011B0002846BDE8704003F0B1BE000020000020CA
:1011C0003C0000204000002070B51E46000440EAAC
:1011D00001241443094D2878002808D123202870C1
:1011E00000F026F806490860064908606860314644
:1011F0006042BDE8704003F091BE00002000002076
:101200003C0000204000002010B500F099FB0128B0
:1012100009D102221021054800F0D6FB034841788D
:10122000007841EA0024204610BD00002003002081
:101230002DE9F04100F084FB01281AD10422052198
:101240000D4800F0C1FBC82000F0A0FD0A4C20783A
:1012500002F04CFF0546607802F00CFF0646A078CD
:1012600002F026FF0746E07802F0E6FEA9193944AD
:101270000C182046BDE8F081200300202DE9F04144
:1012800020480168CCB20168C1F307250168C1F3A9
:1012900007460068070E00F053FB01282FD10020FD
:1012A000194B1A4900221A540A54401CC0B204288F
:1012B000F9D30F704E708D70CC7004220521134845
:1012C00000F0B7FB0446C82000F060FD012C04D0FC
:1012D000BDE8F0410EA004F0FFBB134D4FF40064D5
:1012E00000222146284600F06CFE0A2000F04EFD48
:1012F00021462846BDE8F041012200F062BEBDE86B
:10130000F08100003C00002020030020200200208B
:10131000656570726F6D20636865636B20657272BE
:101320006F72200A00000000000C01402DE9F0411E
:1013300006460F4600F004FB012844D1234C002050
:1013400020706070224D2E706F700222102128468E
:1013500000F06FFB642000F019FD022210212046EE
:1013600000F032FB00224FF400611A4E4F00A05CE7
:10137000AB5C984209D00022304600F022FE0022E9
:101380003946304600F01DFEFEE7521CD2B2022A5A
:10139000EDD318D100220C46304600F012FE002298
:1013A0003946304600F00DFEC82000F0EFFC012267
:1013B0002146304600F005FE39463046BDE8F04192
:1013C000012200F0FEBDBDE8F081000020030020F6
:1013D00020020020000C014010B5114901200870C6
:1013E0000021104802F0C4F9002211460E4804F012
:1013F000CFF80C496FF00200096808610B4C00221D
:101400004FF48041204600F0DCFDFFF737FF00225B
:101410006114204600F0D5FDBDE8104000F010BA80
:1014200020000020E4010020002C0140000C0140BD
:1014300006E00021491CC9B20A29FBD3401E80B234
:101440000028F6D1704770B5054600F055F8002425
:10145000285D00F0F7F8641CE4B2082CF8D34420AF
:1014600000F0F0F800F048F80024285D00F0EAF8F9
:10147000641CE4B2082CF8D3BE2000F0E3F800F0BE
:10148000ABF8044600F0A8F8000200B220436FF069
:10149000030400280ADAC043401CFEF7D7FE2246A8
:1014A000FEF7BDFEBDE87040FEF70DBFFEF7CEFEB5
:1014B0002246FEF7B4FEBDE87040FEF704BF000010
:1014C00008B50B48816941F004018161806900F031
:1014D0000400009000F028F801220221054800F0E5
:1014E00070FD00F095F8BDE8084000F02BB8000052
:1014F000001002400008014010B500F089F800F02B
:1015000021F8BDE81040552000F09CB81FB502201E
:10151000009000200190012002906946014800F0EF
:1015200041FC1FBD000801401FB5022000900120B2
:101530000190032003906946014800F033FC1FBD71
:101540000008014070B50024FFF7E0FF124D04E0F1
:10155000641CE4B20120FFF76BFF0221284600F073
:1015600029FD08B1642CF3D3642C01D3012070BD94
:10157000002404E0641CE4B20120FFF759FF0221BB
:10158000284600F017FD08B9F02CF3D3F02C01D356
:10159000012070BD002070BD0008014010B5FFF7AC
:1015A000C3FF0C4C00220221204600F00AFD0A2055
:1015B000FFF73EFFFFF7AAFF0221204600F0FAFCEA
:1015C000012805D000242D20FFF732FF204610BD52
:1015D0000124F8E70008014070B500250024FFF75A
:1015E000DDFFA0402843C5B2641CE4B2082CF6D34A
:1015F000284670BD70B50546332000F023F800245E
:10160000FFF7EAFF2855641CE4B2082CF8D370BD3C
:1016100010B5FFF789FF0A4C00220221204600F096
:10162000D0FC40F2EE20FFF703FF0122022120460A
:1016300000F0C7FCBDE810400F20FFF7F9BE000026
:101640000008014070B50546FFF76EFF0024154EF7
:1016500005F001006D0880B100220221304600F043
:10166000B0FC0820FFF7E4FE01220221304600F022
:10167000A8FC3A20FFF7DCFE0FE0002202213046F2
:1016800000F09FFC4620FFF7D3FE012202213046E6
:1016900000F097FC0220FFF7CBFE641CE4B2082C9C
:1016A000D6D370BD00080140FEE70000F0B5AFB032
:1016B0000446142237A12AA8FEF766FD3AA106C9FE
:1016C000CDE928123A492046FEF777FDFEF7CFFD17
:1016D0000546294637A004F0FFF900246E4609E0CC
:1016E000E81705EB107020F00F01691A46F8241076
:1016F0000511641C002DF3DC2AAD41E0032C14D04D
:10170000022C21D0601E074656F82000295C2BA031
:1017100004F0E2F956F82700295CA1F13000C0B2CC
:10172000092820D28DF8A40020E00298295CA1F1BC
:1017300030008DF8A20024A004F0CEF90298295CB4
:1017400026A004F0C9F91AE00198295CA1F1300043
:101750008DF8A30027A004F0BFF90198295C2AA006
:1017600004F0BAF90BE0401E8DF8A4002CA004F0A0
:10177000B3F956F82700295C2DA004F0ADF9641EDA
:10178000002CBBDC0C23062228A92C4802F0E5FB28
:101790002FB0F0BD3031323334353637383941422D
:1017A0004344454600000000A1020000000B000079
:1017B00000002041583D2025640A000074656D70CA
:1017C000313D25630A00000073656E6462756666CC
:1017D00065725B325D3D25630A00000073656E64CF
:1017E0006275666665725B325D203D202523782038
:1017F0000A00000073656E646275666665725B332D
:101800005D3D25630A00000073656E64627566665F
:1018100065725B335D203D20252378200A0000009F
:1018200074656D70203D20252378200A000000009B
:1018300074656D703D202564200A00005C01002065
:101840002DE9FC412DA003C8CDE900012D48016818
:101850002D480278002A17D08DF804100A0A8DF856
:1018600003200A0C8DF80220446828A004F034F903
:1018700021462CA004F030F90C23062269462E489C
:1018800002F06BFBBDE8FC8100F05AF80128F9D1A9
:1018900000202A4C00212154401CC0B20428FAD355
:1018A00004220521254800F08FF8C82000F06EFAC8
:1018B000E0788DF80400A0788DF8030060788DF84A
:1018C0000200207802F012FC0546607802F0D2FB9C
:1018D0000646A07802F0ECFB0746E07802F0ACFB8D
:1018E000A9193944014409A004F0F6F80C23062292
:1018F0006946114802F031FBC4E70000A103000073
:10190000000B00003C000020200000207265616C8C
:1019100020706F736974696F6E3D20256C64200AB6
:1019200000000000737465705F6E756D62657273A0
:101930003D202564200A00005C01002020030020D7
:1019400010B5A02002F01CFC18B102F033FE0020FC
:1019500010BD012010BD000070B5FFF7F1FF012898
:1019600014D100201449154A00240C541454401C6E
:1019700080B20A28F9D309220021104800F059F852
:1019800005460F480460642000F000FA012D00D0E5
:10199000FEE70C4D4FF4006400222146284600F07B
:1019A00010FB142000F0F2F921462846BDE87040F3
:1019B000012200F006BB00002003002020020020CE
:1019C0003C000020000C01402DE9F04105460C468A
:1019D000164602F0CFFDA02002F02AFD02F002FE22
:1019E00068B9E0B202F024FD02F0FCFD38B902F063
:1019F000C1FDA12002F01CFD02F0F4FD20B102F0B7
:101A0000D9FD0020BDE8F0810024771E0BE002F034
:101A1000EBFC2855BC4202D002F092FB01E002F040
:101A2000C7FC641CA4B2B442F1D302F0C3FD012090
:101A3000E8E72DE9F04780460E46914600254FF431
:101A40007A7729E00DB1700716D102F0B3FD0024BA
:101A500002F090FDA02002F0EBFC02F0C3FD18B1F3
:101A6000641CA4B2BC42F3D3BC420CD0F0B202F06E
:101A7000DFFC02F0B7FD30B918F8050002F0D8FC21
:101A800002F0B0FD20B102F095FD0020BDE8F08726
:101A9000761CB6B26D1CADB24D45D3D302F08AFDB3
:101AA0000120F3E710B58EB015484FF0804101607A
:101AB00008214160002484606421C160046101F058
:101AC000B8FC4FF480500A900AA90D4801F0FBFCC5
:101AD0000894099408A90A4801F083FC6020019049
:101AE00008480078029003940594002201A9044854
:101AF00001F086FE024801F06DFD0EB010BD000041
:101B00009C01002028000020F0B50B7D012404FA80
:101B100003F20368D3F800524E6A25F47C5504EBB7
:101B200006242543C3F800520368D3F81C429443AB
:101B3000C3F81C424FF41075CB692E1D002B17D132
:101B40000368D3F80C429443C3F80C428C894B6869
:101B50004F6964F31F43046805EBC707E3510C8921
:101B60000B684F6964F31F43046806EBC707E35132
:101B7000CB69012B17D10368D3F80C421443C3F887
:101B80000C420C884B684F6964F31F43046805EBF3
:101B9000C70563510C89CB684D6964F31F43046822
:101BA00006EBC50563518B698BB10368D3F804421A
:101BB0001443C3F804420B6983B10368D3F8144299
:101BC0001443C3F81442096A01290ED013E00368D4
:101BD000D3F804429443C3F80442ECE70368D3F813
:101BE00014429443C3F81442EDE70168D1F81C3263
:101BF0001343C1F81C320068D0F8001221F0010133
:101C0000C0F800120020F0BD2DE9F047044600277F
:101C10000025002C04D094F83900A84618B107E03C
:101C20000120BDE8F08784F83880204600F080F875
:101C3000022084F839002068016821F00201016067
:101C40002068016841F00101016000F0C1F9064619
:101C50004FF003090AE000F0BBF9801B0A2805D900
:101C600084F8399084F838800320DAE720684068E7
:101C7000C007F0D020684168C9074BD0A16901298D
:101C800001D145F08005E169012901D145F0400508
:101C9000216A012901D145F02005616A012901D19C
:101CA00045F01005A16A012901D145F00805E16A56
:101CB000012901D145F00405016821F0FC01294307
:101CC0000160D4E902010843D4E904121143084336
:101CD0006168491E08432168C8612068016821F0D5
:101CE0000101016000F074F905460AE000F070F9A6
:101CF000401B0A2805D984F8399084F838800320DD
:101D00008FE720684068C007F0D020684068C007AF
:101D100000D00127012F04D0042084F839000120CD
:101D20007FE7C4F83C80012084F83900002078E780
:101D300010B586B01348C16941F00071C161C16935
:101D400001F000710191816941F0040181618069B4
:101D500000F0040001904FF4006002900020039016
:101D600001200490084C02A9204600F01BF8A114A1
:101D700002910221039102A9204600F013F806B057
:101D800010BD0000001002400008014031B500F015
:101D90001FF9044600F01CF90099001B8842F9D392
:101DA00038BD00002DE9F84F00230024DFF8DC9156
:101DB0004FF00F0809F1040A0AF1040B0BF1040EAD
:101DC0000127A7400A683A40BA4275D1DFF8C0C17E
:101DD0004D68A5EB0C0665452BD00DDC032D34D0EA
:101DE00005DC35B3012D19D0022D2FD11BE0112DAB
:101DF00016D0122D2AD119E0B6F5881F19D006DCAD
:101E0000B6F5803F15D0B6F5801F1FD111E0B6F5AD
:101E1000001F0ED0B6F5041F18D10AE0CB6815E0FC
:101E2000CB681B1D12E0CB6808330FE0CB680C3386
:101E30000CE08B6823B1012B04D00823476105E037
:101E4000042303E00823076100E00023FF2A01D8F0
:101E5000054601E000F1040502D84FEA840603E0DC
:101E6000A4F108064FEA86062F6808FA06FC27EA5E
:101E70000C0703FA06F647EA06072F604D68ED00E7
:101E80007ED5444DAE6946F00106AE61AD6905F000
:101E900001050095404D24F003067719BE68A5079B
:101EA0002D0F08FA05FC26EA0C06DFF8F0C06045A5
:101EB00003D14FF0000C25E062E0DFF8E4C060459C
:101EC00002D14FF0010C1DE0DFF8D8C0604502D10F
:101ED0004FF0020C16E0DFF8D0C0604502D14FF0A1
:101EE000030C0FE0DFF8C4C0604502D14FF0040CD2
:101EF00008E0DFF8BCC0604502D14FF0050C01E0FE
:101F00004FF0060C0CFA05FC4CEA060CC7F808C0AA
:101F10004D68ED0305D5D9F800501543C9F80050B8
:101F200004E0D9F800509543C9F800504D68AD035E
:101F300005D5DAF800501543CAF8005004E0DAF885
:101F400000509543CAF800504D68ED0205D5DBF806
:101F500000501543CBF8005004E0DBF800509543E7
:101F6000CBF800504D68AD0205D5DEF800501543A2
:101F7000CEF8005004E0DEF800509543CEF8005053
:101F8000641C102CFFF41CAFBDE8F88F0004014066
:101F90000000111000100240000001400008014044
:101FA000000C0140001001400014014000180140E5
:101FB000001C01408068084201D0012070470020C9
:101FC0007047002A01D00161704709040161704720
:101FD00001480068704700000400002010B5044666
:101FE00020684169C1F300214268C2F30022002940
:101FF0000ED0012A0CD1A16B41F00101A16341690E
:1020000021F4807141612068016841F40041016060
:1020100020684169C1F340214268C2F3002249B1FE
:10202000012A07D1A16B41F00201A163416921F4AA
:102030000071416120684169C1F380214268C2F3A7
:102040000022C1B1012A16D194F83620638D94F88C
:102050003510202A02D10BB9212917D0A16B41F0EC
:102060000401A163016841F40071016020684169C5
:1020700021F48061416120684169C1F3C021426857
:10208000C2F3002271B1012A04D00BE0204602F015
:1020900040FAF0E7A16B41F00801A163416921F426
:1020A00000614161A06B00280AD0202084F835002F
:1020B0002068016821F400610160204600F096F874
:1020C00010BD30B490F836200168102A15D090F871
:1020D0003620402A11D04A69C2F340034A68C2F34D
:1020E00040224C69C4F300148D69C5F380050BB11F
:1020F000012A3AD0012C3BD03CE08A69D2435207F6
:1021000019D44A69C2F3C0134A68C2F380244A69E9
:10211000C2F380024968C1F3402113B1012C00D100
:1021200032B1012A60D101295ED130BC02F006B97A
:1021300030BC02F02AB94A69C2F380134A68C2F37C
:1021400080244A69C2F380024968C1F3402113B177
:10215000012C00D132B1012A46D1012944D130BC31
:1021600002F06EB830BC02F0B5B830BC02F0CAB9AB
:10217000012A11D0012D12D04A69C2F380134A6896
:10218000C2F380244A69C2F380024968C1F3402146
:1021900003B3012C1DD01DE030BC02F0D1B94A6957
:1021A000C2F3C0134A68C2F380244A69C2F38002B2
:1021B0004968C1F3402113B1012C00D132B1012A89
:1021C00012D1012910D130BC02F080B930BC02F02C
:1021D0008BB932B1012A07D1012905D130BC02F0F7
:1021E00059B930BC02F064B930BC70477047000088
:1021F00070B50446002C04D094F83500002510B1C9
:1022000006E0012070BD84F83450204600F04AF802
:10221000242084F835002068016821F00101016064
:1022200000F012FB01461B48B1FBF0F02268506041
:10223000194B62689A4201D8401C07E04FF496722D
:1022400050434FF47A72B0FBF2F0401C22681062E7
:10225000204601F0A5FF2168C861D4E907010843C1
:1022600021680860D4E90310084321688860D4E934
:10227000050108432168C8602068016841F0010138
:102280000160A563202084F8350084F836500020D2
:1022900070BD000040420F00A086010070477047EB
:1022A0007047704700B585B01648C16941F4001108
:1022B000C161C16901F400110091816941F0080117
:1022C0008161806900F008000090C0200190122018
:1022D00002900320049001A90B48FFF763FD002240
:1022E0001146202000F008F9202000F0F9F8002223
:1022F00011461F2000F000F91F2000F0F1F805B092
:1023000000BD000000100240000C014010B5144B4D
:1023100003F111029878197A1154002804D0012889
:1023200009D002280ED013E00120987011700DA082
:1023300003F0D2FB0CE00220987051700EA003F065
:10234000CBFB05E000209870917010A003F0C4FB57
:1023500003490422BDE810400831114800F024B8B8
:102360000A000020727863706C7463616C6C5B307F
:102370005DA3BA2523780A00727863706C74636178
:102380006C6C5B315DA3BA2523780A0072786370A8
:102390006C7463616C6C5B325DA3BA2523780A00B0
:1023A000780400207047000070B504460E461546BC
:1023B00094F83500202801D0022070BD56B14DB1EF
:1023C00042F2107301221849204602F02FF918B189
:1023D000022070BD012070BD94F83400012820D087
:1023E000012084F834002068016821F40061016054
:1023F000222084F83500202084F836000021A163D3
:102400006662258565852068026842F48062026004
:1024100084F834102068416841F4E0614160002094
:1024200070BD022070BD000002001000024801686B
:10243000491C0160704700000400002010B50748E7
:10244000016841F010010160052000F075F80020DE
:1024500000F006F800F016F8002010BD0020024041
:1024600010B5044600F0D6F94FF47A72B0FBF2F0E2
:1024700000F07EFF00222146501E00F03DF80020B3
:1024800010BD000008B51548816941F00101816166
:10249000806900F001000090052000F04DF8002256
:1024A00011466FF00B0000F027F8002211466FF084
:1024B0000A0000F021F8002211466FF0090000F038
:1024C0001BF800221146101F00F016F80022BDE88C
:1024D00008401146501E00F00FB8000000100240E6
:1024E00000F01F02012191404009800000F1E0202E
:1024F000C0F8001170470000F0B40D460D4B1B688A
:10250000C3F30223C3F10704042C00D90424191DCA
:10251000072901D2002300E0DB1E012606FA04F1A0
:10252000491E294099409E40761E16403143F0BC1A
:1025300002F0E3BA0CED00E000F00701054A106874
:102540004FF6FF03184040EA01200349084310609A
:10255000704700000CED00E00000FA052DE9F0479F
:1025600004460F46DFF8A492D9F80000A84D00F009
:1025700007010120430446064FF0020C41F288385F
:10258000B9426FD2D9F8001021F007013943C9F8D8
:102590000010D9F8001001F00701B94201D0BDE8E0
:1025A000F0872178890705D56968A26821F0F001D4
:1025B000114369602178C90761D0616801290BD096
:1025C00002291FD09CFAACF2B2FA82F242F0200249
:1025D00052092DD02A682CE093FAA3F2B2FA82F2C3
:1025E00042F02002520901D02A6800E06A6A93FA98
:1025F000A3F3B3FA83F303F01F039840024223D1FD
:102600000120CCE796FAA6F2B2FA82F242F020025A
:10261000520901D02A6800E06A6A96FAA6F3B3FA72
:1026200083F303F01F03984002420DD10120B6E767
:102630006A6A9CFAACF3B3FA83F303F01F03984081
:10264000024201D10120AAE7686820F00300084394
:102650006860FFF7BDFC0646606801280AD00228C2
:1026600015D021E025E0FFF7B3FC801B404501D9E0
:10267000032094E76868C0F381000128F3D1ADE03E
:10268000FFF7A6FC801B404501D9032087E7686857
:10269000C0F381000228F3D1A0E0FFF799FC801B72
:1026A000404501D903207AE7686810F00C0FF4D197
:1026B00094E02178890705D56968A26821F0F001C6
:1026C000114369602178C90779D0616801290BD06D
:1026D00002291FD09CFAACF2B2FA82F242F0200238
:1026E00052092DD02A682CE093FAA3F2B2FA82F2B2
:1026F00042F02002520901D02A6800E06A6A93FA87
:10270000A3F3B3FA83F303F01F039840024223D1EB
:10271000012044E796FAA6F2B2FA82F242F02002D1
:10272000520901D02A6800E06A6A96FAA6F3B3FA61
:1027300083F303F01F03984002420DD101202EE7DE
:102740006A6A9CFAACF3B3FA83F303F01F03984070
:10275000024201D1012022E7686820F0030008430B
:102760006860FFF735FC06466068012809D002283A
:1027700014D020E0FFF72CFC801B404501D903203A
:102780000DE76868C0F381000128F3D117E0FFF777
:102790001FFC801B404501D9032000E76868C0F397
:1027A00081000228F3D10AE0FFF712FC801B4045AC
:1027B00001D90320F3E6686810F00C0FF4D1D9F8C2
:1027C000000020F007003843C9F80000D9F80000E5
:1027D00000F00700B84201D00120E0E62078400771
:1027E00005D56868E16820F4E060084368602078F7
:1027F000000706D56868216920F4605040EAC100EE
:1028000068600020FFF72CFE0020C8E60020024090
:102810000010024000B500F043F808494968F02272
:1028200092FAA2F201F0F001B2FA82F2D140044A27
:10283000515CC8400349086000BD00000010024020
:10284000D06600080000002000B5FFF7E3FF07494D
:1028500049684FF4E06292FAA2F201F4E061B2FA40
:1028600082F2D140024A515CC84000BD00100240D3
:10287000D066000800B5FFF7CDFF074949684FF45F
:10288000605292FAA2F201F46051B2FA82F2D1409F
:10289000024A515CC84000BD00100240D0660008EA
:1028A00010B585B01AA0D0E90031D0E90220CDE9F9
:1028B0000131CDE903201AA000680090194B596836
:1028C000194801F00C02042A1DD0082A1BD14FF42C
:1028D000701494FAA4F401F47012B4FA84F4E2408F
:1028E00001ACA25CC90310D559684FF4003393FAC8
:1028F000A3F301F40031B3FA83F3D9401DF80110BA
:10290000B0FBF1F0504305B010BD08485043FAE762
:1029100002030405060708090A0B0C0D0E0F101020
:10292000010200000010024000127A0000093D0080
:102930002DE9F84F0446F94D20784FF00106C00705
:1029400075D068687704C0F38100012807D06868F3
:10295000C0F3810002281DD16868C0031AD597FA18
:10296000A7F0B0FA80F040F02000400901D02868BC
:1029700000E0686A97FAA7F1B1FA81F101F01F024D
:1029800006FA02F1084252D0606800284FD10120B7
:10299000BDE8F88F286820F480302860286820F48B
:1029A00080202860FFF714FB804607E0FFF710FB4C
:1029B000A0EB0800642801D90320E9E797FAA7F003
:1029C000B0FA80F040F02000400901D0286800E013
:1029D000686A97FAA7F1B1FA81F101F01F0106FACE
:1029E00001F10842E2D16068B0F5803F11D0A8B192
:1029F000B0F5A02F1CD0286820F48030286028680B
:102A000020F4802028606068C8B3FFF7E1FA8046B0
:102A10001FE0286840F480302860F4E7286820F43C
:102A200080302860286820F480202860EBE748E0A8
:102A3000286840F480202860286840F480302860AE
:102A4000E1E7FFF7C5FAA0EB0800642801D90320ED
:102A50009EE797FAA7F0B0FA80F040F02000400916
:102A600001D0286800E0686A97FAA7F1B1FA81F10D
:102A700001F01F0106FA01F10842E2D021E0FFE770
:102A8000FFF7A6FA804607E0FFF7A2FAA0EB0800DE
:102A9000642801D903207BE797FAA7F0B0FA80F009
:102AA00040F02000400901D0286800E0686A97FAE9
:102AB000A7F1B1FA81F101F01F0106FA01F1084214
:102AC000E2D12078DFF8588280074FF0000B4FF0FA
:102AD000020732D568684FF0F80A10F00C0F07D0E3
:102AE0006868C0F38100022828D16868C00325D433
:102AF00097FAA7F0B0FA80F040F02000400901D02A
:102B0000286800E0686A97FAA7F1B1FA81F101F04C
:102B10001F0106FA01F1084204D02069012801D002
:102B2000012035E728689AFAAAF26169B2FA82F2BE
:102B300020F0F8009140084328605CE0206990B3E1
:102B400096FAA6F0B0FA80F048F82060FFF740FA55
:102B5000814607E0FFF73CFAA0EB0900022801D903
:102B6000032015E797FAA7F0B0FA80F040F02000B4
:102B7000400901D0286800E0686A97FAA7F1B1FA25
:102B800081F101F01F0106FA01F10842E2D0286844
:102B90009AFAAAF26169B2FA82F220F0F800914042
:102BA0000843286027E0FFE796FAA6F0B0FA80F025
:102BB00048F820B0FFF70CFA814607E0FFF708FA63
:102BC000A0EB0900022801D90320E1E697FAA7F05B
:102BD000B0FA80F040F02000400901D0286800E001
:102BE000686A97FAA7F1B1FA81F101F01F0106FABC
:102BF00001F10842E2D12078000770D5A069C0B386
:102C000096FAA6F0B0FA80F008EB8000C0F8806475
:102C1000FFF7DEF9814607E0FFF7DAF9A0EB0900DC
:102C2000022801D90320B3E697FAA7F0B0FA80F0A2
:102C300040F06000B6EB501F01D128680BE097FA16
:102C4000A7F0B0FA80F040F06000B7EB501F01D160
:102C5000286A00E0686A97FAA7F1B1FA81F101F0F9
:102C60001F0206FA02F10842D6D00120FFF78EF8C3
:102C700035E0FFE796FAA6F0B0FA80F008EB8000A6
:102C8000C0F880B4FFF7A4F9814607E0FFF7A0F988
:102C9000A0EB0900022801D9032079E697FAA7F0F2
:102CA000B0FA80F040F06000B6EB501F01D1286808
:102CB0000BE097FAA7F0B0FA80F040F06000B7EBB5
:102CC000501F01D1286A00E0686A97FAA7F1B1FAAB
:102CD00081F101F01F0206FA02F10842D6D12078F4
:102CE000400770D5E86940F08050E861E86900F07D
:102CF00080500090DFF82CA0DAF8000040F48070DB
:102D0000CAF80000FFF764F981460DE0FFF760F9AB
:102D1000A0EB0900642807D9032039E6001002401F
:102D20000000424200700040DAF80000C005EDD516
:102D3000286A20F001002862286A20F00400286236
:102D4000FFF746F9814641F2883A07E0FFF740F97C
:102D5000A0EB0900504501D9032019E697FAA7F026
:102D6000B0FA80F040F04000B6EB501F01D1286867
:102D70000BE097FAA7F0B0FA80F040F04000B7EB14
:102D8000501F01D1286A00E0686A97FAA7F1B1FAEA
:102D900081F101F01F0106FA01F10842D6D1E06885
:102DA000012811D0A8B105281CD0286A20F0010004
:102DB0002862286A20F004002862E068C8B3FFF7A0
:102DC00007F981461FE06EE0286A40F001002862A2
:102DD000F3E7286A20F001002862286A20F0040046
:102DE0002862EAE7286A40F004002862286A40F076
:102DF00001002862E1E7FFF7EBF8A0EB090050457E
:102E000001D90320C4E597FAA7F0B0FA80F040F0AA
:102E10004000B6EB501F01D128680CE097FAA7F0EC
:102E2000B0FA80F040F04000B7EB501F02D1286AA2
:102E300001E00BE0686A97FAA7F1B1FA81F101F0BD
:102E40001F0206FA02F10842D5D02CE0FFF7C0F8C5
:102E5000814607E0FFF7BCF8A0EB0900504501D917
:102E6000032095E597FAA7F0B0FA80F040F0400013
:102E7000B6EB501F01D128680BE097FAA7F0B0FA23
:102E800080F040F04000B7EB501F01D1286A00E00D
:102E9000686A97FAA7F1B1FA81F101F01F0206FA08
:102EA00002F10842D6D1E06980B36968C1F38101BB
:102EB000022970D04FF080794FF00077022809D0B6
:102EC00099FAA9F0B0FA80F048F820B0FFF780F83E
:102ED000044668E099FAA9F0B0FA80F048F820B00A
:102EE000FFF776F8824607E0FFF772F8A0EB0A00DA
:102EF000022801D903204BE597FAA7F0B0FA80F039
:102F000040F02000400902D0286801E060E0686AD3
:102F100097FAA7F1B1FA81F101F01F0106FA01F168
:102F20000842E1D1206AB0F5803F05D16868A16808
:102F300020F4003008436860D4E908010843696858
:102F400021F474110843686099FAA9F0B0FA80F08E
:102F500048F82060FFF73CF8044606E0FFF738F831
:102F6000001B022801D9032012E597FAA7F0B0FA56
:102F700080F040F02000400901D0296800E0696A33
:102F800097FAA7F0B0FA80F000F01F0006FA00F000
:102F90000142E3D01CE01DE0FFF71AF8001B0228F5
:102FA00001D90320F4E497FAA7F0B0FA80F040F0DA
:102FB0002000400901D0296800E0696A97FAA7F06B
:102FC000B0FA80F000F01F0006FA00F00142E3D1F1
:102FD0000020DDE40120DBE4704708B501684A68A1
:102FE000D24352060CD48A68D243D20708D18A68E9
:102FF000D243520604D5816C01B05DF804EB08475A
:103000004A68D243120608D48A68D243920704D48D
:10301000C16C01B05DF804EB08474A68D2439206E0
:1030200035D48A68D243D20606D4426D42F00202F9
:1030300042656FF010028A6001688A68D243920686
:1030400009D4426D42F0010242658A680A6822F0A2
:1030500040020A60009201688A68D24352060AD48C
:1030600090F85120122A06D0426D42F004024265C7
:10307000CA688A680092426D002A08D04A6822F025
:10308000E0024A60012180F85110FFF7A5FF08BD5A
:1030900010B50446002C03D094F8510010B104E0A0
:1030A000012010BD204600F039F8022084F85100BC
:1030B0002068016821F040010160D4E90101084362
:1030C000D4E903121143084361690843218B01F4D9
:1030D00000710843E1690843216A0843A16A084373
:1030E00021680860A069042101EA1040616A084370
:1030F000216848602168E06A08612068C16921F49C
:103100000061C1610449002008706065012084F8F5
:103110005100002010BD00000800002030B585B02F
:1031200000682449884242D12348816941F4805192
:103130008161816901F480510091816941F004014C
:103140008161816901F004010091816941F004010C
:103150008161806900F004000090A02001900220AD
:10316000029003200490154D01A92846FEF71AFE8F
:103170004021019100240294039401A92846FEF7FE
:1031800011FE012210212846FEF71BFF102101919C
:1031900002940121039101A92846FEF703FE0222B1
:1031A00001212320FFF7A8F92320FFF799F905B0A3
:1031B00030BD000000300140001002400008014016
:1031C0002DE9F8430446984694F85100012802D0AE
:1031D0000220BDE8F88339B332B394F850000128D7
:1031E00024D0012784F85070122084F85100002662
:1031F00066652163A286E286E664A664A663A68766
:10320000E687A06A7D03A84209D12068016821F4FD
:10321000005101602068016841F400510160A0681C
:10322000B0F5004F04D008E00120D2E70220D0E73B
:103230002068016841F48041016020680168490606
:1032400003D4016841F040010160E06828B1606882
:1032500080B3E08E01282ED04BE0606810B1E08E84
:1032600001281BD1206B411C216321680078C860B4
:10327000E08E401EE08611E04346002202212046F7
:1032800001F07EFD08B10320A3E7206B411C216300
:1032900021680078C860E08E401EE086E08E00283D
:1032A000EAD1A06AA8422FD12068016841F4805178
:1032B000016029E0FFE7206B21680088C860206B6F
:1032C000801C2063E08E401EE08612E04346002210
:1032D0000221204601F054FD08B1032079E7206B5C
:1032E00021680088C860206B801C2063E08E401E2F
:1032F000E086E08E0028E9D1A06AA84204D12068C7
:10330000016841F4805101604346002202212046B9
:1033100001F036FD28B1606D40F0100060650320BB
:1033200057E7434601228021204601F029FD28B1BC
:10333000606D40F01000606503204AE7A06818B98E
:103340002068C16880680090503467702670002043
:103350003FE74FF0E021042804D0086920F0040082
:1033600008617047086940F00400086170477047C1
:1033700010B5401EB0F1807F01D3012010BD4FF089
:10338000E02460610F21601701F0B7FB0020A0610D
:1033900007202061002010BD10B5FFF7E8FF10BD29
:1033A00030B590F83820012A19D0012200F8382FC2
:1033B00002234370D1E900342343D1E902452C4371
:1033C00023430C6923434C69896923430B4350F819
:1033D000381C4B64427000210170002030BD022077
:1033E00030BD30B590F83820012A20D0012380F874
:1033F0003830022280F839200268546824F07004C2
:103400005460026854680D682C43546002689468E4
:1034100024F0800494600268946849680C439460C6
:1034200080F83930002180F83810002030BD0220AB
:1034300030BD10B50446002C03D094F8390010B10B
:1034400007E0012010BD002084F83800204600F07D
:103450000DF8022084F83900211D206802F054F88C
:10346000012084F83900002010BD000008B50D4B84
:1034700002680D499A4207D18A6942F400628A6162
:103480008A6902F4006200920068B0F1804F07D1AF
:10349000C86940F00100C861C86900F001000090EF
:1034A00008BD0000002C014000100240022180F8FD
:1034B000391001680A6842F001020A60012180F8AF
:1034C00039100020704770B5044694F83800012880
:1034D00017D0012584F83850022084F8390020687C
:1034E000826822F0770222F47F42826008685028C6
:1034F0003AD00DDC20285FD005DCA0B3102864D1C1
:1035000055E0022070BD30285BD040285DD13FE0FF
:10351000602833D070280CD0B0F5805F03D0B0F5B0
:10352000005F52D113E02068816821F007018160BB
:103530004BE0CB68D1E90121206802F034F8206823
:10354000816821F0770141F0770181603DE0CB682F
:10355000D1E90121206802F026F82068816841F451
:103560008041816031E01DE0CA684968206802F04E
:10357000FDF85021206802F020F826E0CA6849686A
:10358000206802F004F96021206802F016F81CE0BF
:10359000CA684968206802F0E9F84021206802F012
:1035A0000CF812E00021206802F007F80DE010216D
:1035B000206802F002F808E02021206801F0FDFFF9
:1035C00003E03021206801F0F8FF383465700020F6
:1035D000207070BD00B585B00068B0F1804F12D189
:1035E0000A48816941F004018161806900F00400AA
:1035F000009001200190022002900320049001A974
:103600000348FEF7CFFB05B000BD000000100240EC
:103610000008014070B5044694F8380001280DD028
:10362000012584F83850022084F8390042B1042A78
:103630000AD0082A0CD00C2A11D10DE0022070BD4E
:10364000206801F0C3FF0AE0206801F0F3FF06E004
:10365000206802F029F802E0206802F05DF83834B2
:1036600065700020207070BD10B50446002C03D09A
:1036700094F8390010B107E0012010BD002084F853
:103680003800204600F00CF8022084F83900211D93
:10369000206801F039FF012084F83900002010BDB6
:1036A0007047000010B504460029226806D004299E
:1036B00009D008290CD00C2913D10EE0D06840F0B5
:1036C0000200D0600DE0D06840F00400D06008E057
:1036D000D06840F00800D06003E0D06840F01000EF
:1036E000D0600122206801F053FF09492068884218
:1036F00002D00849884203D1416C41F40041416441
:103700002068016841F001010160002010BD000047
:10371000002C01400034014010B50446002220680E
:1037200001F036FF104841F21112216893108142D6
:1037300002D00E48814209D1086A104206D1086AB7
:10374000184203D1486C20F4004048642068016AA4
:10375000114206D1016A194203D1016821F0010129
:103760000160002010BD0000002C01400034014029
:1037700010B504460029226806D0042909D008297A
:103780000CD00C2913D10EE0D06820F00200D060DC
:103790000DE0D06820F00400D06008E0D06820F090
:1037A0000800D06003E0D06820F01000D060002254
:1037B000206801F0EDFE104841F2111221689310CB
:1037C000814202D00D48814209D1086A104206D1D7
:1037D000086A184203D1486C20F40040486420680D
:1037E000016A114206D1016A194203D1016821F030
:1037F00001010160002010BD002C01400034014097
:1038000070B504460D4694F8380001280DD0012605
:1038100084F83860022084F8390042B1042A1AD0B2
:10382000082A2DD00C2A53D13EE0022070BD294633
:10383000206801F0CBFE2068816941F008018161B8
:103840002068816921F004018161206881692A6909
:10385000114381613CE02946206801F0EBFE2068BD
:10386000816941F4006181612068816921F480618E
:103870008161206881692A6941EA0221816127E02A
:103880002946206801F010FF2068C16941F0080155
:10389000C1612068C16921F00401C1612068C1696A
:1038A0002A691143C16113E02946206801F034FF01
:1038B0002068C16941F40061C1612068C16921F4D7
:1038C0008061C1612068C1692A6941EA0221C16140
:1038D000383466700020207070BD000010B50446BA
:1038E0000122206801F054FE08482168814202D07C
:1038F0000748814203D1486C40F400404864206886
:10390000016841F001010160002010BD002C014060
:1039100000340140704738B5044620680168C1F39F
:103920000001C26802F48072002904D01AB1E16B70
:1039300041F00101E1630168C1F34002416901F016
:10394000010122B119B1E26B42F00402E2630268A4
:10395000C2F3800222B119B1E26B42F00202E263CB
:103960000268C2F3C00222B119B1E16B41F0080153
:10397000E1630168C1F34011C06800F0200019B193
:1039800010B1204601F02AFF20680168C1F3C01180
:10399000C06800F0800019B110B1204601F0FCFFB2
:1039A00020680168C1F38011C06800F0400019B1BF
:1039B00010B1204601F0FDFEE06B002809D0206820
:1039C000016840680090012084F839002046FFF724
:1039D000A1FF38BD70B50446002C04D094F839001E
:1039E000002510B106E0012070BD84F83850204653
:1039F00000F020F8022084F839002068C16821F422
:103A00000051C160204601F041FF2068016921F4A6
:103A1000904101612068416921F02A0141612068DB
:103A2000C16841F40051C160E563012084F83900A8
:103A3000002070BD10B586B00068114988421DD1C4
:103A40001048816941F480418161806900F48040BF
:103A500001904FF400700290022003900320059023
:103A6000094C02A92046FEF79DF92115029100217B
:103A70000391049102A92046FEF794F906B010BD07
:103A800000380140001002400008014090F8393031
:103A9000012B03D0122B01D00220704731B32AB37F
:103AA00090F83830012B23D0012380F83830816220
:103AB0008285C2850021C16390F83920122A19D06D
:103AC000222280F8392080F838100168CA6842F450
:103AD0008072CA6001684A6942F001024A61006866
:103AE000C16841F02001C16000207047012070478B
:103AF00002207047322280F83920E4E7F8B5FE480A
:103B0000012404608515FD4E29463046FEF752FA21
:103B100010B100F01DFE08B9FDF75EFC0722F84960
:103B2000F848FFF7B3FF00287BD129463046FEF75F
:103B300041FA10B100F00CFE08B9FDF74DFCF04958
:103B4000F14AF04E0B78A2F10E05A12B6AD14F7805
:103B5000002F23D18878A02877D00CDC33281ED002
:103B600004DC00287FD0022818D136E0822846D015
:103B7000902813D157E0B02823D0C0287DD0D0287A
:103B800070D0FF280AD188790B2807D12C70FF202C
:103B900068813068D0F800C04068009084E088797F
:103BA0000B280DD12C70C8781070087950704879A6
:103BB0009070332068813068D0F800C04068009071
:103BC00072E088790B286FD12C70B0206881306842
:103BD000D0F800C04068009066E088790B2863D177
:103BE0002C70C87810700879507048799070022055
:103BF00068813068D0F800C04068009054E088794F
:103C00000B2851D12C70C878107008795070487901
:103C10009070822068813068D0F800C040680090C1
:103C200042E009E15BE088790B283DD12C700879EE
:103C3000507048799070902068813068D0F800C04A
:103C40004068009030E000E00DE088790B282BD12F
:103C50002C70A02068813068D0F800C040680090C7
:103C600022E00AE015E088790B281DD1AC7130689C
:103C7000D0F800C04068009016E088790B2813D176
:103C80002C70C02068813068D0F800C04068009077
:103C90000AE088790B2807D12C70D0206881306821
:103CA000D0F800C040680090012F45D188780328E3
:103CB0000AD004DC01282BD002283DD134E00428AE
:103CC0001AD0E02838D10BE088790B2834D12C7138
:103CD00040F20310688130680768406800902BE06C
:103CE00088790B2828D12C714FF4F07068813068E6
:103CF0000768406800901FE088790B281CD12C7160
:103D00004FF482706881306807684068009013E063
:103D100088790B2810D12C7140F20110688130682D
:103D200007684068009007E088790B2804D16C711F
:103D30003068076840680090A22B7DD14B78002B3B
:103D400026D18878A0287AD00BDC332821D003DC58
:103D500088B302281CD13BE082284BD0902817D191
:103D60005AE0D0286AD004DCB02825D0C0280FD172
:103D70007DE0EE286FD0FF280AD188790B2807D183
:103D8000EC7040F2FF206881306802684068009063
:103D90008CE088790B280DD1EC70C8781070087908
:103DA00050704879907040F2332068813068026822
:103DB000406800907AE04FE088790B2876D1EC706B
:103DC0004FF42C70688130680268406800906DE0A4
:103DD00088790B286AD1EC70C87810700879507017
:103DE0004879907040F2022068813068026840682B
:103DF00000905BE088790B2858D1EC70C87810707F
:103E0000087950704879907040F28220688130685B
:103E100002684068009049E088790B2846D1EC7030
:103E200008795070487990704FF424706881306838
:103E300002684068009039E04DE000E022E08879B7
:103E40000B2833D1EC704FF4287068813068026819
:103E5000406800902AE021E088790B2826D1EC7098
:103E60000020688130680268406800901EE0887910
:103E70000B281BD1EC7080016881306802684068B3
:103E8000009013E088790B2810D1EC704FF4347057
:103E90006881306802684068009007E0EC7040F28A
:103EA000EE2068813068026840680090012B12D1D2
:103EB000887803282AD00FDC012842D002280AD1B2
:103EC00088790B2807D1EC7142F20210A881306882
:103ED000016840680090F8BD042826D0E028FAD197
:103EE00088790B28F7D1EC7142F2E010A881306894
:103EF000016840680090F8BD14040140000C0140C6
:103F00005C0000205C0100201800002088790B284C
:103F1000F1D16420FDF73AFFEC7142F20310A88161
:103F20003068016840680090E5E788790B28E2D1A5
:103F3000EC7142F20410A88130680168406800907A
:103F4000D9E788790B28D6D1EC7142F20110A8810B
:103F50003068016840680090CDE72DE9F0410446E3
:103F60000D46984694F83900012804D0222802D042
:103F70000220BDE8F0819DB192B194F8380001288B
:103F800010D0012684F838600027E76394F83900E0
:103F9000222809D0122084F83900A284E2842EE07D
:103FA0000120E6E70220E4E7322084F83900F4E754
:103FB000401EE084A068B0F5805F08D04346002230
:103FC0008021204601F01DFDA8B10320D1E7434622
:103FD00000228021204601F014FD08B10320C8E72B
:103FE00028882168C0F308004860206908B16D1C6A
:103FF00005E0AD1C03E0216815F8010B4860E08C7A
:104000000028D5D1434600224021204601F0F9FC8A
:1040100008B10320ADE794F83900322805D084F8C0
:10402000396084F838700020A3E7222084F8390032
:10403000F7E77047FEE7000010B5C0F30313002157
:104040000B4A545C9C4203D0491CC9B21029F8D3D6
:1040500000F00F030020145C9C4203D0401CC0B24F
:104060001028F8D3105C515C00EB011010BD00006B
:10407000E066000810B5C0F3031300210B4A545C3E
:104080009C4203D0491CC9B21029F8D300F00F0399
:104090000020145C9C4203D0401CC0B21028F8D30E
:1040A000515C105C090501EB004010BDE0660008A2
:1040B00010B5C0F3031300210B4A545C9C4203D09B
:1040C000491CC9B21029F8D300F00F030020145C7A
:1040D0009C4203D0401CC0B21028F8D3515C105C45
:1040E000090301EB002010BDE066000810B5C0F325
:1040F000031300210B4A545C9C4203D0491CC9B2F3
:104100001029F8D300F00F030020145C9C4203D068
:10411000401CC0B21028F8D3515C105C090701EBB9
:10412000006010BDE06600080148FDF757BF0000C1
:10413000780400200148FDF7C4BF00007804002087
:1041400010B50E4C002220212046FDF73AFF00F06A
:104150004BF8012210212046FDF733FF00F044F810
:10416000002210212046FDF72CFF00F03DF82046EC
:104170000122BDE810402021FDF723BF000C0140C3
:1041800010B5044600F036F800F0F4F9204600F0CF
:104190004FF900F027FA044600F00CFA204610BD53
:1041A000104B42689A4208D85000B1FBF0F0C0F3BF
:1041B0000B01042900D204207047806858B102EB3B
:1041C000C20000EB0210B1FBF0F040F440400105EA
:1041D000F2D10120704702EB4200B1FBF0F040F455
:1041E0000040F4E7A08601000020401CC0B20A286D
:1041F000FBD3704700B585B00E48816941F00801D6
:104200008161806900F0080000900B48416821F04E
:10421000E06141F0807141603020019011200290F6
:104220000120049001A90548FDF7BCFD00F0C2F98A
:1042300005B000BD0010024000000140000C01402C
:1042400010B5428D0168032A0CD0428D022A17D086
:104250000A69416A4B1C43620A70418D491E4185BF
:10426000002010BD0A6822F480620A6001680A69B1
:10427000416A4B1C43620A70418D491E4185EFE73C
:104280004A6822F440724A6001680A6842F4007287
:104290000A6001680A69416A4B1C43620A70418DD9
:1042A000491E418501680A69416A4B1C43620A70D4
:1042B000418D491E418590F836202021402A04D0A6
:1042C00080F83510FDF7EAFFCAE780F83510FDF7F2
:1042D000E7FFC5E710B5428D0168032A08D90A69CE
:1042E000416A4B1C43620A70418D491E418519E0A9
:1042F000022A19D0032A17D04A6822F4E0624A60E1
:1043000001680A69416A4B1C43620A70418D491E6B
:10431000418590F836202021402A0AD080F83510B7
:10432000FDF7BCFF002010BD486820F480604860A5
:10433000F8E780F83510FDF7B3FFF3E710B5428DCD
:104340000168002A08D0426A531C436212780A614D
:10435000418D491E418511E04A6822F4E0624A60BD
:1043600001680A6842F400720A6090F83620202141
:10437000402A05D080F83510FDF791FF002010BDD0
:1043800080F83510FDF78DFFF8E7428D0168002AAF
:1043900009D0426A531C436212780A61418D491E5A
:1043A000418500207047486820F480604860F8E745
:1043B00010B50C4C012220212046FDF702FEFFF72C
:1043C00013FF012210212046FDF7FBFDFFF70CFF34
:1043D000002210212046FDF7F4FDBDE81040FFF754
:1043E00003BF0000000C014070B5002400250F4EF3
:1043F0006006040E012210213046FDF7E2FDFFF7B2
:10440000F3FE20213046FDF7D5FD08B1641CE4B26F
:10441000002210213046FDF7D4FDFFF7E5FE6D1CAC
:10442000EDB2082DE4D3204670BD0000000C014021
:1044300070B505460024164E280605D50122202118
:104440003046FDF7BEFD04E0002220213046FDF796
:10445000B8FDFFF7C9FE012210213046FDF7B1FD7E
:10446000FFF7C2FE002210213046FDF7AAFD072CFF
:1044700004D1012220213046FDF7A3FD6806050E78
:10448000FFF7B2FE641CE4B2082CD5D370BD000067
:10449000000C0140418D002908D001680A69416A79
:1044A0004B1C43620A70418D491E418500207047B4
:1044B000418D002908D001680A69416A4B1C43629A
:1044C0000A70418D491E418500207047418D0029A9
:1044D00008D0416A4A1C4262026809781161418D24
:1044E000491E418500207047418D002908D0416A4E
:1044F0004A1C4262026809781161418D491E41855A
:104500000020704708B5006841698069009000206C
:1045100008BD10B501684A6822F4E0624A6001688B
:104520004A6922F480624A6101680A6822F4806262
:104530000A60202180F83510FDF734FF002010BDFF
:1045400008B501684A6822F4E0624A6001684A6975
:104550000A6842F001020A60009201680A6822F4C7
:1045600080620A60202180F83510FDF7CFFE002020
:1045700008BD000010B50E4C012220212046FDF799
:1045800020FD012210212046FDF71BFDFFF72CFE28
:10459000002220212046FDF714FDFFF725FE002212
:1045A00010212046FDF70DFDBDE81040FFF71CBEB1
:1045B000000C014010B50A4C002220212046FDF7D6
:1045C00000FD012210212046FDF7FBFCFFF70CFE49
:1045D00020460122BDE810402021FDF7F2BC00007A
:1045E000000C014070B5104D012220212846FDF736
:1045F000E8FCFFF7F9FD012210212846FDF7E1FC58
:10460000FFF7F2FD20212846FDF7D4FC08B1012474
:1046100000E00024002210212846FDF7D2FCFFF71D
:10462000E3FD204670BD0000000C01402DE9F05F65
:1046300004460E4693461D46FDF7CAFC07464FF05A
:1046400000094FF0200AC6F30748BBF1000F0FD056
:104650002FE0681C0CD025B1FDF7BAFCC01BA842A6
:1046600006D984F835A084F834900320BDE8F09F83
:10467000B8F1010F07D02068806926EA0000000425
:10468000000C20D0E5E72068406926EA000000041D
:10469000000C18D0DDE7681C0BD025B1FDF798FCA5
:1046A000C01BA84205D984F835A084F834900320B3
:1046B000DCE7B8F1010F08D02068806926EA000025
:1046C0000004000CE7D00020D0E72068406926EA0B
:1046D00000000004000CDED0F5E7000010B50C4C23
:1046E00002212046FDF766FC38B91420FDF74EFB89
:1046F00002212046FDF75EFC08B1012010BD022119
:104700002046FDF757FC0028F9D0002010BD00001E
:10471000000C014070B50D4D4FF4806421462846D1
:10472000FDF748FC38B91420FDF730FB2146284638
:10473000FDF740FC08B1012070BD21462846FDF779
:1047400039FC0028F9D0002070BD0000000C0140A9
:1047500010B50C4C01212046FDF72CFC38B9142073
:10476000FDF714FB01212046FDF724FC08B10120D0
:1047700010BD01212046FDF71DFC0028F9D00020C6
:1047800010BD0000000C014070B586B01A48816968
:1047900041F008018161816901F00801019181699D
:1047A00041F008018161816901F00801019181698D
:1047B00041F008018161806900F008000190022049
:1047C000029000250395012404940C4E02A9304662
:1047D000FDF7E8FAA00202900395049402A930467E
:1047E000FDF7E0FA02940395049402A93046FDF720
:1047F000D9FA06B070BD000000100240000C014064
:104800007CB510A003C8CDE90001FDF799F80F4C65
:10481000012807D10020207001220C212046FDF73D
:10482000D3F8257820788DF80400294608A001F0F7
:1048300053F90C23062269460B48FFF78EFB2846E6
:104840007CBD0000A1040000000B0000200300203C
:104850004C616D70204272696768746E6573732075
:104860006973202564200A005C0100202DE9F047CF
:104870000446FDF765F8244E4FF400674FF4805866
:10488000012824D1DFF88490002089F80000204D11
:104890002C7001220C212846FDF7CBF86420FDF78F
:1048A00075FA01220C214846FDF78EF8044699F866
:1048B0000000297888420AD0002239463046FDF7A8
:1048C00080FB002241463046FDF77BFBFEE7012CD2
:1048D00018D1002239463046FDF773FB00224146CD
:1048E0003046FDF76EFB3220FDF750FA01223946C3
:1048F0003046FDF766FB41463046BDE8F0470122F1
:10490000FDF75FBBBDE8F087000C014020030020ED
:1049100020020020F0B585B02348816941F00801EC
:104920008161816901F008010091816941F008010C
:104930008161806900F0080000901C4F4FF4006412
:10494000002221463846FDF73CFB66000022314636
:104950003846FDF736FB01940124029403250495A3
:1049600001A93846FDF71EFA01960294049501A9A3
:104970003846FDF717FA20020190002002900394B8
:1049800001A93846FDF70EFA202001900294049503
:1049900001A93846FDF706FA012220213846FDF725
:1049A00010FB05B0F0BD000000100240000C0140FB
:1049B0000A48094901600A4941600021816040F2CA
:1049C0000F32C2604FF4804202614161FF22826176
:1049D000C1610162FDF70CBC005400407804002066
:1049E000801A060010B5002201212520FDF784FD64
:1049F000BDE810402520FDF773BD000008B50E4846
:104A0000816941F004018161806900F00400009037
:104A10000B480A4901604FF4E13141600021816097
:104A2000C16001610C2242618161C161FEF7D2FF68
:104A3000BDE80840FFF7D6BF001002400038014033
:104A40005C010020FEE700002DE9F04120480168EC
:104A5000CCB20168C1F307250168C1F307460068BD
:104A6000070EFCF76DFF01282FD10020194B1A49C2
:104A700000221A540A54401CC0B20428F9D30F7003
:104A80004E708D70CC70042205211348FCF7D1FFC5
:104A90000446C820FDF77AF9012C04D0BDE8F041A6
:104AA0000EA001F019B8134D4FF400640022214606
:104AB0002846FDF786FA0A20FDF768F921462846C0
:104AC000BDE8F0410122FDF77CBABDE8F0810000AD
:104AD0003C00002020030020200200206565707249
:104AE0006F6D20636865636B206572726F72200A58
:104AF00000000000000C014070470907090E002863
:104B000006DA00F00F0000F1E02080F8141D704775
:104B100000F1E02080F80014704700001CB50AA2E4
:104B20000CCACDE900238DF804108DF8030041EA8A
:104B3000002107A000F0D0FF0C23062269460A4896
:104B4000FFF70BFA1CBD0000A2010000000B0000E3
:104B50004D6F746F72205370656564206973203ADD
:104B6000202564200A0000005C0100207CB513A011
:104B700003C8CDE90001134881788DF8041041780D
:104B80008DF8031000788DF80200FFF773FA0546E0
:104B90009DF80300FFF78CFA04469DF80400FFF728
:104BA0004BFA2919014408A000F096FF0C230622B5
:104BB00069460B48FFF7D1F97CBD0000A2E0000078
:104BC000000B00001B000020454550524F4D207047
:104BD0006F736974696F6E3D202564200A000000C0
:104BE0005C0100207CB511A003C8CDE90001FCF7F1
:104BF000A7FE104C012808D1022210212046FCF704
:104C0000E3FE6078217840EA012560788DF80400A1
:104C100020788DF80300294607A000F05DFF0C23E3
:104C2000062269460A48FFF798F97CBDA1010000F9
:104C3000000B0000200300204D6F746F7220537032
:104C4000656564206973203A202564200A0000000D
:104C50005C0100200148FEF7C0B9000020040020DC
:104C600070B51D4CA2252570A070E1702271637192
:104C70000B20A07140F6FF73072221461748FEF76C
:104C80009FFA002826D10120611E087014A000F0B0
:104C900023FF217817A000F01FFF61781AA000F011
:104CA0001BFFA1781DA000F017FFE17820A000F005
:104CB00013FF217923A000F00FFF617926A000F0F7
:104CC0000BFFA17929A000F007FFBDE870400A2082
:104CD000FDF75CB870BD00004A00002020040020F1
:104CE000D6F7BBFAB7A2CBCDCFFBCFA2B3C9B9A63B
:104CF0000A0000006154784275666665725B305D3B
:104D00003D2523780A000000615478427566666587
:104D1000725B315D3D2523780A00000061547842C2
:104D200075666665725B325D3D2523780A0000007A
:104D30006154784275666665725B335D3D25237804
:104D40000A0000006154784275666665725B345DE6
:104D50003D2523780A000000615478427566666537
:104D6000725B355D3D2523780A000000615478426E
:104D700075666665725B365D3D2523780A00000026
:104D80002DE9F05F04460F4693461D46FDF720F9D6
:104D900006464FF000084FF4005A4FF00109BBF1EE
:104DA000000F26D050E0681C23D025B1FDF710F984
:104DB000801BA8421DD92068416821F0E0014160B4
:104DC0002068016821F040010160A06A504509D1C6
:104DD0002068016821F4005101602068016841F4F5
:104DE0000051016084F8519084F850800320BDE8A0
:104DF000F09F2068806837EA0000D4D129E0681C61
:104E000022D025B1FDF7E4F8801BA8421CD9206808
:104E1000416821F0E00141602068016821F0400113
:104E20000160A06A504509D12068016821F4005151
:104E300001602068016841F40051016084F85190DC
:104E400084F850800320D2E72068806837EA0000A9
:104E5000D5D00020CBE7000010B5104C0E482060E4
:104E60004FF4827060600020A060E06020616061AB
:104E70004FF40071A1612021E16120626062A062B3
:104E80000720E0622046FEF703F92068016841F040
:104E90004001016010BD00000030014020040020EE
:104EA00070B50E464FF0FF35124A11690C1A1248C0
:104EB0000178002905D06CB1104B187801280BD06F
:104EC00010E015210170FCF7B3F904460CA000F0C6
:104ED00003FE07E0002505E00020187000241061A3
:104EE0005060506105FB04F03146BDE8704000F0B1
:104EF00015B800002C000020200000202100002018
:104F0000706F776572206F6E20666972737420729D
:104F1000756E2030786230200A0000002DE9F05FC5
:104F2000044641F27075DFF80CA14348DFF80C81AC
:104F3000434F444E4FF00A0B4FF00109002C18DA92
:104F400087F8019000220821FDF73BF898F800004F
:104F50006442012802D19AF8000008B1F46018E018
:104F600088F800B0F460BC60FCF762F94042706100
:104F70000FE00021797001220821FDF722F8B460CA
:104F800098F80000012802D19AF80000E8B3B46054
:104F9000BC60002C4BD02A4CDFF8ACA04FF4FA6870
:104FA0000C344FF4005BA6F802807088786087F8B4
:104FB00000902068416A7A681144416320480021CA
:104FC0000C30FEF76FFB01220021504600F0E0FAA2
:104FD000012259461D48FCF7F4FF6D1EADB2E2D226
:104FE000FCF712F970807088786087F8009020686C
:104FF000416A7A6811444163114800210C30FEF780
:1050000051FB01220021504600E008E000F0C0FA08
:105010005946BDE8F05F01220C48FCF7D2BF88F882
:1050200000B0B460FCF704F97061BC60B1E7BDE8A2
:10503000F09F000021000020000801402000002017
:10504000D80100202C000020002C0140000C014061
:10505000F0B585B02648816941F00401816181691C
:1050600001F004010091816941F0040181618169CD
:1050700001F004010091816941F0080181618169B9
:1050800001F008010091816941F0080181618069A6
:1050900000F0080000904FF4807001900220029010
:1050A00003240494134E01A93046FCF77BFE08212B
:1050B000019101250295049401A93046FCF772FE86
:1050C0006E030196029504940B4F01A93846FCF734
:1050D00069FEAA0301920295049401A93846FCF7DF
:1050E00061FE002231463846FCF76BFF05B0F0BD8B
:1050F0000010024000080140000C01402DE9F04181
:105100000E4690461F464FF0FF35FEF7B3FF0446AC
:105110003046FEF7CDFF06464046FEF78DFFA1194B
:10512000164C0844A06116480178002641B1154884
:105130000178012911D02069A169411AA9B115E0AE
:1051400005210170FCF774F820616168226911443F
:10515000A269891A66616060F0E706706660666140
:1051600026616068A169411AE8E7002505FB01F0A6
:105170003946BDE8F041FFF7D1BE00002C00002009
:10518000200000202100002030B595B02A49294D8B
:105190000D600320486000248C604FF6FF70C860EB
:1051A0000C614C610846FEF744F9A814119011A94E
:1051B0002148FEF788F92048FEF756FA0F9410941C
:1051C0000FA91D48FEF70DF9089409940A940B9451
:1051D0000C9468140D900E9408A91748FEF7E0F897
:1051E000302001901548408802900220039008204A
:1051F0000490059406940794002201A90E48FEF736
:1052000009FAFFF725FF00210B48FEF7B1FA00214C
:105210000948FEF781FA00221146284600F0B8F945
:10522000022200211B20FDF767F91B20FDF758F92A
:1052300015B030BD002C0140E40100202C000020FE
:105240002DE9F041354801214170354900240C60B9
:1052500034490C604460FCF773FB012813D1002033
:105260003149324A0C541454401CC0B20A28F9D3B4
:105270000A2200212D48FCF7DCFB05463220FCF712
:1052800085FDFBF7FBFF2A4E4FF40064012D36D05D
:10529000002221463046FCF794FE4FF48055002250
:1052A00029463046FCF78DFE4FF4FA773846FCF776
:1052B0006DFD012221463046FCF783FE012229467E
:1052C0003046FCF77EFE3846FCF760FD00222146A2
:1052D0003046FCF776FE002229463046FCF771FE88
:1052E0003846FCF753FD012221463046FCF769FEA3
:1052F00029463046BDE8F0410122FCF762BE00229B
:1053000021463046FCF75DFE0A20FCF73FFD0122F6
:1053100021463046FCF755FEBFE700002000002084
:10532000400000203C00002020030020200200203C
:10533000000C014010B5FDF779F8BDE81040FEF70C
:105340002BB830B58FB001200590000406900024E2
:10535000079402250C950D904FF4E0100E9005A8CF
:10536000FDF7E6FA0F200090019502946802039081
:10537000049402216846FDF7F1F8FDF74BFA4FF46B
:105380007A71B0FBF1F0FDF7F3FF0420FDF7E1FFC8
:1053900000221146501EFDF7AFF80FB030BD0000DF
:1053A0000D48016841F00101016041680B4A11405C
:1053B000416001680A4A11400160016821F48021BE
:1053C0000160416821F4FE0141604FF41F018160DA
:1053D0000449C00308607047001002400000FFF855
:1053E000FFFFF6FE08ED00E02DE9F041404E306889
:1053F000C168C94389073DD46FF00207076130686F
:10540000416A3C4C6288114441636078401CC0B2E0
:10541000607002282ED100256570A6F10C01487835
:10542000012829D0A0686269904203D0A06862690F
:10543000904200D20D700878DFF8BC8030B30128AC
:1054400018D198F800000A2840D02C480278012A88
:1054500041D06069401C60614878B0B36068401E0C
:1054600060602069401E206188686269904201D1B5
:105470000D708D60BDE8F081E0686269904203D0F4
:10548000E06862699042D6D20D70D4E76561002170
:105490001748FEF76DF900221146194800F078F818
:1054A0003068076100224FF400511648FCF789FD6F
:1054B0000120207098F800001528DBD1642088F8BE
:1054C0000000656125616560D4E709E0142088F873
:1054D00000006561C0E70570656125616560BBE737
:1054E0006068401C60602069401C2061BCE70000CF
:1054F000E40100202C0000202000002021000020DA
:10550000002C0140000C01402DE9F04102681B4DC8
:105510001B4E1C4FDFF870C01C4B4FF08048A84258
:1055200009D0984207D0404505D0B04203D0B842D8
:1055300001D0604503D122F070044A682243A8429A
:1055400009D0984207D0404505D0B04203D0B842B8
:1055500001D0604503D122F44074CA68224302603E
:105560008A68C2620A688262A84201D0984201D168
:105570000969016301214161BDE8F081002C01400E
:105580000004004000080040000C004000340140CE
:1055900010B501238B40046A9C430462036A8A406D
:1055A0001343036210BD10B5846824F47F4442EABB
:1055B00003220A432243826010BD826822F07002F7
:1055C0000A4342F00701816070470000F0B5026AAB
:1055D00022F001020262026A4368846924F07004C6
:1055E00024F003050C682C4322F002058A682A4344
:1055F0000E4E0F4FB04201D0B84205D122F008053F
:10560000CA682A4322F00402B04201D0B84207D14E
:1056100023F4807323F400734D691D438B692B437E
:1056200043608461496841630262F0BD002C01401F
:1056300000340140F0B5026A22F010020262036AEF
:105640004268846924F4E04424F440740D6844EA18
:10565000052423F020038D6843EA0513104D114EF5
:10566000A84201D0B04206D123F08003CF6843EABC
:10567000071323F04003A84201D0B04209D122F41D
:10568000806222F400624D6942EA85028D6942EA35
:10569000850242608461496881630362F0BD000055
:1056A000002C014000340140F0B5026A22F48072FF
:1056B0000262026A4368C46924F0700424F003059E
:1056C0000C682C4322F400728D6842EA0522104DCA
:1056D000104EA84201D0B04206D122F40062CF6839
:1056E00042EA072222F48062A84201D0B04209D1E6
:1056F00023F4805323F400534D6943EA05138D6965
:1057000043EA05134360C4614968C1630262F0BDA6
:10571000002C01400034014030B5026A22F480526E
:105720000262046A4268C36923F4E04323F44073CD
:105730000D6843EA052324F400548D6844EA0534D7
:10574000084DA84202D0084DA84204D122F480425C
:105750004D6942EA85124260C3614968016404628E
:1057600030BD0000002C01400034014010B5036A38
:10577000046A24F001040462846924F0F00444EA19
:10578000021423F00A020A438461026210BD10B5BC
:10579000036A23F0100303628469036A24F47044EB
:1057A00044EA023223F0A00343EA0111826101625C
:1057B00010BD10B50168CA6822F04002CA6090F8B6
:1057C0003910322906D0012180F83910FEF731FC5A
:1057D000002010BD222180F83910F7E710B590F8AD
:1057E0003910222903D0322901D0022010BD81684E
:1057F000B1F5805F11D0016919B30168496801F002
:105800007F03816A4A1C82620B70C18D491E0904A4
:10581000090CC1851CD0002010BD816A02693AB113
:1058200002685268D2B20A80816A491C8162ECE740
:1058300002685268C2F308020A80816A891C816288
:10584000E3E701684A68816A4B1C83620A70DCE7FF
:105850000168CA6822F02002CA6090F83910322923
:1058600010D00168CA6822F48072CA6001684A696F
:1058700022F001024A61012180F83910FEF73EF959
:10588000002010BD122180F83910F7E72DE9F04112
:10589000044620680169E26821F440511143016126
:1058A000A16820690143606901432068C26841F230
:1058B0000C639A430A43C26020684169A26921F4DB
:1058C0004071114341613349206864253226884282
:1058D00030D1FCF7CFFF00EBC00101EB0010616895
:1058E0008900B0FBF1F0B0FBF5F7FCF7C3FF00EB6C
:1058F000C00101EB001061688900B0FBF1F8FCF712
:10590000B9FF00EBC00101EB001061688900B0FB3A
:10591000F1F0B0FBF5F06FF01801484308EB8000A0
:1059200006EB0010B0FBF5F0216867F31F108860EC
:10593000BDE8F081FCF788FF00EBC00101EB00102F
:1059400061688900B0FBF1F0B0FBF5F7FCF77CFF74
:1059500000EBC00101EB001061688900B0FBF1F8B9
:10596000FCF772FF00EBC00101EB001061688900D9
:10597000B0FBF1F0B0FBF5F06FF01801484308EB15
:10598000800006EB0010B0FBF5F0216867F31F10F4
:105990008860CDE70038014090F83910122903D013
:1059A000322901D0022070478168B1F5805F0CD0A8
:1059B000016A4A1C0262026809785160C18C491E62
:1059C0000904090CC18410D019E0016A0268098831
:1059D000C1F308015160016919B1016A491C0162F2
:1059E000ECE7016A891C0162E8E70168CA6822F0F5
:1059F0008002CA600068C16841F04001C1600020B7
:105A000070472DE9F04704460F4692461D46FCF7C5
:105A1000DFFA06464FF000084FF00109BAF1000F17
:105A200023D04AE0681C20D025B1FCF7D1FA801BB6
:105A3000A8421AD92068C16821F08001C16020689D
:105A4000C16821F02001C1602068C16821F4807123
:105A5000C1602068416921F00101416184F83990F9
:105A600084F838800320BDE8F0872068006837EAB2
:105A70000000D7D126E0681C1FD025B1FCF7A8FA9A
:105A8000801BA84219D92068C16821F08001C1603B
:105A90002068C16821F02001C1602068C16821F43C
:105AA0008071C1602068416921F00101416184F881
:105AB000399084F838800320D5E72068006837EAF9
:105AC0000000D8D00020CEE70148FDF724BF000039
:105AD0005C010020FEE700000FB4054B10B503A9E0
