:020000040800F2
:1000000008140020450100087F2E0008372800084A
:100010007D2E0008F7070008E939000800000000FD
:100020000000000000000000000000005701000870
:10003000B90C0008000000005B01000881320008D4
:100040005F0100085F0100085F0100085F01000810
:100050005F0100085F010008F10E00085F01000861
:100060005F0100085F0100085F0100085F010008F0
:100070005F0100085F0100085F0100085F010008E0
:100080005F0100085F0100085F0100085F010008D0
:100090005F0100085F0100085F0100085F010008C0
:1000A0005F0100085F0100085F01000835330008A8
:1000B0005F0100085F0100085F0100085F010008A0
:1000C0005F0100085F0100085F0100085F01000890
:1000D0005F010008DD3900085F0100085F010008CA
:1000E0005F0100085F0100085F0100085F01000870
:1000F0005F0100085F0100085F0100085F01000860
:100100005F0100085F0100085F0100085F0100084F
:100110005F0100085F0100085F0100085F0100083F
:100120005F0100085F0100085F0100085F0100082F
:10013000DFF80CD000F02CFB00480047D942000843
:10014000081400200648804706480047FEE7FEE7FF
:10015000FEE7FEE7FEE7FEE7FEE7FEE7FEE7FEE777
:10016000ED32000831010008202A04DB203A21FA90
:1001700002F00021704721FA02F3D040C2F12002C0
:10018000914008431946704740EA01039B0703D09A
:1001900009E008C9121F08C0042AFAD203E011F8C6
:1001A000013B00F8013B521EF9D27047421C10F887
:1001B000011B0029FBD1801A704770B521F0004364
:1001C00003430CD0C1F30A550024D5EB040564EBBE
:1001D0000403D617AD1AB34102DB0020014670BDFF
:1001E000201841EB025170BD0EB5C10F80EAE070DE
:1001F0000844CA07002140F233438DE80E000A4646
:100200000B4600F0BEF803B000BD00F0004230F035
:1002100000400AD0C10D01F56071C0F3160042EA3A
:100220000151C20840071143704700200146704742
:1002300001F0004330B421F0004150EA010206D041
:100240000A0DA2F56072C1F31301002A02DC30BC72
:1002500000207047440F44EAC104C100E01830BCDC
:1002600000EBC25000F047B830B50B460146002005
:100270002022012409E021FA02F59D4205D303FA68
:1002800002F5491B04FA02F52844151EA2F10102E9
:10029000F1DC30BD2DE9F05F0546002092469B461B
:1002A00088460646814640241BE02846414647468C
:1002B0002246FFF759FF53465A46C01A914110D3C0
:1002C00011461846224600F075FA2D1A67EB010810
:1002D0004F4622460120002100F06CFA17EB00097E
:1002E0004E41201EA4F10104DFDC484631462A4677
:1002F0004346BDE8F09F0029A8BF7047401C490055
:1003000008BF20F00100704710B4B0FA80FC00FA7A
:100310000CF050EA010404BF10BC704749B1CCF1A5
:10032000200421FA04F411FA0CF118BF0121214331
:100330000843A3EB0C01CB1D4FEA00614FEA1020EC
:1003400042BF002010BC704700EBC350104400298E
:10035000A4BF10BC7047401C490008BF20F001003A
:1003600010BC704710B5141E73F1000408DA401C6D
:1003700041F1000192185B411A4301D120F00100C4
:1003800010BD2DE9F04D92469B4611B1B1FA81F2B4
:1003900002E0B0FA80F22032904600F00BFA0446F8
:1003A0000F4640EA0A0041EA0B0153465A46084309
:1003B00013D0114653EA010019D0C8F1400250464B
:1003C000FFF7D2FE05460E4650465946424600F01B
:1003D000F1F9084305D0012004E020463946BDE884
:1003E000F08D0020054346EAE0762C4337430A9817
:1003F0006305E40AA0EB08000022FD0A44EA475422
:100400000A3002D500200146E9E7010510196941CB
:10041000DDE9084500196941BDE8F04DA2E72DE985
:10042000FE4F804681EA0300C00F0C46009021F089
:10043000004123F00045B8EB0200A94105D2404637
:10044000214690461C460B46024623F000401043CE
:1004500047D0270DC7F30A00C3F30A510290401A90
:10046000019040286BDAC3F3130040F4801B00981E
:10047000924620B10023D2EB030A63EB0B0B0198E9
:100480005946C0F14002504600F094F906460D4628
:1004900050465946019A00F09CF910EB0800614162
:1004A000002487EA115284EAE7731A4340D0009A85
:1004B00062B3019A012A4FEA075215DC001B61EB77
:1004C00002014FF0004202EA0752CDE90042001C4F
:1004D00041F5801132462B46FFF753FF03B0BDE8CC
:1004E000F08F40462146F9E7001B61EB0201001C3A
:1004F00041F5801300185B412018A2F5001747EB67
:10050000030140EAD570B6196D4111E06D084FEA5C
:10051000360645EAC0754FEA0752001B61EB02013F
:10052000001C41F5801149084FEA30000019514183
:1005300032462B4603B0BDE8F04FFFF713BF0098DB
:10054000012240000023D0EB020263EBE07300982D
:1005500021464FEAE074B8EB000061EB0401E9E7E3
:1005600083F000435BE781F0004158E72DE9FE4F3F
:1005700081EA030404F0004421F0004100944FF0AC
:10058000000B23F0004350EA01045ED052EA03045A
:100590005BD0C3F30A54C1F30A552C44A4F2F334DC
:1005A0000194A0FB0254C1F3130141F48011C3F381
:1005B000130343F4801301FB024400FB034E840A3F
:1005C000970A44EA815447EA8357A4FB07680295D7
:1005D0008D0A05FB07854FEA932C04FB0C54270575
:1005E000029D4FEA065847EA1637B5EB08056EEB51
:1005F000070C870E920E47EA811742EA8312A7FB87
:100600000201B6EB0B0164EB00042B0D43EA0C3343
:100610005E1844EB1C50DA465146E7FB0201C5F375
:1006200013044FEA0B3343EA14534FEA0432019C9C
:1006300043EA0603A4F10C040294009CCDE900B443
:10064000FFF79FFE03B0BDE8F08F00200146F9E7F9
:100650002DE9F04D81EA030404F0004B21F0004540
:1006600014464FF0000A23F0004150EA050220D062
:1006700054EA01021DD0C5F30A570246C5F313031D
:10068000C1F31300C1F30A5640F4801543F48013FC
:10069000A7EB0608101BD64608F2FD3873EB0500E1
:1006A00002D308F1010801E092185B41B8F1000F94
:1006B00003DA00200146BDE8F08D00204FF48011E0
:1006C000064684460EE0171B73EB050705D3121B85
:1006D00063EB050306434CEA010C49084FEA30007E
:1006E00092185B4150EA0107EDD152EA030012D0A3
:1006F00082EA040083EA0501084305D0101BAB41E0
:1007000006D20122002306E000224FF0004302E05F
:100710006FF0010253101AEB06004CEB085110EB7E
:100720000A0041EB0B01BDE8F04DFFF71BBEC1F322
:100730000A52C1F3130140F2FF3341F480119A428F
:1007400002DA00200146704740F233439A42A2F297
:10075000334202DC5242FFF707BD00F02BB8000025
:1007600030B5041E71F1000404DB4FF00044404238
:1007700064EB0101141E73F1000405DB1C464FF00D
:100780000043524263EB0403994208BF904230BDDC
:10079000064C074D06E0E06840F0010394E80700CE
:1007A00098471034AC42F6D3FFF7C6FC74490008F2
:1007B00094490008202A04DB203A00FA02F10020C4
:1007C00070479140C2F1200320FA03F3194390408F
:1007D0007047202A06DBCB17203A41FA02F043EAA1
:1007E000E07306E041FA02F3D040C2F120029140EA
:1007F000084319467047FEE7000440EA0120104311
:10080000194602F0ABBB000440EA01201043194630
:10081000404202F0A3BB000010B500F0B7FA012877
:1008200009D102221021054800F0F4FA034841786A
:10083000007841EA0024204610BD00000403002097
:100840002DE9F04100F0A2FA01281AD10422052175
:100850000D4800F0DFFAC82000F086FB0A4C207833
:1008600002F044F80546607802F004F80646A078E5
:1008700002F01EF80746E07801F0DEFFA9193944BE
:100880000C182046BDE8F081040300202DE9F0415A
:1008900020480168CCB20168C1F307250168C1F3A3
:1008A00007460068070E00F071FA01282FD10020DA
:1008B000194B1A4900221A540A54401CC0B2042889
:1008C000F9D30F704E708D70CC700422052113483F
:1008D00000F0D5FA0446C82000F046FB012C04D0F5
:1008E000BDE8F0410EA003F081B8134D4FF4006451
:1008F00000222146284600F05EFC0A2000F034FB6E
:1009000021462846BDE8F041012200F054BCBDE874
:10091000F0810000300000200403002004020020C9
:10092000656570726F6D20636865636B20657272B8
:100930006F72200A00000000000C01402DE9F04118
:1009400006460F4600F022FA012844D1234C00202D
:1009500020706070224D2E706F7002221021284688
:1009600000F08DFA642000F0FFFA022210212046E8
:1009700000F050FA00224FF400611A4E4F00A05CC4
:10098000AB5C984209D00022304600F014FC0022F3
:100990003946304600F00FFCFEE7521CD2B2022A64
:1009A000EDD318D100220C46304600F004FC0022A2
:1009B0003946304600F0FFFBC82000F0D5FA01228E
:1009C0002146304600F0F7FB39463046BDE8F0419D
:1009D000012200F0F0BBBDE8F0810000040300201C
:1009E00004020020000C014010B5114901200870DC
:1009F0000021104801F0D4FB002211460E4802F0FD
:100A000051FD0C496FF00200096808610B4C00228F
:100A10004FF48041204600F0CEFBFFF737FF002265
:100A20006114204600F0C7FBBDE8104000F046B955
:100A300010000020C8010020002C0140000C0140E3
:100A400006E00021491CC9B20A29FBD3401E80B22E
:100A50000028F6D1704770B5054600F055F800241F
:100A6000285D00F0F7F8641CE4B2082CF8D34420A9
:100A700000F0F0F800F048F80024285D00F0EAF8F3
:100A8000641CE4B2082CF8D3BE2000F0E3F800F0B8
:100A9000ABF8044600F0A8F8000200B220436FF063
:100AA000030400280ADAC043401CFFF79DFB2246DE
:100AB000FFF783FBBDE87040FFF7BABBFFF794FB7D
:100AC0002246FFF77AFBBDE87040FFF7B1BB00009C
:100AD00008B50B48816941F004018161806900F02B
:100AE0000400009000F028F801220221054800F0DF
:100AF00062FB00F095F8BDE8084000F02BB800005C
:100B0000001002400008014010B500F089F800F024
:100B100021F8BDE81040552000F09CB81FB5022018
:100B2000009000200190012002906946014800F0E9
:100B300033FA1FBD000801401FB5022000900120BC
:100B40000190032003906946014800F025FA1FBD7B
:100B50000008014070B50024FFF7E0FF124D04E0EB
:100B6000641CE4B20120FFF76BFF0221284600F06D
:100B70001BFB08B1642CF3D3642C01D3012070BD9E
:100B8000002404E0641CE4B20120FFF759FF0221B5
:100B9000284600F009FB08B9F02CF3D3F02C01D360
:100BA000012070BD002070BD0008014010B5FFF7A6
:100BB000C3FF0C4C00220221204600F0FCFA0A2060
:100BC000FFF73EFFFFF7AAFF0221204600F0ECFAF4
:100BD000012805D000242D20FFF732FF204610BD4C
:100BE0000124F8E70008014070B500250024FFF754
:100BF000DDFFA0402843C5B2641CE4B2082CF6D344
:100C0000284670BD70B50546332000F023F8002457
:100C1000FFF7EAFF2855641CE4B2082CF8D370BD36
:100C200010B5FFF789FF0A4C00220221204600F090
:100C3000C2FA40F2EE20FFF703FF01220221204614
:100C400000F0B9FABDE810400F20FFF7F9BE000030
:100C50000008014070B50546FFF76EFF0024154EF1
:100C600005F001006D0880B100220221304600F03D
:100C7000A2FA0820FFF7E4FE01220221304600F02C
:100C80009AFA3A20FFF7DCFE0FE0002202213046FC
:100C900000F091FA4620FFF7D3FE012202213046F0
:100CA00000F089FA0220FFF7CBFE641CE4B2082CA6
:100CB000D6D370BD00080140FEE700002DE9FC41DD
:100CC00021A003C8CDE90001214804688DF8044043
:100CD000200A8DF80300200C8DF8020000F056F871
:100CE00001282FD100201B4D00212954401CC0B2E7
:100CF0000428FAD304220521164800F08BF8C820F6
:100D000000F032F9287801F0F1FD0646687801F02C
:100D1000B1FD8046A87801F0CBFD0746E87801F0E8
:100D20008BFD06EB0801394401440BA002F05EFE86
:100D300021460FA002F05AFE0C23062269461248F3
:100D400001F00CFDBDE8FC81A1030000000B0000D8
:100D50003000002004030020454550524F4D2070C4
:100D60006F736974696F6E3D20256C64200A000002
:100D70007265616C20706F736974696F6E3D2025B8
:100D80006C64200A000000004001002010B5A02083
:100D900001F0EAFD18B101F0ADFE002010BD012008
:100DA00010BD000070B5FFF7F1FF012814D100203D
:100DB0001449154A00240C541454401C80B20A28CB
:100DC000F9D309220021104800F059F805460F48D0
:100DD0000460642000F0C8F8012D00D0FEE70C4D3F
:100DE0004FF4006400222146284600F0E4F9142064
:100DF00000F0BAF821462846BDE87040012200F014
:100E0000DAB90000040300200402002030000020B2
:100E1000000C01402DE9F04105460C46164601F054
:100E200049FEA02001F014FE01F07CFE68B9E0B29A
:100E300001F00EFE01F076FE38B901F03BFEA12074
:100E400001F006FE01F06EFE20B101F053FE00201D
:100E5000BDE8F0810024771E0BE001F0D5FD285598
:100E6000BC4202D001F060FD01E001F0B1FD641C64
:100E7000A4B2B442F1D301F03DFE0120E8E72DE930
:100E8000F04780460E46914600254FF47A7729E0D8
:100E90000DB1700716D101F02DFE002401F00AFEFD
:100EA000A02001F0D5FD01F03DFE18B1641CA4B2F4
:100EB000BC42F3D3BC420CD0F0B201F0C9FD01F04A
:100EC00031FE30B918F8050001F0C2FD01F02AFE2C
:100ED00020B101F00FFE0020BDE8F087761CB6B20D
:100EE0006D1CADB24D45D3D301F004FE0120F3E7F4
:100EF000012000F045B8000010B58EB01848174921
:100F0000016008214160002484606421C1600461A3
:100F100000F0A4FF4FF480500A900AA9104800F096
:100F2000E8FF0894099408A90D4800F06FFF6020BD
:100F300001900C480078029003940594002201A9C6
:100F4000074801F075F90C2201A9054801F070F974
:100F5000034801F055F80EB010BD00000008004035
:100F6000800100201800002031B500F02BF9044664
:100F700000F028F90099001B8842F9D338BD70476A
:100F800010B504490A68024202D00860FFF7F7FF73
:100F900010BD0000140401402DE9F84F0023002487
:100FA000DFF8DC914FF00F0809F1040A0AF1040B95
:100FB0000BF1040E0127A7400A683A40BA4275D1E6
:100FC000DFF8C0C14D68A5EB0C0665452BD00DDCE4
:100FD000032D34D005DC35B3012D19D0022D2FD1CE
:100FE0001BE0112D16D0122D2AD119E0B6F5881F5D
:100FF00019D006DCB6F5803F15D0B6F5801F1FD19D
:1010000011E0B6F5001F0ED0B6F5041F18D10AE0A6
:10101000CB6815E0CB681B1D12E0CB6808330FE0EE
:10102000CB680C330CE08B6823B1012B04D0082370
:10103000476105E0042303E00823076100E0002383
:10104000FF2A01D8054601E000F1040502D84FEA65
:10105000840603E0A4F108064FEA86062F6808FA22
:1010600006FC27EA0C0703FA06F647EA06072F6094
:101070004D68ED007ED5444DAE6946F00106AE6187
:10108000AD6905F001050095404D24F00306771980
:10109000BE68A5072D0F08FA05FC26EA0C06DFF846
:1010A000F0C0604503D14FF0000C25E062E0DFF8AE
:1010B000E4C0604502D14FF0010C1DE0DFF8D8C05C
:1010C000604502D14FF0020C16E0DFF8D0C0604559
:1010D00002D14FF0030C0FE0DFF8C4C0604502D12D
:1010E0004FF0040C08E0DFF8BCC0604502D14FF0BF
:1010F000050C01E04FF0060C0CFA05FC4CEA060C5E
:10110000C7F808C04D68ED0305D5D9F80050154360
:10111000C9F8005004E0D9F800509543C9F80050D0
:101120004D68AD0305D5DAF800501543CAF80050F4
:1011300004E0DAF800509543CAF800504D68ED021B
:1011400005D5DBF800501543CBF8005004E0DBF880
:1011500000509543CBF800504D68AD0205D5DEF840
:1011600000501543CEF8005004E0DEF800509543DF
:10117000CEF80050641C102CFFF41CAFBDE8F88FB3
:101180000004014000001110001002400000014066
:1011900000080140000C0140001001400014014013
:1011A00000180140001C01408068084201D0012065
:1011B000704700207047002A01D001617047090480
:1011C000016170470148006870470000040000207A
:1011D00002480168491C01607047000004000020BB
:1011E00010B50748016841F010010160052000F0CA
:1011F00075F8002000F006F800F016F8002010BD89
:101200000020024010B5044600F0D6F94FF47A727F
:10121000B0FBF2F000F0C1FD00222146501E00F0AC
:101220003DF8002010BD000008B51548816941F067
:1012300001018161806900F001000090052000F04B
:101240004DF8002211466FF00B0000F027F8002245
:1012500011466FF00A0000F021F8002211466FF0ED
:10126000090000F01BF800221146101F00F016F8CC
:101270000022BDE808401146501E00F00FB80000E3
:101280000010024000F01F0201219140400980003F
:1012900000F1E020C0F8001170470000F0B40D46E6
:1012A0000D4B1B68C3F30223C3F10704042C00D9C0
:1012B0000424191D072901D2002300E0DB1E0126AA
:1012C00006FA04F1491E294099409E40761E1640B8
:1012D0003143F0BC01F0D4BD0CED00E000F007019B
:1012E000054A10684FF6FF03184040EA0120034901
:1012F00008431060704700000CED00E00000FA05A4
:101300002DE9F04704460F46DFF8A492D9F8000013
:10131000A84D00F007010120430446064FF0020CDF
:1013200041F28838B9426FD2D9F8001021F0070194
:101330003943C9F80010D9F8001001F00701B9428B
:1013400001D0BDE8F0872178890705D56968A268D2
:1013500021F0F001114369602178C90761D061680B
:1013600001290BD002291FD09CFAACF2B2FA82F20A
:1013700042F0200252092DD02A682CE093FAA3F201
:10138000B2FA82F242F02002520901D02A6800E04B
:101390006A6A93FAA3F3B3FA83F303F01F03984046
:1013A000024223D10120CCE796FAA6F2B2FA82F2E9
:1013B00042F02002520901D02A6800E06A6A96FAD7
:1013C000A6F3B3FA83F303F01F03984002420DD152
:1013D0000120B6E76A6A9CFAACF3B3FA83F303F030
:1013E0001F039840024201D10120AAE7686820F05B
:1013F000030008436860FFF7E5FE064660680128C1
:101400000AD0022815D021E025E0FFF7DBFE801B83
:10141000404501D9032094E76868C0F381000128A2
:10142000F3D1ADE0FFF7CEFE801B404501D903208C
:1014300087E76868C0F381000228F3D1A0E0FFF7D6
:10144000C1FE801B404501D903207AE7686810F08F
:101450000C0FF4D194E02178890705D56968A2685A
:1014600021F0F001114369602178C90779D06168E2
:1014700001290BD002291FD09CFAACF2B2FA82F2F9
:1014800042F0200252092DD02A682CE093FAA3F2F0
:10149000B2FA82F242F02002520901D02A6800E03A
:1014A0006A6A93FAA3F3B3FA83F303F01F03984035
:1014B000024223D1012044E796FAA6F2B2FA82F260
:1014C00042F02002520901D02A6800E06A6A96FAC6
:1014D000A6F3B3FA83F303F01F03984002420DD141
:1014E00001202EE76A6A9CFAACF3B3FA83F303F0A7
:1014F0001F039840024201D1012022E7686820F0D2
:10150000030008436860FFF75DFE06466068012837
:1015100009D0022814D020E0FFF754FE801B40457C
:1015200001D903200DE76868C0F381000128F3D1D9
:1015300017E0FFF747FE801B404501D9032000E775
:101540006868C0F381000228F3D10AE0FFF73AFE91
:10155000801B404501D90320F3E6686810F00C0FAA
:10156000F4D1D9F8000020F007003843C9F8000092
:10157000D9F8000000F00700B84201D00120E0E6F1
:101580002078400705D56868E16820F4E0600843EA
:1015900068602078000706D56868216920F46050EB
:1015A00040EAC10068600020FFF72CFE0020C8E67A
:1015B000002002400010024000B500F043F8084946
:1015C0004968F02292FAA2F201F0F001B2FA82F236
:1015D000D140044A515CC8400349086000BD000086
:1015E00000100240544900080000002000B5FFF739
:1015F000E3FF074949684FF4E06292FAA2F201F46E
:10160000E061B2FA82F2D140024A515CC84000BDAA
:10161000001002405449000800B5FFF7CDFF07490C
:1016200049684FF4605292FAA2F201F46051B2FAA2
:1016300082F2D140024A515CC84000BD0010024015
:101640005449000810B585B01AA0D0E90031D0E99E
:101650000220CDE90131CDE903201AA000680090F5
:10166000194B5968194801F00C02042A1DD0082AA8
:101670001BD14FF4701494FAA4F401F47012B4FA6C
:1016800084F4E24001ACA25CC90310D559684FF460
:10169000003393FAA3F301F40031B3FA83F3D94092
:1016A0001DF80110B0FBF1F0504305B010BD084823
:1016B0005043FAE702030405060708090A0B0C0D5C
:1016C0000E0F1010010200000010024000127A00FC
:1016D00000093D002DE9F84F0446F94D20784FF000
:1016E0000106C00775D068687704C0F3810001283F
:1016F00007D06868C0F3810002281DD16868C00364
:101700001AD597FAA7F0B0FA80F040F0200040090F
:1017100001D0286800E0686A97FAA7F1B1FA81F170
:1017200001F01F0206FA02F1084252D06068002858
:101730004FD10120BDE8F88F286820F48030286060
:10174000286820F480202860FFF73CFD804607E0F1
:10175000FFF738FDA0EB0800642801D90320E9E772
:1017600097FAA7F0B0FA80F040F02000400901D0CD
:10177000286800E0686A97FAA7F1B1FA81F101F0F0
:101780001F0106FA01F10842E2D16068B0F5803F1E
:1017900011D0A8B1B0F5A02F1CD0286820F480305B
:1017A0002860286820F4802028606068C8B3FFF7AC
:1017B00009FD80461FE0286840F480302860F4E787
:1017C000286820F480302860286820F48020286071
:1017D000EBE748E0286840F480202860286840F45F
:1017E00080302860E1E7FFF7EDFCA0EB08006428FB
:1017F00001D903209EE797FAA7F0B0FA80F040F0F5
:101800002000400901D0286800E0686A97FAA7F133
:10181000B1FA81F101F01F0106FA01F10842E2D0AC
:1018200021E0FFE7FFF7CEFC804607E0FFF7CAFCA8
:10183000A0EB0800642801D903207BE797FAA7F002
:10184000B0FA80F040F02000400901D0286800E0A4
:10185000686A97FAA7F1B1FA81F101F01F0106FA5F
:1018600001F10842E2D12078DFF8588280074FF07A
:10187000000B4FF0020732D568684FF0F80A10F0FD
:101880000C0F07D06868C0F38100022828D168686F
:10189000C00325D497FAA7F0B0FA80F040F02000FA
:1018A000400901D0286800E0686A97FAA7F1B1FA08
:1018B00081F101F01F0106FA01F1084204D020690C
:1018C000012801D0012035E728689AFAAAF2616957
:1018D000B2FA82F220F0F8009140084328605CE000
:1018E000206990B396FAA6F0B0FA80F048F820602C
:1018F000FFF768FC814607E0FFF764FCA0EB0900F6
:10190000022801D9032015E797FAA7F0B0FA80F072
:1019100040F02000400901D0286800E0686A97FA8A
:10192000A7F1B1FA81F101F01F0106FA01F10842B5
:10193000E2D028689AFAAAF26169B2FA82F220F03B
:10194000F80091400843286027E0FFE796FAA6F0E8
:10195000B0FA80F048F820B0FFF734FC814607E089
:10196000FFF730FCA0EB0900022801D90320E1E6D3
:1019700097FAA7F0B0FA80F040F02000400901D0BB
:10198000286800E0686A97FAA7F1B1FA81F101F0DE
:101990001F0106FA01F10842E2D12078000770D554
:1019A000A069C0B396FAA6F0B0FA80F008EB800008
:1019B000C0F88064FFF706FC814607E0FFF702FCF1
:1019C000A0EB0900022801D90320B3E697FAA7F09B
:1019D000B0FA80F040F06000B6EB501F01D12868EB
:1019E0000BE097FAA7F0B0FA80F040F06000B7EB98
:1019F000501F01D1286A00E0686A97FAA7F1B1FA8E
:101A000081F101F01F0206FA02F10842D6D001204E
:101A1000FFF7AAFA35E0FFE796FAA6F0B0FA80F0F1
:101A200008EB8000C0F880B4FFF7CCFB814607E0EC
:101A3000FFF7C8FBA0EB0900022801D9032079E6D3
:101A400097FAA7F0B0FA80F040F06000B6EB501FB4
:101A500001D128680BE097FAA7F0B0FA80F040F0C7
:101A60006000B7EB501F01D1286A00E0686A97FA5E
:101A7000A7F1B1FA81F101F01F0206FA02F1084262
:101A8000D6D12078400770D5E86940F08050E861F1
:101A9000E86900F080500090DFF82CA0DAF8000030
:101AA00040F48070CAF80000FFF78CFB81460DE01F
:101AB000FFF788FBA0EB0900642807D9032039E66B
:101AC000001002400000424200700040DAF80000BE
:101AD000C005EDD5286A20F001002862286A20F0B0
:101AE00004002862FFF76EFB814641F2883A07E066
:101AF000FFF768FBA0EB0900504501D9032019E668
:101B000097FAA7F0B0FA80F040F04000B6EB501F13
:101B100001D128680BE097FAA7F0B0FA80F040F006
:101B20004000B7EB501F01D1286A00E0686A97FABD
:101B3000A7F1B1FA81F101F01F0106FA01F10842A3
:101B4000D6D1E068012811D0A8B105281CD0286A98
:101B500020F001002862286A20F004002862E06872
:101B6000C8B3FFF72FFB81461FE06EE0286A40F004
:101B700001002862F3E7286A20F001002862286A41
:101B800020F004002862EAE7286A40F00400286296
:101B9000286A40F001002862E1E7FFF713FBA0EBA1
:101BA0000900504501D90320C4E597FAA7F0B0FA1F
:101BB00080F040F04000B6EB501F01D128680CE0E7
:101BC00097FAA7F0B0FA80F040F04000B7EB501F52
:101BD00002D1286A01E00BE0686A97FAA7F1B1FA2E
:101BE00081F101F01F0206FA02F10842D5D02CE083
:101BF000FFF7E8FA814607E0FFF7E4FAA0EB0900F7
:101C0000504501D9032095E597FAA7F0B0FA80F086
:101C100040F04000B6EB501F01D128680BE097FA66
:101C2000A7F0B0FA80F040F04000B7EB501F01D1B0
:101C3000286A00E0686A97FAA7F1B1FA81F101F029
:101C40001F0206FA02F10842D6D1E06980B3696842
:101C5000C1F38101022970D04FF080794FF00077F5
:101C6000022809D099FAA9F0B0FA80F048F820B01B
:101C7000FFF7A8FA044668E099FAA9F0B0FA80F0F4
:101C800048F820B0FFF79EFA824607E0FFF79AFA7D
:101C9000A0EB0A00022801D903204BE597FAA7F030
:101CA000B0FA80F040F02000400902D0286801E03E
:101CB00060E0686A97FAA7F1B1FA81F101F01F01BB
:101CC00006FA01F10842E1D1206AB0F5803F05D162
:101CD0006868A16820F4003008436860D4E908010E
:101CE0000843696821F474110843686099FAA9F0FF
:101CF000B0FA80F048F82060FFF764FA044606E086
:101D0000FFF760FA001B022801D9032012E597FAB9
:101D1000A7F0B0FA80F040F02000400901D0296817
:101D200000E0696A97FAA7F0B0FA80F000F01F00AF
:101D300006FA00F00142E3D01CE01DE0FFF742FA92
:101D4000001B022801D90320F4E497FAA7F0B0FAA7
:101D500080F040F02000400901D0296800E0696A65
:101D600097FAA7F0B0FA80F000F01F0006FA00F032
:101D70000142E3D10020DDE40120DBE44FF0E0216B
:101D8000042804D0086920F004000861704708693D
:101D900040F0040008617047704710B5401EB0F174
:101DA000807F01D3012010BD4FF0E02460610F213E
:101DB000601701F065F80020A06107202061002075
:101DC00010BD10B5FFF7E8FF10BD30B590F8382012
:101DD000012A19D0012200F8382F02234370D1E9DB
:101DE00000342343D1E902452C4323430C692343A8
:101DF0004C69896923430B4350F8381C4B6442708B
:101E000000210170002030BD022030BD30B590F8B7
:101E10003820012A20D0012380F83830022280F8AF
:101E200039200268546824F07004546002685468D1
:101E30000D682C4354600268946824F08004946018
:101E40000268946849680C43946080F83930002136
:101E500080F83810002030BD022030BD10B5044697
:101E6000002C03D094F8390010B107E0012010BD18
:101E7000002084F83800204600F00CF8022084F896
:101E80003900211D206801F0C9FA012084F83900C9
:101E9000002010BD08B50D4B02680D499A4207D1CC
:101EA0008A6942F400628A618A6902F400620092DF
:101EB0000068084A904207D1C86940F00400C86130
:101EC000C86900F00400009008BD0000002C01402B
:101ED0000010024000080040022180F8391001681B
:101EE0000A6842F001020A60012180F839100020DE
:101EF000704770B5044694F83800012817D00125C2
:101F000084F83850022084F839002068826822F072
:101F1000770222F47F428260086850283AD00DDCB4
:101F200020285FD005DCA0B3102864D155E0022042
:101F300070BD30285BD040285DD13FE0602833D0B1
:101F400070280CD0B0F5805F03D0B0F5005F52D19F
:101F500013E02068816821F0070181604BE0CB68C5
:101F6000D1E90121206801F0A8FA2068816821F0F8
:101F7000770141F0770181603DE0CB68D1E9012133
:101F8000206801F09AFA2068816841F480418160FC
:101F900031E01DE0CA684968206801F071FB5021FA
:101FA000206801F094FA26E0CA684968206801F0C8
:101FB00078FB6021206801F08AFA1CE0CA68496851
:101FC000206801F05DFB4021206801F080FA12E0FA
:101FD0000021206801F07BFA0DE01021206801F05B
:101FE00076FA08E02021206801F071FA03E0302140
:101FF000206801F06CFA383465700020207070BDE4
:1020000000B585B000680C49884213D10B4881693E
:1020100041F008018161806900F0080000904FF4F0
:1020200000700190022002900320049001A904484E
:10203000FEF7B2FF05B000BD0008004000100240EE
:10204000000C014070B5044694F8380001280DD00A
:10205000012584F83850022084F8390042B1042A5E
:102060000AD0082A0CD00C2A11D10DE0022070BD34
:10207000206801F035FA0AE0206801F065FA06E010
:10208000206801F09BFA02E0206801F0CFFA3834B2
:1020900065700020207070BD10B50446002C03D080
:1020A00094F8390010B107E0012010BD002084F839
:1020B0003800204600F00CF8022084F83900211D79
:1020C000206801F0ABF9012084F83900002010BD30
:1020D0007047000010B504460029226806D0042984
:1020E00009D008290CD00C2913D10EE0D06840F09B
:1020F0000200D0600DE0D06840F00400D06008E03D
:10210000D06840F00800D06003E0D06840F01000D4
:10211000D0600122206801F0C5F909492068884291
:1021200002D00849884203D1416C41F40041416426
:102130002068016841F001010160002010BD00002D
:10214000002C01400034014010B5044600222068F4
:1021500001F0A8F9104841F2111221689310814250
:1021600002D00E48814209D1086A104206D1086A9D
:10217000184203D1486C20F4004048642068016A8A
:10218000114206D1016A194203D1016821F001010F
:102190000160002010BD0000002C0140003401400F
:1021A00010B504460029226806D0042909D0082960
:1021B0000CD00C2913D10EE0D06820F00200D060C2
:1021C0000DE0D06820F00400D06008E0D06820F076
:1021D0000800D06003E0D06820F01000D06000223A
:1021E000206801F05FF9104841F211122168931044
:1021F000814202D00D48814209D1086A104206D1BD
:10220000086A184203D1486C20F4004048642068F2
:10221000016A114206D1016A194203D1016821F015
:1022200001010160002010BD002C0140003401407C
:1022300070B504460D4694F8380001280DD00126EB
:1022400084F83860022084F8390042B1042A1AD098
:10225000082A2DD00C2A53D13EE0022070BD294619
:10226000206801F03DF92068816941F00801816131
:102270002068816921F004018161206881692A69EF
:10228000114381613CE02946206801F05DF9206836
:10229000816941F4006181612068816921F4806174
:1022A0008161206881692A6941EA0221816127E010
:1022B0002946206801F082F92068C16941F00801CF
:1022C000C1612068C16921F00401C1612068C16950
:1022D0002A691143C16113E02946206801F0A6F97B
:1022E0002068C16941F40061C1612068C16921F4BD
:1022F0008061C1612068C1692A6941EA0221C16126
:10230000383466700020207070BD000010B504469F
:102310000122206801F0C6F808482168814202D0F5
:102320000748814203D1486C40F40040486420686B
:10233000016841F001010160002010BD002C014046
:1023400000340140704738B5044620680168C1F385
:102350000001C26802F48072002904D01AB1E16B56
:1023600041F00101E1630168C1F34002416901F0FC
:10237000010122B119B1E26B42F00402E26302688A
:10238000C2F3800222B119B1E26B42F00202E263B1
:102390000268C2F3C00222B119B1E16B41F0080139
:1023A000E1630168C1F34011C06800F0200019B179
:1023B00010B1204601F09CF920680168C1F3C011FA
:1023C000C06800F0800019B110B1204601F06EFA2B
:1023D00020680168C1F38011C06800F0400019B1A5
:1023E00010B1204601F06FF9E06B002809D0206899
:1023F000016840680090012084F839002046FFF70A
:10240000A1FF38BD70B50446002C04D094F8390003
:10241000002510B106E0012070BD84F83850204638
:1024200000F020F8022084F839002068C16821F407
:102430000051C160204601F0B3F92068016921F420
:10244000904101612068416921F02A0141612068C1
:10245000C16841F40051C160E563012084F839008E
:10246000002070BD10B586B00068114988421DD1AA
:102470001048816941F480418161806900F48040A5
:1024800001904FF400700290022003900320059009
:10249000094C02A92046FEF77FFD2115029100217B
:1024A0000391049102A92046FEF776FD06B010BD07
:1024B00000380140001002400008014090F8393017
:1024C000012B03D0122B01D00220704731B32AB365
:1024D00090F83830012B23D0012380F83830816206
:1024E0008285C2850021C16390F83920122A19D053
:1024F000222280F8392080F838100168CA6842F436
:102500008072CA6001684A6942F001024A6100684B
:10251000C16841F02001C160002070470120704770
:1025200002207047322280F83920E4E72DE9F84F85
:102530008548012505608415DFF810822146404654
:10254000FEF732FE08B9FEF74FFA072280498148AC
:10255000FFF7B4FF00287DD121464046FEF724FE58
:1025600008B9FEF741FA7A4F3878A12872D1787805
:10257000784C794E00286ED1B978331D02290FD1DD
:10258000B8790B280CD13570F878187038795870F4
:1025900078799870022070802268106850680090E6
:1025A00082290FD1B8790B280CD13570F8781870C2
:1025B0003879587078799870822070802068026825
:1025C0004068009090290DD1B8790B280AD1357058
:1025D00038795870787998709020708020680268F7
:1025E00040680090A02909D1B8790B2806D1357030
:1025F000A0207080206802684068009033290FD1C5
:10260000B8790B280CD13570F87818703879587073
:102610007879987033207080206802684068009054
:10262000B02909D1B8790B2806D13570B020708057
:10263000206802684068009031BBB8790B2823D12C
:10264000FEF7D2F94FF48059012249464046FEF781
:10265000B2FD01E075E03CE04FF4006A0122514612
:102660004046FEF7A8FD0A20FEF77EFC00225146F8
:102670004046FEF7A0FD002249464046FEF79BFD7E
:102680002068016840680090B878FF2809D1B979BE
:102690000B2906D13570FF21718021680A684968CD
:1026A0000091C02809D1B9790B2906D13570C02114
:1026B000718021680A6849680091D02809D1B879E9
:1026C0000B2806D13570D0207080206801684068E2
:1026D00000907878012834D1B87803280AD1B979E4
:1026E0000B2907D1357040F20311718021680A6807
:1026F0004968009104280AD1B9790B2907D13570AE
:102700004FF48271718021680A684968009101283C
:102710000AD1B9790B2907D1357040F201117180C6
:1027200021680A684968009102280AD1B8790B2803
:1027300007D135704FF4817070802068016840685F
:102740000090BDE8F88F000014040140000C014027
:102750004000002040010020080000202DE9F04149
:1027600004460D46984694F83900012804D02228E2
:1027700002D00220BDE8F0819DB192B194F83800FA
:10278000012810D0012684F838600027E76394F808
:102790003900222809D0122084F83900A284E2846A
:1027A0002EE00120E6E70220E4E7322084F8390039
:1027B000F4E7401EE084A068B0F5805F08D043468F
:1027C00000228021204601F0A6F8A8B10320D1E71D
:1027D000434600228021204601F09DF808B10320E5
:1027E000C8E728882168C0F308004860206908B15C
:1027F0006D1C05E0AD1C03E0216815F8010B486075
:10280000E08C0028D5D1434600224021204601F02B
:1028100082F808B10320ADE794F83900322805D0DA
:1028200084F8396084F838700020A3E7222084F807
:102830003900F7E77047FEE710B5C0F30313002136
:102840000B4A545C9C4203D0491CC9B21029F8D3EE
:1028500000F00F030020145C9C4203D0401CC0B267
:102860001028F8D3105C515C00EB011010BD000083
:102870006449000810B5C0F3031300210B4A545CEF
:102880009C4203D0491CC9B21029F8D300F00F03B1
:102890000020145C9C4203D0401CC0B21028F8D326
:1028A000515C105C090501EB004010BD6449000853
:1028B00010B5C0F3031300210B4A545C9C4203D0B3
:1028C000491CC9B21029F8D300F00F030020145C92
:1028D0009C4203D0401CC0B21028F8D3515C105C5D
:1028E000090301EB002010BD6449000810B5C0F3D6
:1028F000031300210B4A545C9C4203D0491CC9B20B
:102900001029F8D300F00F030020145C9C4203D080
:10291000401CC0B21028F8D3515C105C090701EBD1
:10292000006010BD6449000810B50E4C00228021E3
:102930002046FEF740FC00F027F801224021204607
:10294000FEF739FC00F020F8002240212046FEF777
:1029500032FC00F019F820460122BDE81040802129
:10296000FEF729BC000C014010B5044600F012F837
:1029700000F0A0F8204600F06BF800F0D3F8044611
:1029800000F0B8F8204610BD0020401CC0B20A2854
:10299000FBD3704700B585B00B48816941F0080151
:1029A0008161806900F008000090C0200190112032
:1029B00002900120049001A90448FEF7EDFA00F00E
:1029C00099F805B000BD000000100240000C014065
:1029D00010B50C4C012280212046FEF7ECFBFFF7DE
:1029E000D3FF012240212046FEF7E5FBFFF7CCFF95
:1029F000002240212046FEF7DEFBBDE81040FFF735
:102A0000C3BF0000000C014070B5002400250F4E2C
:102A10006006040E012240213046FEF7CCFBFFF792
:102A2000B3FF80213046FEF7BFFB08B1641CE4B25F
:102A3000002240213046FEF7BEFBFFF7A5FF6D1CCC
:102A4000EDB2082DE4D3204670BD0000000C01401B
:102A500070B505460024164E280605D501228021B2
:102A60003046FEF7A8FB04E0002280213046FEF746
:102A7000A2FBFFF789FF012240213046FEF79BFBB6
:102A8000FFF782FF002240213046FEF794FB072C1F
:102A900004D1012280213046FEF78DFB6806050E29
:102AA000FFF772FF641CE4B2082CD5D370BD0000A0
:102AB000000C014010B50E4C012280212046FEF78B
:102AC0007AFB012240212046FEF775FBFFF75CFFF1
:102AD000002280212046FEF76EFBFFF755FF002203
:102AE00040212046FEF767FBBDE81040FFF74CBFD2
:102AF000000C014010B50A4C002280212046FEF750
:102B00005AFB012240212046FEF755FBFFF73CFF10
:102B100020460122BDE810408021FEF74CBB00009A
:102B2000000C014070B5104D012280212846FEF7AF
:102B300042FBFFF729FF012240212846FEF73BFB1D
:102B4000FFF722FF80212846FEF72EFB08B1012463
:102B500000E00024002240212846FEF72CFBFFF76E
:102B600013FF204670BD0000000C014010B50C4C56
:102B700002212046FEF718FB38B91420FEF7F4F9BD
:102B800002212046FEF710FB08B1012010BD0221F2
:102B90002046FEF709FB0028F9D0002010BD0000F8
:102BA000000C014070B50D4D4FF48064214628465D
:102BB000FEF7FAFA38B91420FEF7D6F9214628466E
:102BC000FEF7F2FA08B1012070BD21462846FEF753
:102BD000EBFA0028F9D0002070BD0000000C014085
:102BE00070B586B01E48816941F008018161816934
:102BF00001F008010191816941F008018161816959
:102C000001F008010191816941F008018161806949
:102C100000F0080001900220029000250395012495
:102C20000494104E02A93046FEF7B6F9A1020291B3
:102C30000395049402A93046FEF7AEF902940A48BF
:102C40000390049402A93046FEF7A6F90022012160
:102C50000620FEF723FB0620FEF714FB06B070BD2E
:102C600000100240000C0140000021107CB510A0B3
:102C700003C8CDE90001FEF789F80F4C012807D100
:102C80000020207001220C212046FEF7C3F8257891
:102C900020788DF80400294608A000F0A7FE0C2338
:102CA000062269460B48FFF759FD28467CBD000007
:102CB000A1040000000B0000040300204C616D70B3
:102CC000204272696768746E65737320697320258A
:102CD00064200A00400100202DE9F0470446FEF779
:102CE00055F8244E4FF400674FF48058012824D142
:102CF000DFF88490002089F80000204D2C7001221C
:102D00000C212846FEF7BBF86420FEF72DF90122BE
:102D10000C214846FEF77EF8044699F80000297811
:102D200088420AD0002239463046FEF744FA002293
:102D300041463046FEF73FFAFEE7012C18D100224B
:102D400039463046FEF737FA002241463046FEF754
:102D500032FA3220FEF708F9012239463046FEF7F2
:102D60002AFA41463046BDE8F0470122FEF723BA71
:102D7000BDE8F087000C014004030020040200209D
:102D8000F0B585B02348816941F00801816181690E
:102D900001F008010091816941F0080181618069B9
:102DA00000F0080000901C4F4FF400640022214600
:102DB0003846FEF700FA6600002231463846FEF734
:102DC000FAF90194012402940325049501A93846D7
:102DD000FEF7E2F801960294049501A93846FEF741
:102DE000DBF82002019000200290039401A93846EC
:102DF000FEF7D2F8202001900294049501A93846EC
:102E0000FEF7CAF8012220213846FEF7D4F905B0B2
:102E1000F0BD000000100240000C014010B500227F
:102E200001212520FEF73AFABDE810402520FEF7E3
:102E300029BA000008B50E48816941F0040181619A
:102E4000806900F0040000900B480A4901604FF4CB
:102E5000E131416000218160C16001610C22426169
:102E60008161C161FFF7CEFABDE80840FFF7D6BF28
:102E7000001002400038014040010020FEE770478A
:102E80000907090E002806DA00F00F0000F1E02023
:102E900080F8141D704700F1E02080F8001470479E
:102EA0007CB511A003C8CDE90001FDF76FFF104C00
:102EB000012808D1022210212046FDF7ABFF6078DF
:102EC000217840EA012560788DF8040020788DF89B
:102ED0000300294607A000F089FD0C23062269465D
:102EE0000A48FFF73BFC7CBDA1010000000B00007D
:102EF000040300204D6F746F722053706565642069
:102F00006973203A202564200A0000004001002057
:102F100010B5FDF73BFF012801D0002010BD0222B3
:102F200000210648FDF776FFC820FEF71DF803488C
:102F30004178007841EA002010BD00000403002021
:102F40004FF0FF32044B9B681B1A002B00D100226C
:102F500002FB03F000F002B81C0000202DE9F04154
:102F60000446234B0127234D234E002C08DA7770AB
:102F7000002208211846FEF71EF964422C610FE07A
:102F800000207070012208211846FEF714F91B4832
:102F90000178012902D11A49097801B3EC60B460C3
:102FA0002CB1FDF739FC6880688870603770124872
:102FB0000C300068416A7268114441630E48002178
:102FC0000C30FFF787F8012200210E4800F06AFA62
:102FD000BDE8F041012251030B48FEF7ECB80A218D
:102FE0000170EC60FDF72CFCA861B460D8E700002C
:102FF000000801401C000020BC010020100000203F
:1030000011000020002C0140000C0140F0B585B0FB
:103010002648816941F004018161816901F0040160
:103020000091816941F004018161816901F004012D
:103030000091816941F008018161816901F0080115
:103040000091816941F008018161806900F0080008
:1030500000904FF4807001900220029003240494A9
:10306000134E01A93046FDF797FF08210191012574
:103070000295049401A93046FDF78EFF6E03019678
:10308000029504940B4F01A93846FDF785FFAA036A
:1030900001920295049401A93846FDF77DFF0022B4
:1030A00031463846FEF787F805B0F0BD0010024003
:1030B00000080140000C01402DE9F0410E46904609
:1030C0001F464FF0FF35FFF7D5FB04463046FFF7AC
:1030D000EFFB06464046FFF7AFFBA119164C08442C
:1030E000E06116480178002641B1154801780129B0
:1030F00011D0A068E169411AA9B115E0052101705C
:10310000FDF79EFB6061A16862691144E269891A5A
:10311000A661A060F0E70670A660A6616661A0687F
:10312000E169411AE8E7002505FB01F03946BDE8F1
:10313000F041FFF713BF00001C000020100000202A
:103140001100002030B595B02A49294D0D600320AB
:10315000486000248C604FF6FF70C8600C614C61C1
:103160000846FEF77BFEA814119011A92148FEF72E
:10317000C0FE2048FEF790FF0F9410940FA91D4841
:10318000FEF744FE089409940A940B940C94681476
:103190000D900E9408A91748FEF717FE30200190F5
:1031A000154840880290022003900820049005945E
:1031B00006940794002201A90E48FEF743FFFFF78B
:1031C00025FF00210B48FEF7EBFF00210948FEF721
:1031D000BBFF00221146284600F064F902220021BC
:1031E0001B20FEF75BF81B20FEF74CF815B030BD36
:1031F000002C0140C80100201C00002070B51A49B5
:103200000120487019480024046019480460FDF743
:10321000BDFD012813D100201649174A0C5414543F
:10322000401CC0B20A28F9D30A2200211248FDF737
:1032300026FE05463220FDF797FEFDF727FB012D00
:1032400000D0FEE70D4D4FF40064002221462846D1
:10325000FDF7B1FF0A20FDF787FE21462846BDE8AD
:1032600070400122FDF7A7BF1000002034000020AD
:10327000300000200403002004020020000C014064
:1032800010B5FDF7A5FFBDE81040FEF79ABD30B5BB
:103290008FB00120059000040690002407940225B9
:1032A0000C950D904FF4E0100E9005A8FEF712FA61
:1032B0000F2000900195029468020390049402216B
:1032C0006846FEF71DF8FEF777F94FF47A71B0FB08
:1032D000F1F0FEF762FD0420FEF750FD00221146DA
:1032E000501EFDF7DBFF0FB030BD00000D48016838
:1032F00041F00101016041680B4A114041600168E1
:103300000A4A11400160016821F48021016041688E
:1033100021F4FE0141604FF41F0181600449C003A4
:1033200008607047001002400000FFF8FFFFF6FE43
:1033300008ED00E070B5344C2068C168C9438907C6
:1033400037D46FF00205056121684A6A2F48438827
:103350001A444A630178491CC9B20170022928D174
:1033600000210170A4F10C035A78012A22D0C2680E
:103370008669B24203D0C2688669B24200D219702F
:103380001A780AB3012A14D1214A14780A2C2FD0B2
:103390008269521C82615A7872B38268521E8260BE
:1033A0004269521E42619A688069824201D1197055
:1033B000996070BD02698669B24203D0026986696C
:1033C000B242DDD21970DBE7816100210E48FEF7C1
:1033D000E7FE002211460F4800F064F820680561FE
:1033E000BDE8704000224FF400510B48FDF7E3BEEA
:1033F000142414708161CEE78268521C8260426995
:10340000521C4261CFE70000C80100201C000020D0
:1034100010000020002C0140000C01402DE9F0417B
:1034200002681B4D1B4E1C4FDFF870C01C4B4FF049
:103430008048A84209D0984207D0404505D0B04204
:1034400003D0B84201D0604503D122F070044A682D
:103450002243A84209D0984207D0404505D0B04247
:1034600003D0B84201D0604503D122F44074CA6849
:10347000224302608A68C2620A688262A84201D05E
:10348000984201D10969016301214161BDE8F081E0
:10349000002C01400004004000080040000C0040E7
:1034A0000034014010B501238B40046A9C43046240
:1034B000036A8A401343036210BD10B5846824F484
:1034C0007F4442EA03220A432243826010BD82689D
:1034D00022F070020A4342F0070181607047000049
:1034E000F0B5026A22F001020262026A436884694E
:1034F00024F0700424F003050C682C4322F002052C
:103500008A682A430E4E0F4FB04201D0B84205D10F
:1035100022F00805CA682A4322F00402B04201D012
:10352000B84207D123F4807323F400734D691D431F
:103530008B692B4343608461496841630262F0BD3B
:10354000002C014000340140F0B5026A22F0100264
:103550000262036A4268846924F4E04424F44074FB
:103560000D6844EA052423F020038D6843EA05131F
:10357000104D114EA84201D0B04206D123F0800375
:10358000CF6843EA071323F04003A84201D0B042BA
:1035900009D122F4806222F400624D6942EA850278
:1035A0008D6942EA850242608461496881630362F1
:1035B000F0BD0000002C014000340140F0B5026A6B
:1035C00022F480720262026A4368C46924F07004C3
:1035D00024F003050C682C4322F400728D6842EA43
:1035E0000522104D104EA84201D0B04206D122F45F
:1035F0000062CF6842EA072222F48062A84201D02A
:10360000B04209D123F4805323F400534D6943EAB7
:1036100005138D6943EA05134360C4614968C163BA
:103620000262F0BD002C01400034014030B5026A56
:1036300022F480520262046A4268C36923F4E043C0
:1036400023F440730D6843EA052324F400548D6885
:1036500044EA0534084DA84202D0084DA84204D1DE
:1036600022F480424D6942EA85124260C361496892
:103670000164046230BD0000002C014000340140B0
:1036800010B5036A046A24F001040462846924F01A
:10369000F00444EA021423F00A020A43846102623D
:1036A00010BD10B5036A23F0100303628469036A36
:1036B00024F4704444EA023223F0A00343EA0111E7
:1036C0008261016210BD10B50168CA6822F0400233
:1036D000CA6090F83910322906D0012180F83910DB
:1036E000FFF7A8F8002010BD222180F83910F7E775
:1036F00010B590F83910222903D0322901D00220C8
:1037000010BD8168B1F5805F11D0016919B30168FE
:10371000496801F07F03816A4A1C82620B70C18D87
:10372000491E0904090CC1851CD0002010BD816A06
:1037300002693AB102685268D2B20A80816A491CB1
:103740008162ECE702685268C2F308020A80816A6B
:10375000891C8162E3E701684A68816A4B1C8362C5
:103760000A70DCE70168CA6822F02002CA6090F89B
:103770003910322910D00168CA6822F48072CA60F8
:1037800001684A6922F001024A61012180F839107A
:10379000FEF7CCFE002010BD122180F83910F7E7AB
:1037A0002DE9F041044620680169E26821F44051A6
:1037B00011430161A16820690143606901432068E8
:1037C000C26841F20C639A430A43C26020684169AF
:1037D000A26921F440711143416133492068642595
:1037E0003226884230D1FDF717FF00EBC00101EB14
:1037F000001061688900B0FBF1F0B0FBF5F7FDF750
:103800000BFF00EBC00101EB001061688900B0FB09
:10381000F1F8FDF701FF00EBC00101EB001061685A
:103820008900B0FBF1F0B0FBF5F06FF018014843F0
:1038300008EB800006EB0010B0FBF5F0216867F3A1
:103840001F108860BDE8F081FDF7D0FE00EBC001DD
:1038500001EB001061688900B0FBF1F0B0FBF5F7F7
:10386000FDF7C4FE00EBC00101EB001061688900A8
:10387000B0FBF1F8FDF7BAFE00EBC00101EB001060
:1038800061688900B0FBF1F0B0FBF5F06FF0180152
:10389000484308EB800006EB0010B0FBF5F0216810
:1038A00067F31F108860CDE70038014090F83910A9
:1038B000122903D0322901D0022070478168B1F566
:1038C000805F0CD0016A4A1C02620268097851606C
:1038D000C18C491E0904090CC18410D019E0016A89
:1038E00002680988C1F308015160016919B1016AD0
:1038F000491C0162ECE7016A891C0162E8E7016882
:10390000CA6822F08002CA600068C16841F04001C4
:10391000C160002070472DE9F04704460F469246EB
:103920001D46FDF74FFC06464FF000084FF0010919
:10393000BAF1000F23D04AE0681C20D025B1FDF772
:1039400041FC801BA8421AD92068C16821F080017F
:10395000C1602068C16821F02001C1602068C16891
:1039600021F48071C1602068416921F00101416149
:1039700084F8399084F838800320BDE8F087206807
:10398000006837EA0000D7D126E0681C1FD025B1B7
:10399000FDF718FC801BA84219D92068C16821F0E6
:1039A0008001C1602068C16821F02001C1602068E9
:1039B000C16821F48071C1602068416921F0010172
:1039C000416184F8399084F838800320D5E7206875
:1039D000006837EA0000D8D00020CEE70148FEF7A3
:1039E000B2BC000040010020FEE700000FB4054B10
:1039F00010B503A9044A029800F0CAF810BC5DF89B
:103A000014FB0000C14200083C00002002E008C88E
:103A1000121F08C1002AFAD170477047002001E048
:103A200001C1121F002AFBD1704700002DE9FF5F82
:103A3000DDE90220010DDDF838B0024318D044F66C
:103A40001050A1F2FF3141430D140F98012820D0EE
:103A5000A5EB0B00401C5FEA000A4FF00004474E44
:103A6000DFF81C91A046504616D5CAF1000728E0A1
:103A70000F98012443A2012808D0002100980F9B31
:103A8000C0E90021C0E90243BDE8FF9F6FEA0B01D6
:103A9000F4E7CBF10000DEE7074612E0F80707D0B5
:103AA0002246334640464946FCF760FD804689463B
:103AB0002246334610461946FCF758FD04460E468A
:103AC0007F10002FEAD1DDE90201BAF1000F424672
:103AD0004B4602DAFCF74AFD01E0FCF7B9FD04466B
:103AE0000E460022284BFCF73BFE03D84FF0FF3078
:103AF000014607E00022254B20463146FCF78FFCAB
:103B0000FCF715FE102409E0002C0ADB0A22002332
:103B1000FCF7C0FB019B30321A55641E50EA0102CB
:103B2000F2D1641C019AC4F1110314440F9A012AC2
:103B300003D0012208430DD10AE0084304D000203D
:103B40004FF0110B0F9080E7A3EB0B056D1E0DE0FE
:103B50005B4504DD4FF0000205F1010504E003DAE6
:103B60004FF00002A5F10105002AECD000980F9952
:103B7000C0E90231C0E9004586E7000000002440AA
:103B80000000F03F300000000000F0430000E03F84
:103B90002DE9FF4F95B09B468946064600250FE26A
:103BA000252877D100242746F84A0121059400E012
:103BB000044316F8013F203B01FA03F01042F7D10D
:103BC00030782A2811D06FF02F033078A0F130021E
:103BD000092A16D8059A44F0020402EB820203EB8C
:103BE00042021044761C0590EFE759F8042B059229
:103BF000002A03DA504244F40054059044F00204D1
:103C0000761C30782E2816D116F8010F44F00404E3
:103C10002A280DD06FF02F023078A0F13003092B45
:103C200009D807EB870302EB4303C718761CF3E7B9
:103C300059F8047B761C30786C280FD006DC4C28B1
:103C400017D068280DD06A2814D104E0742810D049
:103C50007A280FD10DE044F400140AE044F48014F3
:103C600001E044F440147278824202D104F58014D9
:103C7000761C761C307866280BD013DC582877D059
:103C800009DC002875D04528F6D04628F4D047280E
:103C90001AD19DE118E0632835D0642879D06528D1
:103CA00012D195E1702873D008DC6728F1D069281B
:103CB0006FD06E280DD06F2806D1B5E073282CD0B8
:103CC000752875D0782874D05A46179990476D1C7E
:103CD00075E1C4F30250022809D003280DD0D9F8A9
:103CE000001004280DD00D6009F1040967E1D9F82E
:103CF0000010EA17C1E90052F6E7D9F800100D806C
:103D0000F2E70D70F0E719F8041B8DF800100020A1
:103D10008DF80100EA46012003E059F804AB4FF0AA
:103D2000FF3061074FF0000102D40DE008F10101FE
:103D30008846B9420FDA8045F8DB1AF808100029E6
:103D4000F4D108E008F1010188468142FADB1AF853
:103D500008100029F6D105985B46A0EB080721461C
:103D60003846179A00F094FA284400EB080507E05B
:103D70004DE029E10DE01AF8010B5A4617999047DA
:103D8000B8F10108F7D25B4621463846179A13E18D
:103D900042E00A220092C4F302524FF0000A022AC3
:103DA00008D059F804CB032A4FEAEC710AD00DE091
:103DB00029E02AE009F1070121F00702F2E802C137
:103DC000914609E00FFA8CFC4FEAEC71042A03D10A
:103DD0004FFA8CFC4FEAEC71002907DA0A46002101
:103DE000DCF1000C61EB02012D2202E0220504D57A
:103DF0002B228DF80420012203E0E20701D02022CB
:103E0000F7E7904659E00A2102E010220DE0102168
:103E10004FF0000A00910BE010224FF0000A44F02E
:103E200004040827009203E008224FF0000A0092E1
:103E3000C4F30252022A05D059F804CB0021032A08
:103E400008D009E009F1070121F00702F2E802C1F8
:103E5000914605E01FFA8CFC042A01D10CF0FF0CFE
:103E60004FF00008220728D5702806D0009B83F069
:103E7000100353EA0A0305D00EE040228DF8042017
:103E8000012208E05CEA010206D030228DF804200D
:103E90008DF8050002229046009B83F0080353EA48
:103EA0000A030AD15CEA010201D1620705D530227A
:103EB0008DF804204FF001087F1E582804D034A04C
:103EC00003900EA802900DE036A0F9E75346604635
:103ED000009AFCF7DFF984460398825C0298401E42
:103EE000029002705CEA0100F0D1029806A9081A5B
:103EF00000F1200A600702D524F4803400E0012795
:103F0000574502DDA7EB0A0000E0002000EB0A01A4
:103F1000009005984144401A0590E00306D45B46A2
:103F20002146179A059800F0B3F90544002706E0EA
:103F300001A85A46C05D179990476D1C7F1C4745E4
:103F4000F6DBE0030CD55B462146179A059800F096
:103F50009FF9054404E030205A46179990476D1C9C
:103F60000099481E00900029F5DC08E002980299AB
:103F70005A460078491C0291179990476D1CBAF176
:103F80000001AAF1010AF1DC65E100000928010045
:103F900030313233343536373839616263646566BF
:103FA0000000000030313233343536373839414281
:103FB000434445460000000000F058F90544761CD3
:103FC000307800287FF4ECAD19B02846BDE8F08FBA
:103FD000620700D4062709F1070222F0070CFCE86B
:103FE0000223E14603F000485FEA080C02D00FF21A
:103FF000702C0DE05FEA045C02D50FF2682C07E03C
:104000005FEAC47C02D00FF2602C01E0AFF2700CCA
:104010004FF0FF3823F00043CDF850C065280CD096
:1040200006DC452809D046281DD047283DD13DE073
:10403000662818D067287ED138E00021112F01DBD7
:10404000112000E0781CCDE9000106A90EA8FFF7B9
:10405000EDFCDDE90F010E9A03910021009207F1BA
:10406000010A04914DE04FF000400097CDE90110A6
:1040700006A90EA8FFF7DAFCDDE90F0203920E9BFA
:1040800011990022DDF80CA00093049211B9791C5B
:1040900000EB010AB7EB0A0004D4C0F1FF3007F1CE
:1040A000010A0490AAEB0700019044E0012F00DA16
:1040B00001270021112F01DD112000E03846CDE954
:1040C000000106A90EA8FFF7B1FCDDE90F010E9A69
:1040D0000391002104910092BA4621070CD4039960
:1040E000514500DA8A46BAF1010F05DD009AAAF1BE
:1040F0000101515C302908D0B84202DA10F1040FF6
:1041000006DA0121CDE9011015E0AAF10101E9E784
:10411000002805DC049901440491AAEB000102E0A7
:10412000411C514500DD8A460499401A401C01900B
:104130004FF000400290200704D40198504501DB65
:10414000CDF8048000208DF84F0002980DF14F0744
:10415000B0F1004F25D02B200E9002984FF00208AE
:1041600000280CDA404202902D200E9007E00A2130
:104170000298FCF779F83031029007F8011DB8F188
:104180000001A8F10108F2DC02980028EFD1791EA5
:104190000E980870307800F0200040F0450007F8D5
:1041A000020D12A8C01B00F107081498007800B196
:1041B000012000EB0A01019801EBE07105984144F0
:1041C000401A401E0590E00306D45B462146179A2C
:1041D000059800F05DF805441498007818B15A4627
:1041E000179990476D1CE00324D55B462146179A2A
:1041F000059800F04DF805441CE00498002807DB02
:10420000DDE90301884203DD0098405C179901E075
:10421000179930205A469047049805F10105401C33
:1042200004900198401E019004D12E205A461799FF
:1042300090476D1CBAF10001AAF1010ADDDC05E02E
:1042400017F8010B5A46179990476D1CB8F10001F9
:10425000A8F10108F4DC5B462146179A0598ABE605
:104260002D0000002B000000200000002DE9F0418F
:10427000044600251E461746880404D405E0394646
:104280002020B0476D1C641EF9D52846BDE8F0819A
:104290002DE9F041044600251E469046C80301D58D
:1042A000302700E02027880404D505E04146384641
:1042B000B0476D1C641EF9D52846BDE8F0810000AA
:1042C00013B54FF6FF73012269460248FEF746FA1E
:1042D00000981CBD400100209CB00025FCF780FF29
:1042E000FEF7D5FFFEF74CFDFEF77AFCFCF704FE67
:1042F000FEF7A0FDFEF726FFF548FDF7EDFD642271
:10430000F4A102A8FBF740FF02A8FBF74FFF82B21F
:104310004FF47A74234602A9F448FEF71FFA642288
:10432000F3A102A8FBF730FF02A8FBF73FFF82B220
:10433000234602A9ED48FEF711FA0722F249EB489D
:10434000FEF7BCF80021F148FDF7E0FFFEF78EFC18
:10435000EF490870FCF7D0FD0C21EC48FDF7D6FFC3
:10436000ECA0FFF743FB06E0F1A0FFF73FFB4FF4A3
:104370007A70FCF7F9FDFCF7ABFB0028F4D1F3A051
:10438000FFF734FB6846FCF73DFCFAA0FFF72EFB75
:10439000FEA0FFF72BFBDFF8F893FE4E4FF480579B
:1043A0004FF400680024DFF8F0A301229103504687
:1043B000FCF701FFFEF7DAFB40B96D1CEDB2042DEE
:1043C00000D100253188F548FEF7C8FDFEF7EAFB6D
:1043D000B0B9ADB1012D04D0022D08D0032D0FD1FD
:1043E0000AE031884FF4C850FEF7B8FD08E0318884
:1043F000EB48FEF7B3FD03E031880020FEF7A0FD97
:104400004FF4807B59465046FCF7CEFE28B9E04871
:104410000121001F4170FCF7E7FADD49091F087808
:104420000128C0D14888C0287ED048DC90287CD0A4
:104430001CDC02287AD0332879D08228B3D10C70C2
:104440004C70012291035046FCF7B5FE99F802200A
:1044500099F8011099F800003388FCF7CDF9594616
:104460005046FCF7A1FE00287ED0B2E0A0287CD008
:10447000B02898D10C704C7031880020FEF760FD98
:10448000FEF746FDC7490880002239465046FCF732
:1044900092FE002241465046FCF78DFE0220FCF7BA
:1044A00063FD012239465046FCF785FE0122414654
:1044B0005046FCF780FE0220FCF756FD73E7B0F58E
:1044C000817F7DD00BDCD0287BD0FF287AD0A0F56F
:1044D00080700138F2D10C70FEF7E2FC63E7A0F5C2
:1044E000807003386FD00128E8D10C70FEF7BEFB56
:1044F0000146ADA0FFF77AFA012239465046FCF793
:104500005AFE012241465046FCF755FE1420FCF7A6
:104510002BFD002239465046FCF74DFE0022414655
:104520005046FCF748FE03E097E1B1E004E075E097
:104530001420FCF719FD36E70C704C700122910332
:104540005046FCF738FE99F8022099F8011099F8C6
:1045500000003388FCF757F959465046FCF724FE13
:1045600008B9FCF741FA01E031E070E00220FCF705
:10457000FBFC59465046FCF717FE08B9FCF734FA25
:10458000012239465046FCF716FE002241465046AD
:10459000FCF711FE0220FCF7E7FC59465046FCF7F9
:1045A00003FE08B9FCF720FA59465046FCF7FCFD1B
:1045B00008B9FCF719FA89F8004089F8014003E0CE
:1045C00096E170E1F9E08FE189F80240EBE6FCF753
:1045D0000BFA0220FCF7C8FC002239465046FCF7D3
:1045E000EAFD012241465046FCF7E5FD594650469A
:1045F000FCF7DAFD08B9FCF7F7F90220FCF7B4FC88
:1046000059465046FCF7D0FD08B9FCF7EDF989F89A
:10461000004089F8014089F80240C4E60C704C70F3
:1046200099F8022099F8011099F800003388FEF7F4
:1046300043FD59465046FCF7B7FD08B9FCF7D4F9DD
:1046400089F8004089F8014089F80240ABE60C7017
:10465000FEF7D4FD1E20FCF787FC012239465046A8
:10466000FCF7A9FD012241465046FCF7A4FD1E209F
:10467000FCF77AFC002239465046FCF79CFD0022EC
:1046800041465046FCF797FD0A20FCF76DFC8AE690
:104690000C701D4841790079FCF750F91E20FCF799
:1046A00063FC012239465046FCF785FD0122414654
:1046B0005046FCF780FD1E20FCF756FC00223946D0
:1046C0005046FCF778FD00224146504672E000005B
:1046D000C8010020D5E2CAC7D2BBB8F6B4AEBFDA73
:1046E000D6D0B6CFB3CCD0F2200A000040010020D3
:1046F000CAE4C8EBCAFDBEDDB2A2D2D4BBD8B3B502
:10470000BCFCBDE1CAF80A00400000208001002086
:104710001800002044533138423230CEC2B6C8B4FB
:10472000ABB8D0C6F7D0C5CFA2B6C1C8A10A0000A9
:1047300044533138423230CEC2B6C8B4ABB8D0C61A
:10474000F7B2BBB4E6D4DA0A00000000BCECB2E277
:10475000B5BD44533138423230CEC2B6C8B4ABB81E
:10476000D0C6F7A3ACB2A2B3F5CABCBBAFB3C9B94C
:10477000A60A000044533138423230B5C4D0F2C1E9
:10478000D0BAC5CAC7A3BA20307800000A0000001A
:104790000C0000201E000020000C01400083FFFFE1
:1047A00000E7FFFF20000020425256203D202564F4
:1047B000200A0000FCF7FFFCF5E50C7000223946EA
:1047C0005046FCF7F8FC002241465046FCF7F3FC4B
:1047D000C820FCF7C9FB012239465046FCF7EBFC28
:1047E000012241465046FCF7E6FCC820FCF7BCFB22
:1047F000002239465046FCF7DEFC00224146504676
:10480000FCF7D9FCC820FCF7AFFB01223946504623
:10481000FCF7D1FC012241465046FCF7CCFCC820F5
:10482000FCF7A2FB002239465046FCF7C4FC0022EC
:1048300041465046FCF7BFFCC820FCF795FB01221F
:1048400039465046FCF7B7FC012241465046FCF77A
:10485000B2FCC820FCF788FBA5E50C703248417912
:10486000324801700078FEF737FAFCF745FB0C215F
:104870002F48FDF74BFD002239465046FCF79BFCC4
:10488000012241465046FCF796FC0A20FCF76CFBDF
:10489000012239465046FCF78EFC00224146504624
:1048A000FCF789FC7FE50C70FCF77CFA0A20FCF72A
:1048B0005BFB012239465046FCF77DFC0122414654
:1048C0005046FCF778FC0A20FCF74EFB00223946E4
:1048D0005046FCF770FC002241465046FCF76BFC4A
:1048E0000A20FCF741FB5EE50C70FCF7E7F95AE59E
:1048F0000C706846FCF7AFF8FBF787FC824602466F
:104900000B460CA01B91FFF771F84FF47A7B5846C9
:10491000FCF72AFB524607A01B9BFFF767F8584697
:10492000FCF722FB3FE500004000002018000020BB
:1049300080010020BBF1C8A1B8C3D0F2C1D0BAC574
:10494000C6F7BCFEB5C4CEC2B6C8A3BA252E316622
:104950000A00000000000000010203040102030439
:1049600006070809000102030405060708090A0BE7
:104970000C0D0E0F944900080000002040000000BC
:104980000C3A0008D449000840000020C813000079
:104990001C3A000800A24A040000000000000000C9
:1049A0000000000000000000000000000000000007
:1049B0000000F40100000000000000000000000002
:1049C00000000000000000000000000000000000E7
:0449D00000000000E3
:0400000508000131BD
:00000001FF
