:020000040800F2
:1000000050100020B91D0008BD1C0008BF1C0008CE
:10001000C11C0008C31C0008C51C0008000000002B
:10002000000000000000000000000000D51D0008D6
:10003000C71C000800000000D91D0008C91C0008EA
:10004000DD1D0008E11D0008E51D0008E91D000890
:10005000ED1D0008F11D0008F51D0008F91D000840
:10006000FD1D0008011E0008051E0008091E0008ED
:100070000D1E0008111E0008151E0008191E00089C
:100080001D1E0008211E0008251E0008291E00084C
:100090002D1E0008311E0008351E0008391E0008FC
:1000A0003D1E0008411E0008451E0008491E0008AC
:1000B0004D1E0008511E0008551E0008591E00085C
:1000C0005D1E0008611E0008651E0008691E00080C
:1000D0006D1E0008D51C0008711E0008751E000862
:1000E000791E00087D1E0008811E0008851E00087C
:1000F000891E00088D1E0008911E0008951E00082C
:10010000991E00089D1E0008A11E0008A51E0008DB
:10011000A91E0008AD1E0008B11E0008B51E00088B
:10012000B91E0008BD1E0008C11E0008C51E00083B
:1001300038B5040000252078C00740F10D81DFF8B4
:10014000040C006810F00C0004280BD0DFF8F40B4E
:10015000006810F00C0008282AD1DFF8E80B0068CE
:10016000C00325D54FF48040B0FA80F050F0200055
:10017000C0B24009C0B2012803D1DFF8EC0B00681F
:1001800006E04FF48040B0FA80F0DFF8E00B006842
:100190004FF48041B1FA81F111F01F01C840C0074E
:1001A00040F1DA806068002840F0D6800120A6E3A4
:1001B000DFF8B40B006830F48030DFF8AC1B086067
:1001C000DFF8A40B006830F48020DFF89C1B086087
:1001D00000F011FE05004FF48040B0FA80F050F0BE
:1001E0002000C0B24009C0B2012803D1DFF8780B6B
:1001F000006806E04FF48040B0FA80F0DFF86C0B46
:1002000000684FF48041B1FA81F111F01F01C8403C
:10021000C00706D500F0EFFD401B6528DBD30320A7
:100220006DE36068B0F5803F08D1DFF83C0B0068F3
:1002300050F48030DFF8301B086038E06068002838
:1002400010D1DFF8240B006830F48030DFF8181B81
:100250000860DFF8140B006830F48020DFF8081B1A
:10026000086024E06068B0F5A02F10D1DFF8F80A2C
:10027000006850F48020DFF8F01A0860DFF8E80A20
:10028000006850F48030DFF8E01A08600FE0DFF813
:10029000D80A006830F48030DFF8CC1A0860DFF844
:1002A000C80A006830F48020DFF8BC1A0860606873
:1002B000002828D000F09FFD05004FF48040B0FAE0
:1002C00080F050F02000C0B24009C0B2012803D134
:1002D000DFF8940A006806E04FF48040B0FA80F03E
:1002E000DFF8880A00684FF48041B1FA81F111F01B
:1002F0001F01C840C0072FD400F07DFD401B6528BA
:10030000DBD30320FBE200F076FD05004FF48040D4
:10031000B0FA80F050F02000C0B24009C0B201280D
:1003200003D1DFF8440A006806E04FF48040B0FAD9
:1003300080F0DFF8380A00684FF48041B1FA81F1AB
:1003400011F01F01C840C00706D500F054FD401B46
:100350006528DBD30320D2E22078800740F1BF80FC
:10036000DFF8E009006810F00C0F0BD0DFF8D409BB
:10037000006810F00C00082839D1DFF8C8090068BF
:10038000C00334D45FF08040B0FA80F050F0200019
:10039000C0B24009C0B2012803D1DFF8CC0900681F
:1003A00006E05FF08040B0FA80F0DFF8C009006836
:1003B0005FF08041B1FA81F111F01F01C840C00720
:1003C00004D52069012801D0012098E2DFF89809BE
:1003D00000685FF0F851B1FA81F130F0F80062691D
:1003E00012FA01F10843DFF88019086077E020690C
:1003F000002842D001205FF00041B1FA81F1DFF81E
:10040000702942F8210000F0F6FC05005FF0804002
:10041000B0FA80F050F02000C0B24009C0B201280C
:1004200003D1DFF84409006806E05FF08040B0FACD
:1004300080F0DFF8380900685FF08041B1FA81F19F
:1004400011F01F01C840C00706D400F0D4FC401BC7
:100450000328DBD3032052E2DFF80C0900685FF0C9
:10046000F851B1FA81F130F0F800626912FA01F145
:100470000843DFF8F418086031E000205FF0004125
:10048000B1FA81F1DFF8E82842F8210000F0B3FC6E
:1004900005005FF08040B0FA80F050F02000C0B25C
:1004A0004009C0B2012803D1DFF8BC08006806E0AB
:1004B0005FF08040B0FA80F0DFF8B00800685FF0CD
:1004C0008041B1FA81F111F01F01C840C00706D583
:1004D00000F091FC401B0328DBD303200FE22078BF
:1004E000000754D5A06900282AD001205FF0004100
:1004F000B1FA81F1DFF87C2842F8210000F07BFCA2
:1005000005005FF08040B0FA80F05FF08040B0FA04
:1005100080F0DFF8580800685FF08041B1FA81F19F
:1005200011F01F01C840C00706D400F064FC401B56
:100530000328E6D30320E2E1012000F05FFC26E07F
:1005400000205FF00041B1FA81F1DFF8282842F87D
:10055000210000F050FC05005FF08040B0FA80F010
:100560005FF08040B0FA80F0DFF8000800685FF0CC
:100570008041B1FA81F111F01F01C840C00706D5D2
:1005800000F039FC401B0328E6D30320B7E12078B4
:10059000400740F1FE80DFF8E007006850F080502F
:1005A000DFF8D4170860DFF8D007006810F080503B
:1005B00000900098DFF8C407006850F48070DFF8FE
:1005C000BC17086000F017FC0500DFF8B0070068F2
:1005D000C00506D400F00FFC401B6528F5D30320AE
:1005E0008DE1DFF89C07006840084000DFF89017B5
:1005F0000860DFF88C07006830F00400DFF880172F
:10060000086000F0F8FB05005FF08040B0FA80F071
:100610005FF08040B0FA80F050F04000C0B2400976
:10062000C0B2022803D1DFF85807006802E0DFF803
:100630003C0700685FF08041B1FA81F111F01F01C1
:10064000C840C00708D500F0D6FB401B41F28931F5
:100650008842D9D3032052E1E068012808D1DFF8AD
:100660002007006850F00100DFF81417086037E039
:10067000E068002810D1DFF8080700684008400053
:10068000DFF8FC160860DFF8F806006830F00400B8
:10069000DFF8EC16086023E0E068052810D1DFF8E9
:1006A000E006006850F00400DFF8D4160860DFF8B8
:1006B000D006006850F00100DFF8C41608600FE0B3
:1006C000DFF8BC06006840084000DFF8B416086098
:1006D000DFF8AC06006830F00400DFF8A41608600C
:1006E000E06800282AD000F086FB05005FF080401B
:1006F000B0FA80F05FF08040B0FA80F050F0400037
:10070000C0B24009C0B2022803D1DFF87406006805
:1007100002E0DFF8580600685FF08041B1FA81F12D
:1007200011F01F01C840C00733D400F064FB401B28
:1007300041F289318842D9D30320E0E000F05BFB2D
:1007400005005FF08040B0FA80F05FF08040B0FAC2
:1007500080F050F04000C0B24009C0B2022803D17E
:10076000DFF81C06006802E0DFF8000600685FF0B2
:100770008041B1FA81F111F01F01C840C00708D5CE
:1007800000F039FB401B41F289318842D9D3032064
:10079000B5E0E069002800F0B180DFF8A805006846
:1007A00010F00C00082800F0A780E069022875D13D
:1007B00000208021B1FA81F1DFF8B42542F8210050
:1007C00000F019FB05004020B0FA80F050F0200046
:1007D000C0B24009C0B2012803D1DFF88C0500681F
:1007E00005E04020B0FA80F0DFF880050068402185
:1007F000B1FA81F111F01F01C840C00706D500F021
:10080000FAFA401B0328DED3032078E0206AB0F513
:10081000803F09D1DFF82C05006830F40030A16872
:100820000843DFF820150860DFF81805006830F489
:100830007410216A0843616A0843DFF808150860EC
:1008400001208021B1FA81F1DFF8242542F821004E
:1008500000F0D1FA05004020B0FA80F050F02000FE
:10086000C0B24009C0B2012803D1DFF8FC0400681F
:1008700005E04020B0FA80F0DFF8F0040068402185
:10088000B1FA81F111F01F01C840C00736D400F061
:10089000B2FA401B0328DED3032030E00020802181
:1008A000B1FA81F1DFF8C82442F8210000F0A3FA80
:1008B00005004020B0FA80F050F02000C0B240099E
:1008C000C0B2012803D1DFF8A004006805E0402091
:1008D000B0FA80F0DFF8940400684021B1FA81F1A9
:1008E00011F01F01C840C00708D500F084FA401B72
:1008F0000328DED3032002E0012000E0002032BD07
:1009000070B504000D000026DFF87804006810F0D0
:100910000700A84280F0CE80DFF868040068C008B5
:10092000C0002843DFF85C140860DFF85804006852
:1009300010F00700A84201D0012099E1207880073B
:1009400009D5DFF84404006830F0F000A1680843DE
:10095000DFF8341408602078C00740F16E816068C9
:10096000012820D14FF48040B0FA80F050F02000F0
:10097000C0B24009C0B2012803D1DFF8EC0300681F
:1009800006E04FF48040B0FA80F0DFF8E003006842
:100990004FF48041B1FA81F111F01F01C840C00746
:1009A00043D4012064E1606802281DD14020B0FAE0
:1009B00080F050F02000C0B24009C0B2012803D13D
:1009C000DFF8A403006805E04020B0FA80F0DFF80B
:1009D0009C0300684021B1FA81F111F01F01C84069
:1009E000C00722D4012043E15FF08040B0FA80F0DC
:1009F00050F02000C0B24009C0B2012803D1DFF896
:100A00006803006806E05FF08040B0FA80F0DFF82D
:100A10005C0300685FF08041B1FA81F111F01F01C1
:100A2000C840C00701D4012022E1DFF85C03006860
:100A30008008800061680843DFF84C13086000F00C
:100A4000DAF906006068012810D1DFF83C0300687D
:100A500010F00C00042800F0F08000F0CCF9801BAE
:100A600041F289318842F0D3032001E16068022815
:100A700010D1DFF81403006810F00C00082800F013
:100A8000DC8000F0B8F9801B41F289318842F0D354
:100A90000320EDE0DFF8F002006810F00C0F00F02A
:100AA000CC8000F0A8F9801B41F289318842F1D353
:100AB0000320DDE02078800709D5DFF8CC0200684C
:100AC00030F0F000A1680843DFF8BC12086020781D
:100AD000C00740F1A380606801281FD14FF4804017
:100AE000B0FA80F050F02000C0B24009C0B2012836
:100AF00002D19D48006806E04FF48040B0FA80F0D3
:100B0000DFF8680200684FF48041B1FA81F111F01A
:100B10001F01C840C00741D40120A9E06068022835
:100B20001CD14020B0FA80F050F02000C0B2400943
:100B3000C0B2012802D18C48006805E04020B0FA1C
:100B400080F0DFF8280200684021B1FA81F111F04D
:100B50001F01C840C00721D4012089E05FF0804018
:100B6000B0FA80F050F02000C0B24009C0B20128B5
:100B700002D17D48006806E05FF08040B0FA80F066
:100B8000DFF8E80100685FF08041B1FA81F111F00F
:100B90001F01C840C00701D4012069E0DFF8E80167
:100BA00000688008800061680843DFF8DC11086095
:100BB00000F021F90600606801280FD1DFF8C801B4
:100BC000006810F00C00042828D000F014F9801BF5
:100BD00041F289318842F1D3032049E0606802285C
:100BE0000ED16948006810F00C00082816D000F0FB
:100BF00002F9801B41F289318842F2D3032037E0A9
:100C00006148006810F00C0F08D000F0F4F8801B69
:100C100041F289318842F3D3032029E05948006822
:100C2000C008C0002843574908605648006810F0C3
:100C30000700A84201D001201AE02078400707D51C
:100C40005148006830F4E060E16808434E490860AC
:100C50002078000708D54C48006830F460502169BE
:100C600050EAC10048490860002000F0ACF80020BC
:100C700070BDF0B585B001A84449102200F0E0F83D
:100C800043480088ADF80000002100220023002422
:100C900000202C4D2D68290011F00C05042D02D0E8
:100CA000082D03D026E03B4D280025E001AD11F4CE
:100CB00070164FF47057B7FA87F7FE40755D2C0039
:100CC000CD0311D51F4D2D686E4615F400354FF438
:100CD0008047B7FA87F7FD40AD5D2A002D4DB5FB83
:100CE000F2F565432B0003E02B4D05FB04F52B00CB
:100CF000180001E0274D280005B0F0BD80B5FFF7D2
:100D0000B8FF104909685FF07062B2FA82F2234BB3
:100D100011F0F001D140C95CC84021490860204869
:100D2000006802BD80B5FFF7E9FF064909685FF476
:100D30006002B2FA82F2194B11F4E061D140C95C51
:100D4000C84002BD0410024080B5FFF7D7FF0E492E
:100D500009685FF4E012B2FA82F2104B11F46051AC
:100D6000D140C95CC84002BD0010024024100240BE
:100D700000004242800442421C10024000700040C9
:100D8000201002400020024004100240981D00087C
:100D9000960E000800127A0000093D00A81D000808
:100DA0000000002080B51C48006850F010001A496F
:100DB0000860032000F0D8F8002000F004F800F0EC
:100DC0001FF9002002BD10B50400FFF797FF4FF494
:100DD0007A71B0FBF1F000F0E7F8002221005FF03B
:100DE000FF3000F0C7F8002010BD0C480068401C20
:100DF0000A490860704709480068704711B581B01A
:100E00000024FFF7F8FF0400FFF7F5FF001B01992E
:100E10008842F9D313BD00000020024044000020A6
:100E200062B38B0708D0521E11F8013B00F8013B5A
:100E300000F024808B07F6D1830740F0208000BFAC
:100E4000103A07D330B4B1E83810103AA0E838109F
:100E5000F9D230BC530724BFB1E80810A0E808104D
:100E600044BF51F8043B40F8043BD20724BF31F89B
:100E7000022B20F8022B44BF0B7803707047083A0E
:100E800007D3B1E80810083A40F8043B40F804CB17
:100E9000F7D25307E4E7010210F007024D4B1B683D
:100EA00019004FF6FF0319404B4B53EA0223194335
:100EB000484B1960704747480068C0F302207047EC
:100EC000012110F01F029140444A40B2430942F808
:100ED0002310704710B440B2002808D50A01404BD7
:100EE00040B210F00F04E31803F8042C03E00A01E9
:100EF0003C4B40B2C25410BC704770B4030013F0B6
:100F00000704D4F10706052E01D3042001E0D4F133
:100F10000700261D072E01D2002500E0E51E012650
:100F200016FA00F0401E0840A8400121A940491EC1
:100F30001140084370BC704710B50400601EB0F14A
:100F4000807F01D301200EE0601E274908600F2139
:100F50005FF0FF30FFF7BEFF002024490860072044
:100F600023490860002010BD10B504002000FFF7E1
:100F700093FF10BDF8B504000D0016000027FFF721
:100F80009AFF0700320029003800FFF7B6FF010082
:100F9000200040B2FFF79EFFF1BD10B50400200015
:100FA00040B2FFF78DFF10BD10B504002000FFF721
:100FB000C3FF10BD042806D10D49096851F0040192
:100FC0000B4A116005E00A49096831F00401084A3A
:100FD000116070470CED00E00000FA0500E100E050
:100FE00018ED00E000E400E014E000E018E000E0AC
:100FF00010E000E080B500F001F801BD704700008E
:1010000080B53048006850F001002E4908602D4836
:10101000006810F00100009000980520FFF7A4FF81
:10102000002200217FF00B00FFF7A4FF0022002127
:101030007FF00A00FFF79EFF002200217FF00900E9
:10104000FFF798FF002200217FF00300FFF792FFD7
:10105000002200215FF0FF30FFF78CFF01BD10B5CB
:1010600086B0040020681849884229D115480068D4
:1010700050F48040134908601248006810F4804022
:10108000009000984FF4007001900220029003201D
:10109000049001A90D4800F01BF84FF48060019006
:1010A000002002900020039001A9084800F010F8E9
:1010B000002201212520FFF75DFF2520FFF76DFFAE
:1010C00006B010BD18100240003801400008014071
:1010D0002DE9F84100230024002500265FF0000ED2
:1010E0005FF0000C6246102A80F05B815FF0010C1B
:1010F0001CFA02FC6346D1F800C013EA0C0C6446EB
:101100009C4240F04C81D1F804C0BCF1000F3DD0AE
:10111000BCF1010F24D0BCF1020F2BD0BCF1030FA6
:101120004CD0BCF1110F1FD0BCF1120F28D0DFF84A
:101130007882C4452AD0DFF87482C44526D0DFF80F
:101140007082C44522D0DFF86C82C4451ED0DFF81F
:101150006882C4451AD0DFF86482C44516D031E0F5
:10116000D1F80CC066462DE0D1F80CC01CF1040C7F
:10117000664627E0D1F80CC01CF1080C664621E059
:10118000D1F80CC01CF10C0C66461BE0D1F808C06D
:10119000BCF1000F03D15FF0040C66460DE0D1F8FE
:1011A00008C0BCF1010F04D15FF0080C6646036172
:1011B00003E05FF0080C6646436103E05FF0000C5B
:1011C0006646FFE7FF2C01D8070000E0071DFF2C53
:1011D00002D85FEA820E03E0B2F1080C5FEA8C0EDF
:1011E000D7F800C05FF00F0818FA0EF83CEA080CB8
:1011F00016FA0EF858EA0C0CC7F800C0D1F804C073
:101200005FEACC0C40F1CB80DFF8B4C1DCF800C061
:101210005CF0010CDFF8A881C8F800C0DFF8A0C1BD
:10122000DCF800C01CF00108CDF80080DDF800C03B
:10123000DFF890C15FEA92085CF828C065465FF06D
:101240000F0C12F003085FFA88F85FEA88081CFAAE
:1012500008FC35EA0C05DFF870C1604502D15FF08B
:10126000000C24E0DFF864C1604502D15FF0010C9E
:101270001DE0DFF85CC1604502D15FF0020C16E0B2
:10128000DFF850C1604502D15FF0030C0FE0DFF8DA
:1012900048C1604502D15FF0040C08E0DFF83CC1B2
:1012A000604502D15FF0050C01E05FF0060C12F022
:1012B00003085FFA88F85FEA88081CFA08FC5CEA11
:1012C0000505DFF800C15FEA92084CF82850D1F814
:1012D00004C05FEACC3C0AD5DFF804C1DCF800C0EA
:1012E00054EA0C0CDFF8F880C8F800C009E0DFF819
:1012F000F0C0DCF800C03CEA040CDFF8E480C8F879
:1013000000C0D1F804C05FEA8C3C0AD5DFF8D4C035
:10131000DCF800C054EA0C0CDFF8C880C8F800C044
:1013200009E0DFF8C0C0DCF800C03CEA040CDFF8DC
:10133000B480C8F800C0D1F804C05FEACC2C0AD54C
:10134000DFF8A4C0DCF800C054EA0C0CDFF8988089
:10135000C8F800C009E0DFF890C0DCF800C03CEA43
:10136000040CDFF88480C8F800C0D1F804C05FEA3C
:101370008C2C0AD5DFF874C0DCF800C054EA0C0CE1
:10138000DFF86880C8F800C009E0DFF860C0DCF86A
:1013900000C03CEA040CDFF85480C8F800C0521CBE
:1013A000A1E6BDE8F181000000001110000012105C
:1013B0000000211000002210000031100000321047
:1013C000181002400800014000080140000C0140D4
:1013D000001001400014014000180140001C0140B1
:1013E0000004014004040140080401400C040140D1
:1013F00010B50400002C01D1012030E0A0690028C4
:10140000FFD194F93900002805D1002084F8380074
:101410002000FFF724FE022084F839002068C0680D
:1014200030F400502168C860200000F092FA206873
:10143000006930F49040216808612068406930F00C
:101440002A00216848612068C06850F40050216873
:10145000C8600020E063012084F83900002010BD3E
:101460002DE9F84304000D0016001F005FF000098D
:1014700094F939008146B9F1010F02D0B9F1220F78
:1014800069D1002D02D0B6B2002E01D1012063E057
:1014900094F93800012801D102205DE0012084F890
:1014A00038000020E06394F93900222803D132206B
:1014B00084F8390002E0122084F83900A684E6841A
:1014C000E08C00282DD0E08C401EE084A068B0F5B0
:1014D000805F17D13B0000228021200000F011F92D
:1014E000002801D0032037E0A846B8F80000C00566
:1014F000C00D216848602069002801D1AD1CDFE7DC
:101500006D1CDDE73B0000228021200000F0F9F88F
:10151000002801D003201FE02878216848606D1C56
:10152000CEE73B0000224021200000F0EAF800282E
:1015300001D0032010E094F93900322803D1222091
:1015400084F8390002E0012084F83900002084F892
:101550003800002000E00220BDE8F28330B4030030
:10156000002493F939000400012C01D0122C36D14B
:10157000002902D092B2002A01D1012030E093F973
:101580003800012801D102202AE0012083F8380028
:1015900099629A85DA850020D86393F93900122878
:1015A00003D1322083F8390002E0222083F8390089
:1015B000002083F838001868C06850F480701D68F7
:1015C000E8601868406950F001001D68686118689B
:1015D000C06850F020001D68E860002000E0022094
:1015E00030BC704770B582B004000025002620682A
:1015F000006810F0010005002068C06810F48070D9
:101600000600002D05D0002E03D0E06B50F0010045
:10161000E06320680068400810F0010005002068C1
:10162000406910F001000600002D05D0002E03D007
:10163000E06B50F00400E06320680068800810F060
:1016400001000500002D05D0002E03D0E06B50F006
:101650000200E06320680068C00810F00100050087
:10166000002D05D0002E03D0E06B50F00800E063A1
:1016700020680068400910F0010005002068C0687B
:1016800010F020000600002D04D0002E02D0200013
:1016900000F0FDF820680068C00910F001000500A6
:1016A0002068C06810F080000600002D04D0002ED5
:1016B00002D0200000F096F820680068800910F041
:1016C000010005002068C06810F040000600002DF1
:1016D00004D0002E02D0200000F0C1F8E06B0028FA
:1016E0000CD0206800680090206840680090009846
:1016F000012084F83900200000F002F873BD704723
:1017000070472DE9F04104000D0016001F005FF046
:101710000008FFF770FB804676B2002E2FD12068BC
:1017200000682840A8425AD017F1010FF7D0002FC7
:1017300005D0FFF760FBB0EB08008742EFD22068CE
:10174000C06830F080002168C8602068C06830F050
:1017500020002168C8602068C06830F4807021686B
:10176000C860206840694008400021684861012045
:1017700084F83900002084F83800032030E0206825
:1017800000682840A8422AD117F1010FF7D0002F96
:1017900005D0FFF730FBB0EB08008742EFD220689E
:1017A000C06830F080002168C8602068C06830F0F0
:1017B00020002168C8602068C06830F4807021680B
:1017C000C8602068406940084000216848610120E5
:1017D00084F83900002084F83800032000E000205D
:1017E000BDE8F08110B40100002391F93900030035
:1017F000122B01D0322B2FD18868B0F5805F11D128
:10180000086A02001088C005C00D0C686060086995
:10181000002803D1086A801C086209E0086A401C9D
:10182000086205E0086A441C0C6200780C6860607D
:10183000C88C401EC884C88C00280BD10868C068BA
:1018400030F080000C68E0600868C06850F040002C
:101850000C68E060002000E0022010BC704710B56A
:1018600004002068C06830F040002168C86094F926
:101870003900322803D1222084F8390002E0012007
:1018800084F839002000FFF73AFF002010BD70B542
:101890000400002694F939000600222E01D0322ED1
:1018A00055D1A068B0F5805F15D1A06A0500206908
:1018B000002808D120684068C005C00D2880A06AB3
:1018C000801CA06219E020684068C0B22880A06A2D
:1018D000401CA06211E02069002806D1A06A411CCA
:1018E000A16221684968017007E0A06A411CA162F9
:1018F0002168496811F07F010170E08D401EE0858C
:10190000E08D002821D12068C06830F020002168D7
:10191000C86094F93900322803D1122084F83900C4
:101920000EE02068C06830F480702168C8602068CC
:1019300040694008400021684861012084F839006E
:10194000200000F0FCF8002002E0002000E002206F
:1019500070BDF8B5040000252068006930F44050DF
:10196000E168084321680861A0682169084361694A
:10197000084305002068C0683949084028432168A9
:10198000C8602068406930F44070A169084321684C
:10199000486120683349884230D1FFF7D5F9070004
:1019A000FFF7D2F90600FFF7CFF9192101FB07F184
:1019B00062689200B1FBF2F16422B1FBF2F11922EC
:1019C00002FB06F263689B00B2FBF3F21923584353
:1019D00063689B00B0FBF3F06423B0FBF3F0642377
:1019E00003FB1020000132306422B0FBF2F010F053
:1019F0000F0050EA0110216888602FE0FFF792F98C
:101A00000700FFF78FF90600FFF78CF9192101FB9A
:101A100007F162689200B1FBF2F16422B1FBF2F1CE
:101A2000192202FB06F263689B00B2FBF3F2192352
:101A3000584363689B00B0FBF3F06423B0FBF3F002
:101A4000642303FB1020000132306422B0FBF2F06B
:101A500010F00F0050EA011021688860F1BD00000D
:101A6000F3E9FFFF0038014000B58FB00120059079
:101A70005FF4803006900020079002200C905FF405
:101A800080300D905FF4E0100E9005A8FEF750FB3B
:101A90000F20009002200190002002904FF48060FF
:101AA00003900020049002216846FEF729FFFFF70B
:101AB00025F94FF47A71B0FBF1F0FFF775FA0420C5
:101AC000FFF778FA002200215FF0FF30FFF752FAAB
:101AD0000FB000BD2DE9F0418EB0FFF763F9FFF7BD
:101AE000C3FF00F04DF864241C4D6E46220029000F
:101AF0003000FFF795F9684600F074F84FF47A73F8
:101B0000020092B269461648FFF7AAFC6426154FF8
:101B1000E846320039004046FFF782F9684600F097
:101B200061F802004FF47A7392B269460C48FFF7ED
:101B300097FC01220C490A48FFF710FDFEE710B59B
:101B400004000023012208490548FFF789FC01220F
:101B500005490348FFF702FD10BD00001C1D0008E9
:101B600004000020801D00084800002080B50022ED
:101B700001212520FFF7FEF92520FFF70EFA01BD10
:101B800080B51548006850F00400134908601248F9
:101B9000006810F004000090009810481049086098
:101BA0005FF4E1300E49486000200D498860002054
:101BB0000B49C86000200A4908610C2008494861A7
:101BC00000200749886100200549C8610448FFF7E3
:101BD0000FFCFFF7CBFF01BD181002400038014099
:101BE0000400002000F10103810704D010F8011B5C
:101BF00089B18107FAD10268B2F10131914311F044
:101C0000803F04BF50F8042FF6E710F8011B11B114
:101C100010F8011BFBE7C01A70470000134800686A
:101C200050F001001149086011480068114908404E
:101C30000F4908600D4800680F4908400B490860CB
:101C40000A48006830F480200849086008480068A5
:101C500030F4FE00064908605FF41F000749086081
:101C60005FF0006006490860704700000010024005
:101C7000041002400000FFF8FFFFF6FE08100240CB
:101C800008ED00E030B5016842688468091801EB8E
:101C90005203D20748BF4C440C30994200D130BDAA
:101CA00011F9012B11F8015B002A04F8015B02D540
:101CB000521CF9D1F1E7521EF4D5EEE77047FEE76A
:101CC000FEE7FEE7FEE7FEE780B5FFF78EF8FFF7D9
:101CD00091F901BD80B50248FFF784FC01BD000009
:101CE0000400002010B5074979441831064C7C44A3
:101CF000163404E00A68081D511888470146A142BD
:101D0000F8D110BD080000001400000079FFFFFFAB
:101D1000B80100000E00000000000020D5E2CAC794
:101D2000D2BBB8F6B4AEBFDAD6D0B6CFBDD3CAD523
:101D3000BBD8CFD4CAB5D1E90A00000000F00BF837
:101D4000002801D0FFF7CEFF0020C046C046FFF7B5
:101D5000C1FE00F002F80120704700F001B8000059
:101D60000746384600F002F8FBE7000080B5C046A1
:101D7000C046024A11001820ABBEFBE72600020055
:101D8000CAE4C8EBCAFDBEDDB2A2D2D4BBD8B3B59B
:101D9000BCFCBDE1CAF80A000203040506070809F5
:101DA0000A0B0C0D0E0F10100000000001020304BE
:101DB000010203040607080901488047014800475B
:101DC0001D1C0008C91D0008C046C046C046C046CC
:101DD000FFF7B4FFFFF7FEBFFFF7FEBFFFF7FEBF41
:101DE000FFF7FEBFFFF7FEBFFFF7FEBFFFF7FEBF27
:101DF000FFF7FEBFFFF7FEBFFFF7FEBFFFF7FEBF17
:101E0000FFF7FEBFFFF7FEBFFFF7FEBFFFF7FEBF06
:101E1000FFF7FEBFFFF7FEBFFFF7FEBFFFF7FEBFF6
:101E2000FFF7FEBFFFF7FEBFFFF7FEBFFFF7FEBFE6
:101E3000FFF7FEBFFFF7FEBFFFF7FEBFFFF7FEBFD6
:101E4000FFF7FEBFFFF7FEBFFFF7FEBFFFF7FEBFC6
:101E5000FFF7FEBFFFF7FEBFFFF7FEBFFFF7FEBFB6
:101E6000FFF7FEBFFFF7FEBFFFF7FEBFFFF7FEBFA6
:101E7000FFF7FEBFFFF7FEBFFFF7FEBFFFF7FEBF96
:101E8000FFF7FEBFFFF7FEBFFFF7FEBFFFF7FEBF86
:101E9000FFF7FEBFFFF7FEBFFFF7FEBFFFF7FEBF76
:101EA000FFF7FEBFFFF7FEBFFFF7FEBFFFF7FEBF66
:101EB000FFF7FEBFFFF7FEBFFFF7FEBFFFF7FEBF56
:0F1EC000FFF7FEBFFFF7FEBF0300A24A04BB00FF
:0400000508001DC909
:00000001FF
